:100000008DEF00F0FF00FF00BEED35F0FF00FF00B8
:10001000FF00FF00FF00FF00D8CF80F0E8CF81F0A5
:10002000E0CF82F0E9CF83F0EACF84F0E1CF85F032
:10003000E2CF86F0D9CF87F0DACF88F0F3CF89F01E
:10004000F4CF8AF048C08BF049C08CF04AC08DF0E4
:100050004BC08EF04CC08FF04DC090F04EC091F070
:100060004FC092F050C093F051C094F052C095F040
:1000700053C096F01CEE40F09DAC41EF00F043EF12
:1000800000F04DEF00F09EAC48EF00F04AEF00F0BA
:100090004DEF00F09E9C4BEC2CF09DA052EF00F039
:1000A00054EF00F05EEF00F09EA059EF00F05BEF20
:1000B00000F05EEF00F09E9071EC10F096C053F0EF
:1000C00095C052F094C051F093C050F092C04FF0E0
:1000D00091C04EF090C04DF08FC04CF08EC04BF0F0
:1000E0008DC04AF08CC049F08BC048F08AC0F4FF44
:1000F00089C0F3FF88C0DAFF87C0D9FF86C0E2FF5E
:1001000085C0E1FF84C0EAFF83C0E9FF82C0E0FF51
:1001100081C0E8FF80C0D8FF100015EEC0F088EF66
:100120003BF0E652E652E652E652FB0EE124D96E6F
:10013000FF0EE220DA6EDF50536E800E5316FF0E74
:1001400053C0E3FFFB0EE124D96EFF0EE220DA6E0E
:10015000DF50536ED8905334526EFD0E52C0E3FF01
:10016000FA0EE124D96EFF0EE220DA6EDFAEBBEFAD
:1001700000F0BDEF00F0BFEF00F0FD0EE380FD0EDC
:10018000E350D8B4C6EF00F0C8EF00F0F0EF00F095
:10019000FD0EE328D8A4CFEF00F0D1EF00F0E5EF9B
:1001A00000F0000E506E000E516E000E526E000EEA
:1001B000536EF80E50C0E3FFF90E51C0E3FFFA0E84
:1001C00052C0E3FFFB0E53C0E3FFFA0EE38EFB0EBB
:1001D000E124D96EFF0EE220DA6EDF6A04EF01F04F
:1001E000000E506E000E516E000E526E000E536ED9
:1001F000F80E50C0E3FFF90E51C0E3FFFA0E52C0F3
:10020000E3FFFB0E53C0E3FFF70EE124D96EFF0EB0
:10021000E220DA6EDF50536E800E5316FE0E53C08E
:10022000E3FFE150FE0FD96EE250DA6EFF0EDA22E4
:10023000FF0EE350DE18D8B420EF01F022EF01F0FA
:1002400024EF01F0FF0EE38CF70EE124D96EFF0ED0
:10025000E220DA6EDF50536ED8905334526EFE0EA9
:1002600052C0E3FFF60EE124D96EFF0EE220DA6EF3
:10027000DFAE3DEF01F03FEF01F041EF01F0FE0E88
:10028000E380FE0EE350D8B448EF01F04AEF01F0EE
:1002900072EF01F0FE0EE328D8A451EF01F053EF06
:1002A00001F067EF01F0000E506E000E516E000E6F
:1002B000526E000E536EF40E50C0E3FFF50E51C0A7
:1002C000E3FFF60E52C0E3FFF70E53C0E3FFF60E56
:1002D000E38EF70EE124D96EFF0EE220DA6EDF6ABC
:1002E00086EF01F0000E506E000E516E000E526E41
:1002F000000E536EF40E50C0E3FFF50E51C0E3FF45
:10030000F60E52C0E3FFF70E53C0E3FFE150FE0FBD
:10031000D96EE250DA6EFF0EDA22FD0EE350DE5C9B
:10032000D8B095EF01F097EF01F02BEF02F0FF0E40
:10033000E3AC9DEF01F09FEF01F0A1EF01F0FF0EA4
:10034000E37EFD0EE3CF48F0FC0E48C0E3FFFE0E57
:10035000E3CF48F0FD0E48C0E3FFFC0EE3CF48F0CA
:10036000FE0E48C0E3FFF80EE3CF48F0FC0E48C095
:10037000E3FFF40EE3CF48F0F80E48C0E3FFFC0EB5
:10038000E3CF48F0F40E48C0E3FFF90EE124D96E44
:10039000FF0EE220DA6EDF50536EFC0E53C0E3FF17
:1003A000F50EE124D96EFF0EE220DA6EF90EE1249B
:1003B000E96EFF0EE220EA6EDFCFEFFFF50EE124DB
:1003C000D96EFF0EE220DA6EFC0EE3CFDFFFFA0EED
:1003D000E124D96EFF0EE220DA6EDF50536EFC0E80
:1003E00053C0E3FFF60EE124D96EFF0EE220DA6E71
:1003F000FA0EE124E96EFF0EE220EA6EDFCFEFFF96
:10040000F60EE124D96EFF0EE220DA6EFC0EE3CF89
:10041000DFFFFB0EE124D96EFF0EE220DA6EDF5023
:10042000536EFC0E53C0E3FFF70EE124D96EFF0EAE
:10043000E220DA6EFB0EE124E96EFF0EE220EA6EA6
:10044000DFCFEFFFF70EE124D96EFF0EE220DA6E68
:10045000FC0EE3CFDFFFFC0EE36AFE0EE350526EAC
:10046000536AFD0EE350525E000E535A53BE42EFE4
:1004700002F0535009E11A0E525CD8A042EF02F08C
:1004800044EF02F0ADEF02F0F80EE3500DE1F90E8B
:10049000E3500AE1FA0EE35007E1FB0EE350D8A463
:1004A00054EF02F058EF02F0536A532A59EF02F06A
:1004B000536AFC0E53C0E3FFF80EE36AF90EE36AD9
:1004C000FA0EE36AFB0EE36AFE0EE3CF48F0FD0E80
:1004D00048C0E3FFBEEF02F0FC0EE3A072EF02F0B3
:1004E00074EF02F080EF02F0FC0EE3CF53F0D890EF
:1004F0005332010E5312FC0E53C0E3FF89EF02F09A
:10050000E150FC0FD96EE250DA6EFF0EDA22D8907D
:10051000DF32F80EE3A08FEF02F091EF02F093EFDD
:1005200002F0FC0EE38E010E536EE150F80FD96E0F
:10053000E250DA6EFF0EDA225328DE52A8EF02F004
:10054000DE52D890DCBED880DD32DD32DD32DE32E4
:10055000E82EA0EF02F0FD0EE32AE150FD0FD96E68
:10056000E250DA6EFF0EDA22FE0EE350DE5CD8A017
:10057000BCEF02F0BEEF02F06CEF02F0FF0EE3BC46
:10058000C4EF02F0C6EF02F048EF03F0FD0EE350B7
:10059000D8A4CDEF02F0CFEF02F0D9EF02F0000EB9
:1005A000486E000E496E000E4A6E000E4B6EFEEF56
:1005B00004F0F80EE350486EF40EE3504826F80EAF
:1005C00048C0E3FFF90EE350486EF50EE3504822B1
:1005D000F90E48C0E3FFFA0EE350486EF60EE35002
:1005E0004822FA0E48C0E3FFFB0EE350486EF70EB8
:1005F000E3504822FB0E48C0E3FFFB0EE3A003EFED
:1006000003F005EF03F032EF04F0FC0EE3A00BEF74
:1006100003F00DEF03F019EF03F0FC0EE3CF53F0FE
:10062000D8905332010E5312FC0E53C0E3FF22EF59
:1006300003F0E150FC0FD96EE250DA6EFF0EDA22C1
:10064000D890DF32F80EE3A028EF03F02AEF03F092
:100650002CEF03F0FC0EE38E010E536EE150F80F09
:10066000D96EE250DA6EFF0EDA225328DE5241EFE5
:1006700003F0DE52D890DCBED880DD32DD32DD32D0
:10068000DE32E82E39EF03F0FD0EE32A32EF04F0FC
:10069000E150F80FD96EE250DA6EFF0EDA22F40E56
:1006A000E350DE5CF50EE350DE58F60EE350DE5804
:1006B000DE50800A486EF70EE350800A4858D8B0E2
:1006C00064EF03F066EF03F0B6EF03F0F40EE3CF50
:1006D00050F0F50EE3CF51F0F60EE3CF52F0F70EE7
:1006E000E3CF53F0F80EE350505EF90EE350515A49
:1006F000FA0EE350525AFB0EE350535AFF0E5024A9
:100700004C6EFF0E51204D6EFF0E52204E6EFF0EAE
:1007100053204F6EF80E4CC0E3FFF90E4DC0E3FFBF
:10072000FA0E4EC0E3FFFB0E4FC0E3FFFF0EE37E69
:10073000FC0EE3500008536EFC0E53C0E3FFFC0EAA
:10074000E350D8A4A6EF03F0A8EF03F0C9EF03F03D
:10075000E150F80FD96EE250DA6EFF0EDA22DE2A8F
:10076000000EDE22DE22DE22C9EF03F0E150F80F98
:10077000D96EE250DA6EFF0EDA22F40EE350DE5E3E
:10078000F50EE350DE5AF60EE350DE5AF70EE35054
:10079000DE5AF80EE3500DE1F90EE3500AE1FA0ECD
:1007A000E35007E1FB0EE350D8A4D9EF03F0DBEFF1
:1007B00003F02AEF04F0FC0EE350D8A4E2EF03F0BC
:1007C000E4EF03F02AEF04F0000E486E000E496ECD
:1007D000000E4A6E000E4B6EFEEF04F0D890F80E3D
:1007E000E336F90EE336FA0EE336FB0EE336FC0E83
:1007F000E3AEFDEF03F0FFEF03F001EF04F0F80EBE
:10080000E380FC0EE3A007EF04F009EF04F016EF1D
:1008100004F0FC0EE3CF53F0D8905334526E010E27
:100820005212FC0E52C0E3FF1FEF04F0E150FC0F28
:10083000D96EE250DA6EFF0EDA22D890DF36FD0E66
:10084000E350D8B426EF04F028EF04F02AEF04F0C8
:10085000FD0EE306FA0EE3AE30EF04F032EF04F0E3
:10086000EEEF03F0FE0EE36AFC0EE3AE3AEF04F0A7
:100870003CEF04F057EF04F0FC0EE3CF53F07F0E93
:100880005316D8B446EF04F048EF04F04DEF04F0EF
:10089000FE0EE36AE32A57EF04F0F80EE3A053EFED
:1008A00004F055EF04F057EF04F048EF04F0FE0EAB
:1008B000E350D8B45EEF04F060EF04F097EF04F07B
:1008C000E150F80FD96EE250DA6EFF0EDA22DE2A1E
:1008D000000EDE22DE22DE22FB0EE3A072EF04F029
:1008E00074EF04F097EF04F0010E536EE150F80F2F
:1008F000D96EE250DA6EFF0EDA225328DE5289EF0B
:1009000004F0DE52D890DCBED880DD32DD32DD323C
:10091000DE32E82E81EF04F0FD0EE328D8B493EF29
:1009200004F095EF04F097EF04F0FD0EE32AFD0EBE
:10093000E328D8B49EEF04F0A0EF04F0A9EF04F090
:10094000FD0EE350D8A4A7EF04F0A9EF04F0BCEF2C
:1009500004F0F80EE36AF90EE36AFA0EE36AFB0E9E
:10096000E36AFD0EE350D8A4B8EF04F0BAEF04F048
:10097000BCEF04F0FF0EE36AFD0EE3A0C2EF04F04B
:10098000C4EF04F0CEEF04F0FA0EE124D96EFF0EAE
:10099000E220DA6E000EDB8ED6EF04F0FA0EE124D0
:1009A000D96EFF0EE220DA6E7F0EDF16FB0EE12419
:1009B000D96EFF0EE220DA6EFD0EE3CF53F0D89031
:1009C0005330DF6EFF0EE3AEE8EF04F0EAEF04F021
:1009D000F2EF04F0FB0EE124D96EFF0EE220DA6E96
:1009E000000EDB8EF80EE3CF48F0F90EE3CF49F0AE
:1009F000FA0EE3CF4AF0FB0EE3CF4BF0F40EE12604
:100A0000FF0EE22212000D0EE126000EE222F20E8F
:100A1000E124D96EFF0EE220DA6EDF50536E800EB5
:100A20005316FF0E53C0E3FFF20EE124D96EFF0E02
:100A3000E220DA6EDF50536ED8905334526EFD0EC2
:100A400052C0E3FFF10EE124D96EFF0EE220DA6E10
:100A5000DFAE2DEF05F02FEF05F031EF05F0FD0EC5
:100A6000E380FD0EE350D8B438EF05F03AEF05F01F
:100A70005BEF05F0FD0EE328D8A441EF05F043EF4E
:100A800005F057EF05F0000E506E000E516E000E8F
:100A9000526E000E536EEF0E50C0E3FFF00E51C0C9
:100AA000E3FFF10E52C0E3FFF20E53C0E3FFF10E7D
:100AB000E38E6FEF05F0000E506E000E516E000ECB
:100AC000526E000E536EEF0E50C0E3FFF00E51C099
:100AD000E3FFF10E52C0E3FFF20E53C0E3FFEE0E50
:100AE000E124D96EFF0EE220DA6EDF50536E800EE5
:100AF0005316E150FF0FD96EE250DA6EFF0EDA2284
:100B00005350DF1AEE0EE124D96EFF0EE220DA6EAA
:100B1000DF50536ED8905334526EFE0E52C0E3FF36
:100B2000ED0EE124D96EFF0EE220DA6EDFAE9BEF10
:100B300005F09DEF05F09FEF05F0FE0EE380FE0E41
:100B4000E350D8B4A6EF05F0A8EF05F0C9EF05F023
:100B5000FE0EE328D8A4AFEF05F0B1EF05F0C5EF26
:100B600005F0000E506E000E516E000E526E000E1B
:100B7000536EEB0E50C0E3FFEC0E51C0E3FFED0EE1
:100B800052C0E3FFEE0E53C0E3FFED0EE38EDDEF48
:100B900005F0000E506E000E516E000E526E000EEB
:100BA000536EEB0E50C0E3FFEC0E51C0E3FFED0EB1
:100BB00052C0E3FFEE0E53C0E3FFFE0EE350D8B485
:100BC000E4EF05F0E6EF05F0EFEF05F0FD0EE35082
:100BD000D8A4EDEF05F0EFEF05F0F9EF05F0000E0A
:100BE000486E000E496E000E4A6E000E4B6E29EFE5
:100BF00009F0EF0EE3CF53F0ED0EE124D96EFF0EB6
:100C0000E220DA6EDF505302FB0EF3CFE3FFFC0E5F
:100C1000F4CFE3FFFB0EE3CF53F053C04CF04D6A2B
:100C20004E6A4F6AF70E4CC0E3FFF80E4DC0E3FF6B
:100C3000F90E4EC0E3FFFA0E4FC0E3FFFC0EE124B5
:100C4000D96EFF0EE220DA6EDF50536E53C04CF0C7
:100C50004D6A4E6A4F6AF30E4CC0E3FFF40E4DC06E
:100C6000E3FFF50E4EC0E3FFF60E4FC0E3FFF00EBC
:100C7000E124D96EFF0EE220DA6EDF50536EEC0EE7
:100C8000E124D96EFF0EE220DA6EDF505302FB0E34
:100C9000F3CFE3FFFC0EF4CFE3FFE150F70FD96E83
:100CA000E250DA6EFF0EDA22FB0EE350DE26000E73
:100CB000DE22DE22DE22E150F30FD96EE250DA6E40
:100CC000FF0EDA22FC0EE124E96EFF0EE220EA6E4E
:100CD000EF50DE26000EDE22DE22DE22F10EE124BF
:100CE000D96EFF0EE220DA6EDF50536EEB0EE3504A
:100CF0005302FB0EF3CFE3FFFC0EF4CFE3FFE15012
:100D0000F70FD96EE250DA6EFF0EDA22FB0EE350D7
:100D1000DE26000EDE22DE22DE22E150F30FD96E47
:100D2000E250DA6EFF0EDA22FC0EE124E96EFF0ECD
:100D3000E220EA6EEF50DE26000EDE22DE22DE2208
:100D4000E150F70FD96EE250DA6EFF0EDA22080E8C
:100D5000D890DE36DE36DE36DD36DD52DD52E82E68
:100D6000A8EF06F0F00EE124D96EFF0EE220DA6E55
:100D7000DF50536EEB0EE3505302FB0EF3CFE3FF55
:100D8000FC0EF4CFE3FFFB0EE3CF52F0FC0EE3CFFB
:100D900053F0E150F70FD96EE250DA6EFF0EDA220F
:100DA0005250DE265350DE22000EDE22DE22EF0EEF
:100DB000E3CF53F0EC0EE124D96EFF0EE220DA6EA1
:100DC000DF505302FB0EF3CFE3FFFC0EF4CFE3FF43
:100DD000FB0EE3CF52F0FC0EE3CF53F0E150F70FE0
:100DE000D96EE250DA6EFF0EDA225250DE265350F0
:100DF000DE22000EDE22DE22E150F70FD96EE25035
:100E0000DA6EFF0EDA22080ED890DE36DE36DE36D7
:100E1000DD36DD52DD52E82E04EF07F0EF0EE3CFB2
:100E200053F0EB0EE3505302FB0EF3CFE3FFFC0E47
:100E3000F4CFE3FFFB0EE3CF52F0FC0EE3CF53F011
:100E4000E150F70FD96EE250DA6EFF0EDA225250FF
:100E5000DE265350DE22000EDE22DE22F00EE124DA
:100E6000D96EFF0EE220DA6EDF50536EED0EE124F4
:100E7000D96EFF0EE220DA6EDF505302FB0EF3CF85
:100E8000E3FFFC0EF4CFE3FFFB0EE3CF52F0FC0ECA
:100E9000E3CF53F0E150F30FD96EE250DA6EFF0E5C
:100EA000DA225250DE265350DE22000EDE22DE22EF
:100EB000F10EE124D96EFF0EE220DA6EDF50536EA0
:100EC000EC0EE124D96EFF0EE220DA6EDF50530201
:100ED000FB0EF3CFE3FFFC0EF4CFE3FFFB0EE3CFFB
:100EE00052F0FC0EE3CF53F0E150F30FD96EE25015
:100EF000DA6EFF0EDA225250DE265350DE22000E4A
:100F0000DE22DE22F10EE124D96EFF0EE220DA6E3F
:100F1000DF50536EED0EE124D96EFF0EE220DA6E43
:100F2000DF505302FB0EF3CFE3FFFC0EF4CFE3FFE1
:100F3000FB0EE3CF52F0FC0EE3CF53F052504C6E59
:100F400053504D6E4E6A4F6A4EC04FF04DC04EF03A
:100F50004CC04DF04C6AE150F30FD96EE250DA6E9E
:100F6000FF0EDA224C50DE264D50DE224E50DE229D
:100F70004F50DE22E150F30FD96EE250DA6EFF0ED1
:100F8000DA22FA0EE124E96EFF0EE220EA6EEF505B
:100F9000DE26000EDE22DE22DE22E150F70FD96EC1
:100FA000E250DA6EFF0EDA22080ED890DE36DE3618
:100FB000DE36DD36DD52DD52E82ED5EF07F0FD0ED0
:100FC000E350526E536AFE0EE3505226000E532237
:100FD000820E5224506EFF0E5320516EFB0E50C0F5
:100FE000E3FFFC0E51C0E3FF1CEF08F0D890F30EB6
:100FF000E336F40EE336F50EE336F60EE336FA0E7C
:10100000E3AE05EF08F007EF08F009EF08F0F30E84
:10101000E380D890F70EE336F80EE336F90EE336A8
:10102000FA0EE336E150FB0FD96EE250DA6EFF0E96
:10103000DA22DE06000EDD5AF50EE3AE22EF08F0EE
:1010400024EF08F0F6EF07F0FE0EE36AFA0EE3AEC7
:101050002CEF08F02EEF08F05BEF08F0E150F70FEF
:10106000D96EE250DA6EFF0EDA22FF0EDE14506EF9
:10107000FF0EDE14516EFF0EDE14526E7F0EDE1474
:10108000536E5050511052105310D8B44AEF08F01C
:101090004CEF08F051EF08F0FE0EE36AE32A5BEF35
:1010A00008F0F30EE3A057EF08F059EF08F05BEFFC
:1010B00008F04CEF08F0FE0EE350D8B462EF08F0F1
:1010C00064EF08F09FEF08F0E150F30FD96EE250A3
:1010D000DA6EFF0EDA22DE2A000EDE22DE22DE22A9
:1010E000F60EE3A076EF08F078EF08F09FEF08F037
:1010F000010E536EE150F30FD96EE250DA6EFF0E1F
:10110000DA225328DE528DEF08F0DE52D890DCBE92
:10111000D880DD32DD32DD32DE32E82E85EF08F0B8
:10112000FB0EE350010F486EFB0E48C0E3FF486A18
:10113000FC0EE3504820486EFC0E48C0E3FFFC0E56
:10114000E3BEADEF08F0FC0EE35009E1FB0EE3282F
:10115000D8A0ADEF08F0AFEF08F0C5EF08F0000E33
:10116000506E000E516E800E526E7F0E536EF30E57
:1011700050C0E3FFF40E51C0E3FFF50E52C0E3FF91
:10118000F60E53C0E3FF12EF09F0FC0EE3BED5EFFD
:1011900008F0FC0EE35007E1FB0EE304D8B0D3EFF8
:1011A00008F0D5EF08F0E1EF08F0F30EE36AF40E73
:1011B000E36AF50EE36AF60EE36AFF0EE36A12EFE6
:1011C00009F0FB0EE3CF48F0FD0E48C0E3FFE1500D
:1011D000F30FD96EE250DA6EFF0EDA22FF0EDE1642
:1011E000FF0EDE167F0EDE16000EDE16FD0EE3A0ED
:1011F000FCEF08F0FEEF08F006EF09F0F50EE12431
:10120000D96EFF0EE220DA6E000EDB8EF60EE124C0
:10121000D96EFF0EE220DA6EFD0EE3CF53F0D890C8
:101220005330DF6EFF0EE3CF53F0F60EE124D96E9C
:10123000FF0EE220DA6E5350DF12F30EE3CF48F0D8
:10124000F40EE3CF49F0F50EE3CF4AF0F60EE3CF0C
:101250004BF0EB0EE126FF0EE22212000A0EE12611
:10126000000EE222F20EE3CFD9FFF30EE3CFDAFF56
:10127000DECFF6FFDDCFF7FFF86A0800F550250A4C
:10128000D8A445EF09F047EF09F04EEF0BF0F20E4E
:10129000E3CFD9FFF30EE3CFDAFFDE2A000EDD2223
:1012A000000E2C6E000E2B6E2BC02FF02D682E68BA
:1012B000FE0EE36AFF0EE36A9AEF09F02F80F20E4A
:1012C000E3CFD9FFF30EE3CFDAFFDE2A000EDD22F3
:1012D0009AEF09F02F845FEF09F0010E526E000EB5
:1012E000536EFE0E52C0E3FFFF0E53C0E3FF9AEFB2
:1012F00009F0F20EE3CFD9FFF30EE3CFDAFFDECF32
:10130000F6FFDDCFF7FFF86A0800F550526E536A1A
:101310005350000AD8B48FEF09F06DEF09F0525026
:101320002B0AD8B46AEF09F0060AD8B45EEF09F0C8
:101330006DEF09F0FE0EE3CF48F0FF0EE3504810CA
:10134000D8B4A5EF09F0A7EF09F079EF09F0F00E96
:10135000E3CFE6FFE3CFE6FFF00EE3CFE6FFE3CF18
:10136000E6FF6AEC30F048C02BF049C02CF02CBEF0
:10137000BEEF09F0BCEF09F0C3EF09F02F802B6C32
:101380002C1ED8B02C2AF20EE3CFD9FFF30EE3CFF8
:10139000DAFFDECF52F0DDCF53F0FD0E53C0E3FF96
:1013A000FC0E52C0E3FFE150FC0FD96EE250DA6E42
:1013B000FF0EDA22DECFF6FFDDCFF7FFF86A080076
:1013C000F550640AD8B4E7EF09F0E9EF09F0FFEF50
:1013D00009F0E150FC0FD96EE250DA6EFF0EDA220E
:1013E000DECFF6FFDDCFF7FFF86A0800F550690A97
:1013F000D8A4FDEF09F0FFEF09F03CEF0AF0F00E82
:10140000E3CFD9FFF10EE3CFDAFF020EDE5E000E6E
:10141000DD5ADECF52F0DDCF53F052C0D9FF53C0BA
:10142000DAFFDECF52F0DDCF53F0F80E52C0E3FF0B
:10143000F90E53C0E3FFFC0EE350010F526EFD0E98
:10144000E3CF53F0000E5322F20EE3CFD9FFF30E99
:10145000E3CFDAFF52C0DEFF53C0DDFFF80EE3CF6B
:10146000E6FFE3CFE6FFF20EE3CFE6FFE3CFE6FFD2
:1014700019EC16F067EF0BF0E150FC0FD96EE2505B
:10148000DA6EFF0EDA22DECFF6FFDDCFF7FFF86A65
:101490000800F550580AD8A450EF0AF052EF0AF0AD
:1014A000AFEF0AF0F00EE3CFD9FFF10EE3CFDAFF92
:1014B000020EDE5E000EDD5ADECF52F0DDCF53F0BD
:1014C00052C0D9FF53C0DAFFDECF52F0DDCF53F068
:1014D000F80E52C0E3FFF90E53C0E3FFFC0EE350D9
:1014E000010F526EFD0EE3CF53F0000E5322F20EA9
:1014F000E3CFD9FFF30EE3CFDAFF52C0DEFF53C0D4
:10150000DDFF91EF0AF0F80EE3CFE6FFE3CFE6FF51
:10151000F20EE3CFE6FFE3CFE6FFB8EC1BF067EF98
:101520000BF0E150FC0FD96EE250DA6EFF0EDA22BA
:10153000DECFF6FFDDCFF7FFF86A0800F550526EF8
:10154000536A5350000AD8B4A8EF0AF0AFEF0AF07C
:101550005250580AD8B483EF0AF0AFEF0AF0F20EF7
:10156000E3CFD9FFF30EE3CFDAFFDECFF6FFDDCF17
:10157000F7FFF86A0800F550730AD8B4C2EF0AF012
:10158000C4EF0AF0E5EF0AF0030EE66E000EE66E19
:10159000980EE66EFE0EE66EEE0EE3CFD9FFEF0E6E
:1015A000E3CFDAFFDECF52F0DDCF53F052C0E6FFDB
:1015B00053C0E6FFAFEC1CF048504910D8A4E3EF4D
:1015C0000AF0E5EF0AF043EF0BF0F20EE3CFD9FF9C
:1015D000F30EE3CFDAFFDECFF6FFDDCFF7FFF86AD9
:1015E0000800F550730AD8B4F8EF0AF0FAEF0AF0E1
:1015F00006EF0BF0030E526E000E536EF60E52C045
:10160000E3FFF70E53C0E3FF10EF0BF0010E526E35
:10161000000E536EF60E52C0E3FFF70E53C0E3FF09
:10162000F60EE3CF52F0F70EE3CF53F0F20EE3CF16
:10163000D9FFF30EE3CFDAFF5250DE265350DD22FE
:10164000F00EE3CFD9FFF10EE3CFDAFF020EDE5E3C
:10165000000EDD5ADECF52F0DDCF53F052C0D9FF7D
:1016600053C0DAFFDECF52F0DDCF53F052C0E6FFB9
:1016700053C0E6FFF20EE3CFE6FFE3CFE6FFBFEC99
:1016800014F067EF0BF0F20EE3CFD9FFF30EE3CFC8
:10169000DAFFDE2A000EDD2267EF0BF0F40EE3CF57
:1016A000E6FFE3CFE6FFF00EE3CFD9FFF10EE3CF85
:1016B000DAFFDECFF6FFDDCFF7FFF86A0800F5505E
:1016C000E66E000EE66EB3EC2EF043EF0BF0F00E7C
:1016D000E126FF0EE22212000101A851D8B473EFF7
:1016E0000BF075EF0BF05DEF0CF0060EA66F000E21
:1016F0004B6F040E4A6F010E486F010E536F0D0EB3
:10170000526F020E506F020E5B6F060E5A6F040E80
:10171000586F030E636F010E626F080E606F040E48
:101720006B6F050E6A6F100E686FA751D8B49BEFF0
:101730000BF09DEF0BF00FEF0CF0040EA627080E38
:10174000736F0D0E726F200E706F000E716F090EA9
:101750007B6F0F0E7A6F200E786F010E796F0A0E75
:10176000836F050E826F200E806F020E816F0B0E4D
:101770008B6F010E8A6F200E886F030E896F0C0E1F
:10178000936F080E926F200E906F040E916F000EF3
:1017900000019F6FE1EF0BF09F51080D4C0EF324F9
:1017A000D96E010EF420DA6E020EDF6E9F51080D25
:1017B0004D0EF324D96E010EF420DA6E020EDF6EA8
:1017C0009F2B30EC5AF000019E6F9E519F5DD8A078
:1017D000ECEF0BF0EEEF0BF0CCEF0BF00101A951A9
:1017E000D8B4F5EF0BF0F7EF0BF0DDEF0CF0020ED5
:1017F000A627060E9B6F020E9A6F850E9C6F850EB4
:101800009D6F400E986F070EA36F070EA26F850E97
:10181000A46F850EA56F800EA06FDDEF0CF0050E96
:10182000736F0E0E726F200E706F000E00019F6FAF
:101830002FEF0CF09F51080D4C0EF324D96E010EC2
:10184000F420DA6E020EDF6E9F51080D4D0EF32468
:10185000D96E010EF420DA6E020EDF6E9F2B30EC93
:101860005AF000019E6F9E519F5DD8A03AEF0CF098
:101870003CEF0CF01AEF0CF00101A951D8B443EF82
:101880000CF045EF0CF0DDEF0CF0020EA627060E73
:101890007B6F070E7A6F850E7C6F850E7D6F400E15
:1018A000786F070E836F060E826F850E846F850E2C
:1018B000856F800E806FDDEF0CF0A751D8B463EF19
:1018C0000CF065EF0CF0AEEF0CF0050EA66F080EF5
:1018D0004B6F0D0E4A6F000E496F090E536F070EC6
:1018E000526F010E516F0A0E5B6F050E5A6F020E9A
:1018F000596F0B0E636F010E626F030E616F0C0E5A
:101900006B6F080E6A6F040E696F000E00019F6F07
:101910009FEF0CF09F51080D4C0EF324D96E010E71
:10192000F420DA6E020EDF6E9F51080D4D0EF32487
:10193000D96E010EF420DA6E020EDF6E9F2B30ECB2
:101940005AF000019E6F9E519F5DD8A0AAEF0CF047
:10195000ACEF0CF08AEF0CF0DDEF0CF0010EA66F8F
:10196000000E4B6F070E4A6FAB51D8A4BAEF0CF0C4
:10197000BCEF0CF0C2EF0CF0850E4C6F850E4D6F76
:10198000DDEF0CF0AB05D8A4C8EF0CF0CAEF0CF0FB
:10199000D0EF0CF0080E4C6F080E4D6FDDEF0CF021
:1019A000020EAB19D8A4D7EF0CF0D9EF0CF0DDEF95
:1019B0000CF0100E4C6F100E4D6F000E00019F6F5B
:1019C000F6EF0CF09F51080D470EF324D96E010E6F
:1019D000F420DA6E010EDF6E9F51080D460EF324DF
:1019E000D96E010EF420DA6EDF6A9F2B30EC5AF0CC
:1019F00000019E6F9E519F5DD8A001EF0DF003EF97
:101A00000DF0E2EF0CF0000E9F6F0FEF0DF0360EB1
:101A10009F25D96EDA6A010EDA22DF6A9F2B80ECED
:101A20004AF000019E6F9E519F5DD8A01AEF0DF005
:101A30001CEF0DF007EF0DF0FF0E01012D6FD80E1A
:101A40002C6F000E2F6F000E2E6F000E316F000EE8
:101A5000306F000E336F000E326F000E356F140EB4
:101A6000346F2C0E0001976F010E986F800E996FE6
:101A70008DEC4EF00001CF6F000E11EC5AF0120009
:101A80000001BF6FFEEC57F00009D8B44AEF0DF02B
:101A90004CEF0DF04EEF0DF0E4EF0EF00001BF51F2
:101AA000D8B455EF0DF057EF0DF059EF0DF0000ED3
:101AB000D86F7BEC54F00009D8A461EF0DF063EF10
:101AC0000DF06CEF0DF00001BF51D8B46AEF0DF0CE
:101AD0006CEF0DF08FEF0DF0800EE66E6EEC42F0C5
:101AE0003CEC5AF0485037EC4DF0000197C0E6FF4F
:101AF00098C0E6FF14EC40F048500001BA6F87EF41
:101B00000DF0200EE66E36EC56F00001BA2B0D0EED
:101B1000BA658DEF0DF08FEF0DF081EF0DF09CECBD
:101B200050F04850D8B497EF0DF099EF0DF012EF48
:101B30000EF03FEC5AF001011C19D8A4A2EF0DF0F1
:101B4000A4EF0DF0B7EF0DF07BEC54F00009D8A432
:101B5000ACEF0DF0AEEF0DF0B7EF0DF00001BF519F
:101B6000D8B4B5EF0DF0B7EF0DF0E4EF0EF042ECA6
:101B70005AF0F90FAEEC57F0B60EE66EFD0EE66EBB
:101B800014EC40F03FEC5AF00009D8B4CAEF0DF065
:101B9000CCEF0DF0EFEF0DF0A50E00019A6F000EE7
:101BA0009B6FDCEC3EF098C09CF099C09DF073EC0C
:101BB0004BF0A50EE66E000EE66EB9EC42F042EC7C
:101BC0005AF00001A46F4850A45DAEEC57F0A50E8A
:101BD000E66E000EE66E14EC40F00CEF0EF0A50E73
:101BE00000019A6F000E9B6F77EC39F098C09CF063
:101BF00099C09DF073EC4BF0A50EE66E000EE66EFC
:101C0000B9EC42F042EC5AF00001A46F4850A45DD8
:101C1000AEEC57F0E7EF0DF03FEC5AF001011C6F0E
:101C2000E4EF0EF069EC57F00009D8B41AEF0EF0AB
:101C30001CEF0EF0E4EF0EF00DEC58F00009D8B4F4
:101C400024EF0EF026EF0EF030EF0EF03AEC34F009
:101C50004850D8A42EEF0EF030EF0EF043EF0EF008
:101C60007BEC54F00009D8A438EF0EF03AEF0EF0F8
:101C700043EF0EF00001BF51D8B441EF0EF043EF37
:101C80000EF0E4EF0EF08EEC4DF048C0BBF049C012
:101C9000BCF04AC0BDF04BC0BEF042EC5AF0F90FA8
:101CA000AEEC57F0B90EE66EFD0EE66E14EC40F0A9
:101CB000BBC0E6FFBCC0E6FFBDC0E6FFBEC0E6FF9E
:101CC000000EE66E000EE66E800EE66E3E0EE66ECE
:101CD0009EEC22F048B06FEF0EF071EF0EF077EF50
:101CE0000EF0000EE66E36EC56F07BEF0EF0200E96
:101CF000E66E36EC56F0BBC0E6FFBCC0E6FFBDC0EA
:101D0000E6FFBEC0E6FF000EE66E000EE66E000EB9
:101D1000E66E3F0EE66E9EEC22F048B092EF0EF0BB
:101D200094EF0EF09AEF0EF0010EE66E36EC56F0E0
:101D30009EEF0EF0200EE66E36EC56F0BBC0E6FFCE
:101D4000BCC0E6FFBDC0E6FFBEC0E6FF000EE66E0B
:101D5000000EE66E400EE66E3F0EE66E9EEC22F042
:101D600048B0B5EF0EF0B7EF0EF0BDEF0EF0020E7B
:101D7000E66E36EC56F0C1EF0EF0200EE66E36EC55
:101D800056F0BBC0E6FFBCC0E6FFBDC0E6FFBEC06C
:101D9000E6FF000EE66E000EE66E800EE66E3F0E6B
:101DA000E66E9EEC22F048B0D8EF0EF0DAEF0EF0BF
:101DB000E0EF0EF0030EE66E36EC56F0E4EF0EF0B8
:101DC000200EE66E36EC56F012000001A46FA4C09F
:101DD000DAF00CEC56F0C2EC56F097C0A0F098C0C8
:101DE000A1F099C0A2F09AC0A3F08094809A928A40
:101DF0000D0E00019F6FFB0EE82EFED79F2FFCD724
:101E000000D080AA06EF0FF008EF0FF011EF0FF0EF
:101E1000CE0E0001976FF60E986FDBEC58F040EF96
:101E20000FF080BA16EF0FF018EF0FF03AEF0FF047
:101E3000A0C0E6FFA1C0E6FFA2C0E6FFA3C0E6FF88
:101E4000CD0EE66ECC0EE66E4C0EE66E3E0EE66EE7
:101E50009EEC22F048B02FEF0FF031EF0FF03AEF89
:101E60000FF0300E0001976FF70E986FDBEC58F013
:101E700040EF0FF0B30EE66EF60EE66EDFEC57F0B5
:101E8000929A0D0E00019F6FFB0EE82EFED79F2F3A
:101E9000FCD700D00001DA51D8A451EF0FF053EF76
:101EA0000FF088EF0FF0080EE56F010EE46F0E0ED5
:101EB000976F010E986F000E2CEC4CF0070E00018E
:101EC000976FE60E986F000E2CEC4CF0080E000198
:101ED000976FE60E986F000E2CEC4CF0100E000180
:101EE000976F030E986F000E2CEC4CF0130E000150
:101EF000976F3C0E986F000E2CEC4CF0160E000104
:101F0000976FC00E986F000E2CEC4CF050EF10F055
:101F1000DA05D8A48EEF0FF090EF0FF0C5EF0FF0B9
:101F20000E0E976F010E986F000E2CEC4CF0100EF9
:101F30000001976FFF0E986F000E2CEC4CF0130E03
:101F40000001976F000E986F000E2CEC4CF0160EEF
:101F50000001976F000E986F000E2CEC4CF0C00E35
:101F600000019A6F000EECEC51F0820E00019F6FA1
:101F7000DD0EE82EFED79F2FFCD700D0080E000103
:101F8000E56F010EE46F50EF10F0020EDA19D8A4DD
:101F9000CCEF0FF0CEEF0FF050EF10F00E0E976F6A
:101FA000010E986F000E2CEC4CF00B0E0001976F99
:101FB000200E986F000E2CEC4CF00C0E0001976F69
:101FC0000D0E986F000E2CEC4CF0100E0001976F68
:101FD000FF0E986F000E2CEC4CF0130E0001976F63
:101FE000000E986F000E2CEC4CF0160E0001976F4F
:101FF000000E986F000E2CEC4CF0C00E00019A6F92
:10200000000EECEC51F0820E00019F6FDD0EE82E09
:10201000FED79F2FFCD700D00E0E0001976F010E48
:10202000986F010E2CEC4CF00B0E0001976F200EF8
:10203000986F010E2CEC4CF00C0E0001976F0D0EFA
:10204000986F010E2CEC4CF0100E0001976FFF0EF4
:10205000986F010E2CEC4CF0130E0001976F000EE0
:10206000986F010E2CEC4CF0160E0001976F000ECD
:10207000986F010E2CEC4CF0E00E00019A6F010EEF
:10208000ECEC51F0820E00019F6FDD0EE82EFED7C2
:102090009F2FFCD700D0100E0001E56F020EE46FF9
:1020A000000E0001A56F5EEF10F00E0E976F000E90
:1020B000986FA5512CEC4CF00001A52BE451A55DC7
:1020C000D8A065EF10F067EF10F055EF10F0820E1A
:1020D00000019F6FDD0EE82EFED79F2FFCD700D0AA
:1020E0001200010EE66E8CEC51F048C017F049C0AA
:1020F00018F0442A120E446480EF10F082EF10F0C2
:10210000DEEF10F0422A000E446E3B0E42648BEF6D
:1021100010F08DEF10F091EF10F001012B2B000E5D
:10212000426E80A096EF10F098EF10F0BCEF10F028
:102130003A2A3B0E3A649FEF10F0A1EF10F0A4EFA3
:1021400010F0392A000E3A6E3B0E3964AAEF10F0F7
:10215000ACEF10F0AFEF10F0382A000E396E170E0A
:102160003864B5EF10F0B7EF10F0DEEF10F0372A5B
:10217000000E386EDEEF10F03E2A3B0E3E64C3EFD9
:1021800010F0C5EF10F0C8EF10F03D2A000E3E6EC3
:102190003B0E3D64CEEF10F0D0EF10F0D3EF10F017
:1021A0003C2A000E3D6E170E3C64D9EF10F0DBEFB9
:1021B00010F0DEEF10F03B2A000E3C6E432A040EB6
:1021C0004364E5EF10F0E7EF10F001EF11F0000EBF
:1021D000436E48EC5AF04850D8B4F1EF10F0F3EFEA
:1021E00010F001EF11F04BEC5AF00009D8B4FBEFFE
:1021F00010F0FDEF10F001EF11F00D0EE66E83EC24
:1022000055F0CD0EE66ECC0EE66ECC0EE66E3D0EB3
:10221000E66E0FC1E6FF10C1E6FF11C1E6FF12C175
:10222000E6FF9EEC22F048B018EF11F01AEF11F023
:102230001DEF11F0412A23EF11F0000E416E000E48
:10224000406E000E3F6E120E416429EF11F02BEF2D
:1022500011F05FEF11F0402A000E416E3B0E40641A
:1022600034EF11F036EF11F05FEF11F03F2A000E5E
:10227000406E48EC5AF04850D8B441EF11F043EFAB
:1022800011F05FEF11F017501810D8B44AEF11F0A9
:102290004CEF11F05FEF11F03F50156E166A1750BA
:1022A000151807E118501618D8A459EF11F05BEF74
:1022B00011F05FEF11F0090EE66E83EC55F049EC7A
:1022C00052F04850D8B467EF11F069EF11F06DEF9C
:1022D00011F0010EE66E83EC55F068EC52F04850B8
:1022E000D8B475EF11F077EF11F07BEF11F0020E1B
:1022F000E66E83EC55F087EC52F04850D8B483EF8B
:1023000011F085EF11F089EF11F0030EE66E83EC0A
:1023100055F02AEC52F04850D8B491EF11F093EFF9
:1023200011F097EF11F0040EE66E83EC55F00BEC14
:1023300052F04850D8B49FEF11F0A1EF11F0A5EF83
:1023400011F0050EE66E83EC55F00EEC57F0000927
:10235000D8B4ADEF11F0AFEF11F0B3EF11F0070EFD
:10236000E66E83EC55F048EC5AF04850D8B4BBEF19
:1023700011F0BDEF11F0E7EF11F0A6EC52F048506C
:10238000D8B4C5EF11F0C7EF11F0CBEF11F0060E86
:10239000E66E83EC55F09CEC50F04850D8B4D3EF87
:1023A00011F0D5EF11F0D9EF11F00B0EE66E83ECC2
:1023B00055F03AEC34F04850D8B4E1EF11F0E3EFC7
:1023C00011F0E7EF11F00A0EE66E83EC55F0C2B2A1
:1023D000ECEF11F0EEEF11F0EFEF11F0C28212000E
:1023E000E20EE66EFC0EE66E010EE66E32EC48F092
:1023F00015EC54F02DEC5AF00401826F2AEC5AF0DF
:102400000401836F27EC5AF00401846FB6EC4EF0A0
:102410000401856F8451E66E000EE66E8351E66E10
:10242000000EE66E8251E66E000EE66E0BEC4DF08D
:10243000000197C0E6FF98C0E6FF5C0EE66EF70E5F
:10244000E66E640EE66E040EE66E0C0EE66E20EC92
:102450003BF0640EE66E040EE66E020EE66E32ECA3
:1024600048F0040185BF37EF12F039EF12F057EF53
:1024700012F085C4FBF20201FC6BFBBFFC07FBC240
:10248000E6FFFCC2E6FF9A0EE66EF70EE66E640EFD
:10249000E66E040EE66E060EE66E20EC3BF0640E71
:1024A000E66E040EE66E020EE66E32EC48F00401B3
:1024B0008451D8A45EEF12F060EF12F06DEF12F0CD
:1024C0000C0E8519D8A467EF12F069EF12F06DEFCA
:1024D00012F0010EE66E83EC55F048EC5AF04850CD
:1024E000D8A475EF12F077EF12F079EF12F05AEFEF
:1024F00013F004018451D8A480EF12F082EF12F09F
:1025000037EF13F0200E8519D8B489EF12F08BEF56
:1025100012F094EF12F0560E8519D8A492EF12F033
:1025200094EF12F09AEF12F0040EE66E83EC55F081
:102530001BEF13F0210E8519D8B4A1EF12F0A3EF11
:1025400012F0ACEF12F0550E8519D8A4AAEF12F0D4
:10255000ACEF12F0B2EF12F0030EE66E83EC55F022
:102560001BEF13F03B0E8519D8B4B9EF12F0BBEF97
:1025700012F0C4EF12F0520E8519D8A4C2EF12F077
:10258000C4EF12F0CAEF12F0020EE66E83EC55F0C3
:102590001BEF13F0250E8519D8A4D1EF12F0D3EF5D
:1025A00012F0D9EF12F0050EE66E83EC55F01BEF3A
:1025B00013F0100E8519D8A4E0EF12F0E2EF12F03C
:1025C000E7EF12F0010E57EC57F01BEF13F0110E6E
:1025D0008519D8A4EEEF12F0F0EF12F0F5EF12F03B
:1025E000FF0E57EC57F01BEF13F0380E8519D8A4E7
:1025F000FCEF12F0FEEF12F002EF13F089EC3EF068
:102600001BEF13F08551800A7F0FD8A00AEF13F05B
:102610000CEF13F01BEF13F08551800A760FD8B042
:1026200014EF13F016EF13F01BEF13F08505E9EC30
:102630002CF01BEF13F00D0E04018519D8A423EF25
:1026400013F025EF13F037EF13F036EC5AF00009D2
:10265000D8B42DEF13F02FEF13F034EF13F0000E7A
:10266000A7EC59F037EF13F0010EA7EC59F0050E67
:10267000040184653EEF13F040EF13F05AEF13F0BE
:10268000100E8519D8A447EF13F049EF13F04EEF61
:1026900013F0020E57EC57F05AEF13F0110E851994
:1026A000D8A455EF13F057EF13F05AEF13F0FE0EC6
:1026B00057EC57F01200030EE66E8CEC51F04850C8
:1026C0000001B76FB751E66E000EE66EEF0EE66ED4
:1026D000FA0EE66EA20EE66E000EE66E060EE66ED0
:1026E00020EC3BF0A20E0001976F000E986FDBEC20
:1026F00058F0040EE66E8CEC51F048500001B86FB3
:10270000B851E66E000EE66EE20EE66EFA0EE66E6A
:10271000A20EE66E000EE66E060EE66E20EC3BF0B4
:10272000A20E0001976F000E986FDBEC58F00001CD
:10273000B751AFEC56F00001B851FDEC59F0400E26
:10274000E66E6EEC42F0000EE66E36EC56F0000ED1
:10275000E66E36EC56F0000EE66E36EC56F0000EE5
:10276000E66E36EC56F0000EE66E36EC56F0000ED5
:10277000E66E36EC56F01F0EE66E36EC56F0000EA6
:10278000E66E36EC56F0480EE66E6EEC42F0000E49
:10279000E66E36EC56F0000EE66E36EC56F0000EA5
:1027A000E66E36EC56F0000EE66E36EC56F01F0E76
:1027B000E66E36EC56F01F0EE66E36EC56F01F0E47
:1027C000E66E36EC56F0000EE66E36EC56F0500E25
:1027D000E66E6EEC42F0000EE66E36EC56F0000E41
:1027E000E66E36EC56F01F0EE66E36EC56F01F0E17
:1027F000E66E36EC56F01F0EE66E36EC56F01F0E07
:10280000E66E36EC56F01F0EE66E36EC56F0000E15
:10281000E66E36EC56F0580EE66E6EEC42F01F0E89
:10282000E66E36EC56F01F0EE66E36EC56F01F0ED6
:10283000E66E36EC56F01F0EE66E36EC56F01F0EC6
:10284000E66E36EC56F01F0EE66E36EC56F01F0EB6
:10285000E66E36EC56F0000EE66E36EC56F0600E84
:10286000E66E6EEC42F0070EE66E36EC56F0080EA1
:10287000E66E36EC56F0100EE66E36EC56F0160E9E
:10288000E66E36EC56F00E0EE66E36EC56F00E0E98
:10289000E66E36EC56F0060EE66E36EC56F0000E9E
:1028A000E66E36EC56F0680EE66E6EEC42F01C0EEC
:1028B000E66E36EC56F0020EE66E36EC56F0010E81
:1028C000E66E36EC56F00D0EE66E36EC56F00E0E59
:1028D000E66E36EC56F00E0EE66E36EC56F00C0E4A
:1028E000E66E36EC56F0000EE66E36EC56F00C0E48
:1028F000E66E6EEC42F0F7EC59F097C099F098C094
:102900009AF0000E00019B6F010E9C6F010E9D6FEF
:102910002EEC3FF0F1EC59F0000197C0E6FF98C0B3
:10292000E6FFEBEC59F0000197C0E6FF98C0E6FF28
:10293000050EE66EFE0EE66EA20EE66E000EE66E6A
:10294000080EE66E20EC3BF0A20E0001996F000E1F
:102950009A6F400E9B6F000E9C6F010E9D6F2EECC8
:102960003FF0330E0001A16FBB0EA06FDF0EE82E0B
:10297000FED7A02FFCD7A12FFAD700D01200110E3E
:10298000E126000EE22221EEECF0070E486EEF0E7B
:10299000DECFE3FFE828482EFBD7EB0EE3CF52F063
:1029A000EC0EE3CF53F0FB0E53C0E3FFFA0E52C020
:1029B000E3FFFA0EE3CF48F0FB0EE3504810D8A433
:1029C000E4EF14F0E6EF14F0F2EF14F0EF0EE12470
:1029D000526EFF0EE220536EFB0E53C0E3FFFA0E61
:1029E00052C0E3FFFA0EE3CFE6FFE3CFE6FFB9EC18
:1029F00042F0F60E48C0E3FFF70E49C0E3FFF80EC1
:102A00002DC0E3FFF90E2EC0E3FFF90EE3BE0BEF7E
:102A100015F00DEF15F033EF15F0E150F80FD96E0A
:102A2000E250DA6EFF0EDA22F60EE350DE5CDE5084
:102A3000800A486EF70EE350800A4858D8A023EF6A
:102A400015F025EF15F027EF15F033EF15F0F80E20
:102A5000E3CF48F0F60E48C0E3FFF90EE3CF48F0AD
:102A6000F70E48C0E3FFF60EE3CF48F0F80E48C07B
:102A7000E3FFF70EE3CF48F0F90E48C0E3FFFC0E8A
:102A80002BC0E3FFFD0E2CC0E3FF2FB04AEF15F083
:102A90004CEF15F080EF15F068EF15F0ED0EE3CF79
:102AA000E6FFE3CFE6FF200EE66E000EE66EB3EC27
:102AB0002EF0F60EE350010F486EF60E48C0E3FF0D
:102AC000486AF70EE3504820486EF70E48C0E3FF0F
:102AD000E150F60FD96EE250DA6EFF0EDA22FC0EEC
:102AE000E350DE5CDE50800A486EFD0EE350800A43
:102AF0004858D8A07EEF15F080EF15F04EEF15F096
:102B0000FE0EE36AFF0EE36AC1EF15F0ED0EE3CFB0
:102B1000E6FFE3CFE6FFF80EE3CFF6FFF90EE3CFD3
:102B2000F7FF000EF86E0F0EF76403D00800F550A3
:102B300005D0F6CFE9FFF7CFEAFFEF50E66E000EC3
:102B4000E66EB3EC2EF0FA0EE350010F486EFA0E6B
:102B500048C0E3FF486AFB0EE3504820486EFB0E76
:102B600048C0E3FFFE0EE350010F486EFE0E48C062
:102B7000E3FF486AFF0EE3504820486EFF0E48C04E
:102B8000E3FFE150FE0FD96EE250DA6EFF0EDA225B
:102B9000F80EE350DE5CDE50800A486EF90EE3501A
:102BA000800A4858D8A0D7EF15F0D9EF15F086EF76
:102BB00015F02FA0DEEF15F0E0EF15F014EF16F092
:102BC000FCEF15F0ED0EE3CFE6FFE3CFE6FF200EBE
:102BD000E66E000EE66EB3EC2EF0F60EE350010F3B
:102BE000486EF60E48C0E3FF486AF70EE3504820EF
:102BF000486EF70E48C0E3FFE150F60FD96EE25081
:102C0000DA6EFF0EDA22FC0EE350DE5CDE50800A44
:102C1000486EFD0EE350800A4858D8A012EF16F017
:102C200014EF16F0E2EF15F0EB0EE126FF0EE222B4
:102C30001200090EE126000EE222F40EE3BE23EF9D
:102C400016F027EF16F0536A532A28EF16F0536A4E
:102C5000FF0E53C0E3FFFF0EE350D8B432EF16F07F
:102C600034EF16F03AEF16F0F30EE36CF40EE31EB9
:102C7000D8B0E32A2EBE41EF16F03FEF16F04DEF2D
:102C800016F0010E526E000E536EFD0E52C0E3FFA1
:102C9000FE0E53C0E3FF53EF16F0FD0E2DC0E3FF11
:102CA000FE0E2EC0E3FFFB0E2BC0E3FFFC0E2CC07C
:102CB000E3FFFF0EE350D8A460EF16F062EF16F0CA
:102CC00069EF16F02FA467EF16F069EF16F098EF92
:102CD00016F0E150FB0FD96EE250DA6EFF0EDA22E9
:102CE000DE06000EDD5AFF0EE350D8A47AEF16F090
:102CF0007CEF16F088EF16F02B0E526E000E536E1E
:102D0000F70E52C0E3FFF80E53C0E3FF92EF16F048
:102D10002D0E526E000E536EF70E52C0E3FFF80EEA
:102D200053C0E3FFF70EE3CF48F0FF0E48C0E3FFC8
:102D30001F0E526E000E536EF90E52C0E3FFFA0ED4
:102D400053C0E3FF0201526BF5EF16F0E150F90FAB
:102D5000D96EE250DA6EFF0EDA22DE06000EDD5A80
:102D6000F90EE3CF52F0FA0EE3CF53F0330E5224B4
:102D7000D96E020E5320DA6E0A0EE66E000EE66E73
:102D8000F10EE3CFE6FFE3CFE6FFBBEC29F048C04E
:102D9000E6FF49C0E6FF06EC4FF04850300FDF6E0B
:102DA000E150FD0FD96EE250DA6EFF0EDA22DE0638
:102DB000000EDD5AE150FB0FD96EE250DA6EFF0EC5
:102DC000DA22DE06000EDD5A0A0EE66E000EE66E10
:102DD000F10EE3CFE6FFE3CFE6FF22EC24F0F30EA3
:102DE00048C0E3FFF40E49C0E3FFFA0EE3BE03EF71
:102DF00017F0FA0EE35009E1F90EE304D8A003EF4F
:102E000017F005EF17F022EF17F0F30EE3CF48F0BD
:102E1000F40EE3504810D8A410EF17F012EF17F09B
:102E2000A6EF16F0FE0EE3BE22EF17F0FE0EE35003
:102E300007E1FD0EE304D8B020EF17F022EF17F002
:102E4000A6EF16F0FF0EE350D8B429EF17F02BEFE2
:102E500017F044EF17F0E150F90FD96EE250DA6E37
:102E6000FF0EDA22DE06000EDD5AF90EE3CF52F035
:102E7000FA0EE3CF53F0330E5224D96E020E5320D4
:102E8000DA6EFF0EE3CFDFFFFB0EE3CFE6FFE3CF0B
:102E9000E6FF330E526E020E536EF70EE3505226CB
:102EA000F80EE350532252C0E6FF53C0E6FFF10E86
:102EB000E3CFE6FFE3CFE6FFBEEC34F0F30EE1260E
:102EC000FF0EE22212000001D251D311D8A46BEF01
:102ED00017F06DEF17F06FEF17F0ABEF18F01E0E55
:102EE000D225AD6F000ED321AE6FADC0F6FFAEC0E0
:102EF000F7FFF86A0800F5500009D8B482EF17F020
:102F000084EF17F0A1EF17F0D951020DF3CFADF018
:102F1000F4CFAEF0AD51D225AF6FAE51D321B06F2B
:102F20001F0EAF27000EB023AFC0F6FFB0C0F7FFF3
:102F3000F86A0900F5CFB2F00A00F5CFB3F0A5EFBB
:102F400017F0000EB26F000EB36F010EE66E6EEC5E
:102F500042F00001B251B311D8B4B1EF17F0B3EFA2
:102F600017F0DCEF17F0800EE66E6EEC42F0D2C088
:102F7000E6FFD3C0E6FF14EC40F0C00EE66E6EEC48
:102F800042F03C0EE66E36EC56F0200EE66E36EC65
:102F900056F0B2C0E6FFB3C0E6FF14EC40F042ECDE
:102FA0005AF00001AD6FAD059DEC57F03E0EE66E98
:102FB00036EC56F0ABEF18F0140ED225AD6F000EC4
:102FC000D321AE6FADC0F6FFAEC0F7FFF86A0900BF
:102FD000F5500900F510D8B4F0EF17F0F2EF17F044
:102FE000ABEF18F0160ED225AD6F000ED321AE6FE9
:102FF000ADC0F6FFAEC0F7FFF86A0900F550090052
:10300000F510D8B406EF18F008EF18F0ABEF18F091
:10301000180ED225AD6F000ED321AE6FADC0F6FFF6
:10302000AEC0F7FFF86A0900F5500900F510D8B4F2
:103030001CEF18F01EEF18F0ABEF18F0140ED225AD
:10304000AD6F000ED321AE6FADC0F6FFAEC0F7FF7F
:10305000F86A0900F5CFAFF00900F5CFB0F002D85B
:103060003BEF18F00500FA6EAF51FD6EB051FE6EE9
:10307000FF6AFA5012000001B16F800EE66E6EEC2E
:1030800042F00001B151D8A448EF18F04AEF18F00F
:103090005CEF18F0D2C0E6FFD3C0E6FF14EC40F0BE
:1030A000C00EE66E6EEC42F0D00EE66EFC0EE66EE2
:1030B00014EC40F0ABEF18F0160ED225AD6F000EF9
:1030C000D321AE6FADC0F6FFAEC0F7FFF86A0900BE
:1030D000F5CFAFF00900F5CFB0F002D87AEF18F0D5
:1030E0000500FA6EAF51FD6EB051FE6EFF6AFA50E8
:1030F000D95112000001A8C0E6FFA9C0E6FF14ECF8
:1031000040F0C00EE66E6EEC42F0180E0001D225C3
:10311000AD6F000ED321AE6FADC0F6FFAEC0F7FFAE
:10312000F86A0900F5CFAFF00900F5CFB0F002D88A
:10313000A4EF18F00500FA6EAF51FD6EB051FE6EAF
:10314000FF6AFA50D951120000019CC0E6FF9DC0F1
:10315000E6FF14EC40F0120056EC5AF00301F16F58
:10316000FBC2A2F0FCC2A3F0E40E0001A46F030EA8
:10317000A56FD1EC4BF00301F06FF005D8A4C3EFBD
:1031800018F0C5EF18F00EEF19F0F151E66E000ED1
:10319000E66E3F0EE66EFC0EE66E040EE66EE4ECA6
:1031A0004DF0000E0301F26F03EF19F0F25142EC03
:1031B00041F0000197C0E6FF98C0E6FF0301F2511D
:1031C000E66E8CEC51F048C0E6FF49C0E6FF030113
:1031D000F2518DEC41F0000197C0E6FF98C0E6FF88
:1031E0000301F251ACEC40F0000197C0E6FF98C03B
:1031F000E6FF470EE66EF70EE66E0A0EE66EE4ECAC
:103200004DF00301F22BF151F25DD8A00AEF19F055
:103210000CEF19F0D6EF18F0BCEF19F0020EF01910
:10322000D8A415EF19F017EF19F06DEF19F0000E93
:10323000F26F62EF19F0E6C39CF0E7C39DF0F25124
:10324000ACEC40F097C09EF098C09FF085EC47F042
:1032500000019C519D11D8A430EF19F032EF19F004
:1032600060EF19F00301F25142EC41F0000197C008
:10327000E6FF98C0E6FF0301F251E66E8CEC51F0D8
:1032800048C0E6FF49C0E6FF0301F2518DEC41F072
:10329000000197C0E6FF98C0E6FF0301F251ACECD5
:1032A00040F0000197C0E6FF98C0E6FF470EE66ECB
:1032B000F70EE66E0A0EE66EE4EC4DF0BCEF19F088
:1032C0000301F22BF151F25DD8A069EF19F06BEF19
:1032D00019F01BEF19F0B0EF19F0030EF019D8A494
:1032E00074EF19F076EF19F0B0EF19F0000EF26FED
:1032F000A7EF19F0E6C39CF0E7C39DF0F251ACECE8
:1033000040F097C09EF098C09FF085EC47F0000118
:103310009C519D11D8A48FEF19F091EF19F0A5EFF2
:1033200019F0E8C39CF0E9C39DF004EC2BF09CC0BD
:10333000EEF39DC0EFF3EEC398F0EFC399F00301F5
:10334000F25115EC32F0BCEF19F00301F22BF15100
:10335000F25DD8A0AEEF19F0B0EF19F07AEF19F0E6
:10336000E6C3E6FFE7C3E6FF7D0EE66EF80EE66E07
:10337000040EE66EE4EC4DF01200016E302AC10E30
:103380000118D8A4C6EF19F0C8EF19F0DDEF19F055
:10339000809480900C0EE66E6EEC42F0010EE66EAC
:1033A0006EEC42F0800EE66E6EEC42F0C10EE66E00
:1033B000F80EE66E14EC40F0FF00ABA2E2EF19F05D
:1033C000E4EF19F0F3EF19F0FC0EE66EFC0EE66E7A
:1033D000DFEC57F0000E0001D56F000ED46FAB98F4
:1033E000AB88BAEF1AF00001D451D8B4FAEF19F053
:1033F000FCEF19F004EF1AF0520EE66EFE0EE66EC8
:10340000DFEC57F0BAEF1AF07A0E01640AEF1AF007
:103410000CEF1AF00EEF1AF0BAEF1AF0200E01605E
:1034200014EF1AF016EF1AF045EF1AF00D0E01180E
:10343000D8A41DEF1AF01FEF1AF021EF1AF045EF94
:103440001AF00A0E0118D8A428EF1AF02AEF1AF081
:103450002CEF1AF045EF1AF0080E0118D8A433EF3C
:103460001AF035EF1AF037EF1AF045EF1AF01B0E8D
:103470000118D8A43EEF1AF040EF1AF0BAEF1AF094
:10348000020E01011B6FBAEF1AF001011B51D8B4F3
:103490004CEF1AF04EEF1AF051EF1AF01B07BAEF8B
:1034A0001AF0080E0118D8A458EF1AF05AEF1AF0C3
:1034B0006EEF1AF00001D551D8B461EF1AF063EF46
:1034C0001AF08DEF1AF0D5079C0EE66EFE0EE66E32
:1034D000020EE66EE4EC4DF0BAEF1AF0630E000156
:1034E000D56575EF1AF077EF1AF082EF1AF0EE0E4D
:1034F000E66EF90EE66EDFEC57F0000E0001D56FB8
:10350000BAEF1AF0000ED525D96EDA6A040EDA2267
:1035100001C0DFFFD52B01C0ADFF0A0E0118D8B4E2
:1035200094EF1AF096EF1AF09FEF1AF00D0E0118B3
:10353000D8A49DEF1AF09FEF1AF0BAEF1AF0010E1F
:10354000D565A5EF1AF0A7EF1AF0B6EF1AF0FF0E47
:10355000D525D96EDA6A030EDA22DF6A010ED46F3E
:103560000C0EE66E83EC55F0BAEF1AF0000ED56F34
:10357000000ED46F12000CEC5AF097C0AAF098C05D
:10358000ABF036EC5AF036EC5AF00009D8B4CBEF79
:103590001AF0CDEF1AF0DBEF1AF0740EE66EFD0EA6
:1035A000E66ECB0EE66E010EE66E040EE66E20ECC5
:1035B0003BF0B2EF1BF00001ABAFE8EF1AF0410EA9
:1035C000AA5DFF0EAB59D8B0E8EF1AF0EAEF1AF097
:1035D000F8EF1AF06C0EE66EFD0EE66ECB0EE66EA0
:1035E000010EE66E040EE66E20EC3BF0B2EF1BF02F
:1035F000ABAF04EF1BF0ED0EAA5DFF0EAB59D8B0D8
:1036000004EF1BF006EF1BF022EF1BF0FE0EE66E40
:10361000FF0EE66EAAC0E6FFABC0E6FF22EC24F088
:1036200048C0E6FF49C0E6FF8E0EE66EFE0EE66E6F
:10363000CB0EE66E010EE66E060EE66E20EC3BF05B
:1036400089EF1BF0ABBF29EF1BF027EF1BF045EF15
:103650001BF0FE0EE66EFF0EE66EAAC0E6FFABC0E4
:10366000E6FF22EC24F048C0E6FF49C0E6FF0B0E5F
:10367000E66EFE0EE66ECB0EE66E010EE66E060EF2
:10368000E66E20EC3BF089EF1BF0ABBF51EF1BF077
:10369000AB5109E1140EAA5DD8A051EF1BF053EF16
:1036A0001BF06FEF1BF0020EE66E000EE66EAAC076
:1036B000E6FFABC0E6FF22EC24F048C0E6FF49C0BD
:1036C000E6FF930EE66EFE0EE66ECB0EE66E010E84
:1036D000E66E060EE66E20EC3BF089EF1BF0020E64
:1036E000E66E000EE66EAAC0E6FFABC0E6FF22EC77
:1036F00024F048C0E6FF49C0E6FF110EE66EFE0E5C
:10370000E66ECB0EE66E010EE66E060EE66E20EC61
:103710003BF00001AAA18FEF1BF091EF1BF09DEF92
:103720001BF0CB0EA46F010EA56FF30EA66FFE0E5D
:10373000A76F5FEC56F0A7EF1BF0CB0EA46F010E46
:10374000A56FBD0EA66FFE0EA76F5FEC56F0CB0EF9
:103750000001A46F010EA56F710EA66FFD0EA76F7D
:103760005FEC56F0CB0E0001A86F010EA96F12009E
:10377000090EE126000EE2222EBEC3EF1BF0C1EFC0
:103780001BF0CFEF1BF0010E526E000E536EFB0EBE
:1037900052C0E3FFFC0E53C0E3FFD5EF1BF0FB0E5E
:1037A0002DC0E3FFFC0E2EC0E3FFFD0E2BC0E3FF98
:1037B000FE0E2CC0E3FF1F0E526E000E536EF90E6C
:1037C00052C0E3FFFA0E53C0E3FF0201526B60EFF9
:1037D0001CF0E150F90FD96EE250DA6EFF0EDA22DA
:1037E000DE06000EDD5AF30EE3CF53F00F0E531634
:1037F000FF0E53C0E3FFFF0EE3CF48F0090E48640D
:1038000004EF1CF006EF1CF016EF1CF0FF0EE35067
:10381000526E536A370E5226000E5322F70E52C0D4
:10382000E3FFF80E53C0E3FF24EF1CF0FF0EE3505C
:10383000526E536A300E5226000E5322F70E52C0BB
:10384000E3FFF80E53C0E3FFF70EE3CF48F0FF0E9F
:1038500048C0E3FFF90EE3CF52F0FA0EE3CF53F086
:10386000330E5224D96E020E5320DA6EFF0EE3CFD0
:10387000DFFFE150FB0FD96EE250DA6EFF0EDA2265
:10388000DE06000EDD5AE150FD0FD96EE250DA6E11
:10389000FF0EDA22DE06000EDD5A040E536EE150F2
:1038A000F30FD96EE250DA6EFF0EDA2253285DEF85
:1038B0001CF0DE52D890DD32DF32E82E59EF1CF0DA
:1038C000FA0EE3BE71EF1CF0FA0EE3500CE1F90EB4
:1038D000E3CF48F0020E485ED8A071EF1CF073EF02
:1038E0001CF090EF1CF0F30EE3CF48F0F40EE35021
:1038F0004810D8A47EEF1CF080EF1CF0E9EF1BF01D
:10390000FC0EE3BE90EF1CF0FC0EE35007E1FB0E53
:10391000E304D8B08EEF1CF090EF1CF0E9EF1BF041
:10392000FD0EE3CFE6FFE3CFE6FF330E526E020E4D
:10393000536EF70EE3505226F80EE350532252C056
:10394000E6FF53C0E6FFF10EE3CFE6FFE3CFE6FF6D
:10395000BEEC34F0F30EE126FF0EE2221200E65236
:10396000E652E652E652FA0EE3CF52F0FB0EE3CFF8
:1039700053F0FF0E53C0E3FFFE0E52C0E3FFF80EFC
:10398000E3CF52F0F90EE3CF53F0FD0E53C0E3FF47
:10399000FC0E52C0E3FFF60EE3CF48F0010E485E86
:1039A000F60E48C0E3FFF70EE3CF48F0000E485A8A
:1039B000F70E48C0E3FFF60EE32807E1F70EE32811
:1039C000D8A4E5EF1CF0E7EF1CF01BEF1DF0000E94
:1039D000486E000E496E9AEF1DF0FE0EE350010F87
:1039E000486EFE0E48C0E3FF486AFF0EE3504820D1
:1039F000486EFF0E48C0E3FFFC0EE350010F486E17
:103A0000FC0E48C0E3FF486AFD0EE3504820486EB4
:103A1000FD0E48C0E3FFF60EE3CF48F0010E485E0E
:103A2000F60E48C0E3FFF70EE3CF48F0000E485A09
:103A3000F70E48C0E3FFE150FE0FD96EE250DA6E98
:103A4000FF0EDA22DECFF6FFDDCFF7FFF86A0800BF
:103A5000F5500009D8B42FEF1DF031EF1DF079EFCC
:103A60001DF0E150FC0FD96EE250DA6EFF0EDA2243
:103A7000DECFF6FFDDCFF7FFF86A0800F55000094A
:103A8000D8B445EF1DF047EF1DF079EF1DF0F60EAD
:103A9000E3CF48F0F70EE3504810D8B452EF1DF0D2
:103AA00054EF1DF079EF1DF0E150FE0FD96EE2509A
:103AB000DA6EFF0EDA22DECFF6FFDDCFF7FFF86A0F
:103AC0000800F5CF53F0E150FC0FD96EE250DA6EEA
:103AD000FF0EDA22DECFF6FFDDCFF7FFF86A08002F
:103AE000F5505318D8B477EF1DF079EF1DF0EDEFD6
:103AF0001CF0E150FE0FD96EE250DA6EFF0EDA22B2
:103B0000DECFF6FFDDCFF7FFF86A0800F550486E0C
:103B1000496AE150FC0FD96EE250DA6EFF0EDA22EC
:103B2000DECFF6FFDDCFF7FFF86A0800F550485EFC
:103B3000000E495AF60EE126FF0EE2221200010E97
:103B400000019B6F000E9C6F02012051D8A4ABEFC7
:103B50001DF0ADEF1DF0AFEF1DF079EF1EF0000E80
:103B60000101026F010E016F000E096F000E0001CE
:103B70009A6F05EF1EF0000E9A25D96EDA6A020ED2
:103B8000DA22DF509C279B51D8B4C9EF1DF0CBEF50
:103B90001DF0CFEF1DF0000E9B6FD1EF1DF0010E59
:103BA0009B6F0E0E9C61D7EF1DF0D9EF1DF0DBEF80
:103BB0001DF004EF1EF00D0E9C65E1EF1DF0E3EF2C
:103BC0001DF0FAEF1DF0150E9C61E9EF1DF0EBEF13
:103BD0001DF0FAEF1DF00101D89001370237000106
:103BE0009B5101010127000E0223000E00019C6F72
:103BF00004EF1EF0140E9C6500EF1EF002EF1EF0A5
:103C000004EF1EF079EF1EF09A2B02011E51000105
:103C10009A5DD8A00EEF1EF010EF1EF0BBEF1DF066
:103C200021EE01F0DECF97F0DDCF98F00C0E996F0A
:103C3000D89098339733992F18EF1EF097A123EF60
:103C40001EF025EF1EF02AEF1EF0000E0101086F96
:103C50002DEF1EF0400E0101086F0351011907E11D
:103C600004510219D8A437EF1EF039EF1EF044EFCB
:103C70001EF00A29D8B43FEF1EF041EF1EF04AEFC4
:103C80001EF00A2B4AEF1EF0000E0A6F01C103F16D
:103C900002C104F105C106F121EE01F0DECF97F07B
:103CA000DDCF98F00B0E0001996FD89098339733C1
:103CB000992F55EF1EF09751010B0101056F21EE71
:103CC00001F0DECF97F0DDCF98F0060E0001996F7E
:103CD000D89098339733992F68EF1EF097511F0BA8
:103CE0000101076F01513F0B0827000E006F010E05
:103CF000096F12001C6E1C50D8B481EF1EF083EFC8
:103D00001EF0A5EF1EF017BE8AEF1EF088EF1EF022
:103D1000A5EF1EF014C018F015C019F016C01AF067
:103D200017C01BF0181E191E1A1E1B1E182A000E83
:103D300019221A221B2218C01EF019C01FF01AC027
:103D400020F01BC021F0ADEF1EF014C01EF015C016
:103D50001FF016C020F017C021F0145015101610D7
:103D60001710D8A4B6EF1EF0B8EF1EF0C2EF1EF089
:103D7000000E146E000E156E000E166E000E176EFD
:103D800053EF1FF0960E1D6ECCEF1EF01D2AD8903B
:103D9000213220321F321E32000E1E14186E000E09
:103DA0001F14196E000E20141A6EFE0E21141B6EC5
:103DB000185019101A101B10D8A4E1EF1EF0E3EFF1
:103DC0001EF0C6EF1EF0F1EF1EF01D2A010E1E269A
:103DD000000E1F2220222122D890213220321F32B1
:103DE0001E32000E1E14186E000E1F14196E000EE7
:103DF00020141A6EFF0E21141B6E185019101A1081
:103E00001B10D8A406EF1FF008EF1FF0E5EF1EF01F
:103E100010EF1FF01D06D8901E361F3620362136B3
:103E200020BE15EF1FF017EF1FF01FEF1FF0020E5F
:103E30001D601DEF1FF01FEF1FF00AEF1FF01DB0F8
:103E400024EF1FF026EF1FF027EF1FF0209ED890E1
:103E50001D321DC018F0196A1A6A1B6A18C01BF0BF
:103E60001A6A196A186A18501E1219501F121A502D
:103E700020121B5021121C50D8B441EF1FF043EF09
:103E80001FF04BEF1FF017BE4AEF1FF048EF1FF077
:103E90004BEF1FF0218E1EC014F01FC015F020C084
:103EA00016F021C017F012000001A06F00EF20F003
:103EB00080EC4AF0E66E000EE66EC6EC53F0E66E5D
:103EC000000EE66E0C0EE66EFD0EE66EAC0EE66EB5
:103ED000010EE66E080EE66E20EC3BF026EF20F0B9
:103EE00030EC5AF0E66E000EE66E3CEC5AF04850AC
:103EF00000019E6F9F6B010E9E27000E9F239EC0A8
:103F0000E6FF9FC0E6FF0C0EE66EFD0EE66EAC0E01
:103F1000E66E010EE66E080EE66E20EC3BF026EF34
:103F200020F05AEC5AF0E66E000EE66E5CEC5AF0A9
:103F3000E66E000EE66E5EEC5AF0E66E000EE66E81
:103F400060EC5AF0E66E000EE66E050EE66EF90EB7
:103F5000E66EAC0EE66E010EE66E0C0EE66E20EC22
:103F60003BF026EF20F066EC5AF0E66E000EE66EAF
:103F700068EC5AF0E66E000EE66E6AEC5AF0E66EF9
:103F8000000EE66E6CEC5AF0E66E000EE66E050E64
:103F9000E66EF90EE66EAC0EE66E010EE66E0C0EE7
:103FA000E66E20EC3BF026EF20F062EC5AF0E66E75
:103FB000000EE66E64EC5AF0E66E000EE66E100E31
:103FC000E66EF90EE66EAC0EE66E010EE66E080EBB
:103FD000E66E20EC3BF026EF20F058EC5AF0E66E4F
:103FE000000EE66E190EE66EF80EE66EAC0EE66E8C
:103FF000010EE66E060EE66E20EC3BF026EF20F09A
:104000000001A0519E6F9F6B9F51000AD8B40BEF27
:1040100020F026EF20F09E51000AD8B458EF1FF090
:10402000010AD8B470EF1FF0030AD8B491EF1FF063
:10403000010AD8B4B3EF1FF0070AD8B4D5EF1FF0C8
:10404000010AD8B4EDEF1FF026EF20F0AC0E00010E
:104050009C6F010E9D6F12000001AC6FFEEC57F0DB
:104060000009D8B436EF20F038EF20F03AEF20F016
:10407000FCEF20F00001AC51D8B441EF20F043EF49
:1040800020F045EF20F056EC53F0C5EC54F0000959
:10409000D8A44DEF20F04FEF20F051EF20F0FCEFCF
:1040A00020F00001AC51D8A458EF20F05AEF20F0D6
:1040B0007AEF20F0A6EC52F04850D8A462EF20F03E
:1040C00064EF20F07AEF20F024EC59F001011F1981
:1040D000D8A46DEF20F06FEF20F07AEF20F018EC0D
:1040E00059F001011E19D8B478EF20F07AEF20F0D2
:1040F000BEEF20F024EC59F001011F6F18EC59F0CD
:1041000001011E6FC00EE66E6EEC42F0C3EC59F07A
:104110000001A0C0E6FFA1C0E6FF14EC40F07E0E57
:10412000E66E36EC56F0DDEC54F00009D8B49BEFA7
:1041300020F09DEF20F0B5EF20F0FBEC56F048505A
:10414000D8B4A5EF20F0A7EF20F0B5EF20F0040ED3
:10415000E66E36EC56F0050EE66E36EC56F0200EA6
:10416000E66E36EC56F0BEEF20F0BAEC59F00001E6
:10417000A0C0E6FFA1C0E6FF14EC40F00001AC5186
:10418000D8A4C5EF20F0C7EF20F0E4EF20F00CEC4E
:104190005AF0010113510001971909E1010114516D
:1041A00000019819D8A4D7EF20F0D9EF20F0E4EF60
:1041B00020F036EC5AF001011D19D8B4E2EF20F0DE
:1041C000E4EF20F0FCEF20F036EC5AF001011D6F17
:1041D0000CEC5AF097C013F198C014F142EC5AF06D
:1041E000F90F9DEC57F0BBEC1AF00001A8C0E6FFF8
:1041F000A9C0E6FF14EC40F01200000E00019E6F13
:10420000D851D8B406EF21F008EF21F0CDEF21F01E
:1042100048EC5AF04850D8A410EF21F012EF21F0EA
:1042200014EF21F0CDEF21F03CEC5AF001012151C7
:104230004818D8B41EEF21F020EF21F022EF21F032
:10424000CDEF21F0FEEC57F00009D8B42AEF21F0B1
:104250002CEF21F02EEF21F0CDEF21F0400EE66E95
:10426000030EE66EB9EC42F048500001A16F0D0E4E
:10427000A1653DEF21F03FEF21F041EF21F0010E6C
:104280009E6F800EE66E6EEC42F0000E0001A06F95
:104290009E51D8B44EEF21F050EF21F08EEF21F077
:1042A000D751A0259F6F9F51976F986BA151996F20
:1042B0009A6B040E9927000E9A239751995D9A5193
:1042C000800A9B6F9851800A9B59D8B06AEF21F001
:1042D0006CEF21F06FEF21F0A151050F9F5FA1510D
:1042E0009F5DD8B076EF21F078EF21F088EF21F0D4
:1042F000400E9F259C6F9D6B030E9D239CC0D9FF94
:104300009DC0DAFFDF50E66E36EC56F09FEF21F0ED
:10431000200EE66E36EC56F09FEF21F0A151A05D25
:10432000D8B095EF21F097EF21F088EF21F0400E03
:10433000A0259C6F9D6B030E9D237EEF21F0000155
:10434000A02B0C0EA065A7EF21F0A9EF21F048EFFC
:1043500021F09E51D8B4AFEF21F0B1EF21F0CDEFB5
:1043600021F0D72BD751976F986BA151996F9A6B0A
:10437000040E9927000E9A239751995D9A51800A4D
:104380009B6F9851800A9B59D8B0C9EF21F0CBEFB1
:1043900021F0CDEF21F0000ED76F1200000E0001CA
:1043A000A46FD20E996FF80E9A6F000E9B6F010EDC
:1043B0009C6F010E9D6F2EEC3FF0330E0001A16F3C
:1043C000BB0EA06FDF0EE82EFED7A02FFCD7A12FCB
:1043D000FAD700D0010EE66E6EEC42F0800EE66E6B
:1043E0006EEC42F0A60EE66EF90EE66E14EC40F0AE
:1043F00050EC5AF00001A06FA005A36F000E48EC2E
:1044000047F052EC5AF00101206F52EC5AF00001D3
:10441000A06F010120510001A05DA26F020EE66EA7
:10442000000EE66EA2C0A0F0A16BA0BFA107A0C0C5
:10443000E6FFA1C0E6FF22EC24F048504910D8B4B2
:1044400024EF22F026EF22F032EF22F052EC5AF065
:104450000101206F0001A45130EC33F00001A451A0
:1044600048EC47F068EC52F04850D8B43AEF22F0EC
:104470003CEF22F03EEF22F09DEF22F049EC52F0AB
:104480004850D8B446EF22F048EF22F04AEF22F02D
:104490009DEF22F087EC52F04850D8B452EF22F052
:1044A00054EF22F065EF22F00001A451D8B45BEF85
:1044B00022F05DEF22F060EF22F0A40762EF22F01D
:1044C000A3C0A4F0A45148EC47F02AEC52F04850A5
:1044D000D8B46DEF22F06FEF22F081EF22F00001EF
:1044E000A351A45DD8B077EF22F079EF22F07CEFF2
:1044F00022F0A42B7EEF22F0000EA46FA45148EC12
:1045000047F00BEC52F04850D8B489EF22F08BEF13
:1045100022F005EF22F00001A351A45DD8B093EF83
:1045200022F095EF22F09BEF22F0A42BA45148EC4F
:1045300047F005EF22F06CEC0BF01200E150FC0F9D
:10454000D96EE250DA6EFF0EDA22000EDE14506EE3
:10455000000EDE14516E800EDE14526E7F0EDE14DD
:10456000536E5050511052105310D8A4BAEF22F08D
:10457000BCEF22F0C4EF22F0FC0EE36AFD0EE36A0A
:10458000FE0EE36AFF0EE36AE150F80FD96EE250C7
:10459000DA6EFF0EDA22000EDE14506E000EDE140C
:1045A000516E800EDE14526E7F0EDE14536E50502C
:1045B000511052105310D8A4E0EF22F0E2EF22F095
:1045C000EAEF22F0F80EE36AF90EE36AFA0EE36A04
:1045D000FB0EE36AFF0EE3AEF0EF22F0F2EF22F003
:1045E00012EF23F0000E506E000E516E000E526E50
:1045F000800E536EFC0EE350505EFD0EE350515A98
:10460000FE0EE350525AFF0EE350535AFC0E50C0B8
:10461000E3FFFD0E51C0E3FFFE0E52C0E3FFFF0EAD
:1046200053C0E3FFFB0EE3AE18EF23F01AEF23F0C5
:104630003AEF23F0000E506E000E516E000E526ED7
:10464000800E536EF80EE350505EF90EE350515A4F
:10465000FA0EE350525AFB0EE350535AF80E50C074
:10466000E3FFF90E51C0E3FFFA0E52C0E3FFFB0E69
:1046700053C0E3FFFF0EE37EFB0EE37EE150FC0F31
:10468000D96EE250DA6EFF0EDA22F80EE350DE5CED
:10469000F90EE350DE58FA0EE350DE58FB0EE350FD
:1046A000DE58D8B056EF23F058EF23F05BEF23F03D
:1046B00048905CEF23F04880F80EE126FF0EE222DE
:1046C000120000019B6FCBEF23F0610E976FFE0E7F
:1046D000986F21EF24F0660E976FFE0E986F21EF12
:1046E00024F06B0E976FFE0E986F21EF24F0750E7D
:1046F000976FFE0E986F21EF24F07A0E976FFE0EE3
:10470000986F21EF24F07F0E976FFE0E986F21EFC8
:1047100024F0840E976FFE0E986F21EF24F0890E1F
:10472000976FFE0E986F21EF24F02C0E976FFD0E01
:10473000986F21EF24F0340E976FFD0E986F21EFE4
:1047400024F03C0E976FFD0E986F21EF24F0440E7D
:10475000976FFD0E986F21EF24F04C0E976FFD0EB2
:10476000986F21EF24F0540E976FFD0E986F21EF94
:1047700024F05C0E976FFD0E986F21EF24F0640E0D
:10478000976FFD0E986F21EF24F0DE0E976FFE0EEF
:10479000986F21EF24F000019B51080D4B0EF3247C
:1047A000D96E010EF420DA6EDF50996F9A6B9A5130
:1047B000000AD8B4DEEF23F0C5EF23F09951000AC8
:1047C000D8B495EF23F0010AD8B49BEF23F0030A85
:1047D000D8B4A1EF23F0010AD8B4A7EF23F0070A59
:1047E000D8B4ADEF23F0010AD8B4B3EF23F0030A35
:1047F000D8B4B9EF23F0010AD8B4BFEF23F00F0A01
:10480000D8B465EF23F0010AD8B46BEF23F0030AA4
:10481000D8B471EF23F0010AD8B477EF23F0070A78
:10482000D8B47DEF23F0010AD8B483EF23F0030A54
:10483000D8B489EF23F0010AD8B48FEF23F0C5EF85
:1048400023F01200E652E652E652E652FE0EE36A0A
:10485000F90EE3BE30EF24F02EEF24F039EF24F010
:10486000F80EE36CF90EE31ED8B0E32AFE0EE36AFD
:10487000E32AFB0EE3BE41EF24F03FEF24F049EFC3
:1048800024F0FA0EE36CFB0EE31ED8B0E32AFE0E12
:10489000E370FC0EE36AFD0EE36AF80EE3CF48F026
:1048A000F90EE3504810D8B458EF24F05AEF24F032
:1048B000C6EF24F0FF0EE36AE32A70EF24F0F80E4F
:1048C000E350D890E834486EF80E48C0E3FFF90E84
:1048D000E350E834486EF90E48C0E3FFFF0EE32AC8
:1048E000F90EE3AE76EF24F078EF24F05FEF24F0DA
:1048F000FC0EE350D890E834486EFC0E48C0E3FF4D
:10490000FD0EE350E834486EFD0E48C0E3FFF80E9C
:10491000E3CF52F0F90EE3CF53F0FA0EE3CF50F0AD
:10492000FB0EE3CF51F05250505C53505158D8A079
:104930009CEF24F09EEF24F0B2EF24F0FA0EE35047
:10494000486EF80EE350485EFA0E48C0E3FFFB0ED7
:10495000E350486EF90EE350485AFB0E48C0E3FF9F
:10496000FC0EE380D890F90EE332F80EE332FF0E2E
:10497000E350486E010E485EFF0E48C0E3FFD8A426
:10498000C4EF24F0C6EF24F078EF24F0FE0EE350DD
:10499000D8B4CDEF24F0CFEF24F0D5EF24F0FC0E07
:1049A000E36CFD0EE31ED8B0E32AFC0EE3CF48F023
:1049B000FD0EE3CF49F0F80EE126FF0EE2221200D1
:1049C00097C0A1F098C0A2F000019B519C11D8A4FF
:1049D000ECEF24F0EEEF24F0F0EF24F09BEF25F065
:1049E000A1C0D9FFA2C0DAFF99C0DFFF9B51A1256A
:1049F0009D6F9C51A2219E6FFF0E9D25D96EFF0ECB
:104A00009E21DA6E99C0DFFF9C5107E1030E9B5D8A
:104A1000D8B00DEF25F00FEF25F011EF25F09BEF4B
:104A200025F020EE01F0A151D926A251DA2299C039
:104A3000DFFF20EE02F0A151D926A251DA2299C05F
:104A4000DFFF9B51A1259D6F9C51A2219E6FFE0E01
:104A50009D25D96EFF0E9E21DA6E99C0DFFF9B5116
:104A6000A1259D6F9C51A2219E6FFD0E9D25D96EA3
:104A7000FF0E9E21DA6E99C0DFFF9C5107E1070E01
:104A80009B5DD8B046EF25F048EF25F04AEF25F0C2
:104A90009BEF25F020EE03F0A151D926A251DA2296
:104AA00099C0DFFF9B51A1259D6F9C51A2219E6F54
:104AB000FC0E9D25D96EFF0E9E21DA6E99C0DFFF98
:104AC0009C5107E1090E9B5DD8B069EF25F06BEFB3
:104AD00025F06DEF25F09BEF25F0A1C09DF0A2C061
:104AE0009EF09D1F9E1F9D4B9E2B030E9D159F6F3D
:104AF000A06B9F51A127A051A2239F519B5FA05162
:104B00009C5BFC0E9B17FF0E9C1792EF25F0A1C03B
:104B1000D9FFA2C0DAFF99C0DFFF9B07D8A09C078E
:104B2000A14BA22B9B519C11D8A499EF25F09BEF90
:104B300025F087EF25F012001E0E0001D225B46F7C
:104B4000000ED321B56FB4C0F6FFB5C0F7FFF86A09
:104B50000800F5500009D8A4B0EF25F0B2EF25F019
:104B6000B8EF25F0000EB96F000EBA6FD3EF25F045
:104B7000D951020DF3CFB4F0F4CFB5F0B451D22532
:104B8000B66FB551D321B76F1F0EB627000EB723EE
:104B9000B6C0F6FFB7C0F7FFF86A0900F5CFB9F065
:104BA0000A00F5CFBAF0B951BA11D8B4DAEF25F04E
:104BB000DCEF25F0E4EF25F0B9C0D2F0BAC0D3F0B5
:104BC000000ED96F55EF26F0140ED225B46F000EEB
:104BD000D321B56FB4C0F6FFB5C0F7FFF86A09007E
:104BE000F5500900F510D8B4F8EF25F0FAEF25F0EC
:104BF00055EF26F01C0ED225B46F000ED321B56FF1
:104C0000B4C0F6FFB5C0F7FFF86A0900F550090017
:104C1000F510D8B40EEF26F010EF26F055EF26F081
:104C2000140ED225B46F000ED321B56FB4C0F6FFB9
:104C3000B5C0F7FFF86A0900F5CFB6F00900F5CF67
:104C4000B7F002D82DEF26F00500FA6EB651FD6ED2
:104C5000B751FE6EFF6AFA5012000001B86FB851EA
:104C6000D8B435EF26F037EF26F055EF26F01C0EBE
:104C7000D225B46F000ED321B56FB4C0F6FFB5C016
:104C8000F7FFF86A0900F5CFB6F00900F5CFB7F0E5
:104C900002D855EF26F00500FA6EB651FD6EB751F9
:104CA000FE6EFF6AFA50D951120063EC17F0120041
:104CB00000019B6FEEEF26F00101A851D8B463EF1D
:104CC00026F065EF26F06CEF26F0E80E0001976FF6
:104CD000FE0E986F10EF27F0F60E0001976FFE0E94
:104CE000986F10EF27F00101A951D8B47AEF26F0A0
:104CF0007CEF26F083EF26F0E80E0001976FFE0EA2
:104D0000986F10EF27F0F60E0001976FFE0E986F68
:104D100010EF27F00101A751D8B491EF26F093EFDF
:104D200026F09AEF26F0E80E0001976FFE0E986FBE
:104D300010EF27F0F60E0001976FFE0E986F10EF40
:104D400027F00101AA51D8B4A8EF26F0AAEF26F067
:104D5000B1EF26F0E80E0001976FFE0E986F10EF8E
:104D600027F0F60E0001976FFE0E986F10EF27F0F8
:104D70000101AB51D8A4BFEF26F0C1EF26F0C8EF78
:104D800026F0170E0001976FFE0E986F10EF27F0B8
:104D9000AB05D8A4CEEF26F0D0EF26F0D7EF26F063
:104DA0001D0E0001976FFE0E986F10EF27F0020E98
:104DB000AB19D8A4DEEF26F0E0EF26F0E7EF26F0FF
:104DC000230E0001976FFE0E986F10EF27F0DE0E96
:104DD0000001976FFE0E986F10EF27F000019B51B6
:104DE000996F9A6B9A51000AD8B4F9EF26F0E7EF61
:104DF00026F09951000AD8B45CEF26F0010AD8B425
:104E000073EF26F0030AD8B48AEF26F0010AD8B46B
:104E1000A1EF26F0070AD8B4B8EF26F0E7EF26F0A6
:104E20001200FBC2A2F0FCC2A3F0E80E0001A46FC6
:104E3000030EA56FD1EC4BF00301F26F010EF2658A
:104E400024EF27F026EF27F0B6EF27F0EAC39CF017
:104E5000EBC39DF0A40E00019E6FFE0E9F6F85ECCC
:104E600047F000019C519D11D8A439EF27F03BEF8A
:104E700027F056EF27F0020E0301E66F030EF2193A
:104E8000D8A445EF27F047EF27F051EF27F0ECC308
:104E90009CF0EDC39DF004EC2BF000019C5103014C
:104EA000E66FE65157EC57F0C1EF27F0EAC39CF0EC
:104EB000EBC39DF0A00E9E6FFE0E9F6F85EC47F03A
:104EC00000019C519D11D8A468EF27F06AEF27F0EC
:104ED00086EF27F0FE0E0301E76F030EF219D8A448
:104EE00074EF27F076EF27F081EF27F0ECC39CF00A
:104EF000EDC39DF004EC2BF000019C510008030170
:104F0000E76FE75157EC57F0C1EF27F0EAC39CF089
:104F1000EBC39DF0CE0E9E6FF80E9F6F85EC47F0B1
:104F200000019C519D11D8A498EF27F09AEF27F02B
:104F3000B6EF27F0030E0301F219D8A4A2EF27F071
:104F4000A4EF27F0B6EF27F0ECC39CF0EDC39DF083
:104F500004EC2BF09CC0E4F39DC0E5F3E4C3C1F086
:104F6000E5C3C2F0E2EC4AF0C1EF27F0E8C397F0E6
:104F7000E9C398F0D20E0001996FF90E9A6F8CEC8C
:104F800057F012003CEC5AF04850B4EC58F00001D5
:104F9000BE6FBEC0BCF0BD6BBCBFBD070CEC5AF011
:104FA0000001BC519725BF6FBD519821C06F3CECEB
:104FB0005AF030EC5AF00001BC6F4850BC5DD8A0EC
:104FC000E4EF27F0E6EF27F0FAEF27F036EC5AF09F
:104FD0000009D8A4EEEF27F0F0EF27F0FAEF27F062
:104FE00048EC5AF04850D8A4F8EF27F0FAEF27F031
:104FF00013EF28F00101AA51D8B401EF28F003EF14
:1050000028F007EF28F070EC5AF06CEF28F0A75169
:10501000D8B40DEF28F00FEF28F06CEF28F094ECE7
:1050200054F06CEF28F09CEC50F04850D8B41BEFD3
:1050300028F01DEF28F049EF28F00101A751D8B45E
:1050400024EF28F026EF28F049EF28F0B1EC55F0D6
:105050000009D8B42EEF28F030EF28F03AEF28F00E
:105060003FEC5AF00009D8B438EF28F03AEF28F0B6
:1050700047EF28F094EC54F00101AA51D8B443EF63
:1050800028F045EF28F06CEF28F003EF28F062ECF1
:1050900054F00101AA51D8B450EF28F052EF28F093
:1050A0005CEF28F0BFC0BAF0C0C0BBF07CEC49F0A8
:1050B0006EEC5AF06CEF28F0A751D8B462EF28F0EC
:1050C00064EF28F06CEF28F0BFC0A4F0C0C0A5F0DA
:1050D00063EC4DF062EC54F01200FBC2A2F0FCC293
:1050E000A3F0E50E0001A46F030EA56FD1EC4BF009
:1050F0000301EF6F010EEF6580EF28F082EF28F0DB
:1051000009EF29F0E7C39CF0E8C39DF0A10E000170
:105110009E6FFD0E9F6F85EC47F000019C519D1125
:10512000D8A495EF28F097EF28F0BCEF28F0040EF4
:105130000301EF19D8A49FEF28F0A1EF28F0BCEFEE
:1051400028F0E9C39CF0EAC39DF004EC2BF00001C9
:105150009C510301F06FEBC39CF0ECC39DF004EC99
:105160002BF000019C510301E46FE4C3A7F0F05160
:1051700084EC45F014EF29F0E7C39CF0E8C39DF000
:105180004D0E00019E6FFE0E9F6F85EC47F00001F3
:105190009C519D11D8A4CFEF28F0D1EF28F009EF52
:1051A00029F0030E0301EF19D8A4D9EF28F0DBEFA3
:1051B00028F009EF29F0E9C39CF0EAC39DF004EC64
:1051C0002BF000019C510301F06FF0518FEC53F074
:1051D0000201FD6FFE6BFDBFFE07FDC2E6FFFEC2D2
:1051E000E6FF0301F05152EC59F000019CC0E6FFCC
:1051F0009DC0E6FF0301F051E66E000EE66E190E4B
:10520000E66EF70EE66E080EE66EE4EC4DF014EF77
:1052100029F0E5C397F0E6C398F0310E0001996FCD
:10522000F60E9A6F8CEC57F01200FBC2A2F0FCC293
:10523000A3F0E50E0001A46F030EA56FD1EC4BF0B7
:105240000301E46F010EE46528EF29F02AEF29F04D
:10525000AFEF29F0E7C39CF0E8C39DF0ED0E00012D
:105260009E6FFD0E9F6F85EC47F000019C519D11D4
:10527000D8A43DEF29F03FEF29F045EF29F0010ECA
:10528000E66E83EC55F0BAEF29F0E7C39CF0E8C373
:105290009DF0430E9E6FFE0E9F6F85EC47F0000160
:1052A0009C519D11D8A457EF29F059EF29F05FEFD9
:1052B00029F0020EE66E83EC55F0BAEF29F0E7C351
:1052C0009CF0E8C39DF0390E9E6FFE0E9F6F85EC3B
:1052D00047F000019C519D11D8A471EF29F073EFA4
:1052E00029F079EF29F0030EE66E83EC55F0BAEF62
:1052F00029F0E7C39CF0E8C39DF0F30E9E6FFD0E0E
:105300009F6F85EC47F000019C519D11D8A48BEF55
:1053100029F08DEF29F093EF29F0040EE66E83EC6F
:1053200055F0BAEF29F0E7C39CF0E8C39DF09A0E60
:105330009E6FFD0E9F6F85EC47F000019C519D1103
:10534000D8A4A5EF29F0A7EF29F0ADEF29F0050EBD
:10535000E66E83EC55F0BAEF29F0BAEF29F0E5C319
:1053600097F0E6C398F0790E0001996FF60E9A6FE8
:105370008CEC57F01200E652E652FE0EE36AFD0E88
:10538000E3BEC7EF29F0C5EF29F0D0EF29F0FC0EFE
:10539000E36CFD0EE31ED8B0E32AFE0EE36AE32AB7
:1053A000FB0EE3BED8EF29F0D6EF29F0DEEF29F0AF
:1053B000FA0EE36CFB0EE31ED8B0E32AFA0EE3CF3D
:1053C00048F0FB0EE3504810D8B4E9EF29F0EBEFBA
:1053D00029F046EF2AF0FF0EE36AE32A01EF2AF0F4
:1053E000FA0EE350D890E834486EFA0E48C0E3FF56
:1053F000FB0EE350E834486EFB0E48C0E3FFFF0E9F
:10540000E32AFB0EE3AE07EF2AF009EF2AF0F0EFF4
:1054100029F0FA0EE3CF52F0FB0EE3CF53F0FC0E6F
:10542000E3CF50F0FD0EE3CF51F05250505C53509B
:105430005158D8A01EEF2AF020EF2AF032EF2AF0C0
:10544000FC0EE350486EFA0EE350485EFC0E48C076
:10545000E3FFFD0EE350486EFB0EE350485AFD0E8D
:1054600048C0E3FFD890FB0EE332FA0EE332FF0EA2
:10547000E350486E010E485EFF0E48C0E3FFD8A41B
:1054800044EF2AF046EF2AF009EF2AF0FE0EE3502F
:10549000D8B44DEF2AF04FEF2AF055EF2AF0FC0E6A
:1054A000E36CFD0EE31ED8B0E32AFC0EE3CF48F018
:1054B000FD0EE3CF49F0FA0EE126FF0EE2221200C4
:1054C000FBC2A2F0FCC2A3F0E50E0001A46F030E24
:1054D000A56FD1EC4BF00301E46F010EE46573EFAF
:1054E0002AF075EF2AF0F8EF2AF0E7C39CF0E8C342
:1054F0009DF02F0E00019E6FFE0E9F6F85EC47F012
:1055000000019C519D11D8A488EF2AF08AEF2AF05F
:105510008EEF2AF07CEC3FF003EF2BF0E7C39CF01A
:10552000E8C39DF0340E9E6FFE0E9F6F85EC47F032
:1055300000019C519D11D8A4A0EF2AF0A2EF2AF0FF
:10554000A6EF2AF028EC44F003EF2BF0E7C39CF021
:10555000E8C39DF0E70E9E6FFD0E9F6F85EC47F050
:1055600000019C519D11D8A4B8EF2AF0BAEF2AF09F
:10557000BEEF2AF033EC57F003EF2BF0E7C39CF0BB
:10558000E8C39DF0040E9E6FFD0E9F6F85EC47F003
:1055900000019C519D11D8A4D0EF2AF0D2EF2AF03F
:1055A000D6EF2AF06CEC0BF003EF2BF0E7C39CF086
:1055B000E8C39DF0AF0E9E6FF90E9F6F85EC47F02C
:1055C00000019C519D11D8A4E8EF2AF0EAEF2AF0DF
:1055D000F6EF2AF0E9C39CF0EAC39DF004EC2BF04F
:1055E00000019C51C0EC47F003EF2BF003EF2BF0D0
:1055F000E5C397F0E6C398F0590E0001996FF60ED7
:105600009A6F8CEC57F01200000E0001A46F000E90
:10561000A36F000EA26F000EA16F11EF2BF09C4B39
:105620009D2B9CC0D9FF9DC0DAFF200EDE18D8B498
:105630001CEF2BF01EEF2BF00FEF2BF09CC0D9FFCF
:105640009DC0DAFFDF509E6FF70E9E259F6FA06B07
:10565000FF0EA023A05109E1050E9F5DD8A033EFF6
:105660002BF035EF2BF00FEF2BF03FEF2BF0000E70
:10567000A26F010EA16F9C4B9D2B75EF2BF09CC070
:10568000D9FF9DC0DAFFDF509E6F9F6B9F51000ACC
:10569000D8B44DEF2BF075EF2BF09E512B0AD8B4F8
:1056A0003BEF2BF0060AD8B437EF2BF075EF2BF059
:1056B0000A0EE66E000EE66EA3C0E6FFA4C0E6FF8B
:1056C000D8EC41F09CC0D9FF9DC0DAFFDF5000014B
:1056D0009E6F9E51485E000E495A300E4824A36FBB
:1056E000000E4920A46F3BEF2BF09CC0D9FF9DC05A
:1056F000DAFFDF509E6FD00E9E259F6FA06BFF0ECE
:10570000A023A05109E10A0E9F5DD8A08AEF2BF0DB
:105710008CEF2BF058EF2BF0A151A211D8A493EFEE
:105720002BF095EF2BF0A3EF2BF0A3C09EF0A4C0BD
:105730009FF09E1F9F1F9E4B9F2B9EC09CF09FC063
:105740009DF0A7EF2BF0A3C09CF0A4C09DF0120029
:105750001E0E0001D225B46F000ED321B56FB4C068
:10576000F6FFB5C0F7FFF86A0800F5CFBCF0000EF1
:10577000BD6FBC51D8B4BFEF2BF0C1EF2BF0EEEFF3
:105780002BF01E0ED225B46F000ED321B56FB4C01E
:10579000F6FFB5C0F7FFF86A0800F5CFB6F0FF0EC8
:1057A000B625B76FB86BFF0EB823D951B96FBA6B76
:1057B000B751B95DBA51800ABB6FB851800ABB5965
:1057C000D8B0E5EF2BF0E7EF2BF0EAEF2BF0D92B79
:1057D00023EF2CF0000ED96F23EF2CF0140ED225FE
:1057E000B46F000ED321B56FB4C0F6FFB5C0F7FF9C
:1057F000F86A0900F5500900F510D8B402EF2CF052
:1058000004EF2CF023EF2CF0140ED225B46F000E11
:10581000D321B56FB4C0F6FFB5C0F7FFF86A090031
:10582000F5CFB6F00900F5CFB7F002D821EF2CF094
:105830000500FA6EB651FD6EB751FE6EFF6AFA5062
:1058400012000001BD6FBD51D8B429EF2CF02BEF31
:105850002CF048EF2CF0FF0EBD25B46FB56BFF0E9A
:10586000B523D951B66FB76BB451B65DB751800A45
:10587000B86FB551800AB859D8B041EF2CF043EF5A
:105880002CF046EF2CF0D92B48EF2CF0000ED96FFE
:1058900063EC17F01200C4CF22F0000EE66E000E8B
:1058A000E66EA00EE66E3C0EE66E2250146E156A91
:1058B000166A176A010E7AEC1EF014C0E6FF15C0D6
:1058C000E6FF16C0E6FF17C0E6FF03EC05F048C090
:1058D00023F049C024F04AC025F04BC026F0A40EA6
:1058E000E66E700EE66E7D0EE66E3F0EE66E27C02B
:1058F000E6FF28C0E6FF29C0E6FF2AC0E6FF03EC6A
:1059000005F048C0E6FF49C0E6FF4AC0E6FF4BC0CD
:10591000E6FF0A0EE66ED70EE66E230EE66E3C0E2E
:10592000E66E23C0E6FF24C0E6FF25C0E6FF26C0E2
:10593000E6FF03EC05F048C0E6FF49C0E6FF4AC0B9
:10594000E6FF4BC0E6FF91EC00F048C027F049C0ED
:1059500028F04AC029F04BC02AF027C0E6FF28C033
:10596000E6FF29C0E6FF2AC0E6FF000EE66E000E45
:10597000E66E000EE66E3F0EE66E9EEC22F048B03C
:10598000C4EF2CF0C6EF2CF0CEEF2CF0000E276EFB
:10599000000E286E000E296E3F0E2A6E23C014F0F2
:1059A00024C015F025C016F026C017F027C018F047
:1059B00028C019F029C01AF02AC01BF0E4EC50F0FE
:1059C00014C00FF115C010F116C011F117C012F17B
:1059D00012000001C26F0001C2510101A65DD8B0E2
:1059E000F4EF2CF0F6EF2CF0F8EF2CF084EF2DF024
:1059F0000001C251080D470EF324D96E010EF420A8
:105A0000DA6EDF50D8B407EF2DF009EF2DF084EFF8
:105A10002DF0C2C0CDF00101A851D8B412EF2DF085
:105A200014EF2DF022EF2DF00001C951D8B41BEF77
:105A30002DF01DEF2DF022EF2DF00CEC59F0E66E5D
:105A4000E4EC59F00101A751D8B429EF2DF02BEF68
:105A50002DF039EF2DF00001C951D8B432EF2DF0FF
:105A600034EF2DF039EF2DF000EC59F0E66EDDEC5F
:105A700059F00101AA51D8B440EF2DF042EF2DF0BA
:105A80007CEF2DF018EC59F063EC4EF024EC59F05B
:105A9000D5EC56F0000E0001C36F6FEF2DF0C3512F
:105AA0008FEC53F000019E6FC35170EC44F0000185
:105AB000C3513DEC36F00009D8B461EF2DF063EF2F
:105AC0002DF069EF2DF00001C351F9EC47F06DEFB7
:105AD0002DF00001C35146EC49F00001C32B80ECCE
