:020000040000FA
:1000000012EF62F0C96E12009CEF7CF0ACA2FED73A
:10001000AD6E1200E3EF7BF0FEEF7DF0D9CFE5FF90
:10002000E1CFD9FF00C0E5FF01C0E5FF02C0E5FF59
:1000300003C0E5FF04C0E5FF05C0E5FF06C0E5FF1E
:1000400007C0E5FF08C0E5FF09C0E5FF0AC0E5FFFE
:100050000BC0E5FF0CC0E5FF0DC0E5FF0EC0E5FFDE
:100060000FC0E5FF10C0E5FF11C0E5FF12C0E5FFBE
:1000700013C0E5FF14C0E5FF15C0E5FF16C0E5FF9E
:1000800017C0E5FF18C0E5FF19C0E5FF1AC0E5FF7E
:100090001BC0E5FF1CC0E5FF1DC0E5FF1EC0E5FF5E
:1000A000020EDBCF00F0030EDBCF01F0040EDBCF3E
:1000B00002F0050EDBCF03F0060EDBCF04F0070ED7
:1000C000DBCF05F0080EDBCF06F0090EDBCF07F023
:1000D0000A0EDBCF08F0096A0A6A02C00DF00D5063
:1000E000800A0DE102500B01406F01503F6F00503C
:1000F0003E6F0B0E016E3E0E006E800E026E03C050
:10010000E9FF04C0F3FF055079EC7BF00B6E0B5058
:10011000D8B4CAEF03F00B50250A02E0B1EF03F0A8
:100120000C6A0D6A0E6A0F6A106A0A0E116E126A64
:10013000136A146A200E156E1668176A2B0E186E55
:10014000032A02E3044A052A03C0E9FF04C0F3FFBF
:10015000055079EC7BF0196E250A13E11950E56E14
:100160000250E56E0150E56E0050E56E70EC49F00E
:10017000040EE126094A0A2A032A02E3044A052A50
:10018000BED71950300A06E1300E156E032A02E37D
:10019000044A052A03C0E9FF04C0F3FF055079ECC7
:1001A0007BF02D0A06E1010E146E032A02E3044AD5
:1001B000052A03C0E9FF04C0F3FF055079EC7BF08A
:1001C000200A08E1010E176E200E186E032A02E3C2
:1001D000044A052A03C0E9FF04C0F3FF055079EC87
:1001E0007BF02B0A06E1010E176E032A02E3044A94
:1001F000052A03C0E9FF04C0F3FF055079EC7BF04A
:10020000196E800F4F0F2DE31950800F460F29E212
:1002100003C019F004C01AF005C01BF019C0E9FFB3
:100220001AC0F3FF1B5079EC7BF01C6E800F500F4F
:1002300012E31C50800F460F0EE213500A0DF3CF4D
:100240001DF01D501C26D00E1C24136E192A02E32B
:100250001A4A1B2AE3D719C003F01AC004F01BC0C6
:1002600005F003C0E9FF04C0F3FF055079EC7BF013
:100270002E0A2EE1032A02E3044A052A166A03C065
:1002800019F004C01AF005C01BF019C0E9FF1AC02C
:10029000F3FF1B5079EC7BF01C6E800F500F12E3C4
:1002A0001C50800F460F0EE216500A0DF3CF1DF0C2
:1002B0001D501C26D00E1C24166E192A02E31A4A61
:1002C0001B2AE3D719C003F01AC004F01BC005F0C5
:1002D00003C0E9FF04C0F3FF055079EC7BF0196E11
:1002E0006C0A07E1010E0C6E032A02E3044A052A98
:1002F00009D01950680A06E1010E0E6E032A02E3C6
:10030000044A052A03C0E9FF04C0F3FF055079EC55
:100310007BF0750A06E1010E106E032A02E3044A1F
:10032000052A03C0E9FF04C0F3FF055079EC7BF018
:10033000196E730A05E1010E0D6E200E156E3FD089
:100340001950780A03E1100E116E39D01950580A6D
:1003500005E1100E116E010E126E31D01950630AB4
:1003600002E1116A2CD019506F0A03E1080E116ED8
:1003700026D01950660A03E1010E0F6E20D01950E5
:10038000640A1DE01950690A1AE0105005E0FF0EDA
:1003900003260422052213D01950E56E0250E56EA3
:1003A0000150E56E0050E56E70EC49F0040EE12658
:1003B000094A0A2A032A02E3044A052AA0D60D5054
:1003C00021E00650030F0D6E000E0720196E000E7F
:1003D00008201A6E0DC006F019C007F01AC008F008
:1003E000FD0E0D26FF0E19221A220DC0E9FF19C0BD
:1003F000F3FF1A5024EC76F00D6EF3CF19F0F4CF22
:100400001AF000D10F500DE0000E1A6E080E196E92
:100410001C0E0D6E040E0626000E0722082216681A
:10042000F1D016680C5023E00650040F0C6E000E3D
:1004300007200F6E000E08201B6E0CC006F00FC0C8
:1004400007F01BC008F0FC0E0C26FF0E0F221B222B
:100450000CC0E9FF0FC0F3FF1B508DEC73F00C6E66
:10046000F3CF0FF0F4CF1BF0E9CF1CF06AD00E50A1
:1004700032E00650020F0E6E000E07201D6E000EB9
:1004800008201E6E0EC006F01DC007F01EC008F04A
:10049000FE0E0E26FF0E1D221E220EC0E9FF1DC0FD
:1004A000F3FF1E503AEC79F00E6E0EC00CF0E86AC5
:1004B0000EBEFF0E0F6E1B6E1C6E11500A0A03E17A
:1004C0001050D8B43ED00C500E6E0EC00CF00F6A17
:1004D0001B6A1C6A36D00650020F0E6E000E0720F3
:1004E0001D6E000E08201E6E0EC006F01DC007F027
:1004F0001EC008F0FE0E0E26FF0E1D221E220EC08C
:10050000E9FF1DC0F3FF1E503AEC79F00E6EF3CFF9
:100510001DF00EC00CF01DC00FF0E86A1DBEFF0EEE
:100520001B6E1C6E11500A0A02E110500AE00C50BA
:100530000E6E0F501D6E0EC00CF01DC00FF01B6A2A
:100540001C6A090E196EB10E0D6E800E1A6E1150D6
:10055000D8B440D0105013E01150E56E090EE56E8E
:10056000B10EE56E1C50E56E1B50E56E0F50E56E4A
:100570000C50E56E0FEC30F0070EE12612D0115052
:10058000E56E090EE56EB10EE56E1C50E56E1B5072
:10059000E56E0F50E56E0C50E56E23EC5BF0070E38
:1005A000E12617502FE00DC0E9FF19C0F3FF1A50E4
:1005B00079EC7BF02D0A26E0FF0E0D2619221A2277
:1005C00018C0E5FF0DC0E9FF19C0F3FF1A5073EC26
:1005D0007CF018D00CC0E5FF0DC0E9FF19C0F3FF97
:1005E0001A5073EC7CF00D50010F0C6E000E1920A8
:1005F0000E6E000E1A20E56A0CC0E9FF0EC0F3FF74
:1006000073EC7CF00DC00CF019C00EF01AC00FF0A6
:1006100013C010F0105010E00CC0E9FF0EC0F3FF43
:100620000F5079EC7BF0176E175006E00C2A02E3AE
:100630000E4A0F2A1006EED710C013F014501EE118
:1006400009C00CF00AC00EF010C00FF00F5010E0FF
:100650001550E56E0250E56E0150E56E0050E56EF6
:1006600070EC49F0040EE1260C4A0E2A0F06EED774
:100670000CC009F00EC00AF00FC013F016C00CF049
:100680000DC00DF019C00EF01AC00FF009C010F027
:100690000AC015F00DC0E9FF0EC0F3FF0F5079EC52
:1006A0007BF0166E1650D8B43ED00CC016F0176A08
:1006B000161E171E1650171005E00CC016F00C067B
:1006C000165031E00DC0E9FF0EC0F3FF0F5079EC7A
:1006D0007BF0116E125010E01150E56EB5EC78F021
:1006E000166EE652165004E01150166E169A02D09D
:1006F00011C016F016C011F01150E56E0250E56EF3
:100700000150E56E0050E56E70EC49F0040EE126F4
:100710000D2A02E30E4A0F2A104A152A1350D8B4A4
:10072000B9D71306B7D710C009F015C00AF0145096
:100730002BE010C00CF015C00DF013C00EF00E50E1
:100740001FE0200EE56E0250E56E0150E56E005090
:10075000E56E70EC49F0040EE1260C4A0D2A0E06F7
:10076000EED70B50E56E0250E56E0150E56E00507D
:10077000E56E70EC49F0040EE126094A0A2A04D01D
:100780000CC009F00DC00AF0032A02E3044A052A4E
:100790007FEF00F00AC0F3FF0950E4CF1EF0E4CF72
:1007A0001DF0E4CF1CF0E4CF1BF0E4CF1AF0E4CF4F
:1007B00019F0E4CF18F0E4CF17F0E4CF16F0E4CF4F
:1007C00015F0E4CF14F0E4CF13F0E4CF12F0E4CF4F
:1007D00011F0E4CF10F0E4CF0FF0E4CF0EF0E4CF4F
:1007E0000DF0E4CF0CF0E4CF0BF0E4CF0AF0E4CF4F
:1007F00009F0E4CF08F0E4CF07F0E4CF06F0E4CF4F
:1008000005F0E4CF04F0E4CF03F0E4CF02F0E4CF4E
:1008100001F0E4CF00F0E4CFD9FF12003C4E4F20AE
:10082000464C4F41543E0000496E707574206E6115
:100830006D657300000000000000000024FA00B89D
:1008400078005AB20054C000A0C1000000000000AF
:100850000000000000000000000000000000000098
:1008600000000000000000000000496E7075742058
:100870006F6666736574730000000000000024FA60
:100880000024B3000A4D0034840000000000000082
:100890000000000000000000000000000000000058
:1008A0000000000000000000000000004368616ECE
:1008B0006E656C206F6666736574730000000000DF
:1008C00068E00090B1004C440024C7000000000024
:1008D0000000000000000000000000000000000018
:1008E0000000000000000000000000000000496E51
:1008F000666F726D6174696F6E0000000000000029
:1009000000009CFB00F29300CC34000000000000CB
:1009100000000000000000000000000000000000D7
:1009200000000000000000000000000000000000C7
:10093000506172616D6574657273000000000000A3
:1009400000000000ACFB00C6B00010A600F6C90015
:100950000000000000000000000000000000000097
:100960000000000000000000000000000000000087
:1009700000004D61696E204D656E7500000000003D
:100980000000000000000000000000000000000067
:100990000000000000052808006A0800AC0800EE0E
:1009A0000800300900000000000000000000000006
:1009B000000000006E6F206974656D730000496E61
:1009C0003A203C20252D313273203E004F6666735D
:1009D00065743A202D25642E2564644200004F661C
:1009E000667365743A202B25642E256464420000EA
:1009F000496E3A203C20252D3973203E0000206F9F
:100A00006E006F6666004E616D653A2025730000CA
:100A100043683A203C20252D313273203E003C2093
:100A2000252D313673203E0056616C75653A2025C0
:100A300064205B25735D00004368616E6E656C73B6
:100A40000000496E7075747300005374616E6462C7
:100A5000792074696D6500004F6E2074696D6500C2
:100A600053696C656E742074696D6500554152540C
:100A7000207265636569766564003F005B25642FBD
:100A800025645D00256420646179732025643A251E
:100A9000643A2564000025643A25640025642062D8
:100AA0007974657300004C6F6164207365747469B8
:100AB0006E677300536176652073657474696E6741
:100AC0007300436C6561722073657474696E67733B
:100AD0000000456E74657220485720736574757008
:100AE0002E2E000048617264776172652073657410
:100AF00075700000257300002020202020200000B9
:100B000020202000434420506C6179657200000071
:100B10000044564420506C617965720000005265B3
:100B2000636569766572000000000054756E657239
:100B30000000000000000000436F6D707574657266
:100B400000000000004C6170746F70000000000035
:100B5000000054656C65766973696F6E000000442F
:100B600069676974616C2054560000004361626CCF
:100B7000650000000000000000536174656C6C6942
:100B80007465000000005461706500000000000002
:100B9000000000566964656F00000000000000005E
:100BA000417578696C6C6172790000000050686F63
:100BB0006E6F0000000000000000484454562052B0
:100BC00065636F726400004456520000000000002C
:100BD00000000000485450430000000000000000E6
:100BE00000426C752D5261790000000000004D65D7
:100BF00064696120706C617965720053706172651F
:100C0000000000000000000053746572656F2069E9
:100C10006E7075743F00352E3120696E7075743FAB
:100C2000000044414320696E7075743F00005573A5
:100C300065204353333331383F0043533333313826
:100C400020747970653F00003F00796573006E6F16
:100C50000000352E316368003178386368003278DF
:100C60003863680020204D55544544002D696E6658
:100C7000206442002D2532640000202D25316400BF
:100C8000252B3264000020252B3164002E35000016
:100C90002E30000064420000646163310000646132
:100CA00063320000646163330000646163340000F8
:100CB000646163350000646163360000646163371A
:100CC0000000646163380000616E616C6F67310021
:100CD000616E616C6F673200616E616C6F673300CB
:100CE000616E616C6F673400616E616C6F673500B7
:100CF000616E616C6F673600616E616C6F673700A3
:100D0000616E616C6F673800656570726F6D202D64
:100D10003E2025642062797465730000256420629A
:100D200079746573202D3E20656570726F6D0000CB
:100D3000506F776572757020766F6C756D65000009
:100D40004175746F2D6F66662074696D6500496E1C
:100D50006672617265642061646472657373000019
:100D60004C43442064656C6179004C4344207769AE
:100D700064746800766F6C2D706F776572757000A3
:100D800074696D652D6175746F2D6F66660069728B
:100D90002D61646472006C63642D64656C6179001C
:100DA0006C63642D7769647468006D696E002D0052
:100DB000313030757300E806E56E630EFAEC06F02C
:100DC000630E3FEC07F0090E52EC07F0E45011E01F
:100DD00000D0E56E630EFAEC06F0630E3FEC07F010
:100DE000090E52EC07F000D000D00000E450E82ECD
:100DF000F0D71200E806E56E090E2CEC07F0630E42
:100E000052EC07F0E4500EE000D0E56E090E2CEC39
:100E100007F0630E52EC07F000D000D00000E45061
:100E2000E82EF3D71200E806E56E630E2CEC07F00F
:100E3000630E52EC07F0E4500EE000D0E56E630E56
:100E40002CEC07F0630E52EC07F000D000D000004D
:100E5000E450E82EF3D71200E806E56E630E52EC7C
:100E600007F0E4500BE000D0E56E630E52EC07F0A3
:100E700000D000D00000E450E82EF6D71200E806BB
:100E8000E56E090E52EC07F0E4500BE000D0E56E81
:100E9000090E52EC07F000D0E450000000D0E82E1C
:100EA000F6D71200E8060000E85007E000D000D0B6
:100EB00000D000D00000E82EFAD71200D9CFE5FF0D
:100EC000E1CFD9FF00C0E5FF01C0E5FF02C0E5FFAB
:100ED00003C0E5FF0A019851D8B429D1060E0A01D2
:100EE000966F0A01306B0A012F6B010E0A012D6FFC
:100EF000010E0A01396F060E0A01386F020E0A014F
:100F0000366F020E0A01426F010E0A01416F040E94
:100F10000A013F6F030E0A014B6F0C0E0A014A6F64
:100F2000080E0A01486F040E0A01546F040E0A01EC
:100F3000536F100E0A01516F0A019751D8B498D01F
:100F4000040E0A019625006E00500A01966F080EE5
:100F50000A015D6F060E0A015C6F200E0A015A6FCE
:100F60000A015B6B090E0A01666F0E0E0A01656FBE
:100F7000200E0A01636F010E0A01646F0A0E0A0156
:100F80006F6F040E0A016E6F200E0A016C6F020E65
:100F90000A016D6F0B0E0A01786F0C0E0A01776F54
:100FA000200E0A01756F030E0A01766F0C0E0A01FE
:100FB000816F120E0A01806F200E0A017E6F040EEF
:100FC0000A017F6F006A016A12EC7DF0026E025026
:100FD000005C24E22A0E0124026E036A0A0E032238
:100FE000070E0226D8B0032A02C0E9FF03C0EAFFB9
:100FF000020EEF6E2A0E0124026E036A0A0E03220D
:10100000080E0226D8B0032A02C0E9FF03C0EAFF97
:10101000020EEF6E090E0126002AD6D70A01995159
:10102000D8B40CD1020E0A019625006E00500A01B8
:10103000966F060E0A018A6F110E0A01896F850EDE
:101040000A018B6F850E0A018C6F400E0A01876FB3
:10105000070E0A01936F100E0A01926F850E0A01A6
:10106000946F850E0A01956F800E0A01906FE6D08D
:10107000050E0A015D6F030E0A015C6F200E0A0166
:101080005A6F006A016A12EC7DF0026E0250005C39
:1010900024E22A0E0124026E036A0A0E0322070EBE
:1010A0000226D8B0032A02C0E9FF03C0EAFF020EFD
:1010B000EF6E2A0E0124026E036A0A0E0322080E46
:1010C0000226D8B0032A02C0E9FF03C0EAFF020EDD
:1010D000EF6E090E0126002AD6D70A019951D8B41D
:1010E000ADD0020E0A019625006E00500A01966FDF
:1010F000060E0A01666F100E0A01656F850E0A0161
:10110000676F850E0A01686F400E0A01636F070E54
:101110000A016F6F010E0A016E6F850E0A01706F72
:10112000850E0A01716F800E0A016C6F87D00A016B
:101130009751D8B45CD0050E0A01966F080E0A01CB
:10114000306F0E0E0A012F6F0A012E6B090E0A0175
:10115000396F100E0A01386F010E0A01376F0A0E3F
:101160000A01426F040E0A01416F020E0A01406F2C
:101170000B0E0A014B6F0C0E0A014A6F030E0A0197
:10118000496F0C0E0A01546F120E0A01536F040EC0
:101190000A01526F006A016A12EC7DF0026E025081
:1011A000005CD8B04BD02A0E0124026E036A0A0EEE
:1011B0000322070E0226D8B0032A02C0E9FF03C0AB
:1011C000EAFF020EEF6E2A0E0124026E036A0A0E77
:1011D0000322080E0226D8B0032A02C0E9FF03C08A
:1011E000EAFF020EEF6E090E0126002AD5D7010E86
:1011F0000A01966F0A01306B100E0A012F6F0A0167
:101200009B5107E1850E0A01316F850E0A01326F8D
:1012100015D00A019B51010A07E1080E0A01316F3E
:10122000080E0A01326F0AD00A019B51020A06E138
:10123000100E0A01316F100E0A01326F006A016A46
:1012400012EC7DF0026E0250005C22E22A0E0124B4
:10125000026E036A0A0E0322020E0226D8B0032A87
:1012600002C0E9FF03C0EAFF010EEF6E2A0E01245F
:10127000026E036A0A0E032202C0E9FF03C0EAFFFE
:10128000000EEE6E000EEF6E090E0126002AD8D772
:10129000006A016A34EC70F0026E0250005C12E2E7
:1012A0000A0E0124026E036A0A0E032202C0E9FF3D
:1012B00003C0EAFF000EEE6E000EEF6E012A012A57
:1012C000002AE8D7D80E0A01006F0A0101690A0155
:1012D000026B0A01036B0A01046B0A01056B0A0128
:1012E000066B0A01076B140E0A01086F0A01096BED
:1012F0000A0E016E000E006E800E026E9C0EE56EF0
:101300000250E56E0150E56E0050E56ECEEC55F0F2
:10131000006E040EE12600500901F06F000EE56E2C
:1013200002EC7BF0E652E4CF03F0E4CF02F0E4CF2E
:1013300001F0E4CF00F0E4CFD9FF1200D9CFE5FFF0
:10134000E1CFD9FF00C0E5FF01C0E5FF02C0E5FF26
:1013500003C0E5FF04C0E5FF05C0E5FF06C0E5FFEB
:1013600007C0E5FF08C0E5FF09C0E5FF0AC0E5FFCB
:101370000BC0E5FF030EE56EACEC6DF0006EF3CF35
:1013800001F0E65200C001F0026A000E056E890EFF
:10139000046E1E0E036E090E076E000E066E800EA2
:1013A000086E0250E56E0150E56E0550E56E045082
:1013B000E56E0350E56E0850E56E0750E56E065089
:1013C000E56E5DEC48F0080EE126090E026E000E97
:1013D000016E800E036E0350E56E0250E56E015003
:1013E000E56E87EC67F0030EE126040EE56EACECCB
:1013F0006DF0016EF3CF02F0E65201C002F0036A15
:10140000000E066E890E056E2C0E046E090E086E17
:10141000000E076E800E096E0350E56E0250E56EF9
:101420000650E56E0550E56E0450E56E0950E56E18
:101430000850E56E0750E56E5DEC48F0080EE126B9
:10144000090E036E000E026E800E046E0450E56EEF
:101450000350E56E0250E56E87EC67F0030EE1265F
:101460000050E56EEEEC75F0E6520150E56E92EC40
:101470007CF0E652400EE56E2BEC50F0E652000E8A
:10148000E56EDAEC76F0E652000EE56EDAEC76F018
:10149000E652000EE56EDAEC76F0E652000EE56EEE
:1014A000DAEC76F0E652000EE56EDAEC76F0E65213
:1014B000000EE56EDAEC76F0E6521F0EE56EDAEC21
:1014C00076F0E652000EE56EDAEC76F0E652480E63
:1014D000E56E2BEC50F0E652000EE56EDAEC76F09D
:1014E000E652000EE56EDAEC76F0E652000EE56E9E
:1014F000DAEC76F0E652000EE56EDAEC76F0E652C3
:101500001F0EE56EDAEC76F0E6521F0EE56EDAECB1
:1015100076F0E6521F0EE56EDAEC76F0E652000E3B
:10152000E56EDAEC76F0E652500EE56E2BEC50F0FC
:10153000E652000EE56EDAEC76F0E652000EE56E4D
:10154000DAEC76F0E6521F0EE56EDAEC76F0E65253
:101550001F0EE56EDAEC76F0E6521F0EE56EDAEC61
:1015600076F0E6521F0EE56EDAEC76F0E6521F0ECC
:10157000E56EDAEC76F0E652000EE56EDAEC76F027
:10158000E652580EE56E2BEC50F0E6521F0EE56E5B
:10159000DAEC76F0E6521F0EE56EDAEC76F0E65203
:1015A0001F0EE56EDAEC76F0E6521F0EE56EDAEC11
:1015B00076F0E6521F0EE56EDAEC76F0E6521F0E7C
:1015C000E56EDAEC76F0E6521F0EE56EDAEC76F0B8
:1015D000E652000EE56EDAEC76F0E652600EE56E4D
:1015E0002BEC50F0E652070EE56EDAEC76F0E652A0
:1015F000080EE56EDAEC76F0E652100EE56EDAECE7
:1016000076F0E652160EE56EDAEC76F0E6520E0E45
:10161000E56EDAEC76F0E6520E0EE56EDAEC76F078
:10162000E652060EE56EDAEC76F0E652000EE56E56
:10163000DAEC76F0E652680EE56E2BEC50F0E652EE
:101640001C0EE56EDAEC76F0E652020EE56EDAEC90
:1016500076F0E652010EE56EDAEC76F0E6520D0E0B
:10166000E56EDAEC76F0E6520E0EE56EDAEC76F028
:10167000E6520E0EE56EDAEC76F0E6520C0EE56EF2
:10168000DAEC76F0E652000EE56EDAEC76F0E65231
:101690000C0EE56E2BEC50F0E652F8EC6CF0006EA0
:1016A000F3CF01F0F4CF02F0010EE56E010EE56E0E
:1016B000000EE56E0250E56E0150E56E0050E56EDD
:1016C0008FEC4BF0060EE12625EC74F0006EF3CFA4
:1016D00001F0F4CF02F043EC74F0036EF3CF04F0AA
:1016E000F4CF05F0000E086E890E076E3A0E066EF6
:1016F000090E0A6E000E096E800E0B6E0250E56E2A
:101700000150E56E0050E56E0550E56E0450E56E43
:101710000350E56E0850E56E0750E56E0650E56E25
:101720000B50E56E0A50E56E0950E56E5DEC48F031
:101730000C0EE126090E016E000E006E800E026E88
:10174000010EE56E000EE56E400EE56E0250E56E90
:101750000150E56E0050E56E8FEC4BF0060EE12671
:10176000010EE56E65EC79F0E652E4CF0BF0E4CFC4
:101770000AF0E4CF09F0E4CF08F0E4CF07F0E4CFBB
:1017800006F0E4CF05F0E4CF04F0E4CF03F0E4CFBB
:1017900002F0E4CF01F0E4CF00F0E4CFD9FF120073
:1017A000D9CFE5FFE1CFD9FF00C0E5FF01C0E5FFDC
:1017B00002C0E5FF03C0E5FF04C0E5FF05C0E5FF8B
:1017C00006C0E5FF020EDBCF00F0E0EC7AF0016E20
:1017D000015001E0C6D1005002E00801436BF3EC78
:1017E00076F0016E015002E1005027E0800EE56EB8
:1017F0002BEC50F0E65209EC7DF0016E0150E56EE5
:1018000086EC5BF0016EF3CF02F0F4CF03F0E6520A
:101810000350E56E0250E56E0150E56E3FEC68F056
:10182000016E030EE1260E0E015C07E2200EE56E4E
:10183000DAEC76F0E652012AF6D79EEC78F0016EEB
:101840000150D8B4CBD042EC78F0016E0B014A5174
:10185000011808E1F3EC76F0016E015003E100504D
:10186000D8B47FD170EC78F0016EF90E01260150EA
:10187000E56E6EEC77F0E652000E036E0A0E026E15
:10188000F80E016E0350E56E0250E56E0150E56EF4
:101890003FEC68F0030EE12642EC78F0016E015057
:1018A000D8B44CD0010E026EBD0E016E800E036ED8
:1018B0009FEC39F0046EF3CF05F0F4CF06F006503C
:1018C000E56E0550E56E0450E56E0350E56E02507E
:1018D000E56E0150E56EFCEC57F0060EE12670EC6B
:1018E00078F0016E010E036EBD0E026E800E046E66
:1018F0000450E56E0350E56E0250E56EC5EC67F0EE
:10190000026EF3CF03F0030EE1260250015C026E7B
:101910000250E56E6EEC77F0E652010E026EBD0EDF
:10192000016E800E036E0350E56E0250E56E0150AD
:10193000E56E3FEC68F0030EE1264BD0010E026E1F
:10194000BD0E016E800E036E47EC34F0046EF3CFD3
:1019500005F0F4CF06F00650E56E0550E56E045034
:10196000E56E0350E56E0250E56E0150E56EFCEC4D
:1019700057F0060EE12670EC78F0016E010E036E52
:10198000BD0E026E800E046E0450E56E0350E56ECF
:101990000250E56EC5EC67F0026EF3CF03F0030E64
:1019A000E1260250015C026E0250E56E6EEC77F0AB
:1019B000E652010E026EBD0E016E800E036E0350E4
:1019C000E56E0250E56E0150E56E3FEC68F0030EE7
:1019D000E12642EC78F00B014A6FC3D0B7EC79F006
:1019E000016E0150D8B4BDD0A3EC79F0016E015066
:1019F00005E0B0EC3DF0016E015008E1F3EC76F04B
:101A0000016E015003E10050D8B4ABD0D6EC6EF0BB
:101A1000006EF3CF01F0F4CF02F0E9CF03F070ECE9
:101A200078F0046EF90E04260450E56E6EEC77F043
:101A3000E652000E066E0B0E056E000E046E06508A
:101A4000E56E0550E56E0450E56E3FEC68F0030E60
:101A5000E1263E0EE56E800EE56E000EE56E000E90
:101A6000E56E0350E56E0250E56E0150E56E0050E4
:101A7000E56E27EC46F0046E080EE126045006E001
:101A8000000EE56EDAEC76F0E65205D0200EE56E3B
:101A9000DAEC76F0E6523F0EE56E000EE56E000ED3
:101AA000E56E000EE56E0350E56E0250E56E0150E6
:101AB000E56E0050E56E27EC46F0046E080EE12658
:101AC000045006E0010EE56EDAEC76F0E65205D041
:101AD000200EE56EDAEC76F0E6523F0EE56E400E33
:101AE000E56E000EE56E000EE56E0350E56E0250E9
:101AF000E56E0150E56E0050E56E27EC46F0046E91
:101B0000080EE126045006E0020EE56EDAEC76F0EF
:101B1000E65205D0200EE56EDAEC76F0E6523F0E86
:101B2000E56E800EE56E000EE56E000EE56E03506C
:101B3000E56E0250E56E0150E56E0050E56E27EC53
:101B400046F0006E080EE126005006E0030EE56E3A
:101B5000DAEC76F0E65205D0200EE56EDAEC76F09F
:101B6000E652E4CF06F0E4CF05F0E4CF04F0E4CF92
:101B700003F0E4CF02F0E4CF01F0E4CF00F0E4CFD3
:101B8000D9FF1200D9CFE5FFE1CFD9FF00C0E5FFB3
:101B900001C0E5FF02C0E5FF03C0E5FF04C0E5FFAB
:101BA00005C0E5FF06C0E5FF07C0E5FF08C0E5FF8B
:101BB00009C0E5FF0AC0E5FF0BC0E5FF0CC0E5FF6B
:101BC0000DC0E5FF0EC0E5FF0FC0E5FF10C0E5FF4B
:101BD000020EDBCF00F0030EDBCF01F0040EDBCFF3
:101BE00002F0050EDBCF03F0060EDBCF04F0070E8C
:101BF000DBCF05F0080EDBCF06F0090EDBCF07F0D8
:101C0000086A096A0A6A0B6A00500901FA6F0150F2
:101C1000FB6F0250FC6F0350FD6F04500B01006F0F
:101C20000550016F0650026F0750036F0901FA510A
:101C3000FB11FC11FD1109E103CBE9FF02CBF4FF1D
:101C400001CBF3FF0B0100514FD10B0100510111EA
:101C50000211031109E1FDC9E9FFFCC9F4FFFBC949
:101C6000F3FF0901FA5140D10901FC35FD35006E41
:101C7000016A0136026A036A016A026A036A0B0199
:101C800002350335026E190F046E000E0320800F1B
:101C9000F36E0150800FF35C02E10050045C09E236
:101CA000FDC9E9FFFCC9F4FFFBC9F3FF0901FA51C3
:101CB0001BD10050190F046E000E0120800FF36E2F
:101CC0000350800FF35C02E10250045C09E203CB95
:101CD000E9FF02CBF4FF01CBF3FF0B01005104D16C
:101CE0000901FA51046EFB51056E7F0EFC15066E5C
:101CF000076A068E0B0100510C6E01510D6E7F0EAE
:101D000002150E6E0F6A0E8E0901FD51800BE8441C
:101D1000106E10500AE0071E061E051E046C05E139
:101D2000052A03E1062AD8B4072A0B010351800BC8
:101D3000E844106E10500AE00F1E0E1E0D1E0C6CB3
:101D400005E10D2A03E10E2AD8B40F2A0350800FB3
:101D5000F36E0150800FF35C02E10050025C1BE265
:101D60000250005C106E03500158105032E00BE638
:101D7000E86CD8900FBED8800F320E320D320C3284
:101D8000010FF8E326D0D8900C360D360E360F36FC
:101D9000010FFAE31ED00050025C106E0150035890
:101DA000105013E00BE6E86CD89007BED8800732DD
:101DB000063205320432010FF8E307D0D89004361A
:101DC000053606360736010FFAE302C000F003C0FD
:101DD00001F00C5004260D5005220E5006220F5023
:101DE0000722D88007AED89010E3071E061E051EF6
:101DF000046C05E1052A03E1062AD8B4072A086A1B
:101E0000096A0A6A800E0B6E0AD00450051006108B
:101E1000071005E1E96AF46AF36AE86A65D00450DC
:101E2000026E0550036E06500C6E07500D6E000ECC
:101E30000D5C08E1800E0C5C05E1000E035C02E124
:101E4000000E025C09E20450042605360636073609
:101E5000FF0E00260122E3D70450026E0550036EE8
:101E600006500C6E07500D6E10E004A006D0020E56
:101E70000426000E05220622072207340732063206
:101E800005320432004A012AE7D70250046E03509B
:101E9000056E7F0E0C14066E0D50076EE86A013059
:101EA00000300F6E0E6A0E320C6A0C5008120912C6
:101EB0000E500A120F500B1204500812055009124E
:101EC00006500A1207500B1208500901FA6F095008
:101ED000FB6F0A50FC6F0B50FD6FFDC9E9FFFCC999
:101EE000F4FFFBC9F3FFFA51E4CF10F0E4CF0FF099
:101EF000E4CF0EF0E4CF0DF0E4CF0CF0E4CF0BF024
:101F0000E4CF0AF0E4CF09F0E4CF08F0E4CF07F023
:101F1000E4CF06F0E4CF05F0E4CF04F0E4CF03F023
:101F2000E4CF02F0E4CF01F0E4CF00F0E4CFD9FF3A
:101F30001200D9CFE5FFE1CFD9FFECC8F3FF0801CC
:101F4000EB51E4CFD9FF12005B494E464F5D3A2575
:101F5000730A00005B5741524E494E475D3A257364
:101F60000A005B4552524F525D3A25730A005B45A9
:101F700056454E545D3A25730A005B444542554729
:101F80005D3A25730A005B53594E5441585D3A201F
:101F900025732025730A0000426F6F746C6F6164B3
:101FA000657220726573657400004F766572727594
:101FB0006E00627573790000082008004C696E6538
:101FC00020746F6F206C6F6E6700556E6B6E6F774D
:101FD0006E20636D643A2025730A000020706F77CD
:101FE0006572206F6E0A000020696E70206E616D50
:101FF000653A2025730A000020696E70207479709C
:10200000653A2025730A000020696E702063683AE3
:102010002025730A0000206F7574702063683A20D1
:1020200025730A0020766F6C3A2025640A00207020
:102030006F776572206F66660A00506172733A0AA4
:102040000000202531307320282573293A2025648B
:10205000205B25735D0A0000556E6B6E6F776E20F6
:102060007061723A2025730A0000436D64206C6928
:1020700073743A0A000025313073202D2025730A2D
:1020800000003C6F6E7C6F66663E00006F6E000065
:102090006F666600756E6B6E6F776E207061723A58
:1020A0002025730A00006C6F61640000736176651F
:1020B0000000636C6561720064656661756C740034
:1020C0007365747570003C6C6F61647C73617665D8
:1020D0007C636C6561727C64656661756C747C732D
:1020E000657475703E0025730A00696E630064654F
:1020F0006300736574003C7365747C696E637C6413
:1021000065633E006E65787400007072657600004D
:102110003C7365747C6E6578747C707265763E2065
:102120003C76616C75653E006F6666736574000091
:1021300073686F7700004F6666736574206368206C
:10214000256420282573293A2025640A00003C7361
:10215000686F777C6F66667365743E203C63686168
:102160006E6E656C3E203C76616C7565205B302E32
:102170003564625D3E000000706F776572006D65CA
:102180006E7500006C6566740000726967687400A3
:1021900073656C65637400003C706F7765727C6D6D
:1021A000656E757C6C6566747C72696768747C7337
:1021B000656C6563743E00004465627567206C65FC
:1021C00076656C203D202564000053686F7720738E
:1021D0007461747573007665720053686F7720764A
:1021E000657273696F6E00007265626F6F740000D4
:1021F0005265626F6F7400007061720050617220EE
:1022000066756E6374696F6E7300766F6C756D655D
:102210000000566F6C2066756E6374696F6E730094
:10222000696E70757400496E702066756E637469AE
:102230006F6E73006368616E6E656C004368206644
:10224000756E6374696F6E7300007469746C6500F9
:10225000446973706C6179207469746C6500506FA7
:10226000776572206F6E2F6F666600006D757465FE
:1022700000004D7574652F756E6D7574650073651E
:102280007474696E6773000053657474696E677364
:102290000000627574746F6E0000456D756C61743A
:1022A0006520627574746F6E730064620000436829
:1022B000616E676520646562756720696E666F0090
:1022C00068656C700000446973706C6179206865A2
:1022D0006C700000200A282C293B0000D9CFE5FFB4
:1022E000E1CFD9FF00C0E5FF01C0E5FF02C0E5FF77
:1022F00003C0E5FF04C0E5FF05C0E5FF08011B5171
:1023000008011C1108011D1101E1AAD11BC800F030
:102310001CC801F01DC802F0230E0026000E012289
:10232000022200C0E9FF01C0F3FF025079EC7BF00C
:10233000006E005023E01BC800F01CC801F01DC84F
:1023400002F0240E0026000E0122022208011E5176
:10235000030DF3CF03F003500026E86A0122E86A78
:10236000022200C0E9FF01C0F3FF025024EC76F026
:10237000006EF3CF01F0F4CF02F003D0006A016ADF
:10238000026A010EE56E2BEC50F0E652005001108F
:102390000210D8B43DD0800EE56E2BEC50F0E65222
:1023A0001BC803F01CC804F01DC805F00550E56EFD
:1023B0000450E56E0350E56E3FEC68F0030EE12635
:1023C000C00EE56E2BEC50F0E6523C0EE56EDAECFA
:1023D00076F0E652200EE56EDAEC76F0E652025028
:1023E000E56E0150E56E0050E56E3FEC68F0030EBF
:1023F000E12670EC78F0006E00060050E56E56ECB9
:1024000077F0E6523E0EE56EDAEC76F0E65228D131
:102410001BC800F01CC801F01DC802F0140E0026F5
:10242000000E0122022200C0E9FF01C0F3FF0250AA
:1024300024EC76F0006EF3CF01F0F4CF02F0005000
:1024400001100210D8B40CD11BC800F01CC801F058
:102450001DC802F0170E0026000E0122022200C045
:10246000E9FF01C0F3FF025024EC76F0006EF3CFD9
:1024700001F0F4CF02F0005001100210D8B4F0D0F7
:102480001BC800F01CC801F01DC802F01A0E00267F
:10249000000E0122022200C0E9FF01C0F3FF02503A
:1024A00024EC76F0006EF3CF01F0F4CF02F0005090
:1024B00001100210D8B4D4D01BC800F01CC801F021
:1024C0001DC802F0140E0026000E0122022200C0D8
:1024D000E9FF01C0F3FF025024EC76F0006EF3CF69
:1024E00001F0F4CF02F0F2CFE5FFF29E05000A0EF4
:1024F000FD6E250EFE6E000EFF6EE4BEF28E02C073
:10250000FBFF01C0FAFF0050F96E006E800EE56E11
:102510002BEC50F0E652005026E11BC800F01CC81E
:1025200001F01DC802F00250E56E0150E56E00504A
:10253000E56E3FEC68F0030EE126C00EE56E2BEC75
:1025400050F0E652000E026E090E016EB40E006EDF
:102550000250E56E0150E56E0050E56E3FEC68F00C
:10256000030EE1267DD01BC800F01CC801F01DC879
:1025700002F0170E0026000E0122022200C0E9FF21
:1025800001C0F3FF025024EC76F0006EF3CF01F0AF
:10259000F4CF02F008011E51E56EF2CFE5FFF29E86
:1025A0000500BE0EFD6E250EFE6E000EFF6EE4BE33
:1025B000F28E02C0FBFF01C0FAFF0050F96E006E00
:1025C000F3CF01F0F4CF02F0E6520250E56E015075
:1025D000E56E0050E56E3FEC68F0030EE126C00E9C
:1025E000E56E2BEC50F0E6521BC800F01CC801F061
:1025F0001DC802F01A0E0026000E0122022200C0A1
:10260000E9FF01C0F3FF025024EC76F0006EF3CF37
:1026100001F0F4CF02F008011E51E56EF2CFE5FFA4
:10262000F29E0500400EFD6E260EFE6E000EFF6E41
:10263000E4BEF28E02C0FBFF01C0FAFF0050F96E4B
:10264000006EF3CF01F0F4CF02F0E6520250E56ED7
:102650000150E56E0050E56E3FEC68F0030EE12698
:10266000E4CF05F0E4CF04F0E4CF03F0E4CF02F0D0
:10267000E4CF01F0E4CF00F0E4CFD9FF1200D9CFCE
:10268000E5FFE1CFD9FF00C0E5FF01C0E5FF02C0D3
:10269000E5FF03C0E5FF04C0E5FF05C0E5FF06C098
:1026A000E5FF07C0E5FF08C0E5FF09C0E5FF68ECEE
:1026B0007CF0006EF3CF01F01BEC7DF01BEC7DF0A5
:1026C000026E02501DE0000E046E0C0E036E640ECE
:1026D000026E090E066EE20E056E800E076E045045
:1026E000E56E0350E56E0250E56E0750E56E06504C
:1026F000E56E0550E56E5DEC48F0060EE12668D10A
:102700000150800F810F02E1410E005C1DE2000EBE
:10271000046E0C0E036E6C0E026E090E066EE20E57
:10272000056E800E076E0450E56E0350E56E025094
:10273000E56E0750E56E0650E56E0550E56E5DEC02
:1027400048F0060EE12644D10150800F810F02E1CE
:10275000ED0E005C36E2011C036E001C026E024AA4
:10276000032A000EE56E020EE56E0350E56E025080
:10277000E56EF8EC53F0026EF3CF03F0040EE126A1
:10278000000E066E0C0E056E740E046E090E086EB9
:10279000E20E076E800E096E0350E56E0250E56E84
:1027A0000650E56E0550E56E0450E56E0950E56E85
:1027B0000850E56E0750E56E5DEC48F0080EE12626
:1027C000A0D0D88001AED89036E3011C036E001C67
:1027D000026E024A032A000EE56E020EE56E0350F9
:1027E000E56E0250E56EF8EC53F0026EF3CF03F0A5
:1027F000040EE126000E066E0C0E056E7A0E046EB7
:10280000090E086EE20E076E800E096E0350E56E2B
:102810000250E56E0650E56E0550E56E0450E56E1B
:102820000950E56E0850E56E0750E56E5DEC48F026
:10283000080EE12666D00150800F800F02E1140ED1
:10284000005C30E3000EE56E020EE56E0150E56EB1
:102850000050E56EF8EC53F0026EF3CF03F0040E77
:10286000E126000E066E0C0E056E800E046E090E3B
:10287000086EE20E076E800E096E0350E56E025080
:10288000E56E0650E56E0550E56E0450E56E0950A4
:10289000E56E0850E56E0750E56E5DEC48F0080EF9
:1028A000E1262FD0000EE56E020EE56E0150E56EBA
:1028B0000050E56EF8EC53F0026EF3CF03F0040E17
:1028C000E126000E066E0C0E056E860E046E090ED5
:1028D000086EE20E076E800E096E0350E56E025020
:1028E000E56E0650E56E0550E56E0450E56E095044
:1028F000E56E0850E56E0750E56E5DEC48F0080E99
:10290000E126000EE56E020EE56E0150E56E005008
:10291000E56E22EC57F0006EF3CF01F0040EE126D5
:10292000005001101DE0090E016EE20E006E800ED7
:10293000026E000E056E0C0E046E8C0E036E0550BA
:10294000E56E0450E56E0350E56E0250E56E0150F1
:10295000E56E0050E56EE5EC54F0060EE1261CD065
:10296000090E016EE20E006E800E026E000E056E04
:102970000C0E046E900E036E0550E56E0450E56E6D
:102980000350E56E0250E56E0150E56E0050E56EB5
:10299000E5EC54F0060EE126090E016EE20E006E23
:1029A000800E026E000E056E0C0E046E940E036E09
:1029B0000550E56E0450E56E0350E56E0250E56E7D
:1029C0000150E56E0050E56EE5EC54F0060EE12690
:1029D000090E016EE20E006E800E026E02C0F4FF60
:1029E00001C0F3FF0050E4CF09F0E4CF08F0E4CFDA
:1029F00007F0E4CF06F0E4CF05F0E4CF04F0E4CF35
:102A000003F0E4CF02F0E4CF01F0E4CF00F0E4CF34
:102A1000D9FF1200D9CFE5FFE1CFD9FF00C0E5FF14
:102A200001C0E5FF02C0E5FF03C0E5FF04C0E5FF0C
:102A300005C0E5FF06C0E5FF07C0E5FF08C0E5FFEC
:102A400009C0E5FF0AC0E5FF0BC0E5FF0CC0E5FFCC
:102A50000DC0E5FF0EC0E5FF0FC0E5FF10C0E5FFAC
:102A600011C0E5FF020EDBCF00F0030EDBCF01F05B
:102A7000040EDBCF02F0D6EC7DF0036E090E056E7E
:102A8000290E046E800E066E0650E56E0550E56E4A
:102A90000450E56E0250E56E0150E56E0050E56EA3
:102AA000A1EC4DF0006E060EE1260050010A01E097
:102AB0006BD003C001F0026A000E066E200E056E98
:102AC0003A0E046E0250E56E0150E56E0650E56E5A
:102AD0000550E56E0450E56ECBEC66F0050EE12680
:102AE000016A0350015CD8B04ED00150E56EA6ECEF
:102AF00050F0026EF3CF04F0F4CF05F0E65201502F
:102B0000E56EACEC6DF0066EF3CF07F0E6520150C7
:102B1000E56E9AEC51F0086EF3CF09F0F4CF0AF0AD
:102B2000E6520150E56E20EC51F00B6EF3CF0CF045
:102B3000F4CF0DF0E652000E106E200E0F6E420E16
:102B40000E6E0550E56E0450E56E0250E56E0750BE
:102B5000E56E0650E56E0A50E56E0950E56E0850C8
:102B6000E56E0D50E56E0C50E56E0B50E56E1050A5
:102B7000E56E0F50E56E0E50E56ECBEC66F00E0E76
:102B8000E126012AAED7EAD00050020A01E07ED049
:102B9000016A026A0350025CD8B0C7D02CC904F0A5
:102BA0002DC905F02EC906F00250E56E20EC51F05B
:102BB000076EF3CF08F0F4CF09F0E6520950E56E46
:102BC0000850E56E0750E56E0650E56E0550E56E5F
:102BD0000450E56E08EC4BF0046EF3CF05F0060EE2
:102BE000E12604500510D8A44DD00150E56EA6ECA6
:102BF00050F0046EF3CF05F0F4CF06F0E65201502A
:102C0000E56EACEC6DF0076EF3CF08F0E6520150C4
:102C1000E56E9AEC51F0096EF3CF0AF0F4CF0BF0A9
:102C2000E6520150E56E20EC51F00C6EF3CF0DF042
:102C3000F4CF0EF0E652000E116E200E106E420E12
:102C40000F6E0650E56E0550E56E0450E56E0850B7
:102C5000E56E0750E56E0B50E56E0A50E56E0950C3
:102C6000E56E0E50E56E0D50E56E0C50E56E1150A0
:102C7000E56E1050E56E0F50E56ECBEC66F00E0E73
:102C8000E1266CD0022A02C001F084D70050030A6A
:102C900001E04BD0016A006A0350005CD8B045D017
:102CA0002CC902F02DC904F02EC905F00050E56EC4
:102CB00020EC51F0066EF3CF07F0F4CF08F0E652A7
:102CC0000850E56E0750E56E0650E56E0550E56E5E
:102CD0000450E56E0250E56E08EC4BF0026EF3CF47
:102CE00004F0060EE126025004101BE109013151E7
:102CF000E56E09013051E56E09012F51E56EE2ECF8
:102D000035F0026EF3CF04F0030EE1260450E56EB9
:102D10000250E56E0150E56E7EEC41F0030EE126B7
:102D20001DD0002A00C001F0B7D7000E026E200EA1
:102D3000016E580E006E09012E51E56E09012D51EC
:102D4000E56E09012C51E56E0250E56E0150E56E0D
:102D50000050E56ECBEC66F0060EE126E4CF11F0F4
:102D6000E4CF10F0E4CF0FF0E4CF0EF0E4CF0DF09D
:102D7000E4CF0CF0E4CF0BF0E4CF0AF0E4CF09F09D
:102D8000E4CF08F0E4CF07F0E4CF06F0E4CF05F09D
:102D9000E4CF04F0E4CF03F0E4CF02F0E4CF01F09D
:102DA000E4CF00F0E4CFD9FF1200D9CFE5FFE1CFA7
:102DB000D9FF00C0E5FF01C0E5FF02C0E5FF03C089
:102DC000E5FF04C0E5FF05C0E5FF06C0E5FF07C05D
:102DD000E5FF08C0E5FF09C0E5FF0AC0E5FF0BC03D
:102DE000E5FF0CC0E5FF0EC0E5FF0FC0E5FF020EDA
:102DF000DBCF00F0030EDBCF01F0040EDBCF02F0DF
:102E0000050EDBCF03F0060EDBCF04F0070EDBCFA1
:102E100005F0080EDBCF06F0090EDBCF07F00050FF
:102E20000B01046F0150056F0250066F0350076FCE
:102E300004500B01086F0550096F06500A6F0750C8
:102E40000B6F0B01045105110611071106E00B0170
:102E5000085109110A110B1105E1E96AF46AF36AD4
:102E6000E86A4CD10B010751800BE844006E0B015E
:102E70000B51800BE844001A0B0106350735016E33
:102E8000036A046A026A820E0126FF0E02220322EE
:102E900004220B010A350B35036E046A01C007F0EA
:102EA00002C008F007500326085004220350016EA8
:102EB0000450026E0B010451036E0551046E7F0E27
:102EC0000615056E058E0350046F0450056F0550FE
:102ED000066F076B0B010851036E0951046E7F0EDC
:102EE0000A15056E058E0350086F0450096F0550D2
:102EF0000A6F0B6B0B010551036E0651046E0751EF
:102F0000056E0B010951076E0A51086E0B51E56AF7
:102F1000E56E0850E56E0750E56EE56A0550E56E12
:102F20000450E56E0350E56E92EC27F0036EF3CF8C
:102F300004F0F4CF05F0E9CF06F0080EE1260B010E
:102F40000451076E0B0109510B6E0A510C6E0B51A7
:102F5000E56AE56E0C50E56E0B50E56EE56AE56AD4
:102F6000E56A0750E56E92EC27F0F3CF08F0F4CF56
:102F700009F0E9CF0AF0080EE1260850076E095063
:102F8000086E0A50096E0A6A075003260850042288
:102F9000095005220A5006220B010851076E0B0149
:102FA00005510B6E06510C6E0751E56AE56E0C502B
:102FB000E56E0B50E56EE56AE56AE56A0750E56E79
:102FC00092EC27F0F3CF08F0F4CF09F0E9CF0AF044
:102FD000080EE1260850076E0950086E0A50096E67
:102FE0000A6A0750032608500422095005220A5095
:102FF0000622400E0326000E04220522062206AEFB
:103000000ED0400E0326000E042205220622045094
:10301000036E0550046E0650056E066A11D0033427
:103020000434036E046A04360550E844FE0B0412AF
:1030300005340634056E066A0636FF0E01260222A6
:10304000059E0250800F7F0F02E1000E015C19E324
:10305000005006E0076A086A096A800E0A6E04D00A
:10306000076A086A096A0A6A098E7F0E0A120750FF
:103070000B01046F0850056F0950066F0A50076F67
:1030800035D0D88002AED89006E30B01046B056BF7
:10309000066B076B2BD0005006E0006A076A086ACF
:1030A000800E096E04D0006A076A086A096AE86A35
:1030B000023001300F6E0E6A0E320C6A0C50001294
:1030C00007120E5008120F50091200500312075039
:1030D0000412085005120950061203500B01046F28
:1030E0000450056F0550066F0650076F07CBE9FFC8
:1030F00006CBF4FF05CBF3FF0B010451E4CF0FF037
:10310000E4CF0EF0E4CF0CF0E4CF0BF0E4CF0AF004
:10311000E4CF09F0E4CF08F0E4CF07F0E4CF06F005
:10312000E4CF05F0E4CF04F0E4CF03F0E4CF02F005
:10313000E4CF01F0E4CF00F0E4CFD9FF1200D9CF03
:10314000E5FFE1CFD9FF00C0E5FF01C0E5FF02C008
:10315000E5FF03C0E5FF04C0E5FF05C0E5FF06C0CD
:10316000E5FF020EDBCFFCF886EC71F0FEEC6EF0B2
:10317000006EF3CF01F0F4CF02F0E9CF03F08094BA
:10318000809A928A010EE56E35EC7BF0E65280AAB9
:1031900011D0000E066E6E0E056E740E046E065093
:1031A000E56E0550E56E0450E56E87EC67F0030EA2
:1031B000E1263AD080BA28D03E0EE56E4C0EE56E80
:1031C000CC0EE56ECD0EE56E0350E56E0250E56E59
:1031D0000150E56E0050E56E27EC46F0006E080EDB
:1031E000E126005011E0000E026E6E0E016E8E0E92
:1031F000006E0250E56E0150E56E0050E56E87EC02
:1032000067F0030EE12610D0000E026E6E0E016E06
:10321000A60E006E0250E56E0150E56E0050E56EA0
:103220000BEC67F0030EE126929A010EE56E35EC89
:103230007BF0E6520801FC51D8A443D0080E0801E7
:10324000FA6F010E0801FB6F010EE56E0E0EE56EC2
:10325000000EE56EAFEC62F0030EE126E60EE56EC1
:10326000070EE56E000EE56EAFEC62F0030EE12690
:10327000E60EE56E080EE56E000EE56EAFEC62F050
:10328000030EE126030EE56E100EE56E000EE56EF0
:10329000AFEC62F0030EE1263C0EE56E130EE56E18
:1032A000000EE56EAFEC62F0030EE126C00EE56E97
:1032B000160EE56E000EE56EAFEC62F0030EE12631
:1032C000DED00801FC51010A01E03CD0010EE56EA0
:1032D0000E0EE56E000EE56EAFEC62F0030EE12619
:1032E000FF0EE56E100EE56E000EE56EAFEC62F0BF
:1032F000030EE126000EE56E130EE56E000EE56E80
:10330000AFEC62F0030EE126000EE56E160EE56EE0
:10331000000EE56EAFEC62F0030EE126600EE56E86
:10332000000EE56EE6EC6AF0E652E6520A0EE56E35
:1033300035EC7BF0E652080E0801FA6F010E080129
:10334000FB6F9DD00801FC51020A01E098D0010EEC
:10335000E56E0E0EE56E000EE56EAFEC62F0030E4C
:10336000E126200EE56E0B0EE56E000EE56EAFEC6D
:1033700062F0030EE1260D0EE56E0C0EE56E000EFA
:10338000E56EAFEC62F0030EE126FF0EE56E100E67
:10339000E56E000EE56EAFEC62F0030EE126000E66
:1033A000E56E130EE56E000EE56EAFEC62F0030EF7
:1033B000E126000EE56E160EE56E000EE56EAFEC32
:1033C00062F0030EE126600EE56E000EE56EE6EC9F
:1033D0006AF0E652E6520A0EE56E35EC7BF0E652F4
:1033E000010EE56E0E0EE56E010EE56EAFEC62F0BD
:1033F000030EE126200EE56E0B0EE56E010EE56E66
:10340000AFEC62F0030EE1260D0EE56E0C0EE56EDC
:10341000010EE56EAFEC62F0030EE126FF0EE56EE5
:10342000100EE56E010EE56EAFEC62F0030EE126C4
:10343000000EE56E130EE56E010EE56EAFEC62F068
:10344000030EE126000EE56E160EE56E010EE56E2A
:10345000AFEC62F0030EE126700EE56E010EE56E34
:10346000E6EC6AF0E652E6520A0EE56E35EC7BF0C9
:10347000E652100E0801FA6F020E0801FB6F006A97
:103480000801FB51005C0CE2000EE56E0E0EE56ECD
:103490000050E56EAFEC62F0030EE126002AF0D793
:1034A0000A0EE56E35EC7BF0E652E4CF06F0E4CF91
:1034B00005F0E4CF04F0E4CF03F0E4CF02F0E4CF72
:1034C00001F0E4CF00F0E4CFD9FF1200D9CFE5FF3F
:1034D000E1CFD9FF00C0E5FF01C0E5FF02C0E5FF75
:1034E00003C0E5FF04C0E5FF05C0E5FF06C0E5FF3A
:1034F00007C0E5FF08C0E5FF09C0E5FF0AC0E5FF1A
:103500000BC0E5FF0CC0E5FF0DC0E5FF020EDBCFF1
:1035100000F0060E005CD8B043D1FA6AFB6A0034B2
:10352000FA36E834FA36FC0B380FE56E350EFA221F
:10353000000EFB22E450F96EA8EF1AF0D5EF1AF056
:1035400004EF1BF041EF1BF07EEF1BF0ABEF1BF025
:1035500034EC70F0006E016A0FEC75F0026E036AD5
:10356000000E066E0A0E056E7C0E046E010E086ECD
:10357000A80E076E800E096E0150E56E0050E56ED4
:103580000350E56E0250E56E0650E56E0550E56E9F
:103590000450E56E0950E56E0850E56E0750E56E83
:1035A0005DEC48F00A0EE126FBD012EC7DF0006ED7
:1035B000016A09EC7DF0026E036A024A032A000EDA
:1035C000066E0A0E056E7C0E046E010E086EA80EC5
:1035D000076E800E096E0150E56E0050E56E0350D7
:1035E000E56E0250E56E0650E56E0550E56E04503E
:1035F000E56E0950E56E0850E56E0750E56E5DEC2E
:1036000048F00A0EE126CCD075EC7DF0006E016A20
:103610006CEC7DF0026E036A63EC7DF0046E056A6B
:103620005AEC7DF0066E076A000E0A6E0A0E096EED
:10363000840E086E010E0C6EA80E0B6E800E0D6EC1
:103640000150E56E0050E56E0350E56E0250E56EE8
:103650000550E56E0450E56E0750E56E0650E56EC8
:103660000A50E56E0950E56E0850E56E0D50E56EA6
:103670000C50E56E0B50E56E5DEC48F00E0EE12649
:103680008FD051EC7DF0006E016A48EC7DF0026E47
:10369000036A3FEC7DF0046E056A36EC7DF0066E41
:1036A000076A000E0A6E0A0E096E840E086E010E7D
:1036B0000C6EA80E0B6E800E0D6E0150E56E005064
:1036C000E56E0350E56E0250E56E0550E56E045060
:1036D000E56E0750E56E0650E56E0A50E56E09503E
:1036E000E56E0850E56E0D50E56E0C50E56E0B5022
:1036F000E56E5DEC48F00E0EE12652D07EEC7DF0DA
:10370000006E016A87EC7DF0026E036A000E066EA1
:103710000A0E056E960E046E010E086EA80E076E58
:10372000800E096E0150E56E0050E56E0350E56EA7
:103730000250E56E0650E56E0550E56E0450E56EEC
:103740000950E56E0850E56E0750E56E5DEC48F0F7
:103750000A0EE12625D099EC0FF0006EF3CF01F0B0
:10376000000E046E0A0E036E9C0E026E010E066EB3
:10377000A80E056E800E076E0150E56E0050E56ED6
:103780000450E56E0350E56E0250E56E0750E56E9D
:103790000650E56E0550E56E5DEC48F0080EE1263A
:1037A000010E016EA80E006E800E026E02C0F4FFC4
:1037B00001C0F3FF0050E4CF0DF0E4CF0CF0E4CFF4
:1037C0000BF0E4CF0AF0E4CF09F0E4CF08F0E4CF47
:1037D00007F0E4CF06F0E4CF05F0E4CF04F0E4CF47
:1037E00003F0E4CF02F0E4CF01F0E4CF00F0E4CF47
:1037F000D9FF1200D9CFE5FFE1CFD9FF00C0E5FF27
:1038000001C0E5FF02C0E5FF03C0E5FF04C0E5FF1E
:1038100005C0E5FF06C0E5FF07C0E5FF08C0E5FFFE
:1038200009C0E5FF0AC0E5FF0BC0E5FF0CC0E5FFDE
:103830000DC0E5FF0EC0E5FF0FC0E5FF10C0E5FFBE
:10384000000E026E890E016EA20E006E0250E56E31
:103850000150E56E0050E56E010EE56E04EC5DF082
:10386000040EE12609EC73F0CAEC7CF0006EC1ECAA
:103870007CF0016EAFEC7CF0026ECBEC73F0036E6B
:1038800002C004F0056A066A076A0BEC66F0086E6F
:10389000F3CF09F0F4CF0AF0000E0D6E890E0C6E16
:1038A000AC0E0B6E0F0E0F6E200E0E6E800E106E95
:1038B0000550E56E0450E56E0650E56E0150E56E6C
:1038C0000750E56E0050E56E0A50E56E0950E56E52
:1038D0000850E56E0D50E56E0C50E56E0B50E56E30
:1038E0001050E56E0F50E56E0E50E56E5DEC48F041
:1038F0000F0EE1260F0E016E200E006E800E046E7C
:103900000450E56E0150E56E0050E56E020EE56E66
:1039100004EC5DF0040EE126D88003AED89037E2C7
:1039200003C000F0016A03BE0168000E066E890E36
:10393000056EC20E046E0F0E086E200E076E800E0E
:10394000096E0150E56E0050E56E0650E56E0550BB
:10395000E56E0450E56E0950E56E0850E56E0750BF
:10396000E56E5DEC48F0080EE1260F0E016E200EAC
:10397000006E800E046E0450E56E0150E56E00503E
:10398000E56E020EE56E04EC5DF0040EE1260250D9
:1039900008E103500C0A05E1010EE56E80EC6DF0C4
:1039A000E65224EC7DF0006E005001E17ED0025022
:1039B000D8A467D00350200A03E00350560A06E15A
:1039C000040EE56E80EC6DF0E65248D00350210AFB
:1039D00003E00350550A06E1030EE56E80EC6DF03E
:1039E000E6523CD003503B0A03E00350520A06E182
:1039F000020EE56E80EC6DF0E65230D00350250AE1
:103A000006E1050EE56E80EC6DF0E65227D003501E
:103A1000100A06E1010EE56E80EC72F0E6521ED04F
:103A20000350110A06E1FF0EE56E80EC72F0E652DB
:103A300015D00350380A03E1A5EC5CF00FD0035019
:103A4000800F7F0F0BE30350800F760F07E2030414
:103A5000006E0050E56E43EC40F0E65203500D0A54
:103A600010E11BEC7DF0006E005006E0000EE56EEC
:103A70009EEC77F0E65205D0010EE56E9EEC77F0F5
:103A8000E652060E025C11E30350100A06E1020E34
:103A9000E56E80EC72F0E65208D00350110A05E1A1
:103AA000FE0EE56E80EC72F0E652E4CF10F0E4CF4B
:103AB0000FF0E4CF0EF0E4CF0DF0E4CF0CF0E4CF44
:103AC0000BF0E4CF0AF0E4CF09F0E4CF08F0E4CF44
:103AD00007F0E4CF06F0E4CF05F0E4CF04F0E4CF44
:103AE00003F0E4CF02F0E4CF01F0E4CF00F0E4CF44
:103AF000D9FF1200D8CFE5FFE0CFE5FFE56EF3CFA9
:103B0000E5FFF4CFE5FFE9CFE5FFEACFE5FFFACF28
:103B1000E5FFFBCFE5FFD9CFE5FFE1CFD9FF00C03F
:103B2000E5FF01C0E5FF010EE56EACEC6DF0006E47
:103B3000F3CF01F0E6520801472B130E0801475D51
:103B4000D8A043D00801492B0801476B3C0E08015F
:103B5000495D04E308014A2B0801496B80A01BD092
:103B600008015A2B3C0E08015A5D04E308015B2B47
:103B700008015A6B3C0E08015B5D04E308015C2BF5
:103B800008015B6B180E08015C5D1FE308015D2BEB
:103B900008015C6B1AD00801562B3C0E0801565DDB
:103BA00004E30801572B0801566B3C0E0801575DD2
:103BB00004E30801582B0801576B180E0801585DE3
:103BC00004E30801592B0801586B0801482B050E26
:103BD0000801485D11E30801486B24EC7DF0016E9B
:103BE00001500AE0F7EC7CF0016E015005E00D0E8B
:103BF000E56E80EC6DF0E6523D0EE56ECC0EE56EA6
:103C0000CC0EE56ECD0EE56E08014E51E56E080155
:103C10004D51E56E08014C51E56E08014B51E56EC2
:103C2000B7EC46F0016E080EE126015003E00801F2
:103C3000532B06D00801536B0801546B0801556BD8
:103C4000130E0801535D1CE30801542B0801536B4C
:103C50003C0E0801545D14E30801552B0801546B18
:103C600024EC7DF0016E01500BE0005009E00801EA
:103C70005551001805E1090EE56E80EC6DF0E65235
:103C8000D5EC74F0006E005005E0010EE56E80EC9E
:103C90006DF0E652B8EC74F0006E005005E0020ED4
:103CA000E56E80EC6DF0E6529BEC74F0006E005017
:103CB00005E0030EE56E80EC6DF0E6527EEC74F0EC
:103CC000006E005005E0040EE56E80EC6DF0E652EB
:103CD00061EC74F0006E005005E0050EE56E80ECBE
:103CE0006DF0E65224EC79F0006E005005E0070E0E
:103CF000E56E80EC6DF0E65224EC7DF0006E005035
:103D000023E00CEC77F0006E005005E0060EE56E47
:103D100080EC6DF0E6529EEC78F0006E00500AE008
:103D2000C6EC72F0006E005005E00B0EE56E80EC04
:103D30006DF0E652B0EC3DF0006E005005E00A0E6A
:103D4000E56E80EC6DF0E652C2B201D0C2829E9068
:103D5000E4CF01F0E4CF00F0E4CFD9FFE4CFFBFFE4
:103D6000E4CFFAFFE4CFEAFFE4CFE9FFE4CFF4FFCA
:103D7000E4CFF3FFE450E4CFE0FFE4CFD8FF10003E
:103D8000D9CFE5FFE1CFD9FF00C0E5FF01C0E5FFD6
:103D900002C0E5FF020EDBCF00F00050090DF3CFAB
:103DA00000F0016A2A0E00260A0E0122060E0026E5
:103DB000D8B0012A00C0E9FF01C0EAFFEFCF00F050
:103DC000100E005CD8B0EFD0FA6AFB6A0034FA3605
:103DD000E834FA36FC0BE60FE56E3D0EFA22000ED3
:103DE000FB22E450F96E73EF1FF07FEF1FF08BEFB3
:103DF0001FF097EF1FF0A3EF1FF0AFEF1FF0BBEF27
:103E00001FF0C7EF1FF013EF1FF01FEF1FF02BEF96
:103E10001FF037EF1FF043EF1FF04FEF1FF05BEF86
:103E20001FF067EF1FF0000E026E0C0E016E980E71
:103E3000006E02C0F4FF01C0F3FF0050BFD0000EBF
:103E4000026E0C0E016E9E0E006E02C0F4FF01C0E9
:103E5000F3FF0050B3D0000E026E0C0E016EA40EE4
:103E6000006E02C0F4FF01C0F3FF0050A7D0000EA7
:103E7000026E0C0E016EAA0E006E02C0F4FF01C0AD
:103E8000F3FF00509BD0000E026E0C0E016EB00EC0
:103E9000006E02C0F4FF01C0F3FF00508FD0000E8F
:103EA000026E0C0E016EB60E006E02C0F4FF01C071
:103EB000F3FF005083D0000E026E0C0E016EBC0E9C
:103EC000006E02C0F4FF01C0F3FF005077D0000E77
:103ED000026E0C0E016EC20E006E02C0F4FF01C035
:103EE000F3FF00506BD0000E026E0C0E016EC80E78
:103EF000006E02C0F4FF01C0F3FF00505FD0000E5F
:103F0000026E0C0E016ED00E006E02C0F4FF01C0F6
:103F1000F3FF005053D0000E026E0C0E016ED80E4F
:103F2000006E02C0F4FF01C0F3FF005047D0000E46
:103F3000026E0C0E016EE00E006E02C0F4FF01C0B6
:103F4000F3FF00503BD0000E026E0C0E016EE80E27
:103F5000006E02C0F4FF01C0F3FF00502FD0000E2E
:103F6000026E0C0E016EF00E006E02C0F4FF01C076
:103F7000F3FF005023D0000E026E0C0E016EF80EFF
:103F8000006E02C0F4FF01C0F3FF005017D0000E16
:103F9000026E0D0E016E000E006E02C0F4FF01C035
:103FA000F3FF00500BD0000E026E0C0E016E480E97
:103FB000006E02C0F4FF01C0F3FF0050E4CF02F036
:103FC000E4CF01F0E4CF00F0E4CFD9FF1200D9CF65
:103FD000E5FFE1CFD9FF00C0E5FF01C0E5FF02C06A
:103FE000E5FF03C0E5FF04C0E5FF05C0E5FF06C02F
:103FF000E5FF07C0E5FF08C0E5FF09C0E5FF020EC9
:10400000DBCF00F0030EDBCF01F0040EDBCF02F0BC
:10401000090E046E740E036E800E056E0550E56E7B
:104020000450E56E0350E56E0250E56E0150E56EFA
:104030000050E56EA1EC4DF0006E060EE126020E7A
:10404000005CD8A0B6D0000E036E210E026E280EC2
:10405000016E0350E56E0250E56E0150E56E0901F8
:104060007951E56E09017851E56E09017751E56EE8
:1040700008EC4BF0016EF3CF02F0060EE126015082
:1040800002102FE10050040A2CE109017C51E56E79
:1040900009017B51E56E09017A51E56EE2EC35F0DC
:1040A000016EF3CF02F0030EE12609017F51E56EA8
:1040B00009017E51E56E09017D51E56EE2EC35F0B6
:1040C000026EF3CF03F0030EE126036A0350E56EA0
:1040D0000250E56E0150E56E25EC4EF0030EE12630
:1040E00081D0000E046E210E036E300E026E04505D
:1040F000E56E0350E56E0250E56E09017951E56EFB
:1041000009017851E56E09017751E56E08EC4BF035
:10411000026EF3CF03F0060EE12602500310D8A47E
:1041200048D00050030A01E044D009017C51E56EFB
:1041300009017B51E56E09017A51E56EE2EC35F03B
:10414000006EF3CF02F0030EE1260050016E015025
:10415000E56EE1EC6BF0006EF3CF02F0E652015039
:10416000E56EF2EC70F0036EF3CF04F0F4CF05F0DF
:10417000E652066A000E096E210E086E360E076EB4
:104180000250E56E0050E56E0550E56E0450E56E98
:104190000350E56E0650E56E0150E56E0950E56E80
:1041A0000850E56E0750E56ECBEC66F00A0EE1268E
:1041B00019D0000E026E210E016E4E0E006E0250DE
:1041C000E56E0150E56E0050E56E09017651E56E31
:1041D00009017551E56E09017451E56ED5EC5EF08B
:1041E000060EE126E4CF09F0E4CF08F0E4CF07F0B3
:1041F000E4CF06F0E4CF05F0E4CF04F0E4CF03F021
:10420000E4CF02F0E4CF01F0E4CF00F0E4CFD9FF37
:104210001200D8CFE5FFE0CFE5FFE56EF3CFE5FF75
:10422000F4CFE5FFE9CFE5FFEACFE5FFFACFE5FF01
:10423000FBCFE5FFD9CFE5FFE1CFD9FF00C0E5FF18
:1042400001C0E5FF02C0E5FF03C0E5FF04C0E5FFD4
:1042500005C0E5FF06C0E5FF07C0E5FF08C0E5FFB4
:1042600009C0E5FF0AC0E5FF0BC0E5FFC4CF00F0C1
:104270000050E56EB0EC6BF0006EF3CF01F0F4CFC0
:1042800002F0E9CF03F0E6520350E56E0250E56E0E
:104290000150E56E0050E56E3C0EE56EA00EE56E39
:1042A000000EE56E000EE56ED5EC16F0006EF3CF55
:1042B00001F0F4CF02F0E9CF03F0080EE12603503D
:1042C000E56E0250E56E0150E56E0050E56E3C0E65
:1042D000E56E230EE56ED70EE56E0A0EE56ED5ECA3
:1042E00016F0046EF3CF05F0F4CF06F0E9CF07F037
:1042F000080EE12608015251E56E08015151E56EA4
:1043000008015051E56E08014F51E56E3F0EE56E14
:104310007D0EE56E700EE56EA40EE56ED5EC16F022
:10432000086EF3CF09F0F4CF0AF0E9CF0BF0080ED6
:10433000E1260B50E56E0A50E56E0950E56E085017
:10434000E56E0750E56E0650E56E0550E56E0450CB
:10435000E56EC2EC0DF008014F6FF3CF50F8F4CFCB
:1043600051F8E9CF52F8080EE1263F0EE56E000E37
:10437000E56E000EE56E000EE56E08015251E56E29
:1043800008015151E56E08015051E56E08014F5189
:10439000E56E27EC46F0046E080EE126045009E0B5
:1043A00008014F6B0801506B0801516B3F0E08016B
:1043B000526F08015251E56E08015151E56E080136
:1043C0005051E56E08014F51E56E0350E56E025005
:1043D000E56E0150E56E0050E56E06EC3DF008011B
:1043E0004B6FF3CF4CF8F4CF4DF8E9CF4EF8080EF1
:1043F000E1269E9CE4CF0BF0E4CF0AF0E4CF09F075
:10440000E4CF08F0E4CF07F0E4CF06F0E4CF05F006
:10441000E4CF04F0E4CF03F0E4CF02F0E4CF01F006
:10442000E4CF00F0E4CFD9FFE4CFFBFFE4CFFAFF05
:10443000E4CFEAFFE4CFE9FFE4CFF4FFE4CFF3FFFA
:10444000E450E4CFE0FFE4CFD8FF1000D9CFE5FF80
:10445000E1CFD9FF00C0E5FF01C0E5FF02C0E5FFE5
:1044600003C0E5FF04C0E5FF05C0E5FF06C0E5FFAA
:1044700007C0E5FF08C0E5FF09C0E5FF0AC0E5FF8A
:10448000020EDBCF00F00050E56EE1EC6BF0016E48
:10449000F3CF02F0E652D88002AED890D8A06AD00E
:1044A0000050E56EE1EC6BF0016EF3CF02F0E652E6
:1044B000021E016CD8B4022A000EE56E020EE56EF3
:1044C0000250E56E0150E56E22EC57F0016EF3CF1D
:1044D00002F0040EE1260250E56E0150E56E000E7A
:1044E000E56E050EE56EC2EC61F0016EF3CF02F0F1
:1044F000040EE1260050E56EE1EC6BF0036EF3CFA5
:1045000004F0E652041E036CD8B4042A000EE56ED3
:10451000020EE56E0450E56E0350E56EF8EC53F0C4
:10452000036EF3CF04F0040EE126000E076E090EB1
:10453000066ECC0E056E010E096E690E086E800EB9
:104540000A6E0250E56E0150E56E0450E56E0350B0
:10455000E56E0750E56E0650E56E0550E56E0A50B3
:10456000E56E0950E56E0850E56E5DEC48F00A0E08
:10457000E12661D00050E56EE1EC6BF0016EF3CF07
:1045800002F0E652000EE56E020EE56E0250E56E98
:104590000150E56E22EC57F0016EF3CF02F0040EED
:1045A000E1260250E56E0150E56E000EE56E050E47
:1045B000E56EC2EC61F0016EF3CF02F0040EE1266D
:1045C0000050E56EE1EC6BF0006EF3CF03F0E652C5
:1045D000000EE56E020EE56E0350E56E0050E56ECE
:1045E000F8EC53F0006EF3CF03F0040EE126000E5A
:1045F000066E090E056EDE0E046E010E086E690E63
:10460000076E800E096E0250E56E0150E56E035094
:10461000E56E0050E56E0650E56E0550E56E0450FF
:10462000E56E0950E56E0850E56E0750E56E5DECED
:1046300048F00A0EE126010E016E690E006E800E32
:10464000026E02C0F4FF01C0F3FF0050E4CF0AF095
:10465000E4CF09F0E4CF08F0E4CF07F0E4CF06F0B0
:10466000E4CF05F0E4CF04F0E4CF03F0E4CF02F0B0
:10467000E4CF01F0E4CF00F0E4CFD9FF1200D9CFAE
:10468000E5FFE1CFD9FF00C0E5FF01C0E5FF02C0B3
:10469000E5FF03C0E5FF04C0E5FF05C0E5FF020E2E
:1046A000DBCF00F0030EDBCF01F0040EDBCF02F016
:1046B000090E046E470E036E800E056E0550E56E02
:1046C0000450E56E0350E56E0250E56E0150E56E54
:1046D0000050E56EA1EC4DF0006E060EE126020ED4
:1046E000005CD8A0BDD0000E026E200E016EA60E9A
:1046F000006E0250E56E0150E56E0050E56E090156
:104700004C51E56E09014B51E56E09014A51E56EC8
:1047100008EC4BF0006EF3CF01F0060EE1260050DE
:10472000011003E14DEC43F0B4D0000E026E200EF8
:10473000016EAC0E006E0250E56E0150E56E005049
:10474000E56E09014C51E56E09014B51E56E090119
:104750004A51E56E08EC4BF0006EF3CF01F0060E07
:10476000E1260050011003E106EC45F092D0000E66
:10477000026E200E016EB20E006E0250E56E015008
:10478000E56E0050E56E09014C51E56E09014B5193
:10479000E56E09014A51E56E08EC4BF0006EF3CF6F
:1047A00001F0060EE1260050011003E15DEC72F00D
:1047B00070D0000E026E200E016EB80E006E025018
:1047C000E56E0150E56E0050E56E09014C51E56E55
:1047D00009014B51E56E09014A51E56E08EC4BF0B9
:1047E000006EF3CF01F0060EE1260050011003E148
:1047F0005EEC07F04ED0000E026E200E016EC00E71
:10480000006E0250E56E0150E56E0050E56E090144
:104810004C51E56E09014B51E56E09014A51E56EB7
:1048200008EC4BF0006EF3CF01F0060EE1260050CD
:1048300001102FE109014F51E56E09014E51E56E5E
:1048400009014D51E56EE2EC35F0006EF3CF01F059
:10485000030EE1260050E56E4EEC6BF0E65219D0E7
:10486000000E026E200E016EC60E006E0250E56E46
:104870000150E56E0050E56E09014951E56E0901F0
:104880004851E56E09014751E56ED5EC5EF0060E24
:10489000E126E4CF05F0E4CF04F0E4CF03F0E4CF69
:1048A00002F0E4CF01F0E4CF00F0E4CFD9FF120032
:1048B000D9CFE5FFE1CFD9FF00C0E5FF01C0E5FF9B
:1048C00002C0E5FF03C0E5FF04C0E5FF05C0E5FF4A
:1048D000020EDBCF00F0030EDBCF01F0040EDBCFC6
:1048E00002F0090E046E560E036E800E056E055022
:1048F000E56E0450E56E0350E56E0250E56E015022
:10490000E56E0050E56EA1EC4DF0006E060EE1265E
:10491000020E005CD8A0BCD0000E036E200E026E0A
:10492000EA0E016E0350E56E0250E56E0150E56E31
:1049300009015B51E56E09015A51E56E09015951B2
:10494000E56E08EC4BF0016EF3CF02F0060EE126A7
:10495000015002101EE1020E016E026A0050030AAD
:1049600010E109015E51E56E09015D51E56E090135
:104970005C51E56EE2EC35F0016EF3CF02F0030E10
:10498000E1260150036E0350E56E80EC72F0E652B2
:1049900098D0000E056E200E046EEE0E036E0550CC
:1049A000E56E0450E56E0350E56E09015B51E56E5E
:1049B00009015A51E56E09015951E56E08EC4BF0B9
:1049C000036EF3CF04F0060EE1260350041025E138
:1049D000FE0E016EFF0E026E0050030A16E1090181
:1049E0005E51E56E09015D51E56E09015C51E56EB0
:1049F000E2EC35F0036EF3CF04F0030EE126041C65
:104A0000026E031C016E014A022A0150036E03501C
:104A1000E56E80EC72F0E65254D0000E056E200E6A
:104A2000046EF20E036E0550E56E0450E56E035001
:104A3000E56E09015B51E56E09015A51E56E090108
:104A40005951E56E08EC4BF0036EF3CF04F0060EFF
:104A5000E126035004101CE10050030A19E109018A
:104A60005E51E56E09015D51E56E09015C51E56E2F
:104A7000E2EC35F0016EF3CF02F0030EE1260250B6
:104A8000E56E0150E56E9EEC69F0E652E65219D0F3
:104A9000000E026E200E016EF60E006E0250E56EE4
:104AA0000150E56E0050E56E09015851E56E0901AF
:104AB0005751E56E09015651E56ED5EC5EF0060ED4
:104AC000E126E4CF05F0E4CF04F0E4CF03F0E4CF37
:104AD00002F0E4CF01F0E4CF00F0E4CFD9FF120000
:104AE000D9CFE5FFE1CFD9FF00C0E5FF01C0E5FF69
:104AF00002C0E5FF03C0E5FF04C0E5FF05C0E5FF18
:104B0000020EDBCF00F0030EDBCF01F0040EDBCF93
:104B100002F0090E046E920E036E800E056E0550B3
:104B2000E56E0450E56E0350E56E0250E56E0150EF
:104B3000E56E0050E56EA1EC4DF0006E060EE1262C
:104B4000020E005CD8A0B9D0000E026E210E016EDC
:104B5000780E006E0250E56E0150E56E0050E56E75
:104B600009019751E56E09019651E56E09019551CC
:104B7000E56E08EC4BF0006EF3CF01F0060EE12677
:104B80000050011006E1010EE56E80EC6DF0E6527A
:104B9000ADD0000E026E210E016E7E0E006E025030
:104BA000E56E0150E56E0050E56E09019751E56E26
:104BB00009019651E56E09019551E56E08EC4BF03F
:104BC000006EF3CF01F0060EE1260050011006E161
:104BD000020EE56E80EC6DF0E65288D0000E026E9B
:104BE000210E016E840E006E0250E56E0150E56EDE
:104BF0000050E56E09019751E56E09019651E56E89
:104C000009019551E56E08EC4BF0006EF3CF01F011
:104C1000060EE1260050011006E1030EE56E80EC61
:104C20006DF0E65263D0000E026E210E016E8A0E08
:104C3000006E0250E56E0150E56E0050E56E090110
:104C40009751E56E09019651E56E09019551E56EA2
:104C500008EC4BF0006EF3CF01F0060EE126005099
:104C6000011006E1040EE56E80EC6DF0E6523ED0D8
:104C7000000E026E210E016E900E006E0250E56E67
:104C80000150E56E0050E56E09019751E56E09018E
:104C90009651E56E09019551E56E08EC4BF0006EFA
:104CA000F3CF01F0060EE126005001101FE1050EC2
:104CB000E56E80EC6DF0E65219D0000E026E210E0A
:104CC000016E980E006E0250E56E0150E56E0050C8
:104CD000E56E09019451E56E09019351E56E0901F4
:104CE0009251E56ED5EC5EF0060EE126E4CF05F0BC
:104CF000E4CF04F0E4CF03F0E4CF02F0E4CF01F01E
:104D0000E4CF00F0E4CFD9FF1200D9CFE5FFE1CF27
:104D1000D9FF00C0E5FF01C0E5FF02C0E5FF03C009
:104D2000E5FF04C0E5FF05C0E5FF06C0E5FF07C0DD
:104D3000E5FF08C0E5FF09C0E5FF0AC0E5FF020E78
:104D4000DBCF00F00050E56EF2EC71F0016EE65240
:104D5000D88001AED890D8A06CD00050E56EF2ECAF
:104D600071F0016EE652026A01BE0268021E016C19
:104D7000D8B4022A000EE56E020EE56E0250E56E12
:104D80000150E56E22EC57F0016EF3CF02F0040EF5
:104D9000E1260250E56E0150E56E000EE56E050E4F
:104DA000E56EC2EC61F0016EF3CF02F0040EE12675
:104DB0000050E56EF2EC71F0036EE652046A03BE39
:104DC0000468041E036CD8B4042A000EE56E020EBB
:104DD000E56E0450E56E0350E56EF8EC53F0036E9B
:104DE000F3CF04F0040EE126000E076E090E066EE6
:104DF000CC0E056E010E096E150E086E800E0A6E41
:104E00000250E56E0150E56E0450E56E0350E56E0C
:104E10000750E56E0650E56E0550E56E0A50E56EEA
:104E20000950E56E0850E56E5DEC48F00A0EE1268B
:104E300055D00050E56EF2EC71F0016EE652020EB4
:104E4000E56E015001BEE86CE56E64EC69F001BEF0
:104E5000E86C016EE450E4500150050DF45001BEC1
:104E60000508026EF3CF01F00050E56EF2EC71F030
:104E7000006EE652020EE56E005000BEE86CE56E74
:104E8000D7EC69F0036A00BE031E006E03BE006C1F
:104E9000E450E450000E066E090E056EDE0E046E40
:104EA000010E086E150E076E800E096E0250E56E3B
:104EB0000150E56E0350E56E0050E56E0650E56E5C
:104EC0000550E56E0450E56E0950E56E0850E56E3C
:104ED0000750E56E5DEC48F00A0EE126010E016E0A
:104EE000150E006E800E026E02C0F4FF01C0F3FFCB
:104EF0000050E4CF0AF0E4CF09F0E4CF08F0E4CFAB
:104F000007F0E4CF06F0E4CF05F0E4CF04F0E4CFFF
:104F100003F0E4CF02F0E4CF01F0E4CF00F0E4CFFF
:104F2000D9FF1200D9CFE5FFE1CFD9FF00C0E5FFDF
:104F300001C0E5FF02C0E5FF03C0E5FF04C0E5FFD7
:104F400005C0E5FF06C0E5FF07C0E5FF020EDBCFA9
:104F500000F0030EDBCF01F0040EDBCF02F0050EF4
:104F6000DBCF03F0060EDBCF04F0070EDBCF05F03E
:104F7000080EDBCF06F0090EDBCF07F000500B0167
:104F8000186F0150196F02501A6F03501B6F0450B5
:104F90000B011C6F05501D6F06501E6F07501F6FD1
:104FA0000B0118510B011E03F4CF01F0F3CF00F0F9
:104FB00000500B01226F0150236F0B0118510B01A0
:104FC0001C03F4CF01F0F3CF00F000500B01206F71
:104FD0000150216F0B011B510B011C03F3CF00F09B
:104FE0000B01235100260050236F0B011A510B01B6
:104FF0001D03F3CF00F00B01235100260050236F57
:105000000B011A510B011C03F4CF01F0F3CF00F098
:105010000B0122510026235101220050226F015022
:10502000236F0B0119510B011D03F4CF01F0F3CFD6
:1050300000F00B0122510026235101220050226F63
:105040000150236F0B0119510B011E03F3CF00F028
:1050500000500B01276F0B0119510B011C03F4CFFA
:1050600001F0F3CF00F000500B01256F0150266FC7
:105070000B0118510B011F03F3CF00F000500B017F
:105080002B6F0B0118510B011D03F4CF01F0F3CF6F
:1050900000F000500B01296F01502A6F0B01246BA7
:1050A0000B01286B0B0124510B012025006E0B0115
:1050B00025510B012121016E0B0126510B012221EB
:1050C000026E0B0127510B012321036E0050206F4C
:1050D0000150216F0250226F0350236F0B012851A2
:1050E0000B012025006E0B0129510B012121016EBE
:1050F0000B012A510B012221026E0B012B510B01D6
:105100002321036E03C0E9FF02C0F4FF01C0F3FFD7
:105110000050E4CF07F0E4CF06F0E4CF05F0E4CF91
:1051200004F0E4CF03F0E4CF02F0E4CF01F0E4CFE9
:1051300000F0E4CFD9FF1200D9CFE5FFE1CFD9FFCE
:1051400000C0E5FF01C0E5FF02C0E5FF03C0E5FFC9
:1051500004C0E5FF05C0E5FF06C0E5FF07C0E5FFA9
:1051600008C0E5FF020EDBCF00F0030EDBCF01F03D
:10517000040EDBCF02F0050EDBCF03F0060EDBCF13
:1051800004F0070EDBCF05F000500110021006E01E
:1051900000C0F0F801C0F1F802C0F2F80801F051C7
:1051A0000801F1110801F21104E1F46AF36AE86AF6
:1051B000B5D0F0C800F0F1C801F0F2C802F000C0AC
:1051C000E9FF01C0F3FF025079EC7BF0006E005064
:1051D0002CE0F0C800F0F1C801F0F2C802F000C005
:1051E000E9FF01C0F3FF025079EC7BF0006E005044
:1051F000E56E0550E56E0450E56E0350E56E47EC34
:1052000063F0006EF3CF01F0F4CF02F0040EE1265C
:1052100000500110021009E00801F02BCAE3080158
:10522000F13F02D00801F22BC4D7F0C800F0F1C85A
:1052300001F0F2C802F0F0C806F0F1C807F0F2C8B9
:1052400008F006C0E9FF07C0F3FF085079EC7BF0D7
:10525000066E0650D8B449D0F0C806F0F1C807F081
:10526000F2C808F006C0E9FF07C0F3FF085079EC68
:105270007BF0066E0650E56E0550E56E0450E56E57
:105280000350E56E47EC63F0066EF3CF07F0F4CF02
:1052900008F0040EE1260650071008101DE0F0C8C3
:1052A00006F0F1C807F0F2C808F0000EE56E06C07F
:1052B000E9FF07C0F3FF085073EC7CF00801F02B06
:1052C00005E30801F13F02D00801F22B02C0F4FF10
:1052D00001C0F3FF005022D00801F02BACE308011D
:1052E000F13F02D00801F22BA6D70801F06B0801AC
:1052F000F16B0801F26B00C0E9FF01C0F3FF02503F
:1053000079EC7BF0036E035006E002C0F4FF01C0AD
:10531000F3FF005003D0F46AF36AE86AE4CF08F0C0
:10532000E4CF07F0E4CF06F0E4CF05F0E4CF04F0DB
:10533000E4CF03F0E4CF02F0E4CF01F0E4CF00F0DB
:10534000E4CFD9FF1200D9CFE5FFE1CFD9FF00C0EC
:10535000E5FF01C0E5FF02C0E5FF03C0E5FF020E67
:10536000DBCF00F00801EB3F02D00801EC2B00502E
:10537000C10A22E1809480900C0EE56E2BEC50F077
:10538000E652010EE56E2BEC50F0E652800EE56E13
:105390002BEC50F0E652000E036E1F0E026E980EBC
:1053A000016E0350E56E0250E56E0150E56E3FEC74
:1053B00068F0030EE126FF00ABA217D0000E036ECB
:1053C0001F0E026EAA0E016E0350E56E0250E56ECE
:1053D0000150E56E0BEC67F0030EE1260801ED6B62
:1053E0000801EE6BAB98AB88A1D00801EE5111E03B
:1053F000000E036E1F0E026EB20E016E0350E56EBC
:105400000250E56E0150E56E0BEC67F0030EE126ED
:105410008DD07B0E005C01E389D0200E005C11E290
:1054200000500D0A0EE000500A0A0BE00050080A76
:1054300008E000501B0A04E1020E0801EF6F76D06D
:1054400075D00801EF5103E00801EF076FD000505D
:10545000080A19E10801ED51800F7F0FD8A03ED056
:105460000801ED07000E036E1F0E026EB80E016EEE
:105470000350E56E0250E56E0150E56ECBEC66F030
:10548000030EE12653D00801ED51800F540F13E3B2
:10549000000E036E1F0E026EBC0E016E0350E56E11
:1054A0000250E56E0150E56E0BEC67F0030EE1264D
:1054B0000801ED6B3BD0EDC801F00801ED2B026A4D
:1054C00001BE0268B20E0126000E022201C0E9FFF1
:1054D00002C0EAFF00C0EFFF00C0ADFF00500A0AA3
:1054E00003E000500D0A22E10801ED51800F7E0F0C
:1054F00019E30801ED05006E016A00BE0168B20EF5
:105500000026000E012200C0E9FF01C0EAFF000EE4
:10551000EF6E010E0801EE6F0C0EE56E80EC6DF083
:10552000E65204D00801ED6B0801EE6BE4CF03F006
:10553000E4CF02F0E4CF01F0E4CF00F0E4CFD9FFF4
:105540001200D9CFE5FFE1CFD9FF00C0E5FF01C0D0
:10555000E5FF02C0E5FF03C0E5FF1BC800F01CC863
:1055600001F01DC802F0230E0026000E01220222C7
:1055700000C0E9FF01C0F3FF025079EC7BF0006E40
:10558000005023E01BC800F01CC801F01DC802F049
:10559000240E0026000E0122022208011E51030DD6
:1055A000F3CF03F003500026E86A0122E86A0222E2
:1055B00000C0E9FF01C0F3FF025024EC76F0006E5A
:1055C000F3CF01F0F4CF02F003D0006A016A026A5F
:1055D00000500110021009E000C01BF801C01CF8C7
:1055E00002C01DF808011E6B91D01BC800F01CC83A
:1055F00001F01DC802F0140E0026000E0122022246
:1056000000C0E9FF01C0F3FF025024EC76F0006E09
:10561000F3CF01F0F4CF02F0005001100210D8B423
:1056200075D01BC800F01CC801F01DC802F0200E88
:105630000026000E0122022200C0E9FF01C0F3FF94
:10564000025024EC76F0006EF3CF01F0F4CF02F0BC
:10565000005001100210D8B459D01BC800F01CC86B
:1056600001F01DC802F0140E0026000E01220222D5
:1056700000C0E9FF01C0F3FF025024EC76F0006E99
:10568000F3CF01F0F4CF02F0F2CFE5FFF29E050078
:10569000AC0EFD6E560EFE6E000EFF6EE4BEF28E78
:1056A00002C0FBFF01C0FAFF0050F96E006E00500F
:1056B0002DE01BC800F01CC801F01DC802F0200E30
:1056C0000026000E0122022200C0E9FF01C0F3FF04
:1056D000025024EC76F0006EF3CF01F0F4CF02F02C
:1056E00008011E51E56EF2CFE5FFF29E05000A0E9D
:1056F000FD6E570EFE6E000EFF6EE4BEF28E02C00F
:10570000FBFF01C0FAFF0050F96EE6526EEC11F09B
:10571000E4CF03F0E4CF02F0E4CF01F0E4CF00F0F7
:10572000E4CFD9FF1200D9CFE5FFE1CFD9FF00C008
:10573000E5FF01C0E5FF02C0E5FF03C0E5FF04C0CF
:10574000E5FF05C0E5FF06C0E5FF07C0E5FF08C0AF
:10575000E5FF09C0E5FF000E026E890E016EDA0E4C
:10576000006E0250E56E0150E56E0050E56E010ED0
:10577000E56E04EC5DF0040EE126A3EC79F0006E1A
:10578000005001E1A5D024EC7DF0006E0050D8B4AB
:105790009FD0D6EC6EF0006EF3CF01F0F4CF02F0A4
:1057A000E9CF03F00350E56E0250E56E0150E56E5F
:1057B0000050E56E410EE56E200EE56E000EE56EC2
:1057C000000EE56ED5EC16F0006EF3CF01F0F4CFCD
:1057D00002F0E9CF03F0080EE1260350E56E025017
:1057E000E56E0150E56E0050E56E86EC65F0006EEA
:1057F000040EE126FEEC6EF0016EF3CF02F0F4CF62
:1058000003F0E9CF04F00450E56E0350E56E02505A
:10581000E56E0150E56E410EE56E200EE56E000E60
:10582000E56E000EE56ED5EC16F0016EF3CF02F0DA
:10583000F4CF03F0E9CF04F0080EE1260450E56E42
:105840000350E56E0250E56E0150E56E86EC65F0A2
:10585000016E040EE126026A036A000E066E890ECE
:10586000056EE80E046E0F0E086E3E0E076E800E7B
:10587000096E0250E56E0150E56E0350E56E005072
:10588000E56E0650E56E0550E56E0450E56E095074
:10589000E56E0850E56E0750E56E5DEC48F00A0EC7
:1058A000E1260F0E016E3E0E006E800E026E02505B
:1058B000E56E0150E56E0050E56E030EE56E04ECFA
:1058C0005DF0040EE126000EE56ED0EC0BF0E65222
:1058D000E4CF09F0E4CF08F0E4CF07F0E4CF06F01E
:1058E000E4CF05F0E4CF04F0E4CF03F0E4CF02F01E
:1058F000E4CF01F0E4CF00F0E4CFD9FF1200D9CF1C
:10590000E5FFE1CFD9FF00C0E5FF01C0E5FF02C020
:10591000E5FF03C0E5FF04C0E5FF05C0E5FF06C0E5
:10592000E5FF07C0E5FF020EDBCF00F00801FC51E8
:10593000D8A48FD0080E005CD8B07FD0FA6AFB6A7A
:105940000034FA36E834FA36FC0B5A0FE56E590E7D
:10595000FA22000EFB22E450F96EBDEF2CF0C9EFE5
:105960002CF0D5EF2CF0E1EF2CF0EDEF2CF0F9EF6F
:105970002CF005EF2DF011EF2DF0000E036E6D0EE3
:10598000026EEE0E016E03C0F4FF02C0F3FF015081
:105990008ED0000E036E6D0E026EFA0E016E03C005
:1059A000F4FF02C0F3FF015082D0000E036E6E0EB2
:1059B000026E060E016E03C0F4FF02C0F3FF015039
:1059C00076D0000E036E6E0E026E100E016E03C0D6
:1059D000F4FF02C0F3FF01506AD0000E036E6E0E9A
:1059E000026E1C0E016E03C0F4FF02C0F3FF0150F3
:1059F0005ED0000E036E6E0E026E240E016E03C0AA
:105A0000F4FF02C0F3FF015052D0000E036E6E0E81
:105A1000026E2E0E016E03C0F4FF02C0F3FF0150B0
:105A200046D0000E036E6E0E026E360E016E03C07F
:105A3000F4FF02C0F3FF01503AD0000E036E6E0E69
:105A4000026E400E016E03C0F4FF02C0F3FF01506E
:105A50002ED0016A004A012A000E046E6E0E036EFB
:105A6000420E026E090E066EC80E056E800E076E9F
:105A70000150E56E0050E56E0450E56E0350E56E92
:105A80000250E56E0750E56E0650E56E0550E56E76
:105A90005DEC48F0080EE126090E016EC80E006E9E
:105AA000800E026E02C0F4FF01C0F3FF0050E4CF8D
:105AB00007F0E4CF06F0E4CF05F0E4CF04F0E4CF44
:105AC00003F0E4CF02F0E4CF01F0E4CF00F0E4CF44
:105AD000D9FF1200D9CFE5FFE1CFD9FF00C0E5FF24
