:020000040000FA
:100000007CEF62F0C96E1200D4EF7CF0ACA2FED798
:10001000AD6E12001BEF7CF036EF7EF0D9CFE5FF1E
:10002000E1CFD9FF00C0E5FF01C0E5FF02C0E5FF59
:1000300003C0E5FF04C0E5FF05C0E5FF06C0E5FF1E
:1000400007C0E5FF08C0E5FF09C0E5FF0AC0E5FFFE
:100050000BC0E5FF0CC0E5FF0DC0E5FF0EC0E5FFDE
:100060000FC0E5FF10C0E5FF11C0E5FF12C0E5FFBE
:1000700013C0E5FF14C0E5FF15C0E5FF16C0E5FF9E
:1000800017C0E5FF18C0E5FF19C0E5FF1AC0E5FF7E
:100090001BC0E5FF1CC0E5FF1DC0E5FF1EC0E5FF5E
:1000A000020EDBCF00F0030EDBCF01F0040EDBCF3E
:1000B00002F0050EDBCF03F0060EDBCF04F0070ED7
:1000C000DBCF05F0080EDBCF06F0090EDBCF07F023
:1000D0000A0EDBCF08F0096A0A6A02C00DF00D5063
:1000E000800A0DE102500B01366F0150356F005050
:1000F000346F0B0E016E340E006E800E026E03C064
:10010000E9FF04C0F3FF0550B1EC7BF00B6E0B5020
:10011000D8B4CAEF03F00B50250A02E0B1EF03F0A8
:100120000C6A0D6A0E6A0F6A106A0A0E116E126A64
:10013000136A146A200E156E1668176A2B0E186E55
:10014000032A02E3044A052A03C0E9FF04C0F3FFBF
:100150000550B1EC7BF0196E250A13E11950E56EDC
:100160000250E56E0150E56E0050E56EBCEC4AF0C1
:10017000040EE126094A0A2A032A02E3044A052A50
:10018000BED71950300A06E1300E156E032A02E37D
:10019000044A052A03C0E9FF04C0F3FF0550B1EC8F
:1001A0007BF02D0A06E1010E146E032A02E3044AD5
:1001B000052A03C0E9FF04C0F3FF0550B1EC7BF052
:1001C000200A08E1010E176E200E186E032A02E3C2
:1001D000044A052A03C0E9FF04C0F3FF0550B1EC4F
:1001E0007BF02B0A06E1010E176E032A02E3044A94
:1001F000052A03C0E9FF04C0F3FF0550B1EC7BF012
:10020000196E800F4F0F2DE31950800F460F29E212
:1002100003C019F004C01AF005C01BF019C0E9FFB3
:100220001AC0F3FF1B50B1EC7BF01C6E800F500F17
:1002300012E31C50800F460F0EE213500A0DF3CF4D
:100240001DF01D501C26D00E1C24136E192A02E32B
:100250001A4A1B2AE3D719C003F01AC004F01BC0C6
:1002600005F003C0E9FF04C0F3FF0550B1EC7BF0DB
:100270002E0A2EE1032A02E3044A052A166A03C065
:1002800019F004C01AF005C01BF019C0E9FF1AC02C
:10029000F3FF1B50B1EC7BF01C6E800F500F12E38C
:1002A0001C50800F460F0EE216500A0DF3CF1DF0C2
:1002B0001D501C26D00E1C24166E192A02E31A4A61
:1002C0001B2AE3D719C003F01AC004F01BC005F0C5
:1002D00003C0E9FF04C0F3FF0550B1EC7BF0196ED9
:1002E0006C0A07E1010E0C6E032A02E3044A052A98
:1002F00009D01950680A06E1010E0E6E032A02E3C6
:10030000044A052A03C0E9FF04C0F3FF0550B1EC1D
:100310007BF0750A06E1010E106E032A02E3044A1F
:10032000052A03C0E9FF04C0F3FF0550B1EC7BF0E0
:10033000196E730A05E1010E0D6E200E156E3FD089
:100340001950780A03E1100E116E39D01950580A6D
:1003500005E1100E116E010E126E31D01950630AB4
:1003600002E1116A2CD019506F0A03E1080E116ED8
:1003700026D01950660A03E1010E0F6E20D01950E5
:10038000640A1DE01950690A1AE0105005E0FF0EDA
:1003900003260422052213D01950E56E0250E56EA3
:1003A0000150E56E0050E56EBCEC4AF0040EE1260B
:1003B000094A0A2A032A02E3044A052AA0D60D5054
:1003C00021E00650030F0D6E000E0720196E000E7F
:1003D00008201A6E0DC006F019C007F01AC008F008
:1003E000FD0E0D26FF0E19221A220DC0E9FF19C0BD
:1003F000F3FF1A505CEC76F00D6EF3CF19F0F4CFEA
:100400001AF000D10F500DE0000E1A6E080E196E92
:100410001C0E0D6E040E0626000E0722082216681A
:10042000F1D016680C5023E00650040F0C6E000E3D
:1004300007200F6E000E08201B6E0CC006F00FC0C8
:1004400007F01BC008F0FC0E0C26FF0E0F221B222B
:100450000CC0E9FF0FC0F3FF1B50C5EC73F00C6E2E
:10046000F3CF0FF0F4CF1BF0E9CF1CF06AD00E50A1
:1004700032E00650020F0E6E000E07201D6E000EB9
:1004800008201E6E0EC006F01DC007F01EC008F04A
:10049000FE0E0E26FF0E1D221E220EC0E9FF1DC0FD
:1004A000F3FF1E5072EC79F00E6E0EC00CF0E86A8D
:1004B0000EBEFF0E0F6E1B6E1C6E11500A0A03E17A
:1004C0001050D8B43ED00C500E6E0EC00CF00F6A17
:1004D0001B6A1C6A36D00650020F0E6E000E0720F3
:1004E0001D6E000E08201E6E0EC006F01DC007F027
:1004F0001EC008F0FE0E0E26FF0E1D221E220EC08C
:10050000E9FF1DC0F3FF1E5072EC79F00E6EF3CFC1
:100510001DF00EC00CF01DC00FF0E86A1DBEFF0EEE
:100520001B6E1C6E11500A0A02E110500AE00C50BA
:100530000E6E0F501D6E0EC00CF01DC00FF01B6A2A
:100540001C6A090E196EB10E0D6E800E1A6E1150D6
:10055000D8B440D0105013E01150E56E090EE56E8E
:10056000B10EE56E1C50E56E1B50E56E0F50E56E4A
:100570000C50E56E5BEC31F0070EE12612D0115005
:10058000E56E090EE56EB10EE56E1C50E56E1B5072
:10059000E56E0F50E56E0C50E56EEDEC5BF0070E6E
:1005A000E12617502FE00DC0E9FF19C0F3FF1A50E4
:1005B000B1EC7BF02D0A26E0FF0E0D2619221A223F
:1005C00018C0E5FF0DC0E9FF19C0F3FF1A50ABECEE
:1005D0007CF018D00CC0E5FF0DC0E9FF19C0F3FF97
:1005E0001A50ABEC7CF00D50010F0C6E000E192070
:1005F0000E6E000E1A20E56A0CC0E9FF0EC0F3FF74
:10060000ABEC7CF00DC00CF019C00EF01AC00FF06E
:1006100013C010F0105010E00CC0E9FF0EC0F3FF43
:100620000F50B1EC7BF0176E175006E00C2A02E376
:100630000E4A0F2A1006EED710C013F014501EE118
:1006400009C00CF00AC00EF010C00FF00F5010E0FF
:100650001550E56E0250E56E0150E56E0050E56EF6
:10066000BCEC4AF0040EE1260C4A0E2A0F06EED727
:100670000CC009F00EC00AF00FC013F016C00CF049
:100680000DC00DF019C00EF01AC00FF009C010F027
:100690000AC015F00DC0E9FF0EC0F3FF0F50B1EC1A
:1006A0007BF0166E1650D8B43ED00CC016F0176A08
:1006B000161E171E1650171005E00CC016F00C067B
:1006C000165031E00DC0E9FF0EC0F3FF0F50B1EC42
:1006D0007BF0116E125010E01150E56EEDEC78F0E9
:1006E000166EE652165004E01150166E169A02D09D
:1006F00011C016F016C011F01150E56E0250E56EF3
:100700000150E56E0050E56EBCEC4AF0040EE126A7
:100710000D2A02E30E4A0F2A104A152A1350D8B4A4
:10072000B9D71306B7D710C009F015C00AF0145096
:100730002BE010C00CF015C00DF013C00EF00E50E1
:100740001FE0200EE56E0250E56E0150E56E005090
:10075000E56EBCEC4AF0040EE1260C4A0D2A0E06AA
:10076000EED70B50E56E0250E56E0150E56E00507D
:10077000E56EBCEC4AF0040EE126094A0A2A04D0D0
:100780000CC009F00DC00AF0032A02E3044A052A4E
:100790007FEF00F00AC0F3FF0950E4CF1EF0E4CF72
:1007A0001DF0E4CF1CF0E4CF1BF0E4CF1AF0E4CF4F
:1007B00019F0E4CF18F0E4CF17F0E4CF16F0E4CF4F
:1007C00015F0E4CF14F0E4CF13F0E4CF12F0E4CF4F
:1007D00011F0E4CF10F0E4CF0FF0E4CF0EF0E4CF4F
:1007E0000DF0E4CF0CF0E4CF0BF0E4CF0AF0E4CF4F
:1007F00009F0E4CF08F0E4CF07F0E4CF06F0E4CF4F
:1008000005F0E4CF04F0E4CF03F0E4CF02F0E4CF4E
:1008100001F0E4CF00F0E4CFD9FF12003C4E4F20AE
:10082000464C4F41543E0000D9CFE5FFE1CFD9FF00
:1008300000C0E5FF01C0E5FF02C0E5FF03C0E5FF22
:100840000A019851D8B429D1060E0A01966F0A01FF
:10085000306B0A012F6B010E0A012D6F010E0A0188
:10086000396F060E0A01386F020E0A01366F020E4A
:100870000A01426F010E0A01416F040E0A013F6F27
:10088000030E0A014B6F0C0E0A014A6F080E0A0193
:10089000486F040E0A01546F040E0A01536F100EC4
:1008A0000A01516F0A019751D8B498D0040E0A0179
:1008B0009625006E00500A01966F080E0A015D6FC2
:1008C000060E0A015C6F200E0A015A6F0A015B6B6B
:1008D000090E0A01666F0E0E0A01656F200E0A01ED
:1008E000636F010E0A01646F0A0E0A016F6F040E36
:1008F0000A016E6F200E0A016C6F020E0A016D6F05
:100900000B0E0A01786F0C0E0A01776F200E0A0198
:10091000756F030E0A01766F0C0E0A01816F120EBD
:100920000A01806F200E0A017E6F040E0A017F6F9C
:10093000006A016A4AEC7DF0026E0250005C24E21B
:100940002A0E0124026E036A0A0E0322070E0226F3
:10095000D8B0032A02C0E9FF03C0EAFF020EEF6E1F
:100960002A0E0124026E036A0A0E0322080E0226D2
:10097000D8B0032A02C0E9FF03C0EAFF020EEF6EFF
:10098000090E0126002AD6D70A019951D8B40CD1F4
:10099000020E0A019625006E00500A01966F060E9F
:1009A0000A018A6F110E0A01896F850E0A018B6F89
:1009B000850E0A018C6F400E0A01876F070E0A012F
:1009C000936F100E0A01926F850E0A01946F850EC7
:1009D0000A01956F800E0A01906FE6D0050E0A019C
:1009E0005D6F030E0A015C6F200E0A015A6F006AE8
:1009F000016A4AEC7DF0026E0250005C24E22A0E8D
:100A00000124026E036A0A0E0322070E0226D8B0E2
:100A1000032A02C0E9FF03C0EAFF020EEF6E2A0EAE
:100A20000124026E036A0A0E0322080E0226D8B0C1
:100A3000032A02C0E9FF03C0EAFF020EEF6E090EAF
:100A40000126002AD6D70A019951D8B4ADD0020E9A
:100A50000A019625006E00500A01966F060E0A01E3
:100A6000666F100E0A01656F850E0A01676F850EAD
:100A70000A01686F400E0A01636F070E0A016F6F6B
:100A8000010E0A016E6F850E0A01706F850E0A0154
:100A9000716F800E0A016C6F87D00A019751D8B42C
:100AA0005CD0050E0A01966F080E0A01306F0E0E1B
:100AB0000A012F6F0A012E6B090E0A01396F100E01
:100AC0000A01386F010E0A01376F0A0E0A01426FE0
:100AD000040E0A01416F020E0A01406F0B0E0A015B
:100AE0004B6F0C0E0A014A6F030E0A01496F0C0E80
:100AF0000A01546F120E0A01536F040E0A01526F5D
:100B0000006A016A4AEC7DF0026E0250005CD8B0C7
:100B10004BD02A0E0124026E036A0A0E0322070E2E
:100B20000226D8B0032A02C0E9FF03C0EAFF020E82
:100B3000EF6E2A0E0124026E036A0A0E0322080ECB
:100B40000226D8B0032A02C0E9FF03C0EAFF020E62
:100B5000EF6E090E0126002AD5D7010E0A01966F05
:100B60000A01306B100E0A012F6F0A019B5107E139
:100B7000850E0A01316F850E0A01326F15D00A0108
:100B80009B51010A07E1080E0A01316F080E0A01A4
:100B9000326F0AD00A019B51020A06E1100E0A01C7
:100BA000316F100E0A01326F006A016A4AEC7DF063
:100BB000026E0250005C22E22A0E0124026E036AD9
:100BC0000A0E0322020E0226D8B0032A02C0E9FF51
:100BD00003C0EAFF010EEF6E2A0E0124026E036AC3
:100BE0000A0E032202C0E9FF03C0EAFF000EEE6E08
:100BF000000EEF6E090E0126002AD8D7006A016A9E
:100C00006CEC70F0026E0250005C12E20A0E0124DD
:100C1000026E036A0A0E032202C0E9FF03C0EAFF64
:100C2000000EEE6E000EEF6E012A012A002AE8D7B0
:100C3000D80E0A01006F0A0101690A01026B0A015C
:100C4000036B0A01046B0A01056B0A01066B0A01BA
:100C5000076B140E0A01086F0A01096B0A0E016E78
:100C6000000E006E800E026E9C0EE56E0250E56E68
:100C70000150E56E0050E56E98EC56F0006E040EE3
:100C8000E12600500901F06F000EE56E3AEC7BF0B2
:100C9000E652E4CF03F0E4CF02F0E4CF01F0E4CF7A
:100CA00000F0E4CFD9FF1200D9CFE5FFE1CFD9FFA3
:100CB00000C0E5FF01C0E5FF02C0E5FF03C0E5FF9E
:100CC00004C0E5FF05C0E5FF06C0E5FF07C0E5FF7E
:100CD00008C0E5FF09C0E5FF0AC0E5FF0BC0E5FF5E
:100CE000030EE56EE4EC6DF0006EF3CF01F0E6521A
:100CF00000C001F0026A000E056E8B0E046EB60E87
:100D0000036E090E076E000E066E800E086E02500E
:100D1000E56E0150E56E0550E56E0450E56E03503A
:100D2000E56E0850E56E0750E56E0650E56EA9ECDD
:100D300049F0080EE126090E026E000E016E800ECB
:100D4000036E0350E56E0250E56E0150E56EEDEC6A
:100D500067F0030EE126040EE56EE4EC6DF0016E23
:100D6000F3CF02F0E65201C002F0036A000E066EF5
:100D70008B0E056EC40E046E090E086E000E076E13
:100D8000800E096E0350E56E0250E56E0650E56E6A
:100D90000550E56E0450E56E0950E56E0850E56EAD
:100DA0000750E56EA9EC49F0080EE126090E036E26
:100DB000000E026E800E046E0450E56E0350E56E68
:100DC0000250E56EEDEC67F0030EE1260050E56E93
:100DD00026EC76F0E6520150E56ECAEC7CF0E65265
:100DE000400EE56EF5EC50F0E652000EE56E12ECAA
:100DF00077F0E652000EE56E12EC77F0E652000E48
:100E0000E56E12EC77F0E652000EE56E12EC77F02C
:100E1000E652000EE56E12EC77F0E652000EE56E3B
:100E200012EC77F0E6521F0EE56E12EC77F0E65208
:100E3000000EE56E12EC77F0E652480EE56EF5EC2A
:100E400050F0E652000EE56E12EC77F0E652000E1E
:100E5000E56E12EC77F0E652000EE56E12EC77F0DC
:100E6000E652000EE56E12EC77F0E6521F0EE56ECC
:100E700012EC77F0E6521F0EE56E12EC77F0E652B8
:100E80001F0EE56E12EC77F0E652000EE56E12ECE6
:100E900077F0E652500EE56EF5EC50F0E652000E9B
:100EA000E56E12EC77F0E652000EE56E12EC77F08C
:100EB000E6521F0EE56E12EC77F0E6521F0EE56E5D
:100EC00012EC77F0E6521F0EE56E12EC77F0E65268
:100ED0001F0EE56E12EC77F0E6521F0EE56E12EC77
:100EE00077F0E652000EE56E12EC77F0E652580EFF
:100EF000E56EF5EC50F0E6521F0EE56E12EC77F061
:100F0000E6521F0EE56E12EC77F0E6521F0EE56E0C
:100F100012EC77F0E6521F0EE56E12EC77F0E65217
:100F20001F0EE56E12EC77F0E6521F0EE56E12EC26
:100F300077F0E6521F0EE56E12EC77F0E652000EE7
:100F4000E56E12EC77F0E652600EE56EF5EC50F0CF
:100F5000E652070EE56E12EC77F0E652080EE56EEB
:100F600012EC77F0E652100EE56E12EC77F0E652D6
:100F7000160EE56E12EC77F0E6520E0EE56E12ECF0
:100F800077F0E6520E0EE56E12EC77F0E652060EA2
:100F9000E56E12EC77F0E652000EE56E12EC77F09B
:100FA000E652680EE56EF5EC50F0E6521C0EE56E6A
:100FB00012EC77F0E652020EE56E12EC77F0E65294
:100FC000010EE56E12EC77F0E6520D0EE56E12ECB6
:100FD00077F0E6520E0EE56E12EC77F0E6520E0E4A
:100FE000E56E12EC77F0E6520C0EE56E12EC77F03F
:100FF000E652000EE56E12EC77F0E6520C0EE56E4E
:10100000F5EC50F0E65221EC1CF0006EF3CF01F04D
:10101000F4CF02F0010EE56E010EE56E000EE56EF6
:101020000250E56E0150E56E0050E56EDBEC4CF0D1
:10103000060EE1265DEC74F0006EF3CF01F0F4CF04
:1010400002F07BEC74F0036EF3CF04F0F4CF05F004
:10105000000E086E8B0E076ED20E066E090E0A6E1B
:10106000000E096E800E0B6E0250E56E0150E56EAB
:101070000050E56E0550E56E0450E56E0350E56ED8
:101080000850E56E0750E56E0650E56E0B50E56EB4
:101090000A50E56E0950E56EA9EC49F00C0EE12608
:1010A000090E016E000E006E800E026E010EE56EDE
:1010B000000EE56E400EE56E0250E56E0150E56EE5
:1010C0000050E56EDBEC4CF0060EE126010EE56EFD
:1010D0009DEC79F0E652E4CF0BF0E4CF0AF0E4CFD8
:1010E00009F0E4CF08F0E4CF07F0E4CF06F0E4CF56
:1010F00005F0E4CF04F0E4CF03F0E4CF02F0E4CF56
:1011000001F0E4CF00F0E4CFD9FF1200D9CFE5FF22
:10111000E1CFD9FF00C0E5FF01C0E5FF02C0E5FF58
:1011200003C0E5FF04C0E5FF05C0E5FF06C0E5FF1D
:10113000020EDBCF00F018EC7BF0016E015001E0F5
:10114000C6D1005002E00801436B2BEC77F0016E32
:10115000015002E1005027E0800EE56EF5EC50F002
:10116000E65241EC7DF0016E0150E56E7DEC1DF024
:10117000016EF3CF02F0F4CF03F0E6520350E56EB8
:101180000250E56E0150E56EA5EC68F0016E030EAD
:10119000E1260E0E015C07E2200EE56E12EC77F000
:1011A000E652012AF6D7D6EC78F0016E0150D8B499
:1011B000CBD07AEC78F0016E0B014451011808E1B4
:1011C0002BEC77F0016E015003E10050D8B47FD1D1
:1011D000A8EC78F0016EF90E01260150E56EA6EC40
:1011E00077F0E652000E036E170E026EC00E016E0F
:1011F0000350E56E0250E56E0150E56EA5EC68F017
:10120000030EE1267AEC78F0016E0150D8B44CD090
:10121000010E026EBD0E016E800E036EEBEC3AF015
:10122000046EF3CF05F0F4CF06F00650E56E0550DE
:10123000E56E0450E56E0350E56E0250E56E015018
:10124000E56EC6EC58F0060EE126A8EC78F0016ECB
:10125000010E036EBD0E026E800E046E0450E56E2C
:101260000350E56E0250E56E2BEC68F0026EF3CF92
:1012700003F0030EE1260250015C026E0250E56E9F
:10128000A6EC77F0E652010E026EBD0E016E800EE6
:10129000036E0350E56E0250E56E0150E56EA5EC5D
:1012A00068F0030EE1264BD0010E026EBD0E016EFA
:1012B000800E036E93EC35F0046EF3CF05F0F4CF9F
:1012C00006F00650E56E0550E56E0450E56E0350DD
:1012D000E56E0250E56E0150E56EC6EC58F0060E64
:1012E000E126A8EC78F0016E010E036EBD0E026ED1
:1012F000800E046E0450E56E0350E56E0250E56EFC
:101300002BEC68F0026EF3CF03F0030EE1260250DF
:10131000015C026E0250E56EA6EC77F0E652010E1B
:10132000026EBD0E016E800E036E0350E56E02501C
:10133000E56E0150E56EA5EC68F0030EE1267AEC4F
:1013400078F00B01446FC3D0EFEC79F0016E0150DF
:10135000D8B4BDD0DBEC79F0016E015005E0FCECB7
:101360003EF0016E015008E12BEC77F0016E015068
:1013700003E10050D8B4ABD00EEC6FF0006EF3CFA9
:1013800001F0F4CF02F0E9CF03F0A8EC78F0046E9E
:10139000F90E04260450E56EA6EC77F0E652000E36
:1013A000066E170E056EC80E046E0650E56E0550EB
:1013B000E56E0450E56EA5EC68F0030EE1263E0EE6
:1013C000E56E800EE56E000EE56E000EE56E0350D4
:1013D000E56E0250E56E0150E56E0050E56E73EC6F
:1013E00047F0046E080EE126045006E0000EE56E9C
:1013F00012EC77F0E65205D0200EE56E12EC77F095
:10140000E6523F0EE56E000EE56E000EE56E000E34
:10141000E56E0350E56E0250E56E0150E56E00503A
:10142000E56E73EC47F0046E080EE126045006E00A
:10143000010EE56E12EC77F0E65205D0200EE56E57
:1014400012EC77F0E6523F0EE56E400EE56E000EB0
:10145000E56E000EE56E0350E56E0250E56E01503C
:10146000E56E0050E56E73EC47F0046E080EE12661
:10147000045006E0020EE56E12EC77F0E65205D05D
:10148000200EE56E12EC77F0E6523F0EE56E800E10
:10149000E56E000EE56E000EE56E0350E56E02503F
:1014A000E56E0150E56E0050E56E73EC47F0006E9E
:1014B000080EE126005006E0030EE56E12EC77F010
:1014C000E65205D0200EE56E12EC77F0E652E4CF3E
:1014D00006F0E4CF05F0E4CF04F0E4CF03F0E4CF6E
:1014E00002F0E4CF01F0E4CF00F0E4CFD9FF120026
:1014F000496E707574206E616D65730000000000A8
:101500000000000094FA00507B00EEB30028C100F8
:1015100074C2000000000000000000000000000095
:1015200000000000000000000000000000000000BB
:101530000000496E707574206F6666736574730081
:1015400000000000000094FA00B8B400A24F00CCE4
:101550008600000000000000000000000000000005
:10156000000000000000000000000000000000007B
:10157000000000004368616E6E656C206F666673E4
:101580006574730000000000D8E00024B300E44656
:101590000060C70000000000000000000000000024
:1015A000000000000000000000000000000000003B
:1015B000000000000000496E666F726D6174696F13
:1015C0006E0000000000000000000CFC008A960085
:1015D0001A320000000000000000000000000000BF
:1015E00000000000000000000000000000000000FB
:1015F0000000000000000000506172616D657465BC
:101600007273000000000000000000001CFC005A83
:10161000B200A4A700C2CA00000000000000000041
:1016200000000000000000000000000000000000BA
:10163000000000000000000000004D61696E204DB8
:10164000656E750000000000000000000000000052
:101650000000000000000000000000000005F01481
:1016600000321500741500B61500F81500000000D2
:101670000000000000000000000000006E6F206904
:1016800074656D730000496E3A203C20252D31327F
:1016900073203E004F66667365743A202D25642ED4
:1016A0002564644200004F66667365743A202B25FA
:1016B000642E256464420000496E3A203C20252DAA
:1016C0003973203E0000206F6E006F6666004E6129
:1016D0006D653A202573000043683A203C20252D93
:1016E000313273203E003C20252D313673203E00E0
:1016F00056616C75653A202564205B25735D00009A
:101700004368616E6E656C730000496E707574732A
:1017100000005374616E6462792074696D65000025
:101720004F6E2074696D650053696C656E7420742A
:10173000696D65005541525420726563656976652F
:1017400064003F005B25642F25645D0025642064F0
:101750006179732025643A25643A25640000256484
:101760003A256400256420627974657300004C6F2B
:1017700061642073657474696E6773005361766584
:101780002073657474696E677300436C65617220C1
:1017900073657474696E67730000456E74657220BA
:1017A00048572073657475702E2E0000486172646E
:1017B0007761726520736574757000002573000091
:1017C000202020202020000020202000E806E56EB8
:1017D000630E05EC0CF0630E4AEC0CF0090E5DECA8
:1017E0000CF0E45011E000D0E56E630E05EC0CF057
:1017F000630E4AEC0CF0090E5DEC0CF000D000D04A
:101800000000E450E82EF0D71200E806E56E090E5D
:1018100037EC0CF0630E5DEC0CF0E4500EE000D001
:10182000E56E090E37EC0CF0630E5DEC0CF000D0A9
:1018300000D00000E450E82EF3D71200E806E56E71
:10184000630E37EC0CF0630E5DEC0CF0E4500EE030
:1018500000D0E56E630E37EC0CF0630E5DEC0CF01F
:1018600000D000D00000E450E82EF3D71200E806C4
:10187000E56E630E5DEC0CF0E4500BE000D0E56E1D
:10188000630E5DEC0CF000D000D00000E450E82EB8
:10189000F6D71200E806E56E090E5DEC0CF0E45098
:1018A0000BE000D0E56E090E5DEC0CF000D0E450CA
:1018B000000000D0E82EF6D71200E8060000E8503D
:1018C00007E000D000D000D000D00000E82EFAD70A
:1018D0001200D9CFE5FFE1CFD9FF00C0E5FF01C07D
:1018E000E5FF02C0E5FF03C0E5FF04C0E5FF05C05A
:1018F000E5FF06C0E5FF07C0E5FF08C0E5FF09C03A
:10190000E5FF0AC0E5FF0BC0E5FF0CC0E5FF0DC019
:10191000E5FF0EC0E5FF0FC0E5FF10C0E5FF020EBA
:10192000DBCF00F0030EDBCF01F0040EDBCF02F0C3
:10193000050EDBCF03F0060EDBCF04F0070EDBCF86
:1019400005F0080EDBCF06F0090EDBCF07F0086AC2
:10195000096A0A6A0B6A00500901F56F0150F66FB7
:101960000250F76F0350F86F04500901F96F0550EA
:10197000FA6F0650FB6F0750FC6F0901F551F61125
:10198000F711F81109E1FCC9E9FFFBC9F4FFFAC935
:10199000F3FF0901F9514FD10901F951FA11FB1176
:1019A000FC1109E1F8C9E9FFF7C9F4FFF6C9F3FF33
:1019B0000901F55140D10901F735F835006E016A8A
:1019C0000136026A036A016A026A036A0901FB3589
:1019D000FC35026E190F046E000E0320800FF36EAB
:1019E0000150800FF35C02E10050045C09E2F8C989
:1019F000E9FFF7C9F4FFF6C9F3FF0901F5511BD15F
:101A00000050190F046E000E0120800FF36E03507A
:101A1000800FF35C02E10250045C09E2FCC9E9FFBB
:101A2000FBC9F4FFFAC9F3FF0901F95104D1090117
:101A3000F551046EF651056E7F0EF715066E076AB6
:101A4000068E0901F9510C6EFA510D6E7F0EFB15D1
:101A50000E6E0F6A0E8E0901F851800BE844106E6D
:101A600010500AE0071E061E051E046C05E1052A3B
:101A700003E1062AD8B4072A0901FC51800BE84487
:101A8000106E10500AE00F1E0E1E0D1E0C6C05E1AC
:101A90000D2A03E10E2AD8B40F2A0350800FF36EEB
:101AA0000150800FF35C02E10050025C1BE2025027
:101AB000005C106E03500158105032E00BE6E86CE9
:101AC000D8900FBED8800F320E320D320C32010F7B
:101AD000F8E326D0D8900C360D360E360F36010FAF
:101AE000FAE31ED00050025C106E015003581050F3
:101AF00013E00BE6E86CD89007BED88007320632B8
:101B000005320432010FF8E307D0D89004360536C9
:101B100006360736010FFAE302C000F003C001F0F9
:101B20000C5004260D5005220E5006220F5007229D
:101B3000D88007AED89010E3071E061E051E046C61
:101B400005E1052A03E1062AD8B4072A086A096ACA
:101B50000A6A800E0B6E0AD004500510061007109A
:101B600005E1E96AF46AF36AE86A65D00450026E36
:101B70000550036E06500C6E07500D6E000E0D5C86
:101B800008E1800E0C5C05E1000E035C02E1000E32
:101B9000025C09E204500426053606360736FF0EBD
:101BA00000260122E3D70450026E0550036E065052
:101BB0000C6E07500D6E10E004A006D0020E042635
:101BC000000E0522062207220734073206320532AC
:101BD0000432004A012AE7D70250046E0350056E12
:101BE0007F0E0C14066E0D50076EE86A013000304F
:101BF0000F6E0E6A0E320C6A0C50081209120E504B
:101C00000A120F500B120450081205500912065008
:101C10000A1207500B1208500901F56F0950F66FB0
:101C20000A50F76F0B50F86FF8C9E9FFF7C9F4FFD6
:101C3000F6C9F3FFF551E4CF10F0E4CF0FF0E4CF95
:101C40000EF0E4CF0DF0E4CF0CF0E4CF0BF0E4CFD6
:101C50000AF0E4CF09F0E4CF08F0E4CF07F0E4CFD6
:101C600006F0E4CF05F0E4CF04F0E4CF03F0E4CFD6
:101C700002F0E4CF01F0E4CF00F0E4CFD9FF12008E
:101C8000D9CFE5FFE1CFD9FFEBC8F3FF0801EA5157
:101C9000E4CFD9FF12005B494E464F5D3A25730AE7
:101CA00000005B5741524E494E475D3A25730A008A
:101CB0005B4552524F525D3A25730A005B455645CB
:101CC0004E545D3A25730A005B44454255475D3AE0
:101CD00025730A005B53594E5441585D3A202573D1
:101CE0002025730A0000426F6F746C6F6164657227
:101CF00020726573657400004F76657272756E00B0
:101D0000627573790000082008004C696E652074C4
:101D10006F6F206C6F6E6700556E6B6E6F776E2005
:101D2000636D643A2025730A000020706F77657236
:101D3000206F6E0A000020696E70206E616D653A3A
:101D40002025730A000020696E7020747970653A4E
:101D50002025730A000020696E702063683A2025F0
:101D6000730A0000206F7574702063683A20257331
:101D70000A0020766F6C3A2025640A0020706F7785
:101D80006572206F66660A00506172733A0A00003D
:101D9000202531307320282573293A202564205BC3
:101DA00025735D0A0000556E6B6E6F776E20706153
:101DB000723A2025730A0000436D64206C697374C5
:101DC0003A0A000025313073202D2025730A0000C7
:101DD0003C6F6E7C6F66663E00006F6E00006F6643
:101DE0006600756E6B6E6F776E207061723A20259B
:101DF000730A00006C6F6164000073617665000017
:101E0000636C6561720064656661756C740073650E
:101E1000747570003C6C6F61647C736176657C6383
:101E20006C6561727C64656661756C747C736574E5
:101E300075703E0025730A00696E63006465630077
:101E4000736574003C7365747C696E637C64656360
:101E50003E006E65787400007072657600003C7319
:101E600065747C6E6578747C707265763E203C7615
:101E7000616C75653E006F6666736574000073681B
:101E80006F7700004F666673657420636820256471
:101E900020282573293A2025640A00003C73686FC6
:101EA000777C6F66667365743E203C6368616E6E16
:101EB000656C3E203C76616C7565205B302E356428
:101EC000625D3E000000706F776572006D656E7533
:101ED00000006C6566740000726967687400736561
:101EE0006C65637400003C706F7765727C6D656E25
:101EF000757C6C6566747C72696768747C73656CEC
:101F00006563743E00004465627567206C657665A4
:101F10006C203D202564000053686F772073746146
:101F2000747573007665720053686F7720766572FA
:101F300073696F6E00007265626F6F7400005265A6
:101F4000626F6F740000706172005061722066757C
:101F50006E6374696F6E7300766F6C756D650000EB
:101F6000566F6C2066756E6374696F6E7300696E70
:101F700070757400496E702066756E6374696F6E5B
:101F800073006368616E6E656C0043682066756EF1
:101F90006374696F6E7300007469746C65004469E2
:101FA00073706C6179207469746C6500506F77652B
:101FB00072206F6E2F6F666600006D75746500008D
:101FC0004D7574652F756E6D7574650073657474E9
:101FD000696E6773000053657474696E67730000FF
:101FE000627574746F6E0000456D756C6174652068
:101FF000627574746F6E7300646200004368616E92
:10200000676520646562756720696E666F00686544
:102010006C700000446973706C61792068656C7045
:102020000000200A282C293B0000D9CFE5FFE1CF92
:10203000D9FF00C0E5FF01C0E5FF02C0E5FF03C016
:10204000E5FF04C0E5FF05C0E5FF08011B510801DD
:102050001C1108011D1101E1AAD11BC800F01CC808
:1020600001F01DC802F0230E0026000E01220222FC
:1020700000C0E9FF01C0F3FF0250B1EC7BF0006E3D
:10208000005023E01BC800F01CC801F01DC802F07E
:10209000240E0026000E0122022208011E51030D0B
:1020A000F3CF03F003500026E86A0122E86A022217
:1020B00000C0E9FF01C0F3FF02505CEC76F0006E57
:1020C000F3CF01F0F4CF02F003D0006A016A026A94
:1020D000010EE56EF5EC50F0E652005001100210D2
:1020E000D8B43DD0800EE56EF5EC50F0E6521BC83A
:1020F00003F01CC804F01DC805F00550E56E04503F
:10210000E56E0350E56EA5EC68F0030EE126C00E07
:10211000E56EF5EC50F0E6523C0EE56E12EC77F011
:10212000E652200EE56E12EC77F0E6520250E56EB4
:102130000150E56E0050E56EA5EC68F0030EE12657
:10214000A8EC78F0006E00060050E56E8EEC77F09B
:10215000E6523E0EE56E12EC77F0E65228D11BC82F
:1021600000F01CC801F01DC802F0140E0026000E7D
:102170000122022200C0E9FF01C0F3FF02505CEC23
:1021800076F0006EF3CF01F0F4CF02F000500110B2
:102190000210D8B40CD11BC800F01CC801F01DC837
:1021A00002F0170E0026000E0122022200C0E9FFF5
:1021B00001C0F3FF02505CEC76F0006EF3CF01F04B
:1021C000F4CF02F0005001100210D8B4F0D01BC8B8
:1021D00000F01CC801F01DC802F01A0E0026000E07
:1021E0000122022200C0E9FF01C0F3FF02505CECB3
:1021F00076F0006EF3CF01F0F4CF02F00050011042
:102200000210D8B4D4D01BC800F01CC801F01DC8FF
:1022100002F0140E0026000E0122022200C0E9FF87
:1022200001C0F3FF02505CEC76F0006EF3CF01F0DA
:10223000F4CF02F0F2CFE5FFF29E0500580EFD6EDE
:10224000220EFE6E000EFF6EE4BEF28E02C0FBFF99
:1022500001C0FAFF0050F96E006E800EE56EF5ECDD
:1022600050F0E652005026E11BC800F01CC801F0F7
:102270001DC802F00250E56E0150E56E0050E56E9B
:10228000A5EC68F0030EE126C00EE56EF5EC50F00B
:10229000E652000E026E160E016E7C0E006E0250AB
:1022A000E56E0150E56E0050E56EA5EC68F0030E9A
:1022B000E1267DD01BC800F01CC801F01DC802F04B
:1022C000170E0026000E0122022200C0E9FF01C005
:1022D000F3FF02505CEC76F0006EF3CF01F0F4CF28
:1022E00002F008011E51E56EF2CFE5FFF29E0500F7
:1022F0000C0EFD6E230EFE6E000EFF6EE4BEF28E1F
:1023000002C0FBFF01C0FAFF0050F96E006EF3CF70
:1023100001F0F4CF02F0E6520250E56E0150E56E96
:102320000050E56EA5EC68F0030EE126C00EE56EE8
:10233000F5EC50F0E6521BC800F01CC801F01DC8B7
:1023400002F01A0E0026000E0122022200C0E9FF50
:1023500001C0F3FF02505CEC76F0006EF3CF01F0A9
:10236000F4CF02F008011E51E56EF2CFE5FFF29EB8
:1023700005008E0EFD6E230EFE6E000EFF6EE4BE97
:10238000F28E02C0FBFF01C0FAFF0050F96E006E32
:10239000F3CF01F0F4CF02F0E6520250E56E0150A7
:1023A000E56E0050E56EA5EC68F0030EE126E4CF83
:1023B00005F0E4CF04F0E4CF03F0E4CF02F0E4CF83
:1023C00001F0E4CF00F0E4CFD9FF1200D9CFE5FF50
:1023D000E1CFD9FF00C0E5FF01C0E5FF02C0E5FF86
:1023E00003C0E5FF04C0E5FF05C0E5FF06C0E5FF4B
:1023F00007C0E5FF08C0E5FF09C0E5FFA0EC7CF0E1
:10240000006EF3CF01F053EC7DF053EC7DF0026EE3
:1024100002501DE0000E046E390E036E000E026EB7
:10242000090E066EE20E056E800E076E0450E56E14
:102430000350E56E0250E56E0750E56E0650E56EFE
:102440000550E56EA9EC49F0060EE12668D1015071
:10245000800F810F02E1410E005C1DE2000E046E50
:10246000390E036E080E026E090E066EE20E056E40
:10247000800E076E0450E56E0350E56E0250E56E67
:102480000750E56E0650E56E0550E56EA9EC49F083
:10249000060EE12644D10150800F810F02E1ED0EBE
:1024A000005C36E2011C036E001C026E024A032A25
:1024B000000EE56E020EE56E0350E56E0250E56E0D
:1024C000C2EC54F0026EF3CF03F0040EE126000ECE
:1024D000066E390E056E100E046E090E086EE20EC1
:1024E000076E800E096E0350E56E0250E56E0650D1
:1024F000E56E0550E56E0450E56E0950E56E085036
:10250000E56E0750E56EA9EC49F0080EE126A0D073
:10251000D88001AED89036E3011C036E001C026E19
:10252000024A032A000EE56E020EE56E0350E56EC8
:102530000250E56EC2EC54F0026EF3CF03F0040ECD
:10254000E126000E066E390E056E160E046E090E9B
:10255000086EE20E076E800E096E0350E56E0250A3
:10256000E56E0650E56E0550E56E0450E56E0950C7
:10257000E56E0850E56E0750E56EA9EC49F0080ECF
:10258000E12666D00150800F800F02E1140E005C3E
:1025900030E3000EE56E020EE56E0150E56E005070
:1025A000E56EC2EC54F0026EF3CF03F0040EE126A8
:1025B000000E066E390E056E1C0E046E090E086EB6
:1025C000E20E076E800E096E0350E56E0250E56E56
:1025D0000650E56E0550E56E0450E56E0950E56E57
:1025E0000850E56E0750E56EA9EC49F0080EE126AB
:1025F0002FD0000EE56E020EE56E0150E56E005024
:10260000E56EC2EC54F0026EF3CF03F0040EE12647
:10261000000E066E390E056E220E046E090E086E4F
:10262000E20E076E800E096E0350E56E0250E56EF5
:102630000650E56E0550E56E0450E56E0950E56EF6
:102640000850E56E0750E56EA9EC49F0080EE1264A
:10265000000EE56E020EE56E0150E56E0050E56E6F
:10266000ECEC57F0006EF3CF01F0040EE1260050C1
:1026700001101DE0090E016EE20E006E800E026E6A
:10268000000E056E390E046E280E036E0550E56EC1
:102690000450E56E0350E56E0250E56E0150E56EA4
:1026A0000050E56EAFEC55F0060EE1261CD0090E89
:1026B000016EE20E006E800E026E000E056E390E87
:1026C000046E2C0E036E0550E56E0450E56E03504B
:1026D000E56E0250E56E0150E56E0050E56EAFEC20
:1026E00055F0060EE126090E016EE20E006E800E18
:1026F000026E000E056E390E046E300E036E05502C
:10270000E56E0450E56E0350E56E0250E56E015033
:10271000E56E0050E56EAFEC55F0060EE126090EB1
:10272000016EE20E006E800E026E02C0F4FF01C068
:10273000F3FF0050E4CF09F0E4CF08F0E4CF07F056
:10274000E4CF06F0E4CF05F0E4CF04F0E4CF03F0EB
:10275000E4CF02F0E4CF01F0E4CF00F0E4CFD9FF02
:102760001200D9CFE5FFE1CFD9FF00C0E5FF01C0DE
:10277000E5FF02C0E5FF03C0E5FF04C0E5FF05C0BB
:10278000E5FF06C0E5FF07C0E5FF08C0E5FF09C09B
:10279000E5FF0AC0E5FF0BC0E5FF0CC0E5FF0DC07B
:1027A000E5FF0EC0E5FF0FC0E5FF10C0E5FF11C05B
:1027B000E5FF020EDBCF00F0030EDBCF01F0040ECD
:1027C000DBCF02F00EEC7EF0036E090E056E290ED3
:1027D000046E800E066E0650E56E0550E56E0450E0
:1027E000E56E0250E56E0150E56E0050E56EEDECD1
:1027F0004EF0006E060EE1260050010A01E06BD09B
:1028000003C001F0026A000E066E1D0E056E880EF2
:10281000046E0250E56E0150E56E0650E56E0550FF
:10282000E56E0450E56E31EC67F0050EE126016AB5
:102830000350015CD8B04ED00150E56E70EC51F001
:10284000026EF3CF04F0F4CF05F0E6520150E56ECE
:10285000E4EC6DF0066EF3CF07F0E6520150E56E42
:1028600064EC52F0086EF3CF09F0F4CF0AF0E652B0
:102870000150E56EEAEC51F00B6EF3CF0CF0F4CFA3
:102880000DF0E652000E106E1D0E0F6E900E0E6EC5
:102890000550E56E0450E56E0250E56E0750E56E9A
:1028A0000650E56E0A50E56E0950E56E0850E56E7B
:1028B0000D50E56E0C50E56E0B50E56E1050E56E58
:1028C0000F50E56E0E50E56E31EC67F00E0EE1260E
:1028D000012AAED7EAD00050020A01E07ED0016A98
:1028E000026A0350025CD8B0C7D02CC904F02DC9CD
:1028F00005F02EC906F00250E56EEAEC51F0076EC5
:10290000F3CF08F0F4CF09F0E6520950E56E085015
:10291000E56E0750E56E0650E56E0550E56E045015
:10292000E56E54EC4CF0046EF3CF05F0060EE12694
:1029300004500510D8A44DD00150E56E70EC51F054
:10294000046EF3CF05F0F4CF06F0E6520150E56EC9
:10295000E4EC6DF0076EF3CF08F0E6520150E56E3F
:1029600064EC52F0096EF3CF0AF0F4CF0BF0E652AC
:102970000150E56EEAEC51F00C6EF3CF0DF0F4CFA0
:102980000EF0E652000E116E1D0E106E900E0F6EC0
:102990000650E56E0550E56E0450E56E0850E56E94
:1029A0000750E56E0B50E56E0A50E56E0950E56E76
:1029B0000E50E56E0D50E56E0C50E56E1150E56E53
:1029C0001050E56E0F50E56E31EC67F00E0EE1260B
:1029D0006CD0022A02C001F084D70050030A01E043
:1029E0004BD0016A006A0350005CD8B045D02CC9B6
:1029F00002F02DC904F02EC905F00050E56EEAEC96
:102A000051F0066EF3CF07F0F4CF08F0E65208500D
:102A1000E56E0750E56E0650E56E0550E56E045014
:102A2000E56E0250E56E54EC4CF0026EF3CF04F00C
:102A3000060EE126025004101BE109013151E56E3A
:102A400009013051E56E09012F51E56E2EEC37F08A
:102A5000026EF3CF04F0030EE1260450E56E02503F
:102A6000E56E0150E56ECAEC42F0030EE1261DD082
:102A7000002A00C001F0B7D7000E026E1D0E016ED5
:102A8000A60E006E09012E51E56E09012D51E56E6D
:102A900009012C51E56E0250E56E0150E56E0050C3
:102AA000E56E31EC67F0060EE126E4CF11F0E4CFDD
:102AB00010F0E4CF0FF0E4CF0EF0E4CF0DF0E4CF50
:102AC0000CF0E4CF0BF0E4CF0AF0E4CF09F0E4CF50
:102AD00008F0E4CF07F0E4CF06F0E4CF05F0E4CF50
:102AE00004F0E4CF03F0E4CF02F0E4CF01F0E4CF50
:102AF00000F0E4CFD9FF1200D9CFE5FFE1CFD9FF35
:102B000000C0E5FF01C0E5FF02C0E5FF03C0E5FF2F
:102B100004C0E5FF05C0E5FF06C0E5FF07C0E5FF0F
:102B200008C0E5FF09C0E5FF0AC0E5FF0BC0E5FFEF
:102B30000CC0E5FF0EC0E5FF0FC0E5FF020EDBCFC6
:102B400000F0030EDBCF01F0040EDBCF02F0050E28
:102B5000DBCF03F0060EDBCF04F0070EDBCF05F072
:102B6000080EDBCF06F0090EDBCF07F000500B019B
:102B7000006F0150016F0250026F0350036F045049
:102B80000B01046F0550056F0650066F0750076F65
:102B90000B01005101110211031106E00B01045158
:102BA00005110611071105E1E96AF46AF36AE86A9A
:102BB0004CD10B010351800BE844006E0B0107510F
:102BC000800BE844001A0B0102350335016E036ADD
:102BD000046A026A820E0126FF0E022203220422E8
:102BE0000B0106350735036E046A01C007F002C009
:102BF00008F007500326085004220350016E0450C9
:102C0000026E0B010051036E0151046E7F0E02151E
:102C1000056E058E0350006F0450016F0550026F62
:102C2000036B0B010451036E0551046E7F0E0615F4
:102C3000056E058E0350046F0450056F0550066F36
:102C4000076B0B010151036E0251046E0351056EB7
:102C50000B010551076E0651086E0751E56AE56ED6
:102C60000850E56E0750E56EE56A0550E56E0450C4
:102C7000E56E0350E56EDEEC28F0036EF3CF04F052
:102C8000F4CF05F0E9CF06F0080EE1260B01005164
:102C9000076E0B0105510B6E06510C6E0751E56A6C
:102CA000E56E0C50E56E0B50E56EE56AE56AE56A87
:102CB0000750E56EDEEC28F0F3CF08F0F4CF09F012
:102CC000E9CF0AF0080EE1260850076E0950086E99
:102CD0000A50096E0A6A0750032608500422095058
:102CE00005220A5006220B010451076E0B01015107
:102CF0000B6E02510C6E0351E56AE56E0C50E56EE9
:102D00000B50E56EE56AE56AE56A0750E56EDEECB4
:102D100028F0F3CF08F0F4CF09F0E9CF0AF0080E5D
:102D2000E1260850076E0950086E0A50096E0A6ABB
:102D30000750032608500422095005220A50062293
:102D4000400E0326000E04220522062206AE0ED0F7
:102D5000400E0326000E0422052206220450036EB4
:102D60000550046E0650056E066A11D00334043413
:102D7000036E046A04360550E844FE0B0412053461
:102D80000634056E066A0636FF0E01260222059EEF
:102D90000250800F7F0F02E1000E015C19E300502A
:102DA00006E0076A086A096A800E0A6E04D0076A9C
:102DB000086A096A0A6A098E7F0E0A1207500B0117
:102DC000006F0850016F0950026F0A50036F35D031
:102DD000D88002AED89006E30B01006B016B026B4A
:102DE000036B2BD0005006E0006A076A086A800E69
:102DF000096E04D0006A076A086A096AE86A023044
:102E000001300F6E0E6A0E320C6A0C50001207125F
:102E10000E5008120F5009120050031207500412EE
:102E2000085005120950061203500B01006F0450A0
:102E3000016F0550026F0650036F03CBE9FF02CB11
:102E4000F4FF01CBF3FF0B010051E4CF0FF0E4CF0F
:102E50000EF0E4CF0CF0E4CF0BF0E4CF0AF0E4CFB7
:102E600009F0E4CF08F0E4CF07F0E4CF06F0E4CFB8
:102E700005F0E4CF04F0E4CF03F0E4CF02F0E4CFB8
:102E800001F0E4CF00F0E4CFD9FF1200D9CFE5FF85
:102E9000E1CFD9FF00C0E5FF01C0E5FF02C0E5FFBB
:102EA00003C0E5FF04C0E5FF05C0E5FF06C0E5FF80
:102EB000020EDBCFFBF8BEEC71F036EC6FF0006E6B
:102EC000F3CF01F0F4CF02F0E9CF03F08094809AC1
:102ED000928A010EE56E6DEC7BF0E65280AA11D06D
:102EE000000E066E710E056E0C0E046E0650E56E39
:102EF0000550E56E0450E56EEDEC67F0030EE1263B
:102F00003AD080BA28D03E0EE56E4C0EE56ECC0E5F
:102F1000E56ECD0EE56E0350E56E0250E56E015094
:102F2000E56E0050E56E73EC47F0006E080EE1268A
:102F3000005011E0000E026E710E016E260E006E42
:102F40000250E56E0150E56E0050E56EEDEC67F065
:102F5000030EE12610D0000E026E710E016E3E0EC1
:102F6000006E0250E56E0150E56E0050E56E71ECAA
:102F700067F0030EE126929A010EE56E6DEC7BF090
:102F8000E6520801FB51D8A443D0080E0801F96F9E
:102F9000010E0801FA6F010EE56E0E0EE56E000ED1
:102FA000E56E19EC63F0030EE126E60EE56E070E02
:102FB000E56E000EE56E19EC63F0030EE126E60EF9
:102FC000E56E080EE56E000EE56E19EC63F0030E7B
:102FD000E126030EE56E100EE56E000EE56E19ECAF
:102FE00063F0030EE1263C0EE56E130EE56E000E57
:102FF000E56E19EC63F0030EE126C00EE56E160EC9
:10300000E56E000EE56E19EC63F0030EE126DED0EE
:103010000801FB51010A01E03CD0010EE56E0E0EE5
:10302000E56E000EE56E19EC63F0030EE126FF0E6F
:10303000E56E100EE56E000EE56E19EC63F0030E02
:10304000E126000EE56E130EE56E000EE56E19EC3E
:1030500063F0030EE126000EE56E160EE56E000E1F
:10306000E56E19EC63F0030EE126600EE56E000ECE
:10307000E56E4CEC6BF0E652E6520A0EE56E6DEC36
:103080007BF0E652080E0801F96F010E0801FA6F95
:103090009DD00801FB51020A01E098D0010EE56EB7
:1030A0000E0EE56E000EE56E19EC63F0030EE126E0
:1030B000200EE56E0B0EE56E000EE56E19EC63F06A
:1030C000030EE1260D0EE56E0C0EE56E000EE56EAC
:1030D00019EC63F0030EE126FF0EE56E100EE56EAF
:1030E000000EE56E19EC63F0030EE126000EE56EAE
:1030F000130EE56E000EE56E19EC63F0030EE1268B
:10310000000EE56E160EE56E000EE56E19EC63F02E
:10311000030EE126600EE56E000EE56E4CEC6BF0E2
:10312000E652E6520A0EE56E6DEC7BF0E652010EB9
:10313000E56E0E0EE56E010EE56E19EC63F0030E02
:10314000E126200EE56E0B0EE56E010EE56E19EC24
:1031500063F0030EE1260D0EE56E0C0EE56E010E1A
:10316000E56E19EC63F0030EE126FF0EE56E100E1E
:10317000E56E010EE56E19EC63F0030EE126000E1C
:10318000E56E130EE56E010EE56E19EC63F0030EAD
:10319000E126000EE56E160EE56E010EE56E19ECE9
:1031A00063F0030EE126700EE56E010EE56E4CEC49
:1031B0006BF0E652E6520A0EE56E6DEC7BF0E652DD
:1031C000100E0801F96F020E0801FA6F006A08017B
:1031D000FA51005C0CE2000EE56E0E0EE56E00503A
:1031E000E56E19EC63F0030EE126002AF0D70A0E13
:1031F000E56E6DEC7BF0E652E4CF06F0E4CF05F02F
:10320000E4CF04F0E4CF03F0E4CF02F0E4CF01F028
:10321000E4CF00F0E4CFD9FF1200D9CFE5FFE1CF32
:10322000D9FF00C0E5FF01C0E5FF02C0E5FF03C014
:10323000E5FF04C0E5FF05C0E5FF06C0E5FF07C0E8
:10324000E5FF08C0E5FF09C0E5FF0AC0E5FF0BC0C8
:10325000E5FF0CC0E5FF0DC0E5FF020EDBCF00F07F
:10326000060E005CD8B043D1FA6AFB6A0034FA3625
:10327000E834FA36FC0B860FE56E320EFA22000EA9
:10328000FB22E450F96E4FEF19F07CEF19F0ABEF31
:1032900019F0E8EF19F025EF1AF052EF1AF06CEC84
:1032A00070F0006E016A47EC75F0026E036A000E62
:1032B000066E170E056E440E046E010E086EA80E03
:1032C000076E800E096E0150E56E0050E56E0350EA
:1032D000E56E0250E56E0650E56E0550E56E045051
:1032E000E56E0950E56E0850E56E0750E56EA9ECF5
:1032F00049F00A0EE126FBD04AEC7DF0006E016A2F
:1033000041EC7DF0026E036A024A032A000E066E4B
:10331000170E056E440E046E010E086EA80E076EA1
:10332000800E096E0150E56E0050E56E0350E56EAB
:103330000250E56E0650E56E0550E56E0450E56EF0
:103340000950E56E0850E56E0750E56EA9EC49F0AE
:103350000A0EE126CCD0ADEC7DF0006E016AA4EC43
:103360007DF0026E036A9BEC7DF0046E056A92ECC0
:103370007DF0066E076A000E0A6E170E096E4C0E7F
:10338000086E010E0C6EA80E0B6E800E0D6E0150B5
:10339000E56E0050E56E0350E56E0250E56E055097
:1033A000E56E0450E56E0750E56E0650E56E0A5076
:1033B000E56E0950E56E0850E56E0D50E56E0C5057
:1033C000E56E0B50E56EA9EC49F00E0EE1268FD0AC
:1033D00089EC7DF0006E016A80EC7DF0026E036A7C
:1033E00077EC7DF0046E056A6EEC7DF0066E076A80
:1033F000000E0A6E170E096E4C0E086E010E0C6E52
:10340000A80E0B6E800E0D6E0150E56E0050E56E3D
:103410000350E56E0250E56E0550E56E0450E56E12
:103420000750E56E0650E56E0A50E56E0950E56EF0
:103430000850E56E0D50E56E0C50E56E0B50E56ED4
:10344000A9EC49F00E0EE12652D0B6EC7DF0006EEC
:10345000016ABFEC7DF0026E036A000E066E170E65
:10346000056E5E0E046E010E086EA80E076E800ECD
:10347000096E0150E56E0050E56E0350E56E025096
:10348000E56E0650E56E0550E56E0450E56E095098
:10349000E56E0850E56E0750E56EA9EC49F00A0E9E
:1034A000E12625D040EC0EF0006EF3CF01F0000EC7
:1034B000046E170E036E640E026E010E066EA80EE9
:1034C000056E800E076E0150E56E0050E56E0450EB
:1034D000E56E0350E56E0250E56E0750E56E06504E
:1034E000E56E0550E56EA9EC49F0080EE126010EE7
:1034F000016EA80E006E800E026E02C0F4FF01C0C5
:10350000F3FF0050E4CF0DF0E4CF0CF0E4CF0BF06C
:10351000E4CF0AF0E4CF09F0E4CF08F0E4CF07F0FD
:10352000E4CF06F0E4CF05F0E4CF04F0E4CF03F0FD
:10353000E4CF02F0E4CF01F0E4CF00F0E4CFD9FF14
:103540001200D9CFE5FFE1CFD9FF00C0E5FF01C0F0
:10355000E5FF02C0E5FF03C0E5FF04C0E5FF05C0CD
:10356000E5FF06C0E5FF07C0E5FF08C0E5FF09C0AD
:10357000E5FF0AC0E5FF0BC0E5FF0CC0E5FF0DC08D
:10358000E5FF0EC0E5FF0FC0E5FF10C0E5FF000E30
:10359000026E8C0E016E3A0E006E0250E56E015006
:1035A000E56E0050E56E010EE56E6EEC5DF0040E0A
:1035B000E12641EC73F002EC7DF0006EF9EC7CF05A
:1035C000016EE7EC7CF0026E03EC74F0036E02C057
:1035D00004F0056A066A076A71EC66F0086EF3CFBC
:1035E00009F0F4CF0AF0000E0D6E8C0E0C6E440E36
:1035F0000B6E0F0E0F6E200E0E6E800E106E0550AD
:10360000E56E0450E56E0650E56E0150E56E07501C
:10361000E56E0050E56E0A50E56E0950E56E085003
:10362000E56E0D50E56E0C50E56E0B50E56E1050DA
:10363000E56E0F50E56E0E50E56EA9EC49F00F0EE9
:10364000E1260F0E016E200E006E800E046E0450F7
:10365000E56E0150E56E0050E56E020EE56E6EEC13
:103660005DF0040EE126D88003AED89037E203C0A7
:1036700000F0016A03BE0168000E066E8C0E056E36
:103680005A0E046E0F0E086E200E076E800E096E25
:103690000150E56E0050E56E0650E56E0550E56E92
:1036A0000450E56E0950E56E0850E56E0750E56E72
:1036B000A9EC49F0080EE1260F0E016E200E006EF7
:1036C000800E046E0450E56E0150E56E0050E56E0C
:1036D000020EE56E6EEC5DF0040EE126025008E18C
:1036E00003500C0A05E1010EE56EB8EC6DF0E652F0
:1036F0005CEC7DF0006E005001E17ED00250D8A459
:1037000067D00350200A03E00350560A06E1040E76
:10371000E56EB8EC6DF0E65248D00350210A03E0A4
:103720000350550A06E1030EE56EB8EC6DF0E65263
:103730003CD003503B0A03E00350520A06E1020E5C
:10374000E56EB8EC6DF0E65230D00350250A06E184
:10375000050EE56EB8EC6DF0E65227D00350100A66
:1037600006E1010EE56EB8EC72F0E6521ED0035091
:10377000110A06E1FF0EE56EB8EC72F0E65215D0C4
:103780000350380A03E10FEC5DF00FD00350800FB7
:103790007F0F0BE30350800F760F07E20304006EE8
:1037A0000050E56E8FEC41F0E65203500D0A10E137
:1037B00053EC7DF0006E005006E0000EE56ED6EC96
:1037C00077F0E65205D0010EE56ED6EC77F0E652C2
:1037D000060E025C11E30350100A06E1020EE56ECC
:1037E000B8EC72F0E65208D00350110A05E1FE0E63
:1037F000E56EB8EC72F0E652E4CF10F0E4CF0FF0D3
:10380000E4CF0EF0E4CF0DF0E4CF0CF0E4CF0BF0FA
:10381000E4CF0AF0E4CF09F0E4CF08F0E4CF07F0FA
:10382000E4CF06F0E4CF05F0E4CF04F0E4CF03F0FA
:10383000E4CF02F0E4CF01F0E4CF00F0E4CFD9FF11
:103840001200D9CFE5FFE1CFD9FF00C0E5FF01C0ED
:10385000E5FF02C0E5FF000E026E380E016E7E0E1F
:10386000006E02C0F4FF01C0F3FF0050E4CF02F08D
:10387000E4CF01F0E4CF00F0E4CFD9FF1200446AB6
:10388000756B6520507265416D706C696669657213
:10389000000076312E300000313820617072203205
:1038A0003031360053746572656F20696E707574BF
:1038B0003F00352E3120696E7075743F0000444121
:1038C0004320696E7075743F000055736520435343
:1038D000333331383F0043533333313820747970F8
:1038E000653F00003F00796573006E6F0000352E64
:1038F0003163680031783863680032783863680073
:1039000020204D55544544002D696E6620644200C8
:103910002D2532640000202D25316400252B3264D2
:10392000000020252B3164002E3500002E300000D1
:10393000644200006461633100006461633200002E
:103940006461633300006461633400006461633563
:1039500000006461633600006461633700006461E5
:1039600063380000616E616C6F673100616E616C7D
:103970006F673200616E616C6F673300616E616CFE
:103980006F673400616E616C6F673500616E616CEA
:103990006F673600616E616C6F673700616E616CD6
:1039A0006F673800434420506C617965720044565B
:1039B0004420506C617965720000526563656976D8
:1039C0006572000054756E657200436F6D7075749A
:1039D000657200004C6170746F70000054656C6516
:1039E000766973696F6E00004469676974616C2061
:1039F000545600004361626C6500536174656C6CE1
:103A000069746500546170650000566964656F00F3
:103A1000417578696C6C6172790050686F6E6F00E7
:103A200048445456205265636F72640044565200F5
:103A3000485450430000426C752D526179004D6529
:103A400064696120706C61796572000065657072EF
:103A50006F6D202D3E20256420627974657300000F
:103A60002564206279746573202D3E20656570722F
:103A70006F6D0000506F776572757020766F6C7592
:103A80006D6500004175746F2D6F66662074696DF9
:103A90006500496E66726172656420616464726576
:103AA000737300004C43442064656C6179004C439F
:103AB0004420776964746800766F6C2D706F776549
:103AC0007275700074696D652D6175746F2D6F6608
:103AD000660069722D61646472006C63642D6465B4
:103AE0006C6179006C63642D7769647468006D693A
:103AF0006E002D00313030757300D9CFE5FFE1CF76
:103B0000D9FF00C0E5FF01C0E5FF02C0E5FF020EDE
:103B1000DBCF00F00050090DF3CF00F0016A2A0E50
:103B200000260A0E0122050E0026D8B0012A00C088
:103B3000E9FF01C0EAFFEFCF00F0130E005CD8B040
:103B400019D1FA6AFB6A0034FA36E834FA36FC0B0B
:103B5000600FE56E3B0EFA22000EFB22E450F96E78
:103B6000D6EF1DF0E2EF1DF0EEEF1DF0FAEF1DF0C5
:103B700006EF1EF012EF1EF01EEF1EF02AEF1EF0F1
:103B800036EF1EF042EF1EF04EEF1EF05AEF1EF021
:103B900066EF1EF072EF1EF07EEF1EF08AEF1EF051
:103BA00096EF1EF0A2EF1EF0AEEF1EF0000E026EBA
:103BB000390E016EA40E006E02C0F4FF01C0F3FFC7
:103BC0000050E3D0000E026E390E016EAE0E006E94
:103BD00002C0F4FF01C0F3FF0050D7D0000E026E08
:103BE000390E016EBA0E006E02C0F4FF01C0F3FF81
:103BF0000050CBD0000E026E390E016EC40E006E66
:103C000002C0F4FF01C0F3FF0050BFD0000E026EEF
:103C1000390E016ECA0E006E02C0F4FF01C0F3FF40
:103C20000050B3D0000E026E390E016ED40E006E3D
:103C300002C0F4FF01C0F3FF0050A7D0000E026ED7
:103C4000390E016EDC0E006E02C0F4FF01C0F3FFFE
:103C500000509BD0000E026E390E016EE80E006E11
:103C600002C0F4FF01C0F3FF00508FD0000E026EBF
:103C7000390E016EF40E006E02C0F4FF01C0F3FFB6
:103C8000005083D0000E026E390E016EFA0E006EE7
:103C900002C0F4FF01C0F3FF005077D0000E026EA7
:103CA0003A0E016E040E006E02C0F4FF01C0F3FF75
:103CB00000506BD0000E026E3A0E016E0A0E006EBE
:103CC00002C0F4FF01C0F3FF00505FD0000E026E8F
:103CD0003A0E016E100E006E02C0F4FF01C0F3FF39
:103CE000005053D0000E026E3A0E016E1A0E006E96
:103CF00002C0F4FF01C0F3FF005047D0000E026E77
:103D00003A0E016E200E006E02C0F4FF01C0F3FFF8
:103D100000503BD0000E026E3A0E016E2C0E006E6B
:103D200002C0F4FF01C0F3FF00502FD0000E026E5E
:103D30003A0E016E300E006E02C0F4FF01C0F3FFB8
:103D4000005023D0000E026E3A0E016E360E006E49
:103D500002C0F4FF01C0F3FF005017D0000E026E46
:103D60003A0E016E3E0E006E02C0F4FF01C0F3FF7A
:103D700000500BD0000E026E380E016EE40E006E85
:103D800002C0F4FF01C0F3FF0050E4CF02F0E4CF23
:103D900001F0E4CF00F0E4CFD9FF1200D8CFE5FF67
:103DA000E0CFE5FFE56EF3CFE5FFF4CFE5FFE9CF28
:103DB000E5FFEACFE5FFFACFE5FFFBCFE5FFD9CF7F
:103DC000E5FFE1CFD9FF00C0E5FF01C0E5FF010E2F
:103DD000E56EE4EC6DF0006EF3CF01F0E652080101
:103DE000472B130E0801475DD8A052D00801482B7D
:103DF0000801476B3C0E0801485D04E30801492BAC
:103E00000801486B80A01BD00801592B3C0E08010B
:103E1000595D04E308015A2B0801596B3C0E080157
:103E20005A5D04E308015B2B08015A6B180E080168
:103E30005B5D1FE308015C2B08015B6B1AD0080176
:103E4000552B3C0E0801555D04E30801562B080173
:103E5000556B3C0E0801565D04E30801572B080121
:103E6000566B180E0801575D04E30801582B080132
:103E7000576B5CEC7DF0016E01500AE02FEC7DF099
:103E8000016E015005E00D0EE56EB8EC6DF0E652E6
:103E90003D0EE56ECC0EE56ECC0EE56ECD0EE56EFC
:103EA00008014D51E56E08014C51E56E08014B517A
:103EB000E56E08014A51E56E03EC48F0016E080E0C
:103EC000E126015003E00801522B06D00801526B95
:103ED0000801536B0801546B130E0801525D1CE37B
:103EE0000801532B0801526B3C0E0801535D14E38B
:103EF0000801542B0801536B5CEC7DF0016E0150FE
:103F00000BE0005009E008015451001805E1090ECA
:103F1000E56EB8EC6DF0E6520DEC75F0006E0050F9
:103F200005E0010EE56EB8EC6DF0E652F0EC74F0D1
:103F3000006E005005E0020EE56EB8EC6DF0E65242
:103F4000D3EC74F0006E005005E0030EE56EB8ECA3
:103F50006DF0E652B6EC74F0006E005005E0040E11
:103F6000E56EB8EC6DF0E65299EC74F0006E00501E
:103F700005E0050EE56EB8EC6DF0E6525CEC79F00C
:103F8000006E005005E0070EE56EB8EC6DF0E652ED
:103F90005CEC7DF0006E005023E044EC77F0006EA6
:103FA000005005E0060EE56EB8EC6DF0E652D6EC7A
:103FB00078F0006E00500AE0FEEC72F0006E0050E7
:103FC00005E00B0EE56EB8EC6DF0E652FCEC3EF051
:103FD000006E005005E00A0EE56EB8EC6DF0E6529A
:103FE000C2B201D0C2829E90E4CF01F0E4CF00F0D3
:103FF000E4CFD9FFE4CFFBFFE4CFFAFFE4CFEAFF41
:10400000E4CFE9FFE4CFF4FFE4CFF3FFE450E4CFE3
:10401000E0FFE4CFD8FF1000D9CFE5FFE1CFD9FF13
:1040200000C0E5FF01C0E5FF02C0E5FF020EDBCFE7
:1040300000F00050090DF3CF00F0016A2A0E0026AF
:104040000A0E0122060E0026D8B0012A00C0E9FFA0
:1040500001C0EAFFEFCF00F0100E005CD8B0EFD047
:10406000FA6AFB6A0034FA36E834FA36FC0B7E0F43
:10407000E56E400EFA22000EFB22E450F96EBFEF0F
:1040800020F0CBEF20F0D7EF20F0E3EF20F0EFEFC0
:1040900020F0FBEF20F007EF21F013EF21F05FEFAE
:1040A00020F06BEF20F077EF20F083EF20F08FEF20
:1040B00020F09BEF20F0A7EF20F0B3EF20F0000EF0
:1040C000026E390E016E340E006E02C0F4FF01C0A4
:1040D000F3FF0050BFD0000E026E390E016E3A0E93
:1040E000006E02C0F4FF01C0F3FF0050B3D0000E19
:1040F000026E390E016E400E006E02C0F4FF01C068
:10410000F3FF0050A7D0000E026E390E016E460E6E
:10411000006E02C0F4FF01C0F3FF00509BD0000E00
:10412000026E390E016E4C0E006E02C0F4FF01C02B
:10413000F3FF00508FD0000E026E390E016E520E4A
:10414000006E02C0F4FF01C0F3FF005083D0000EE8
:10415000026E390E016E580E006E02C0F4FF01C0EF
:10416000F3FF005077D0000E026E390E016E5E0E26
:10417000006E02C0F4FF01C0F3FF00506BD0000ED0
:10418000026E390E016E640E006E02C0F4FF01C0B3
:10419000F3FF00505FD0000E026E390E016E6C0E00
:1041A000006E02C0F4FF01C0F3FF005053D0000EB8
:1041B000026E390E016E740E006E02C0F4FF01C073
:1041C000F3FF005047D0000E026E390E016E7C0ED8
:1041D000006E02C0F4FF01C0F3FF00503BD0000EA0
:1041E000026E390E016E840E006E02C0F4FF01C033
:1041F000F3FF00502FD0000E026E390E016E8C0EB0
:10420000006E02C0F4FF01C0F3FF005023D0000E87
:10421000026E390E016E940E006E02C0F4FF01C0F2
:10422000F3FF005017D0000E026E390E016E9C0E87
:10423000006E02C0F4FF01C0F3FF00500BD0000E6F
:10424000026E380E016EE40E006E02C0F4FF01C073
:10425000F3FF0050E4CF02F0E4CF01F0E4CF00F030
:10426000E4CFD9FF1200D9CFE5FFE1CFD9FF00C0DD
:10427000E5FF01C0E5FF02C0E5FF03C0E5FF04C0A4
:10428000E5FF05C0E5FF06C0E5FF07C0E5FF08C084
:10429000E5FF09C0E5FF020EDBCF00F0030EDBCF28
:1042A00001F0040EDBCF02F0090E046E740E036EF3
:1042B000800E056E0550E56E0450E56E0350E56E08
:1042C0000250E56E0150E56E0050E56EEDEC4EF0EB
:1042D000006E060EE126020E005CD8A0B6D0000EDD
:1042E000036E1E0E026E760E016E0350E56E0250D6
:1042F000E56E0150E56E09017951E56E09017851CD
:10430000E56E09017751E56E54EC4CF0016EF3CF88
:1043100002F0060EE126015002102FE10050040ABF
:104320002CE109017C51E56E09017B51E56E090123
:104330007A51E56E2EEC37F0016EF3CF02F0030EEA
:10434000E12609017F51E56E09017E51E56E090103
:104350007D51E56E2EEC37F0026EF3CF03F0030EC5
:10436000E126036A0350E56E0250E56E0150E56EEA
:1043700071EC4FF0030EE12681D0000E046E1E0E8C
:10438000036E7E0E026E0450E56E0350E56E025021
:10439000E56E09017951E56E09017851E56E090173
:1043A0007751E56E54EC4CF0026EF3CF03F0060E3D
:1043B000E12602500310D8A448D00050030A01E0BF
:1043C00044D009017C51E56E09017B51E56E09017C
:1043D0007A51E56E2EEC37F0006EF3CF02F0030E4B
:1043E000E1260050016E0150E56E47EC6CF0006E66
:1043F000F3CF02F0E6520150E56E2AEC71F0036E45
:10440000F3CF04F0F4CF05F0E652066A000E096E11
:104410001E0E086E840E076E0250E56E0050E56EAB
:104420000550E56E0450E56E0350E56E0650E56EEE
:104430000150E56E0950E56E0850E56E0750E56ED7
:1044400031EC67F00A0EE12619D0000E026E1E0E46
:10445000016E9C0E006E0250E56E0150E56E00503C
:10446000E56E09017651E56E09017551E56E0901A8
:104470007451E56E3FEC5FF0060EE126E4CF09F0E3
:10448000E4CF08F0E4CF07F0E4CF06F0E4CF05F086
:10449000E4CF04F0E4CF03F0E4CF02F0E4CF01F086
:1044A000E4CF00F0E4CFD9FF1200D8CFE5FFE0CF92
:1044B000E5FFE56EF3CFE5FFF4CFE5FFE9CFE5FFDC
:1044C000EACFE5FFFACFE5FFFBCFE5FFD9CFE5FF68
:1044D000E1CFD9FF00C0E5FF01C0E5FF02C0E5FF65
:1044E00003C0E5FF04C0E5FF05C0E5FF06C0E5FF2A
:1044F00007C0E5FF08C0E5FF09C0E5FF0AC0E5FF0A
:104500000BC0E5FFC4CF00F00050E56E16EC6CF078
:10451000006EF3CF01F0F4CF02F0E9CF03F0E652E2
:104520000350E56E0250E56E0150E56E0050E56EF9
:104530003C0EE56EA00EE56E000EE56E000EE56E1B
:104540007CEC15F0006EF3CF01F0F4CF02F0E9CF70
:1045500003F0080EE1260350E56E0250E56E0150AF
:10456000E56E0050E56E3C0EE56E230EE56ED70E4F
:10457000E56E0A0EE56E7CEC15F0046EF3CF05F0E7
:10458000F4CF06F0E9CF07F0080EE12608015151FB
:10459000E56E08015051E56E08014F51E56E0801C6
:1045A0004E51E56E3F0EE56E7D0EE56E700EE56ECA
:1045B000A40EE56E7CEC15F0086EF3CF09F0F4CF95
:1045C0000AF0E9CF0BF0080EE1260B50E56E0A5019
:1045D000E56E0950E56E0850E56E0750E56E065031
:1045E000E56E0550E56E0450E56E69EC0CF00801CF
:1045F0004E6FF3CF4FF8F4CF50F8E9CF51F8080ED3
:10460000E1263F0EE56E000EE56E000EE56E000E33
:10461000E56E08015151E56E08015051E56E080143
:104620004F51E56E08014E51E56E73EC47F0046E94
:10463000080EE126045009E008014E6B08014F6B9B
:104640000801506B3F0E0801516F08015151E56E92
:1046500008015051E56E08014F51E56E08014E51B9
:10466000E56E0350E56E0250E56E0150E56E0050B8
:10467000E56E52EC3EF008014A6FF3CF4BF8F4CFF1
:104680004CF8E9CF4DF8080EE1269E9CE4CF0BF0E4
:10469000E4CF0AF0E4CF09F0E4CF08F0E4CF07F06C
:1046A000E4CF06F0E4CF05F0E4CF04F0E4CF03F06C
:1046B000E4CF02F0E4CF01F0E4CF00F0E4CFD9FF83
:1046C000E4CFFBFFE4CFFAFFE4CFEAFFE4CFE9FF5A
:1046D000E4CFF4FFE4CFF3FFE450E4CFE0FFE4CF16
:1046E000D8FF1000D9CFE5FFE1CFD9FF00C0E5FF2B
:1046F00001C0E5FF02C0E5FF03C0E5FF04C0E5FF20
:1047000005C0E5FF06C0E5FF07C0E5FF08C0E5FFFF
:1047100009C0E5FF0AC0E5FF020EDBCF00F0005044
:10472000E56E47EC6CF0016EF3CF02F0E652D880F4
:1047300002AED890D8A06AD00050E56E47EC6CF07D
:10474000016EF3CF02F0E652021E016CD8B4022AC9
:10475000000EE56E020EE56E0250E56E0150E56E4C
:10476000ECEC57F0016EF3CF02F0040EE12602509C
:10477000E56E0150E56E000EE56E050EE56E2CEC63
:1047800062F0016EF3CF02F0040EE1260050E56EF8
:1047900047EC6CF0036EF3CF04F0E652041E036C9A
:1047A000D8B4042A000EE56E020EE56E0450E56EE4
:1047B0000350E56EC2EC54F0036EF3CF04F0040E28
:1047C000E126000E076E160E066E940E056E010EA3
:1047D000096E690E086E800E0A6E0250E56E015079
:1047E000E56E0450E56E0350E56E0750E56E065029
:1047F000E56E0550E56E0A50E56E0950E56E08500D
:10480000E56EA9EC49F00A0EE12661D00050E56E94
:1048100047EC6CF0016EF3CF02F0E652000EE56E4D
:10482000020EE56E0250E56E0150E56EECEC57F0BD
:10483000016EF3CF02F0040EE1260250E56E015046
:10484000E56E000EE56E050EE56E2CEC62F0016E75
:10485000F3CF02F0040EE1260050E56E47EC6CF059
:10486000006EF3CF03F0E652000EE56E020EE56E29
:104870000350E56E0050E56EC2EC54F0006EF3CFCD
:1048800003F0040EE126000E066E160E056EA60E4F
:10489000046E010E086E690E076E800E096E0250DE
:1048A000E56E0150E56E0350E56E0050E56E065072
:1048B000E56E0550E56E0450E56E0950E56E085052
:1048C000E56E0750E56EA9EC49F00A0EE126010EEF
:1048D000016E690E006E800E026E02C0F4FF01C010
:1048E000F3FF0050E4CF0AF0E4CF09F0E4CF08F082
:1048F000E4CF07F0E4CF06F0E4CF05F0E4CF04F016
:10490000E4CF03F0E4CF02F0E4CF01F0E4CF00F015
:10491000E4CFD9FF1200D9CFE5FFE1CFD9FF00C026
:10492000E5FF01C0E5FF02C0E5FF03C0E5FF04C0ED
:10493000E5FF05C0E5FF020EDBCF00F0030EDBCF85
:1049400001F0040EDBCF02F0090E046E470E036E79
:10495000800E056E0550E56E0450E56E0350E56E61
:104960000250E56E0150E56E0050E56EEDEC4EF044
:10497000006E060EE126020E005CD8A0BDD0000E2F
:10498000026E1D0E016EF40E006E0250E56E0150B7
:10499000E56E0050E56E09014C51E56E09014B5181
:1049A000E56E09014A51E56E54EC4CF0006EF3CF10
:1049B00001F0060EE1260050011003E199EC44F0ED
:1049C000B4D0000E026E1D0E016EFA0E006E025083
:1049D000E56E0150E56E0050E56E09014C51E56E43
:1049E00009014B51E56E09014A51E56E54EC4CF05A
:1049F000006EF3CF01F0060EE1260050011003E136
:104A000052EC46F092D0000E026E1E0E016E000EA9
:104A1000006E0250E56E0150E56E0050E56E090132
:104A20004C51E56E09014B51E56E09014A51E56EA5
:104A300054EC4CF0006EF3CF01F0060EE12600506E
:104A4000011003E195EC72F070D0000E026E1E0EA4
:104A5000016E060E006E0250E56E0150E56E0050CC
:104A6000E56E09014C51E56E09014B51E56E0901F6
:104A70004A51E56E54EC4CF0006EF3CF01F0060E97
:104A8000E1260050011003E114EC04F04ED0000EBA
:104A9000026E1E0E016E0E0E006E0250E56E01508B
:104AA000E56E0050E56E09014C51E56E09014B5170
:104AB000E56E09014A51E56E54EC4CF0006EF3CFFF
:104AC00001F0060EE126005001102FE109014F51BF
:104AD000E56E09014E51E56E09014D51E56E2EEC72
:104AE00037F0006EF3CF01F0030EE1260050E56EC3
:104AF000B4EC6BF0E65219D0000E026E1E0E016E81
:104B0000140E006E0250E56E0150E56E0050E56E29
:104B100009014951E56E09014851E56E0901475106
:104B2000E56E3FEC5FF0060EE126E4CF05F0E4CF42
:104B300004F0E4CF03F0E4CF02F0E4CF01F0E4CFDF
:104B400000F0E4CFD9FF1200D9CFE5FFE1CFD9FFC4
:104B500000C0E5FF01C0E5FF02C0E5FF03C0E5FFBF
:104B600004C0E5FF05C0E5FF020EDBCF00F0030E39
:104B7000DBCF01F0040EDBCF02F0090E046E560EFF
:104B8000036E800E056E0550E56E0450E56E035011
:104B9000E56E0250E56E0150E56E0050E56EEDECFD
:104BA0004EF0006E060EE126020E005CD8A0BCD0CE
:104BB000000E036E1E0E026E380E016E0350E56E7F
:104BC0000250E56E0150E56E09015B51E56E090189
:104BD0005A51E56E09015951E56E54EC4CF0016EE5
:104BE000F3CF02F0060EE126015002101EE1020E84
:104BF000016E026A0050030A10E109015E51E56E80
:104C000009015D51E56E09015C51E56E2EEC37F04E
:104C1000016EF3CF02F0030EE1260150036E035044
:104C2000E56EB8EC72F0E65298D0000E056E1E0EDE
:104C3000046E3C0E036E0550E56E0450E56E0350A5
:104C4000E56E09015B51E56E09015A51E56E0901F6
:104C50005951E56E54EC4CF0036EF3CF04F0060EA0
:104C6000E1260350041025E1FE0E016EFF0E026ED8
:104C70000050030A16E109015E51E56E09015D511C
:104C8000E56E09015C51E56E2EEC37F0036EF3CF53
:104C900004F0030EE126041C026E031C016E014A9F
:104CA000022A0150036E0350E56EB8EC72F0E65232
:104CB00054D0000E056E1E0E046E400E036E05509D
:104CC000E56E0450E56E0350E56E09015B51E56E3B
:104CD00009015A51E56E09015951E56E54EC4CF049
:104CE000036EF3CF04F0060EE126035004101CE11E
:104CF0000050030A19E109015E51E56E09015D5199
:104D0000E56E09015C51E56E2EEC37F0016EF3CFD4
:104D100002F0030EE1260250E56E0150E56E04EC50
:104D20006AF0E652E65219D0000E026E1E0E016EB7
:104D3000440E006E0250E56E0150E56E0050E56EC7
:104D400009015851E56E09015751E56E09015651A7
:104D5000E56E3FEC5FF0060EE126E4CF05F0E4CF10
:104D600004F0E4CF03F0E4CF02F0E4CF01F0E4CFAD
:104D700000F0E4CFD9FF1200D9CFE5FFE1CFD9FF92
:104D800000C0E5FF01C0E5FF02C0E5FF03C0E5FF8D
:104D900004C0E5FF05C0E5FF020EDBCF00F0030E07
:104DA000DBCF01F0040EDBCF02F0090E046E920E91
:104DB000036E800E056E0550E56E0450E56E0350DF
:104DC000E56E0250E56E0150E56E0050E56EEDECCB
:104DD0004EF0006E060EE126020E005CD8A0B9D09F
:104DE000000E026E1E0E016EC60E006E0250E56EC3
:104DF0000150E56E0050E56E09019751E56E09011D
:104E00009651E56E09019551E56E54EC4CF0006E3B
:104E1000F3CF01F0060EE1260050011006E1010E6D
:104E2000E56EB8EC6DF0E652ADD0000E026E1E0ECF
:104E3000016ECC0E006E0250E56E0150E56E005022
:104E4000E56E09019751E56E09019651E56E09017C
:104E50009551E56E54EC4CF0006EF3CF01F0060E68
:104E6000E1260050011006E1020EE56EB8EC6DF08F
:104E7000E65288D0000E026E1E0E016ED20E006E3B
:104E80000250E56E0150E56E0050E56E0901975144
:104E9000E56E09019651E56E09019551E56E54ECF8
:104EA0004CF0006EF3CF01F0060EE1260050011029
:104EB00006E1030EE56EB8EC6DF0E65263D0000E2D
:104EC000026E1E0E016ED80E006E0250E56E01508D
:104ED000E56E0050E56E09019751E56E09019651A6
:104EE000E56E09019551E56E54EC4CF0006EF3CF80
:104EF00001F0060EE1260050011006E1040EE56EF9
:104F0000B8EC6DF0E6523ED0000E026E1E0E016E41
:104F1000DE0E006E0250E56E0150E56E0050E56E4B
:104F200009019751E56E09019651E56E0901955108
:104F3000E56E54EC4CF0006EF3CF01F0060EE12666
:104F4000005001101FE1050EE56EB8EC6DF0E65261
:104F500019D0000E026E1E0E016EE60E006E02509B
:104F6000E56E0150E56E0050E56E09019451E56E65
:104F700009019351E56E09019251E56E3FEC5FF036
:104F8000060EE126E4CF05F0E4CF04F0E4CF03F011
:104F9000E4CF02F0E4CF01F0E4CF00F0E4CFD9FF9A
:104FA0001200D9CFE5FFE1CFD9FF00C0E5FF01C076
:104FB000E5FF02C0E5FF03C0E5FF04C0E5FF05C053
:104FC000E5FF06C0E5FF07C0E5FF08C0E5FF09C033
:104FD000E5FF0AC0E5FF020EDBCF00F00050E56EF2
:104FE0002AEC72F0016EE652D88001AED890D8A0BB
:104FF0006CD00050E56E2AEC72F0016EE652026A47
:1050000001BE0268021E016CD8B4022A000EE56ED1
:10501000020EE56E0250E56E0150E56EECEC57F0C5
:10502000016EF3CF02F0040EE1260250E56E01504E
:10503000E56E000EE56E050EE56E2CEC62F0016E7D
:10504000F3CF02F0040EE1260050E56E2AEC72F078
:10505000036EE652046A03BE0468041E036CD8B4EF
:10506000042A000EE56E020EE56E0450E56E035054
:10507000E56EC2EC54F0036EF3CF04F0040EE126AB
:10508000000E076E160E066E940E056E010E096E6A
:10509000150E086E800E0A6E0250E56E0150E56E28
:1050A0000450E56E0350E56E0750E56E0650E56E60
:1050B0000550E56E0A50E56E0950E56E0850E56E44
:1050C000A9EC49F00A0EE12655D00050E56E2AEC15
:1050D00072F0016EE652020EE56E015001BEE86C00
:1050E000E56ECAEC69F001BEE86C016EE450E45074
:1050F0000150050DF45001BE0508026EF3CF01F01A
:105100000050E56E2AEC72F0006EE652020EE56E7B
:10511000005000BEE86CE56E3DEC6AF0036A00BE2C
:10512000031E006E03BE006CE450E450000E066ED9
:10513000160E056EA60E046E010E086E150E076E95
:10514000800E096E0250E56E0150E56E0350E56E6B
:105150000050E56E0650E56E0550E56E0450E56EB4
:105160000950E56E0850E56E0750E56EA9EC49F070
:105170000A0EE126010E016E150E006E800E026E03
:1051800002C0F4FF01C0F3FF0050E4CF0AF0E4CF07
:1051900009F0E4CF08F0E4CF07F0E4CF06F0E4CF65
:1051A00005F0E4CF04F0E4CF03F0E4CF02F0E4CF65
:1051B00001F0E4CF00F0E4CFD9FF1200D9CFE5FF32
:1051C000E1CFD9FF00C0E5FF01C0E5FF02C0E5FF68
:1051D00003C0E5FF04C0E5FF05C0E5FF06C0E5FF2D
:1051E00007C0E5FF020EDBCF00F0030EDBCF01F0BE
:1051F000040EDBCF02F0050EDBCF03F0060EDBCF93
:1052000004F0070EDBCF05F0080EDBCF06F0090E29
:10521000DBCF07F000500B01146F0150156F0250E7
:10522000166F0350176F04500B01186F0550196F5C
:1052300006501A6F07501B6F0B0114510B011A0314
:10524000F4CF01F0F3CF00F000500B011E6F0150BE
:105250001F6F0B0114510B011803F4CF01F0F3CFB2
:1052600000F000500B011C6F01501D6F0B01175116
:105270000B011803F3CF00F00B011F510026005063
:105280001F6F0B0116510B011903F3CF00F00B0137
:105290001F51002600501F6F0B0116510B01180300
:1052A000F4CF01F0F3CF00F00B011E5100261F5187
:1052B000012200501E6F01501F6F0B0115510B0191
:1052C0001903F4CF01F0F3CF00F00B011E510026BB
:1052D0001F51012200501E6F01501F6F0B0115510D
:1052E0000B011A03F3CF00F000500B01236F0B01E9
:1052F00015510B011803F4CF01F0F3CF00F000506B
:105300000B01216F0150226F0B0114510B011B0384
:10531000F3CF00F000500B01276F0B0114510B016C
:105320001903F4CF01F0F3CF00F000500B01256F0B
:105330000150266F0B01206B0B01246B0B012051D8
:105340000B011C25006E0B0121510B011D21016E6B
:105350000B0122510B011E21026E0B0123510B0187
:105360001F21036E00501C6F01501D6F02501E6FF5
:1053700003501F6F0B0124510B011C25006E0B0104
:1053800025510B011D21016E0B0126510B011E2120
:10539000026E0B0127510B011F21036E03C0E9FFB1
:1053A00002C0F4FF01C0F3FF0050E4CF07F0E4CFE8
:1053B00006F0E4CF05F0E4CF04F0E4CF03F0E4CF4F
:1053C00002F0E4CF01F0E4CF00F0E4CFD9FF120007
:1053D000D9CFE5FFE1CFD9FF00C0E5FF01C0E5FF70
:1053E00002C0E5FF03C0E5FF04C0E5FF05C0E5FF1F
:1053F00006C0E5FF07C0E5FF08C0E5FF020EDBCFF2
:1054000000F0030EDBCF01F0040EDBCF02F0050E3F
:10541000DBCF03F0060EDBCF04F0070EDBCF05F089
:1054200000500110021006E000C0EFF801C0F0F8D3
:1054300002C0F1F80801EF510801F0110801F11163
:1054400004E1F46AF36AE86AB5D0EFC800F0F0C886
:1054500001F0F1C802F000C0E9FF01C0F3FF025003
:10546000B1EC7BF0006E00502CE0EFC800F0F0C80B
:1054700001F0F1C802F000C0E9FF01C0F3FF0250E3
:10548000B1EC7BF0006E0050E56E0550E56E045007
:10549000E56E0350E56E65EC63F0006EF3CF01F04E
:1054A000F4CF02F0040EE12600500110021009E0D2
:1054B0000801EF2BCAE30801F03F02D00801F12BED
:1054C000C4D7EFC800F0F0C801F0F1C802F0EFC88F
:1054D00006F0F0C807F0F1C808F006C0E9FF07C001
:1054E000F3FF0850B1EC7BF0066E0650D8B449D0FB
:1054F000EFC806F0F0C807F0F1C808F006C0E9FFF1
:1055000007C0F3FF0850B1EC7BF0066E0650E56E65
:105510000550E56E0450E56E0350E56E65EC63F0F2
:10552000066EF3CF07F0F4CF08F0040EE126065024
:10553000071008101DE0EFC806F0F0C807F0F1C82A
:1055400008F0000EE56E06C0E9FF07C0F3FF085043
:10555000ABEC7CF00801EF2B05E30801F03F02D033
:105560000801F12B02C0F4FF01C0F3FF005022D06C
:105570000801EF2BACE30801F03F02D00801F12B4A
:10558000A6D70801EF6B0801F06B0801F16B00C0B2
:10559000E9FF01C0F3FF0250B1EC7BF0036E035052
:1055A00006E002C0F4FF01C0F3FF005003D0F46A2C
:1055B000F36AE86AE4CF08F0E4CF07F0E4CF06F03E
:1055C000E4CF05F0E4CF04F0E4CF03F0E4CF02F041
:1055D000E4CF01F0E4CF00F0E4CFD9FF1200D9CF3F
:1055E000E5FFE1CFD9FF00C0E5FF01C0E5FF02C044
:1055F000E5FF03C0E5FF020EDBCF00F00801EA3F44
:1056000002D00801EB2B0050C10A22E18094809067
:105610000C0EE56EF5EC50F0E652010EE56EF5EC81
:1056200050F0E652800EE56EF5EC50F0E652000EBA
:10563000036E1C0E026EE60E016E0350E56E025004
:10564000E56E0150E56EA5EC68F0030EE126FF0063
:10565000ABA217D0000E036E1C0E026EF80E016E88
:105660000350E56E0250E56E0150E56E71EC67F097
:10567000030EE1260801EC6B0801ED6BAB98AB88DB
:10568000A1D00801ED5111E0000E036E1D0E026E57
:10569000000E016E0350E56E0250E56E0150E56E9E
:1056A00071EC67F0030EE1268DD07B0E005C01E308
:1056B00089D0200E005C11E200500D0A0EE000506F
:1056C0000A0A0BE00050080A08E000501B0A04E137
:1056D000020E0801EE6F76D075D00801EE5103E09E
:1056E0000801EE076FD00050080A19E10801EC51DB
:1056F000800F7F0FD8A03ED00801EC07000E036E8C
:105700001D0E026E060E016E0350E56E0250E56E30
:105710000150E56E31EC67F0030EE12653D008012D
:10572000EC51800F590F13E3000E036E1D0E026E35
:105730000A0E016E0350E56E0250E56E0150E56EF3
:1057400071EC67F0030EE1260801EC6B3BD0ECC86E
:1057500001F00801EC2B026A01BE0268B20E0126BC
:10576000000E022201C0E9FF02C0EAFF00C0EFFF05
:1057700000C0ADFF00500A0A03E000500D0A22E10C
:105780000801EC51800F7E0F19E30801EC05006E53
:10579000016A00BE0168B20E0026000E012200C0A0
:1057A000E9FF01C0EAFF000EEF6E010E0801ED6F88
:1057B0000C0EE56EB8EC6DF0E65204D00801EC6B0F
:1057C0000801ED6BE4CF03F0E4CF02F0E4CF01F089
:1057D000E4CF00F0E4CFD9FF1200D9CFE5FFE1CF4D
:1057E000D9FF00C0E5FF01C0E5FF02C0E5FF03C02F
:1057F000E5FF1BC800F01CC801F01DC802F0230E15
:105800000026000E0122022200C0E9FF01C0F3FFC2
:105810000250B1EC7BF0006E005023E01BC800F09A
:105820001CC801F01DC802F0240E0026000E012243
:10583000022208011E51030DF3CF03F0035000268E
:10584000E86A0122E86A022200C0E9FF01C0F3FF12
:1058500002505CEC76F0006EF3CF01F0F4CF02F072
:1058600003D0006A016A026A00500110021009E0C8
:1058700000C01BF801C01CF802C01DF808011E6B17
:1058800091D01BC800F01CC801F01DC802F0140E16
:105890000026000E0122022200C0E9FF01C0F3FF32
:1058A00002505CEC76F0006EF3CF01F0F4CF02F022
:1058B000005001100210D8B475D01BC800F01CC8ED
:1058C00001F01DC802F0200E0026000E0122022267
:1058D00000C0E9FF01C0F3FF02505CEC76F0006EFF
:1058E000F3CF01F0F4CF02F0005001100210D8B451
:1058F00059D01BC800F01CC801F01DC802F0140EDE
:105900000026000E0122022200C0E9FF01C0F3FFC1
:1059100002505CEC76F0006EF3CF01F0F4CF02F0B1
:10592000F2CFE5FFF29E0500440EFD6E590EFE6EAD
:10593000000EFF6EE4BEF28E02C0FBFF01C0FAFF54
:105940000050F96E006E00502DE01BC800F01CC81E
:1059500001F01DC802F0200E0026000E01220222D6
:1059600000C0E9FF01C0F3FF02505CEC76F0006E6E
:10597000F3CF01F0F4CF02F008011E51E56EF2CF33
:10598000E5FFF29E0500A20EFD6E590EFE6E000EA2
:10599000FF6EE4BEF28E02C0FBFF01C0FAFF0050B2
:1059A000F96EE65215EC10F0E4CF03F0E4CF02F00C
:1059B000E4CF01F0E4CF00F0E4CFD9FF1200D9CF5B
:1059C000E5FFE1CFD9FF00C0E5FF01C0E5FF02C060
:1059D000E5FF03C0E5FF04C0E5FF05C0E5FF06C025
:1059E000E5FF07C0E5FF08C0E5FF09C0E5FF000EC1
:1059F000026E8C0E016E720E006E0250E56E01504A
:105A0000E56E0050E56E010EE56E6EEC5DF0040E85
:105A1000E126DBEC79F0006E005001E1A5D05CECF2
:105A20007DF0006E0050D8B49FD00EEC6FF0006E89
:105A3000F3CF01F0F4CF02F0E9CF03F00350E56EAD
:105A40000250E56E0150E56E0050E56E410EE56EC8
:105A5000200EE56E000EE56E000EE56E7CEC15F096
:105A6000006EF3CF01F0F4CF02F0E9CF03F0080E9F
:105A7000E1260350E56E0250E56E0150E56E0050E0
:105A8000E56EECEC65F0006E040EE12636EC6FF08E
:105A9000016EF3CF02F0F4CF03F0E9CF04F004502D
:105AA000E56E0350E56E0250E56E0150E56E410E65
:105AB000E56E200EE56E000EE56E000EE56E7CECE8
:105AC00015F0016EF3CF02F0F4CF03F0E9CF04F04C
:105AD000080EE1260450E56E0350E56E0250E56EB7
