:020000040000FA
:100000003FEF60F0C96E1200D4EF7CF0ACA2FED7D7
:10001000AD6E12001BEF7CF03FEF7EF0D9CFE5FF15
:10002000E1CFD9FF00C0E5FF01C0E5FF02C0E5FF59
:1000300003C0E5FF04C0E5FF05C0E5FF06C0E5FF1E
:1000400007C0E5FF08C0E5FF09C0E5FF0AC0E5FFFE
:100050000BC0E5FF0CC0E5FF0DC0E5FF0EC0E5FFDE
:100060000FC0E5FF10C0E5FF11C0E5FF12C0E5FFBE
:1000700013C0E5FF14C0E5FF15C0E5FF16C0E5FF9E
:1000800017C0E5FF18C0E5FF19C0E5FF1AC0E5FF7E
:100090001BC0E5FF1CC0E5FF1DC0E5FF1EC0E5FF5E
:1000A000020EDBCF00F0030EDBCF01F0040EDBCF3E
:1000B00002F0050EDBCF03F0060EDBCF04F0070ED7
:1000C000DBCF05F0080EDBCF06F0090EDBCF07F023
:1000D0000A0EDBCF08F0096A0A6A02C00DF00D5063
:1000E000800A0DE102500B013C6F01503B6F005044
:1000F0003A6F0B0E016E3A0E006E800E026E03C058
:10010000E9FF04C0F3FF0550B1EC7BF00B6E0B5020
:10011000D8B4BFEF03F00B50250A02E0A6EF03F0BE
:100120000C6A0D6A0E6A0F6A106A0A0E116E126A64
:10013000136A146A200E156E1668176A2B0E186E55
:10014000032A02E3044A052A03C0E9FF04C0F3FFBF
:100150000550B1EC7BF0196E250A13E11950E56EDC
:100160000250E56E0150E56E0050E56EEDEC47F093
:10017000040EE126094A0A2A032A02E3044A052A50
:10018000BED71950300A06E1300E156E032A02E37D
:10019000044A052A03C0E9FF04C0F3FF0550B1EC8F
:1001A0007BF02D0A06E1010E146E032A02E3044AD5
:1001B000052A03C0E9FF04C0F3FF0550B1EC7BF052
:1001C000200A08E1010E176E200E186E032A02E3C2
:1001D000044A052A03C0E9FF04C0F3FF0550B1EC4F
:1001E0007BF02B0A06E1010E176E032A02E3044A94
:1001F000052A03C0E9FF04C0F3FF0550B1EC7BF012
:10020000196E310E195C2BE33A0E195C28E203C01B
:1002100019F004C01AF005C01BF019C0E9FF1AC09C
:10022000F3FF1B50B1EC7BF01C6E300E1C5C11E335
:100230003A0E1C5C0EE213500A0DF3CF1DF01C5059
:100240001D26D00E1D24136E192A02E31A4A1B2AFA
:10025000E4D719C003F01AC004F01BC005F003C0B6
:10026000E9FF04C0F3FF0550B1EC7BF02E0A2CE14E
:100270000350010F196E000E04201A6E000E0520A7
:100280001B6E166A19C0E9FF1AC0F3FF1B50B1ECD0
:100290007BF01C6E300E1C5C11E33A0E1C5C0EE20F
:1002A00016500A0DF3CF1DF01C501D26D00E1D2434
:1002B000166E192A02E31A4A1B2AE4D719C003F062
:1002C0001AC004F01BC005F003C0E9FF04C0F3FF2F
:1002D0000550B1EC7BF0196E6C0A07E1010E0C6E53
:1002E000032A02E3044A052A09D01950680A06E1E4
:1002F000010E0E6E032A02E3044A052A03C0E9FF39
:1003000004C0F3FF0550B1EC7BF0750A06E1010E65
:10031000106E032A02E3044A052A03C0E9FF04C061
:10032000F3FF0550B1EC7BF0196E730A05E1010E85
:100330000D6E200E156E3FD01950780A03E1100E95
:10034000116E39D01950580A05E1100E116E010EC8
:10035000126E31D01950630A02E1116A2CD0195083
:100360006F0A03E1080E116E26D01950660A03E1E8
:10037000010E0F6E20D01950640A1DE01950690A51
:100380001AE0105005E0FF0E03260422052213D0C8
:100390001950E56E0250E56E0150E56E0050E56EB5
:1003A000EDEC47F0040EE126094A0A2A032A02E38B
:1003B000044A052AA4D60D5021E00650030F0D6E05
:1003C000000E0720196E000E08201A6E0DC006F0F0
:1003D00019C007F01AC008F0FD0E0D26FF0E1922F5
:1003E0001A220DC0E9FF19C0F3FF1A5009EC76F08C
:1003F0000D6EF3CF19F0F4CF1AF0FDD00F500DE0D1
:10040000000E1A6E080E196E060E0D6E040E0626EC
:10041000000E072208221668EED016680C5023E062
:100420000650040F0C6E000E07200F6E000E082001
:100430001B6E0CC006F00FC007F01BC008F0FC0ECE
:100440000C26FF0E0F221B220CC0E9FF0FC0F3FF8A
:100450001B50E5EC73F00C6EF3CF0FF0F4CF1BF0F4
:10046000E9CF1CF067D00E502FE00650020F0E6E41
:10047000000E07201D6E000E08201E6E0EC006F036
:100480001DC007F01EC008F0FE0E0E26FF0E1D2236
:100490001E220EC0E9FF1DC0F3FF1E50B1EC7BF021
:1004A0000E6E0EC00CF00F6A1B6A1C6A11500A0A0D
:1004B00003E11050D8B43ED00C500E6E0EC00CF0BC
:1004C0000F6A1B6A1C6A36D00650020F0E6E000EB1
:1004D00007201D6E000E08201E6E0EC006F01DC007
:1004E00007F01EC008F0FE0E0E26FF0E1D221E2273
:1004F0000EC0E9FF1DC0F3FF1E5099EC79F00E6E9F
:10050000F3CF1DF00EC00CF01DC00FF0E86A1DBE49
:10051000FF0E1B6E1C6E11500A0A02E110500AE019
:100520000C500E6E0F501D6E0EC00CF01DC00FF063
:100530001B6A1C6A0F0E196E740E0D6E800E1A6EF9
:100540001150D8B440D0105013E01150E56E0F0E8A
:10055000E56E740EE56E1C50E56E1B50E56E0F5097
:10056000E56E0C50E56E79EC31F0070EE12612D005
:100570001150E56E0F0EE56E740EE56E1C50E56EC3
:100580001B50E56E0F50E56E0C50E56E92EC5CF082
:10059000070EE12617502FE00DC0E9FF19C0F3FF49
:1005A0001A50B1EC7BF02D0A26E0FF0E0D26192221
:1005B0001A2218C0E5FF0DC0E9FF19C0F3FF1A5059
:1005C000ABEC7CF018D00CC0E5FF0DC0E9FF19C002
:1005D000F3FF1A50ABEC7CF00D50010F0C6E000EC7
:1005E00019200E6E000E1A20E56A0CC0E9FF0EC03D
:1005F000F3FFABEC7CF00DC00CF019C00EF01AC08C
:100600000FF013C010F0105010E00CC0E9FF0EC046
:10061000F3FF0F50B1EC7BF0116E115006E00C2A85
:1006200002E30E4A0F2A1006EED710C00CF0145049
:100630001CE109C00EF00AC00FF0105010E0155078
:10064000E56E0250E56E0150E56E0050E56EEDEC92
:1006500047F0040EE1260E4A0F2A1006EED70EC010
:1006600009F00FC00AF010C00CF016C00EF00DC05B
:100670000DF019C00FF01AC010F009C011F00AC037
:1006800013F00DC0E9FF0FC0F3FF1050B1EC7BF089
:10069000156E1550D8B43ED00EC015F0166A151E52
:1006A000161E1550161005E00EC015F00E0615505A
:1006B00031E00DC0E9FF0FC0F3FF1050B1EC7BF04B
:1006C000156E125010E01550E56E14EC79F0166EB0
:1006D000E652165004E0DF0E1514166E02D015C057
:1006E00016F016C015F01550E56E0250E56E01507B
:1006F000E56E0050E56EEDEC47F0040EE1260D2AA4
:1007000002E30F4A102A114A132A0C50D8B4B9D761
:100710000C06B7D711C009F013C00AF0145029E035
:1007200011C00DF013C00EF00C501FE0200EE56E4E
:100730000250E56E0150E56E0050E56EEDEC47F0BD
:10074000040EE1260D4A0E2A0C06EED70B50E56E7C
:100750000250E56E0150E56E0050E56EEDEC47F09D
:10076000040EE126094A0A2A04D00DC009F00EC081
:100770000AF0032A02E3044A052A7FEF00F00AC0C8
:10078000F3FF0950E4CF1EF0E4CF1DF0E4CF1CF0DE
:10079000E4CF1BF0E4CF1AF0E4CF19F0E4CF18F067
:1007A000E4CF17F0E4CF16F0E4CF15F0E4CF14F067
:1007B000E4CF13F0E4CF12F0E4CF11F0E4CF10F067
:1007C000E4CF0FF0E4CF0EF0E4CF0DF0E4CF0CF067
:1007D000E4CF0BF0E4CF0AF0E4CF09F0E4CF08F067
:1007E000E4CF07F0E4CF06F0E4CF05F0E4CF04F067
:1007F000E4CF03F0E4CF02F0E4CF01F0E4CF00F067
:10080000E4CFD9FF12003C4E4F20464C4F41543E9E
:100810000000496E707574206E616D657300000094
:1008200000000000000094FA00727B0000B600CACD
:10083000C30070C7000000000000000000000000BE
:1008400000000000000000000000000000000000A8
:1008500000000000496E707574206F6666736574E1
:10086000730000000000000094FA00CAB600384788
:10087000006C9C0000000000000000000000000070
:100880000000000000000000000000000000000068
:100890000000000000004368616E6E656C206F66AA
:1008A000667365747300000000001CE10036B5003B
:1008B00002450046D40000000000000000000000D7
:1008C0000000000000000000000000000000000028
:1008D0000000000000000000496E666F726D6174D8
:1008E000696F6E0000000000000000001EFC001494
:1008F00093003E35000000000000000000000000F2
:1009000000000000000000000000000000000000E7
:1009100000000000000000000000506172616D6581
:1009200074657273000000000000000000002EFCDF
:10093000006CB4002EA600DCCA000000000000001D
:1009400000000000000000000000000000000000A7
:100950000000000000000000000000004D61696E12
:10096000204D656E750000000000000000000000D2
:100970000000000000000000000000000000000572
:10098000120800540800960800D808001A09000050
:1009900000000000000000000000000000006E6F7A
:1009A000206974656D730000496E3A203C20252D46
:1009B000313273203E004F66667365743A202D25F0
:1009C000642E2564644200004F66667365743A20A5
:1009D0002B25642E256464420000496E3A203C2099
:1009E000252D3973203E0000206F6E006F66660073
:1009F0004E616D653A202573000043683A203C2023
:100A0000252D313273203E003C20252D31367320B8
:100A10003E0056616C75653A202564205B25735D48
:100A200000004368616E6E656C730000496E7075FE
:100A3000747300005374616E6462792074696D652B
:100A400000004F6E2074696D650053696C656E74AB
:100A50002074696D65005541525420726563656963
:100A6000766564003F005B25642F25645D00256486
:100A700020646179732025643A25643A2564000076
:100A800025643A256400256420627974657300004A
:100A90004C6F61642073657474696E677300536191
:100AA00076652073657474696E677300436C656165
:100AB000722073657474696E67730000456E7465A7
:100AC000722048572073657475702E2E000048619F
:100AD00072647761726520736574757000002573A8
:100AE0000000202020202020000020202000496E2F
:100AF000707574206E616D657300496E7075742039
:100B00006F666673657473004368616E6E656C2012
:100B10006F66667365747300496E666F726D61749B
:100B2000696F6E00506172616D657465727300006B
:100B30004D61696E204D656E7500417564696F2069
:100B400043617374000000417578696C6C6172795F
:100B500000000000426C752D526179000000000019
:100B6000004361626C650000000000000000434427
:100B700020506C6179657200000000436F6D7075E4
:100B8000746572000000000044564420506C617986
:100B9000657200000048545043000000000000004F
:100BA00000004D6564696120506C61796572005088
:100BB000686F6E6F00000000000000005265636502
:100BC000697665720000000000536174656C6C69A1
:100BD00074650000000054617065000000000000B2
:100BE00000000054656C65766973696F6E000000E3
:100BF00054756E657200000000000000005456201D
:100C000052656365697665720000566964656F00B8
:100C1000000000000000000053746572656F2069D9
:100C20006E7075743F00352E3120696E7075743F9B
:100C3000000044414320696E7075743F0000557395
:100C400065204353333331383F0043533333313816
:100C500020747970653F00003F00796573006E6F06
:100C60000000352E316368003178386368003278CF
:100C70003863680020204D55544544002D696E6648
:100C8000206442002D2532640000202D25316400AF
:100C9000252B3264000020252B3164002E35000006
:100CA0002E30000064420000646163310000646122
:100CB00063320000646163330000646163340000E8
:100CC000646163350000646163360000646163370A
:100CD0000000646163380000616E616C6F67310011
:100CE000616E616C6F673200616E616C6F673300BB
:100CF000616E616C6F673400616E616C6F673500A7
:100D0000616E616C6F673600616E616C6F67370092
:100D1000616E616C6F673800656570726F6D202D54
:100D20003E2025642062797465730000256420628A
:100D300079746573202D3E20656570726F6D0000BB
:100D4000506F776572757020766F6C756D650000F9
:100D50004175746F2D6F66662074696D6500496E0C
:100D60006672617265642061646472657373000009
:100D70004C43442064656C6179004C43442077699E
:100D800064746800766F6C2D706F77657275700093
:100D900074696D652D6175746F2D6F66660069727B
:100DA0002D61646472006C63642D64656C6179000C
:100DB0006C63642D7769647468006D696E002D0042
:100DC000313030757300417564696F20436173740D
:100DD0000000417578696C6C61727900426C752D08
:100DE000526179004361626C6500434420506C613C
:100DF00079657200436F6D707574657200004456BA
:100E00004420506C617965720000485450430000E2
:100E10004D6564696120506C6179657200005068AD
:100E20006F6E6F005265636569766572000053618D
:100E300074656C6C6974650054617065000054657C
:100E40006C65766973696F6E000054756E6572002B
:100E5000545620526563656976657200566964650B
:100E60006F00E806E56E630E50EC07F0630E95EC3C
:100E700007F0090EA8EC07F0E45011E000D0E56E91
:100E8000630E50EC07F0630E95EC07F0090EA8EC2A
:100E900007F000D000D00000E450E82EF0D7120098
:100EA000E806E56E090E82EC07F0630EA8EC07F089
:100EB000E4500EE000D0E56E090E82EC07F0630E00
:100EC000A8EC07F000D000D00000E450E82EF3D7E3
:100ED0001200E806E56E630E82EC07F0630EA8ECE4
:100EE00007F0E4500EE000D0E56E630E82EC07F0F0
:100EF000630EA8EC07F000D000D00000E450E82E0C
:100F0000F3D71200E806E56E630EA8EC07F0E45094
:100F10000BE000D0E56E630EA8EC07F000D000D027
:100F20000000E450E82EF6D71200E806E56E090E40
:100F3000A8EC07F0E4500BE000D0E56E090EA8EC39
:100F400007F000D0E450000000D0E82EF6D71200E1
:100F5000E8060000E85007E000D000D000D000D044
:100F60000000E82EFAD71200D9CFE5FFE1CFD9FF74
:100F700000C0E5FF01C0E5FF02C0E5FF03C0E5FFDB
:100F80000001FC51D8B42DD1060E0001FA6F00010A
:100F90009F6B040E00019E6F010E00019C6F010EFD
:100FA0000001A76F0D0E0001A66F020E0001A46FD5
:100FB000020E0001AF6F060E0001AE6F040E0001BD
:100FC000AC6F030E0001B76F010E0001B66F080E83
:100FD0000001B46F040E0001BF6F050E0001BE6F6B
:100FE000100E0001BC6F0001FB51D8B49AD0000173
:100FF000FA51006E040E002600500001FA6F080E30
:101000000001C76F0D0E0001C66F200E0001C46FF6
:101010000001C56B090E0001CF6F0F0E0001CE6FEE
:10102000200E0001CC6F010E0001CD6F0A0E0001F1
:10103000D76F050E0001D66F200E0001D46F020E8F
:101040000001D56F0B0E0001DF6F010E0001DE6F96
:10105000200E0001DC6F030E0001DD6F0C0E00019D
:10106000E76F080E0001E66F200E0001E46F040E2A
:101070000001E56F006A4AEC7DF0016E0150005CF2
:1010800025E20050080DF3CF01F09A0E0124026E04
:10109000036A000E0322060E0226D8B0032A02C0FD
:1010A000E9FF03C0EAFF020EEF6E026A9A0E012604
:1010B000000E0222070E0126D8B0022A01C0E9FF65
:1010C00002C0EAFF020EEF6E002AD5D70001FD51E3
:1010D000D8B40ED10001FA51006E002A002A005047
:1010E0000001FA6F060E0001EF6F020E0001EE6FB5
:1010F000850E0001F06F850E0001F16F400E0001BA
:10110000EC6F070E0001F76F070E0001F66F850EFA
:101110000001F86F850E0001F96F800E0001F46F79
:10112000E7D0050E0001C76F0E0E0001C66F200E3E
:101130000001C46F006A4AEC7DF0016E0150005C52
:1011400025E20050080DF3CF01F09A0E0124026E43
:10115000036A000E0322060E0226D8B0032A02C03C
:10116000E9FF03C0EAFF020EEF6E026A9A0E012643
:10117000000E0222070E0126D8B0022A01C0E9FFA4
:1011800002C0EAFF020EEF6E002AD5D70001FD5122
:10119000D8B4AED00001FA51006E002A002A0050E7
:1011A0000001FA6F060E0001CF6F070E0001CE6F2F
:1011B000850E0001D06F850E0001D16F400E000139
:1011C000CC6F070E0001D76F060E0001D66F850E9B
:1011D0000001D86F850E0001D96F800E0001D46F19
:1011E00087D00001FB51D8B45CD0050E0001FA6F26
:1011F000080E00019F6F0D0E00019E6F00019D6B98
:10120000090E0001A76F070E0001A66F010E000175
:10121000A56F0A0E0001AF6F050E0001AE6F020E42
:101220000001AD6F0B0E0001B76F010E0001B66F2C
:10123000030E0001B56F0C0E0001BF6F080E000118
:10124000BE6F040E0001BD6F006A4AEC7DF0016EB6
:101250000150005CD8B04CD00050080DF3CF01F025
:101260009A0E0124026E036A000E0322060E022665
:10127000D8B0032A02C0E9FF03C0EAFF020EEF6EF6
:10128000026A9A0E0126000E0222070E0126D8B02D
:10129000022A01C0E9FF02C0EAFF020EEF6E002A37
:1012A000D4D7010E0001FA6F00019F6B070E0001F9
:1012B0009E6F0001FF5107E1850E0001A06F850EB2
:1012C0000001A16F15D00001FF51010A07E1080ECE
:1012D0000001A06F080E0001A16F0AD00001FF51AC
:1012E000020A06E1100E0001A06F100E0001A16FAE
:1012F000006A4AEC7DF0016E0150005C1FE2005074
:10130000080DF3CF01F09A0E0124026E036A000E5D
:101310000322024A032A02C0E9FF03C0EAFF010ECA
:10132000EF6E026A9A0E0126000E022201C0E9FF4A
:1013300002C0EAFF000EEF6E002ADBD7006A8EECD7
:1013400070F0016E0150005C0EE28A0E0024016E06
:10135000026A000E022201C0E9FF02C0EAFF000E8D
:10136000EF6E002AECD7D80E0001806F0001816972
:101370000001826B0001836B0001846B0001856BAF
:101380000001866B0001876B140E0001886F00015D
:10139000896B000E016E800E006E800E026E800E54
:1013A000E56E0250E56E0150E56E0050E56E90EC82
:1013B00053F0006E040EE12600500901F26F000E9A
:1013C000E56E3AEC7BF0E652E4CF03F0E4CF02F0B6
:1013D000E4CF01F0E4CF00F0E4CFD9FF1200D9CF81
:1013E000E5FFE1CFD9FF00C0E5FF01C0E5FF02C086
:1013F000E5FF03C0E5FF04C0E5FF05C0E5FF06C04B
:10140000E5FF07C0E5FF08C0E5FF09C0E5FF0AC02A
:10141000E5FF0BC0E5FF030EE56EE0EC6DF0006E3E
:10142000F3CF01F0E65200C001F0026A000E056E33
:10143000890E046E5E0E036E090E076E000E066EB8
:10144000800E086E0250E56E0150E56E0550E56EA7
:101450000450E56E0350E56E0850E56E0750E56EEA
:101460000650E56E77EC48F0080EE126090E026E94
:10147000000E016E800E036E0350E56E0250E56EA5
:101480000150E56E80EC68F0030EE126040EE56E77
:10149000E0EC6DF0016EF3CF02F0E65201C002F015
:1014A000036A000E066E890E056E6C0E046E090E40
:1014B000086E000E076E800E096E0350E56E025036
:1014C000E56E0650E56E0550E56E0450E56E095078
:1014D000E56E0850E56E0750E56E77EC48F0080EB3
:1014E000E126090E036E000E026E800E046E04509B
:1014F000E56E0350E56E0250E56E80EC68F0030E79
:10150000E1260050E56ED3EC75F0E6520150E56E31
:10151000CAEC7CF0E652400EE56E9AEC4AF0E652D8
:10152000000EE56E8BEC76F0E652000EE56E8BEC6D
:1015300076F0E652000EE56E8BEC76F0E652000E89
:10154000E56E8BEC76F0E652000EE56E8BEC76F0F5
:10155000E652000EE56E8BEC76F0E6521F0EE56E5D
:101560008BEC76F0E652000EE56E8BEC76F0E652F0
:10157000480EE56E9AEC4AF0E652000EE56E8BECF2
:1015800076F0E652000EE56E8BEC76F0E652000E39
:10159000E56E8BEC76F0E652000EE56E8BEC76F0A5
:1015A000E6521F0EE56E8BEC76F0E6521F0EE56EEE
:1015B0008BEC76F0E6521F0EE56E8BEC76F0E65281
:1015C000000EE56E8BEC76F0E652500EE56E9AEC6E
:1015D0004AF0E652000EE56E8BEC76F0E652000E15
:1015E000E56E8BEC76F0E6521F0EE56E8BEC76F036
:1015F000E6521F0EE56E8BEC76F0E6521F0EE56E9E
:101600008BEC76F0E6521F0EE56E8BEC76F0E65230
:101610001F0EE56E8BEC76F0E652000EE56E8BEC5D
:1016200076F0E652580EE56E9AEC4AF0E6521F0E3E
:10163000E56E8BEC76F0E6521F0EE56E8BEC76F0E5
:10164000E6521F0EE56E8BEC76F0E6521F0EE56E4D
:101650008BEC76F0E6521F0EE56E8BEC76F0E652E0
:101660001F0EE56E8BEC76F0E6521F0EE56E8BECEE
:1016700076F0E652000EE56E8BEC76F0E652600EE8
:10168000E56E9AEC4AF0E652070EE56E8BEC76F0CA
:10169000E652080EE56E8BEC76F0E652100EE56E23
:1016A0008BEC76F0E652160EE56E8BEC76F0E65299
:1016B0000E0EE56E8BEC76F0E6520E0EE56E8BECC0
:1016C00076F0E652060EE56E8BEC76F0E652000EF2
:1016D000E56E8BEC76F0E652680EE56E9AEC4AF019
:1016E000E6521C0EE56E8BEC76F0E652020EE56ECD
:1016F0008BEC76F0E652010EE56E8BEC76F0E6525E
:101700000D0EE56E8BEC76F0E6520E0EE56E8BEC70
:1017100076F0E6520E0EE56E8BEC76F0E6520C0E8D
:10172000E56E8BEC76F0E652000EE56E8BEC76F013
:10173000E6520C0EE56E9AEC4AF0E65266EC6CF05E
:10174000006EF3CF01F0F4CF02F0010EE56E010E52
:10175000E56E000EE56E0250E56E0150E56E00503C
:10176000E56E20EC4BF0060EE1267DEC74F0006E89
:10177000F3CF01F0F4CF02F09BEC74F0036EF3CFE3
:1017800004F0F4CF05F0000E086E890E076E7A0E95
:10179000066E090E0A6E000E096E800E0B6E025068
:1017A000E56E0150E56E0050E56E0550E56E0450A3
:1017B000E56E0350E56E0850E56E0750E56E065085
:1017C000E56E0B50E56E0A50E56E0950E56E77EC5C
:1017D00048F00C0EE126090E016E000E006E800E20
:1017E000026E010EE56E000EE56E400EE56E0250D3
:1017F000E56E0150E56E0050E56E20EC4BF0060EF4
:10180000E126010EE56EC4EC79F0E652E4CF0BF070
:10181000E4CF0AF0E4CF09F0E4CF08F0E4CF07F01A
:10182000E4CF06F0E4CF05F0E4CF04F0E4CF03F01A
:10183000E4CF02F0E4CF01F0E4CF00F0E4CFD9FF31
:101840001200D9CFE5FFE1CFD9FF00C0E5FF01C00D
:10185000E5FF02C0E5FF03C0E5FF04C0E5FF05C0EA
:10186000E5FF06C0E5FF020EDBCF00F018EC7BF0D1
:10187000016E015001E0C6D1005002E00801436B47
:10188000A4EC76F0016E015002E1005027E0800EDA
:10189000E56E9AEC4AF0E65241EC7DF0016E0150A3
:1018A000E56E56EC5DF0016EF3CF02F0F4CF03F07D
:1018B000E6520350E56E0250E56E0150E56E38ECDD
:1018C00069F0016E030EE1260E0E015C07E2200EA8
:1018D000E56E8BEC76F0E652012AF6D7FDEC78F057
:1018E000016E0150D8B4CBD0A1EC78F0016E0B01A1
:1018F0004951011808E1A4EC76F0016E015003E1B2
:101900000050D8B47FD1CFEC78F0016EF90E0126EB
:101910000150E56EB5EC77F0E652000E036E0A0E4C
:10192000026EE20E016E0350E56E0250E56E01504C
:10193000E56E38EC69F0030EE126A1EC78F0016E5B
:101940000150D8B44CD0010E026EBD0E016E800E57
:10195000036EFBEC37F0046EF3CF05F0F4CF06F026
:101960000650E56E0550E56E0450E56E0350E56ED9
:101970000250E56E0150E56ECFEC59F0060EE126FF
:10198000CFEC78F0016E010E036EBD0E026E800E7C
:10199000046E0450E56E0350E56E0250E56EBEEC39
:1019A00068F0026EF3CF03F0030EE1260250015CF3
:1019B000026E0250E56EB5EC77F0E652010E026E53
:1019C000BD0E016E800E036E0350E56E0250E56E93
:1019D0000150E56E38EC69F0030EE1264BD0010EA4
:1019E000026EBD0E016E800E036EBBEC2FF0046E16
:1019F000F3CF05F0F4CF06F00650E56E0550E56E26
:101A00000450E56E0350E56E0250E56E0150E56E40
:101A1000CFEC59F0060EE126CFEC78F0016E010E06
:101A2000036EBD0E026E800E046E0450E56E035010
:101A3000E56E0250E56EBEEC68F0026EF3CF03F087
:101A4000030EE1260250015C026E0250E56EB5EC19
:101A500077F0E652010E026EBD0E016E800E036E2F
:101A60000350E56E0250E56E0150E56E38EC69F00A
:101A7000030EE126A1EC78F00B01496FC3D001EC15
:101A80007AF0016E0150D8B4BDD0EDEC79F0016E62
:101A9000015005E00DEC3FF0016E015008E1A4ECAF
:101AA00076F0016E015003E10050D8B4ABD00AECDF
:101AB0006FF0006EF3CF01F0F4CF02F0E9CF03F046
:101AC000CFEC78F0046EF90E04260450E56EB5EC08
:101AD00077F0E652000E066E0A0E056EEA0E046EF0
:101AE0000650E56E0550E56E0450E56E38EC69F081
:101AF000030EE1260350E56E0250E56E0150E56EDF
:101B00000050E56E3E0EE56E800EE56E000EE56E51
:101B1000000EE56E47EC46F0046E080EE126045018
:101B200006E0000EE56E8BEC76F0E65205D0200E56
:101B3000E56E8BEC76F0E6520350E56E0250E56EF2
:101B40000150E56E0050E56E3F0EE56E000EE56E4D
:101B5000000EE56E000EE56E47EC46F0046E080ED2
:101B6000E126045006E0010EE56E8BEC76F0E652BD
:101B700005D0200EE56E8BEC76F0E6520350E56E54
:101B80000250E56E0150E56E0050E56E3F0EE56EC9
:101B9000400EE56E000EE56E000EE56E47EC46F079
:101BA000046E080EE126045006E0020EE56E8BEC92
:101BB00076F0E65205D0200EE56E8BEC76F0E6521C
:101BC0000350E56E0250E56E0150E56E0050E56E83
:101BD0003F0EE56E800EE56E000EE56E000EE56EC2
:101BE00047EC46F0006E080EE126005006E0030EBA
:101BF000E56E8BEC76F0E65205D0200EE56E8BECB0
:101C000076F0E652E4CF06F0E4CF05F0E4CF04F03E
:101C1000E4CF03F0E4CF02F0E4CF01F0E4CF00F032
:101C2000E4CFD9FF1200D9CFE5FFE1CFD9FF00C043
:101C3000E5FF01C0E5FF02C0E5FF03C0E5FF04C00A
:101C4000E5FF05C0E5FF06C0E5FF07C0E5FF08C0EA
:101C5000E5FF09C0E5FF0AC0E5FF0BC0E5FFA0EC0A
:101C60007CF0006EF3CF01F053EC7DF053EC7DF08F
:101C7000026E02501DE0000E046E0C0E036E740E18
:101C8000026E090E066EE40E056E800E076E04509D
:101C9000E56E0350E56E0250E56E0750E56E0650A6
:101CA000E56E0550E56E77EC48F0060EE1266AD148
:101CB0000050026E0150036E0350800F810F02E14D
:101CC000410E025C1DE2000E066E0C0E056E7C0ECF
:101CD000046E090E086EE40E076E800E096E065043
:101CE000E56E0550E56E0450E56E0950E56E08504E
:101CF000E56E0750E56E77EC48F0060EE12642D11E
:101D00000150800F810F02E1ED0E005C36E2011CF4
:101D1000056E001C046E044A052A000EE56E020ED4
:101D2000E56E0550E56E0450E56E80EC54F0046EEF
:101D3000F3CF05F0040EE126000E086E0C0E076EC0
:101D4000840E066E090E0A6EE40E096E800E0B6E8E
:101D50000550E56E0450E56E0850E56E0750E56EDF
:101D60000650E56E0B50E56E0A50E56E0950E56EC3
:101D700077EC48F0080EE1269ED0D88003AED890CC
:101D800034E3011E006CD8B4012A000EE56E020E89
:101D9000E56E0150E56E0050E56E80EC54F0006E8B
:101DA000F3CF01F0040EE126000E066E0C0E056E58
:101DB0008A0E046E090E086EE40E076E800E096E20
:101DC0000150E56E0050E56E0650E56E0550E56E7B
:101DD0000450E56E0950E56E0850E56E0750E56E5B
:101DE00077EC48F0080EE12666D00350800F800F94
:101DF00002E1140E025C30E3000EE56E020EE56EA9
:101E00000350E56E0250E56E80EC54F0006EF3CFA7
:101E100001F0040EE126000E066E0C0E056E900E0B
:101E2000046E090E086EE40E076E800E096E0150F6
:101E3000E56E0050E56E0650E56E0550E56E045007
:101E4000E56E0950E56E0850E56E0750E56E77ECDB
:101E500048F0080EE1262FD0000EE56E020EE56E6A
:101E60000350E56E0250E56E80EC54F0006EF3CF47
:101E700001F0040EE126000E066E0C0E056E960EA5
:101E8000046E090E086EE40E076E800E096E015096
:101E9000E56E0050E56E0650E56E0550E56E0450A7
:101EA000E56E0950E56E0850E56E0750E56E77EC7B
:101EB00048F0080EE126000EE56E020EE56E0350B6
:101EC000E56E0250E56EB4EC57F0006EF3CF01F012
:101ED000040EE126005001101DE0090E016EE40E13
:101EE000006E800E026E000E056E0C0E046E9C0ECF
:101EF000036E0550E56E0450E56E0350E56E02502A
:101F0000E56E0150E56E0050E56EE3EC55F0060E0F
:101F1000E1261CD0090E016EE40E006E800E026EEA
:101F2000000E056E0C0E046EA00E036E0550E56EDD
:101F30000450E56E0350E56E0250E56E0150E56E0B
:101F40000050E56EE3EC55F0060EE126090E016E39
:101F5000E40E006E800E026E000E056E0C0E046E16
:101F6000A40E036E0550E56E0450E56E0350E56E59
:101F70000250E56E0150E56E0050E56EE3EC55F061
:101F8000060EE126090E016EE40E006E800E026E52
:101F900002C0F4FF01C0F3FF0050E4CF0BF0E4CF28
:101FA0000AF0E4CF09F0E4CF08F0E4CF07F0E4CF83
:101FB00006F0E4CF05F0E4CF04F0E4CF03F0E4CF83
:101FC00002F0E4CF01F0E4CF00F0E4CFD9FF12003B
:101FD000D9CFE5FFE1CFD9FFECC8F3FF0801EB5102
:101FE000E4CFD9FF12005B494E464F5D3A25730A94
:101FF00000005B5741524E494E475D3A25730A0037
:102000005B4552524F525D3A25730A005B45564577
:102010004E545D3A25730A005B44454255475D3A8C
:1020200025730A005B53594E5441585D3A2025737D
:102030002025730A0000426F6F746C6F61646572D3
:1020400020726573657400004F76657272756E005C
:10205000627573790000082008004C696E65207471
:102060006F6F206C6F6E6700556E6B6E6F776E20B2
:10207000636D643A2025730A000020706F776572E3
:10208000206F6E0A000020696E70206E616D653AE7
:102090002025730A000020696E7020747970653AFB
:1020A0002025730A000020696E702063683A20259D
:1020B000730A0000206F7574702063683A202573DE
:1020C0000A0020766F6C3A2025640A0020706F7732
:1020D0006572206F66660A00506172733A0A0000EA
:1020E000202531307320282573293A202564205B70
:1020F00025735D0A0000556E6B6E6F776E20706100
:10210000723A2025730A0000436D64206C69737471
:102110003A0A000025313073202D2025730A000073
:102120003C6F6E7C6F66663E00006F6E00006F66EF
:102130006600756E6B6E6F776E207061723A202547
:10214000730A00006C6F61640000736176650000C3
:10215000636C6561720064656661756C74007365BB
:10216000747570003C6C6F61647C736176657C6330
:102170006C6561727C64656661756C747C73657492
:1021800075703E0025730A00696E63006465630024
:10219000736574003C7365747C696E637C6465630D
:1021A0003E006E65787400007072657600003C73C6
:1021B00065747C6E6578747C707265763E203C76C2
:1021C000616C75653E006F666673657400007368C8
:1021D0006F7700004F66667365742063682025641E
:1021E00020282573293A2025640A00003C73686F73
:1021F000777C6F66667365743E203C6368616E6EC3
:10220000656C3E203C76616C7565205B302E3564D4
:10221000625D3E000000706F776572006D656E75DF
:1022200000006C656674000072696768740073650D
:102230006C65637400003C706F7765727C6D656ED1
:10224000757C6C6566747C72696768747C73656C98
:102250006563743E00004465627567206C65766551
:102260006C203D202564000053686F7720737461F3
:10227000747573007665720053686F7720766572A7
:1022800073696F6E00007265626F6F740000526553
:10229000626F6F7400007061720050617220667529
:1022A0006E6374696F6E7300766F6C756D65000098
:1022B000566F6C2066756E6374696F6E7300696E1D
:1022C00070757400496E702066756E6374696F6E08
:1022D00073006368616E6E656C0043682066756E9E
:1022E0006374696F6E7300007469746C650044698F
:1022F00073706C6179207469746C6500506F7765D8
:1023000072206F6E2F6F666600006D757465000039
:102310004D7574652F756E6D757465007365747495
:10232000696E6773000053657474696E67730000AB
:10233000627574746F6E0000456D756C6174652014
:10234000627574746F6E7300646200004368616E3E
:10235000676520646562756720696E666F006865F1
:102360006C700000446973706C61792068656C70F2
:102370000000200A282C293B0000D9CFE5FFE1CF3F
:10238000D9FF00C0E5FF01C0E5FF02C0E5FF03C0C3
:10239000E5FF04C0E5FF05C0E5FF08011B5108018A
:1023A0001C1108011D1101E1AAD11BC800F01CC8B5
:1023B00001F01DC802F0230E0026000E01220222A9
:1023C00000C0E9FF01C0F3FF0250B1EC7BF0006EEA
:1023D000005023E01BC800F01CC801F01DC802F02B
:1023E000240E0026000E0122022208011E51030DB8
:1023F000F3CF03F003500026E86A0122E86A0222C4
:1024000000C0E9FF01C0F3FF025009EC76F0006E56
:10241000F3CF01F0F4CF02F003D0006A016A026A40
:10242000010EE56E9AEC4AF0E652005001100210DF
:10243000D8B43DD0800EE56E9AEC4AF0E6521BC847
:1024400003F01CC804F01DC805F00550E56E0450EB
:10245000E56E0350E56E38EC69F0030EE126C00E20
:10246000E56E9AEC4AF0E6523C0EE56E8BEC76F0A7
:10247000E652200EE56E8BEC76F0E6520250E56EE9
:102480000150E56E0050E56E38EC69F0030EE12670
:10249000CFEC78F0006E00060050E56E9DEC77F012
:1024A000E6523E0EE56E8BEC76F0E65228D11BC864
:1024B00000F01CC801F01DC802F0140E0026000E2A
:1024C0000122022200C0E9FF01C0F3FF025009EC23
:1024D00076F0006EF3CF01F0F4CF02F0005001105F
:1024E0000210D8B40CD11BC800F01CC801F01DC8E4
:1024F00002F0170E0026000E0122022200C0E9FFA2
:1025000001C0F3FF025009EC76F0006EF3CF01F04A
:10251000F4CF02F0005001100210D8B4F0D01BC864
:1025200000F01CC801F01DC802F01A0E0026000EB3
:102530000122022200C0E9FF01C0F3FF025009ECB2
:1025400076F0006EF3CF01F0F4CF02F000500110EE
:102550000210D8B4D4D01BC800F01CC801F01DC8AC
:1025600002F0140E0026000E0122022200C0E9FF34
:1025700001C0F3FF025009EC76F0006EF3CF01F0DA
:10258000F4CF02F0F2CFE5FFF29E0500A80EFD6E3B
:10259000250EFE6E000EFF6EE4BEF28E02C0FBFF43
:1025A00001C0FAFF0050F96E006E800EE56E9AECE5
:1025B0004AF0E652005026E11BC800F01CC801F0AA
:1025C0001DC802F00250E56E0150E56E0050E56E48
:1025D00038EC69F0030EE126C00EE56E9AEC4AF085
:1025E000E652000E026E090E016E9E0E006E025043
:1025F000E56E0150E56E0050E56E38EC69F0030EB3
:10260000E1267DD01BC800F01CC801F01DC802F0F7
:10261000170E0026000E0122022200C0E9FF01C0B1
:10262000F3FF025009EC76F0006EF3CF01F0F4CF27
:1026300002F008011E51E56EF2CFE5FFF29E0500A3
:102640005C0EFD6E260EFE6E000EFF6EE4BEF28E78
:1026500002C0FBFF01C0FAFF0050F96E006EF3CF1D
:1026600001F0F4CF02F0E6520250E56E0150E56E43
:102670000050E56E38EC69F0030EE126C00EE56E01
:102680009AEC4AF0E6521BC800F01CC801F01DC8C5
:1026900002F01A0E0026000E0122022200C0E9FFFD
:1026A00001C0F3FF025009EC76F0006EF3CF01F0A9
:1026B000F4CF02F008011E51E56EF2CFE5FFF29E65
:1026C0000500DE0EFD6E260EFE6E000EFF6EE4BEF1
:1026D000F28E02C0FBFF01C0FAFF0050F96E006EDF
:1026E000F3CF01F0F4CF02F0E6520250E56E015054
:1026F000E56E0050E56E38EC69F0030EE126E4CF9C
:1027000005F0E4CF04F0E4CF03F0E4CF02F0E4CF2F
:1027100001F0E4CF00F0E4CFD9FF1200D9CFE5FFFC
:10272000E1CFD9FF00C0E5FF01C0E5FF02C0E5FF32
:1027300003C0E5FF04C0E5FF05C0E5FF06C0E5FFF7
:1027400007C0E5FF08C0E5FF09C0E5FF0AC0E5FFD7
:102750000BC0E5FF0CC0E5FF0DC0E5FF0EC0E5FFB7
:102760000FC0E5FF10C0E5FF11C0E5FF020EDBCF93
:1027700000F0030EDBCF01F0040EDBCF02F017EC0C
:102780007EF0036E090E056E380E046E800E066E26
:102790000650E56E0550E56E0450E56E0250E56E9C
:1027A0000150E56E0050E56EB7EC4EF0006E060E7F
:1027B000E1260050010A01E06BD003C001F0026A7B
:1027C000000E066E200E056ED80E046E0250E56EE9
:1027D0000150E56E0650E56E0550E56E0450E56E5D
:1027E00086EC67F0050EE126016A0350015CD8B063
:1027F0004ED00150E56EB5EC50F0026EF3CF04F010
:10280000F4CF05F0E6520150E56EE0EC6DF0066E97
:10281000F3CF07F0E6520150E56EA9EC51F0086ED7
:10282000F3CF09F0F4CF0AF0E6520150E56E2FEC39
:1028300051F00B6EF3CF0CF0F4CF0DF0E652000E1A
:10284000106E200E0F6EE00E0E6E0550E56E0450F9
:10285000E56E0250E56E0750E56E0650E56E0A50D3
:10286000E56E0950E56E0850E56E0D50E56E0C50B2
:10287000E56E0B50E56E1050E56E0F50E56E0E5094
:10288000E56E86EC67F00E0EE126012AAED7EAD09F
:102890000050020A01E07ED0016A026A0350025C25
:1028A000D8B0C7D03BC904F03CC905F03DC906F01B
:1028B0000250E56E2FEC51F0076EF3CF08F0F4CF25
:1028C00009F0E6520950E56E0850E56E0750E56ED6
:1028D0000650E56E0550E56E0450E56E31EC4DF0A6
:1028E000046EF3CF05F0060EE12604500510D8A4BF
:1028F0004DD00150E56EB5EC50F0046EF3CF05F00D
:10290000F4CF06F0E6520150E56EE0EC6DF0076E94
:10291000F3CF08F0E6520150E56EA9EC51F0096ED4
:10292000F3CF0AF0F4CF0BF0E6520150E56E2FEC36
:1029300051F00C6EF3CF0DF0F4CF0EF0E652000E16
:10294000116E200E106EE00E0F6E0650E56E0550F3
:10295000E56E0450E56E0850E56E0750E56E0B50CD
:10296000E56E0A50E56E0950E56E0E50E56E0D50AD
:10297000E56E0C50E56E1150E56E1050E56E0F508F
:10298000E56E86EC67F00E0EE1266CD0022A02C0DE
:1029900001F084D70050030A01E04BD0006A016ABD
:1029A0000350015CD8B045D03BC902F03CC904F0EB
:1029B0003DC905F00150E56E2FEC51F0066EF3CFE6
:1029C00007F0F4CF08F0E6520850E56E0750E56EC8
:1029D0000650E56E0550E56E0450E56E0250E56E5A
:1029E00031EC4DF0026EF3CF04F0060EE1260250FA
:1029F00004101BE109014051E56E09013F51E56EEC
:102A000009013E51E56E7AEC39F0026EF3CF04F025
:102A1000030EE1260450E56E0250E56E0050E56EAF
:102A200034EC42F0030EE1261DD0012A01C000F073
:102A3000B7D7000E026E200E016EF60E006E090171
:102A40003D51E56E09013C51E56E09013B51E56ED2
:102A50000250E56E0150E56E0050E56E86EC67F0C1
:102A6000060EE126E4CF11F0E4CF10F0E4CF0FF032
:102A7000E4CF0EF0E4CF0DF0E4CF0CF0E4CF0BF098
:102A8000E4CF0AF0E4CF09F0E4CF08F0E4CF07F098
:102A9000E4CF06F0E4CF05F0E4CF04F0E4CF03F098
:102AA000E4CF02F0E4CF01F0E4CF00F0E4CFD9FFAF
:102AB0001200D9CFE5FFE1CFD9FF00C0E5FF01C08B
:102AC000E5FF02C0E5FF03C0E5FF04C0E5FF05C068
:102AD000E5FF06C0E5FF07C0E5FF08C0E5FF09C048
:102AE000E5FF0AC0E5FF0BC0E5FF0CC0E5FF0EC027
:102AF000E5FF0FC0E5FF020EDBCF00F0030EDBCFDA
:102B000001F0040EDBCF02F0050EDBCF03F0060E62
:102B1000DBCF04F0070EDBCF05F0080EDBCF06F0AD
:102B2000090EDBCF07F000500B01086F0150096F51
:102B300002500A6F03500B6F04500B010C6F0550CD
:102B40000D6F06500E6F07500F6F0B0108510911E2
:102B50000A110B1106E00B010C510D110E110F1192
:102B600005E1E96AF46AF36AE86A4BD10B010B519B
:102B7000800BE844006E0B010F51800BE844001AF3
:102B80000B010A350B35016E026A820E0126D8A0B0
:102B900002060B010E350F35046A0126045002228D
:102BA0000B010851036E0951046E7F0E0A15056E64
:102BB000058E0350086F0450096F05500A6F0B6BA8
:102BC0000B010C51036E0D51046E7F0E0E15056E38
:102BD000058E03500C6F04500D6F05500E6F0F6B78
:102BE0000B010951036E0A51046E0B51056E0B0166
:102BF0000D51076E0E51086E0F51E56AE56E0850D3
:102C0000E56E0750E56EE56A0550E56E0450E56E29
:102C10000350E56EFFEC27F0036EF3CF04F0F4CF22
:102C200005F0E9CF06F0080EE1260B010851076E0A
:102C30000B010D510B6E0E510C6E0F51E56AE56ED6
:102C40000C50E56E0B50E56EE56AE56AE56A0750E3
:102C5000E56EFFEC27F0F3CF08F0F4CF09F0E9CFF1
:102C60000AF0080EE1260850076E0950086E0A5057
:102C7000096E0A6A035007260450082205500922EB
:102C800006500A220B010C51036E0B0109510B6E09
:102C90000A510C6E0B51E56AE56E0C50E56E0B5057
:102CA000E56EE56AE56AE56A0350E56EFFEC27F03C
:102CB000F3CF04F0F4CF05F0E9CF06F0080EE126DB
:102CC0000450036E0550046E0650056E066A0750E8
:102CD000032608500422095005220A500622400EFD
:102CE0000326000E04220522062206AE13D003504E
:102CF000400F000E0420086E000E0520096E000E25
:102D000006200A6E0850076E0950086E0A50096EB8
:102D10000A6A11D003340434076E086A0836055075
:102D2000E844FE0B081205340634096E0A6A0A36B6
:102D3000FF0E012602220750036E0850046E7F0E1C
:102D40000914056E0A50066E0250800F7F0F02E1D3
:102D5000000E015C19E3005006E0076A086A096A80
:102D6000800E0A6E04D0076A086A096A0A6A098E28
:102D70007F0E0A1207500B01086F0850096F0950A7
:102D80000A6F0A500B6F35D0D88002AED89006E398
:102D90000B01086B096B0A6B0B6B2BD0005006E024
:102DA000006A076A086A800E096E04D0006A076A22
:102DB000086A096AE86A023001300F6E0E6A0E3244
:102DC0000C6A0C50001207120E5008120F50091214
:102DD0000350001204500712055008120650091241
:102DE00000500B01086F0750096F08500A6F095017
:102DF0000B6F0BCBE9FF0ACBF4FF09CBF3FF0B0101
:102E00000851E4CF0FF0E4CF0EF0E4CF0CF0E4CFA4
:102E10000BF0E4CF0AF0E4CF09F0E4CF08F0E4CF00
:102E200007F0E4CF06F0E4CF05F0E4CF04F0E4CF00
:102E300003F0E4CF02F0E4CF01F0E4CF00F0E4CF00
:102E4000D9FF1200D9CFE5FFE1CFD9FF00C0E5FFE0
:102E500001C0E5FF02C0E5FF03C0E5FF04C0E5FFD8
:102E600005C0E5FF06C0E5FF020EDBCFFCF8DFEC96
:102E700071F032EC6FF0006EF3CF01F0F4CF02F09E
:102E8000E9CF03F08094809A928A010EE56E6DEC92
:102E90007BF0E65280AA11D0000E066E6F0E056E12
:102EA000940E046E0650E56E0550E56E0450E56E16
:102EB00080EC68F0030EE1263AD080BA28D00350A7
:102EC000E56E0250E56E0150E56E0050E56E3E0E77
:102ED000E56E4C0EE56ECC0EE56ECD0EE56E47EC64
:102EE00046F0006E080EE126005011E0000E026E62
:102EF0006F0E016EAE0E006E0250E56E0150E56E73
:102F00000050E56E80EC68F0030EE12610D0000E54
:102F1000026E6F0E016EC60E006E0250E56E01501D
:102F2000E56E0050E56E04EC68F0030EE126929A1F
:102F3000010EE56E6DEC7BF0E6520801FC51D8A461
:102F400043D0080E0801FA6F010E0801FB6F010E55
:102F5000E56E0E0EE56E000EE56ED5EC62F0030E2A
:102F6000E126E60EE56E070EE56E000EE56ED5EC89
:102F700062F0030EE126E60EE56E080EE56E000E29
:102F8000E56ED5EC62F0030EE126030EE56E100E41
:102F9000E56E000EE56ED5EC62F0030EE1263C0E08
:102FA000E56E130EE56E000EE56ED5EC62F0030ED5
:102FB000E126C00EE56E160EE56E000EE56ED5EC50
:102FC00062F0030EE126DED00801FC51010A01E0A7
:102FD0003CD0010EE56E0E0EE56E000EE56ED5ECF2
:102FE00062F0030EE126FF0EE56E100EE56E000E98
:102FF000E56ED5EC62F0030EE126000EE56E130ED1
:10300000E56E000EE56ED5EC62F0030EE126000ED3
:10301000E56E160EE56E000EE56ED5EC62F0030E61
:10302000E126600EE56E000EE56EFCEC68F0E652FF
:10303000E6520A0EE56E6DEC7BF0E652080E0801D2
:10304000FA6F010E0801FB6F9DD00801FC51020AC6
:1030500001E098D0010EE56E0E0EE56E000EE56EF5
:10306000D5EC62F0030EE126200EE56E0B0EE56E48
:10307000000EE56ED5EC62F0030EE1260D0EE56E56
:103080000C0EE56E000EE56ED5EC62F0030EE12647
:10309000FF0EE56E100EE56E000EE56ED5EC62F0EB
:1030A000030EE126000EE56E130EE56E000EE56ED2
:1030B000D5EC62F0030EE126000EE56E160EE56E0D
:1030C000000EE56ED5EC62F0030EE126600EE56EB3
:1030D000000EE56EFCEC68F0E652E6520A0EE56E74
:1030E0006DEC7BF0E652010EE56E0E0EE56E010E04
:1030F000E56ED5EC62F0030EE126200EE56E0B0EB8
:10310000E56E010EE56ED5EC62F0030EE1260D0EC4
:10311000E56E0C0EE56E010EE56ED5EC62F0030E69
:10312000E126FF0EE56E100EE56E010EE56ED5ECA4
:1031300062F0030EE126000EE56E130EE56E010E41
:10314000E56ED5EC62F0030EE126000EE56E160E7C
:10315000E56E010EE56ED5EC62F0030EE126700E11
:10316000E56E010EE56EFCEC68F0E652E6520A0EE2
:10317000E56E6DEC7BF0E652100E0801FA6F020E60
:103180000801FB6F006A0801FB51005C0CE2000EB5
:10319000E56E0E0EE56E0050E56ED5EC62F0030EA6
:1031A000E126002AF0D70A0EE56E6DEC7BF0E652C0
:1031B000E4CF06F0E4CF05F0E4CF04F0E4CF03F071
:1031C000E4CF02F0E4CF01F0E4CF00F0E4CFD9FF88
:1031D0001200D9CFE5FFE1CFD9FF00C0E5FF01C064
:1031E000E5FF02C0E5FF03C0E5FF04C0E5FF05C041
:1031F000E5FF06C0E5FF07C0E5FF08C0E5FF09C021
:10320000E5FF0AC0E5FF0BC0E5FF0CC0E5FF0DC000
:10321000E5FF0EC0E5FF0FC0E5FF10C0E5FF020EA1
:10322000DBCF00F0030EDBCF01F0040EDBCF02F0AA
:10323000050EDBCF03F0060EDBCF04F0070EDBCF6D
:1032400005F0080EDBCF06F0090EDBCF07F0086AA9
:10325000096A0A6A0B6A00500B01006F0150016F86
:103260000250026F0350036F04500B01046F0550AE
:10327000056F0650066F0750076F0B0100510111D3
:103280000211031109E107CBE9FF06CBF4FF05CBDF
:10329000F3FF0B0104512ED10B010451051106114E
:1032A000071109E103CBE9FF02CBF4FF01CBF3FFE8
:1032B0000B0100511FD10B0102350335006E016A6D
:1032C0000136026A036A016A0B0106350735026E90
:1032D000190F046E000E0320800FF36E0150800F53
:1032E000F35C02E10050045C09E203CBE9FF02CB8E
:1032F000F4FF01CBF3FF0B010051FCD00050190F7C
:10330000046E000E0120800FF36E0350800FF35CFB
:1033100002E10250045C09E207CBE9FF06CBF4FFAF
:1033200005CBF3FF0B010451E5D00B010051046EF6
:103330000151056E7F0E0215066E076A068E0B019F
:1033400004510C6E05510D6E7F0E06150E6E0F6A40
:103350000E8E0B010351800BE844106E10500AE0F2
:10336000071E061E051E046C05E1052A03E1062A58
:10337000D8B4072A0B010751800BE844106E105097
:103380000AE00F1E0E1E0D1E0C6C05E10D2A03E156
:103390000E2AD8B40F2A0350800FF36E0150800F0D
:1033A000F35C02E10050025C11E20050106E02502A
:1033B000105E10501FE0E86CD8900FBED8800F321E
:1033C0000E320D320C32010FF8E314D00250106EA1
:1033D0000050105E10500AE0E86CD89007BED8800C
:1033E0000732063205320432010FF8E302C000F062
:1033F00003C001F00C500424046E0D500520056E2E
:103400000E500620026E0F500720036ED88003AEC8
:10341000D89010E3031E021E051E046C05E1052A68
:1034200003E1022AD8B4032A086A096A0A6A800EEC
:103430000B6E0AD0045005100210031005E1E96A72
:10344000F46AF36AE86A56D00450066E0550076EB7
:1034500002500C6E03500D6E000E0D5C08E1800EE4
:103460000C5C05E1000E075C02E1000E065C09E25F
:1034700004500426053602360336FF0E00260122CC
:10348000E3D7035010E004A006D0020E0426000E7D
:1034900005220222032203340332023205320432AF
:1034A000004A012AEED7029EE86A013000300F6E12
:1034B0000E6A0E320C6A0C50081209120E500A12D3
:1034C0000F500B12045008120550091202500A1234
:1034D00003500B1208500B01006F0950016F0A5086
:1034E000026F0B50036F03CBE9FF02CBF4FF01CB5C
:1034F000F3FF0051E4CF10F0E4CF0FF0E4CF0EF073
:10350000E4CF0DF0E4CF0CF0E4CF0BF0E4CF0AF001
:10351000E4CF09F0E4CF08F0E4CF07F0E4CF06F001
:10352000E4CF05F0E4CF04F0E4CF03F0E4CF02F001
:10353000E4CF01F0E4CF00F0E4CFD9FF1200D9CFFF
:10354000E5FFE1CFD9FF00C0E5FF01C0E5FF02C004
:10355000E5FF03C0E5FF04C0E5FF05C0E5FF06C0C9
:10356000E5FF07C0E5FF08C0E5FF09C0E5FF0AC0A9
:10357000E5FF0BC0E5FF0CC0E5FF0DC0E5FF020E47
:10358000DBCF00F0060E005CD8B043D1FA6AFB6ACC
:103590000034FA36E834FA36FC0BAA0FE56E350E25
:1035A000FA22000EFB22E450F96EE1EF1AF00EEF62
:1035B0001BF03DEF1BF07AEF1BF0B7EF1BF0E4EFD1
:1035C0001BF08EEC70F0006E016AF4EC74F0026E89
:1035D000036A000E066E0A0E056E660E046E010E7C
:1035E000086EA80E076E800E096E0150E56E005041
:1035F000E56E0350E56E0250E56E0650E56E05502F
:10360000E56E0450E56E0950E56E0850E56E075012
:10361000E56E77EC48F00A0EE126FBD04AEC7DF02F
:10362000006E016A41EC7DF0026E036A024A032AD1
:10363000000E066E0A0E056E660E046E010E086E12
:10364000A80E076E800E096E0150E56E0050E56E03
:103650000350E56E0250E56E0650E56E0550E56ECE
:103660000450E56E0950E56E0850E56E0750E56EB2
:1036700077EC48F00A0EE126CCD0B6EC7DF0006E77
:10368000016AADEC7DF0026E036AA4EC7DF0046E7D
:10369000056A9BEC7DF0066E076A000E0A6E0A0E44
:1036A000096E6E0E086E010E0C6EA80E0B6E800E6B
:1036B0000D6E0150E56E0050E56E0350E56E025050
:1036C000E56E0550E56E0450E56E0750E56E065058
:1036D000E56E0A50E56E0950E56E0850E56E0D5036
:1036E000E56E0C50E56E0B50E56E77EC48F00E0E73
:1036F000E1268FD092EC7DF0006E016A89EC7DF0BE
:10370000026E036A80EC7DF0046E056A77EC7DF052
:10371000066E076A000E0A6E0A0E096E6E0E086EBD
:10372000010E0C6EA80E0B6E800E0D6E0150E56E34
:103730000050E56E0350E56E0250E56E0550E56EF3
:103740000450E56E0750E56E0650E56E0A50E56ED2
:103750000950E56E0850E56E0D50E56E0C50E56EB3
:103760000B50E56E77EC48F00E0EE12652D0BFEC20
:103770007DF0006E016AC8EC7DF0026E036A000EF7
:10378000066E0A0E056E800E046E010E086EA80EFF
:10379000076E800E096E0150E56E0050E56E035015
:1037A000E56E0250E56E0650E56E0550E56E04507C
:1037B000E56E0950E56E0850E56E0750E56E77EC52
:1037C00048F00A0EE12625D0E8EC0FF0006EF3CFAA
:1037D00001F0000E046E0A0E036E860E026E010EDC
:1037E000066EA80E056E800E076E0150E56E005045
:1037F000E56E0450E56E0350E56E0250E56E07502D
:10380000E56E0650E56E0550E56E77EC48F0080E63
:10381000E126010E016EA80E006E800E026E02C03F
:10382000F4FF01C0F3FF0050E4CF0DF0E4CF0CF043
:10383000E4CF0BF0E4CF0AF0E4CF09F0E4CF08F0D6
:10384000E4CF07F0E4CF06F0E4CF05F0E4CF04F0D6
:10385000E4CF03F0E4CF02F0E4CF01F0E4CF00F0D6
:10386000E4CFD9FF1200D9CFE5FFE1CFD9FF00C0E7
:10387000E5FF01C0E5FF02C0E5FF03C0E5FF04C0AE
:10388000E5FF05C0E5FF06C0E5FF07C0E5FF08C08E
:10389000E5FF09C0E5FF0AC0E5FF0BC0E5FF0CC06E
:1038A000E5FF0DC0E5FF0EC0E5FF0FC0E5FF10C04E
:1038B000E5FF000E026E890E016EE20E006E0250F0
:1038C000E56E0150E56E0050E56E010EE56E15ECFB
:1038D0005EF0040EE1266FEC72F002EC7DF0006EFB
:1038E000F9EC7CF0016EE7EC7CF0026E23EC74F0F6
:1038F000036E02C004F0056A066A076AC6EC67F048
:10390000086EF3CF09F0F4CF0AF0000E0D6E890EA9
:103910000C6EEC0E0B6E0A0E0F6EB20E0E6E800E5B
:10392000106E0550E56E0450E56E0650E56E0150D0
:10393000E56E0750E56E0050E56E0A50E56E0950E1
:10394000E56E0850E56E0D50E56E0C50E56E0B50BF
:10395000E56E1050E56E0F50E56E0E50E56E77EC9B
:1039600048F00F0EE1260A0E016EB20E006E800EB8
:10397000046E0450E56E0150E56E0050E56E020ED7
:10398000E56E15EC5EF0040EE12603C000F0016A5E
:10399000000E066E8A0E056E020E046E0A0E086E8A
:1039A000B20E076E800E096E0150E56E0050E56E96
:1039B0000650E56E0550E56E0450E56E0950E56E63
:1039C0000850E56E0750E56E77EC48F0080EE126EA
:1039D0000A0E016EB20E006E800E046E0450E56E8B
:1039E0000150E56E0050E56E020EE56E15EC5EF0DE
:1039F000040EE126025008E103500C0A05E1010E15
:103A0000E56EB4EC6DF0E6525CEC7DF0006E0050BB
:103A100001E17DD00250D8A466D00350200A03E013
:103A20000350560A06E1040EE56EB4EC6DF0E65262
:103A300047D00350210A03E00350550A06E1030E64
:103A4000E56EB4EC6DF0E6523BD003503B0A03E068
:103A50000350520A06E1020EE56EB4EC6DF0E65238
:103A60002FD00350250A06E1050EE56EB4EC6DF08B
:103A7000E65226D00350100A06E1010EE56EF9EC7D
:103A80006CF0E6521DD00350110A06E1FF0EE56E00
:103A9000F9EC6CF0E65214D00350380A03E1B6ECAE
:103AA0005DF00ED0010E035C0BE30A0E035C08E22E
:103AB0000350006E00060050E56EFAEC40F0E6524E
:103AC00003500D0A10E153EC7DF0006E005006E04B
:103AD000000EE56EE5EC77F0E65205D0010EE56EDE
:103AE000E5EC77F0E652060E025C11E30350100A93
:103AF00006E1020EE56EF9EC6CF0E65208D00350D8
:103B0000110A05E1FE0EE56EF9EC6CF0E652E4CF29
:103B100010F0E4CF0FF0E4CF0EF0E4CF0DF0E4CFDF
:103B20000CF0E4CF0BF0E4CF0AF0E4CF09F0E4CFDF
:103B300008F0E4CF07F0E4CF06F0E4CF05F0E4CFDF
:103B400004F0E4CF03F0E4CF02F0E4CF01F0E4CFDF
:103B500000F0E4CFD9FF1200D8CFE5FFE0CFE5FFBA
:103B6000E56EF3CFE5FFF4CFE5FFE9CFE5FFEACF60
:103B7000E5FFFACFE5FFFBCFE5FFD9CFE5FFE1CFCA
:103B8000D9FF00C0E5FF01C0E5FF010EE56EE0ECE6
:103B90006DF0006EF3CF01F0E65247C801F0012846
:103BA0000801476F130E0801475DD8A061D049C8CE
:103BB00001F001280801496F0801476B3C0E08011C
:103BC000495D07E34AC801F0012808014A6F08016E
:103BD000496B80A027D05AC801F0012808015A6F0C
:103BE0003C0E08015A5D07E35BC801F0012808019B
:103BF0005B6F08015A6B3C0E08015B5D07E35CC814
:103C000001F0012808015C6F08015B6B180E0801C8
:103C10005C5D2EE35DC801F0012808015D6F0801BD
:103C20005C6B26D056C801F001280801566F3C0E87
:103C30000801565D07E357C801F001280801576FD6
:103C40000801566B3C0E0801575D07E358C801F0A8
:103C500001280801586F0801576B180E0801585DBC
:103C600007E359C801F001280801596F0801586B92
:103C700048C801F001280801486F050E0801485D99
:103C800011E30801486B5CEC7DF0016E01500AE025
:103C90002FEC7DF0016E015005E00D0EE56EB4ECE9
:103CA0006DF0E6523D0EE56ECC0EE56ECC0EE56E87
:103CB000CD0EE56E08014E51E56E08014D51E56EE1
:103CC00008014C51E56E08014B51E56E47EC46F09A
:103CD000016E080EE126015006E053C801F00128EC
:103CE0000801536F06D00801536B0801546B08019B
:103CF000556B130E0801535D22E354C801F00128EF
:103D00000801546F0801536B3C0E0801545D17E322
:103D100055C801F001280801556F0801546B5CEC8F
:103D20007DF0016E01500BE0005009E00801555193
:103D3000001805E1090EE56EB4EC6DF0E65221ECD9
:103D400077F0006E005005E0010EE56EB4EC6DF00A
:103D5000E65208EC77F0006E005005E0020EE56ECA
:103D6000B4EC6DF0E652EFEC76F0006E005005E03A
:103D7000030EE56EB4EC6DF0E652D6EC76F0006E14
:103D8000005005E0040EE56EB4EC6DF0E652BDECBB
:103D900076F0006E005005E0050EE56EB4EC6DF0B7
:103DA000E65283EC79F0006E005005E0070EE56EF8
:103DB000B4EC6DF0E6525CEC7DF0006E005023E058
:103DC0003AEC77F0006E005005E0060EE56EB4ECBC
:103DD0006DF0E652FDEC78F0006E00500AE0FBEC6E
:103DE00072F0006E005005E00B0EE56EB4EC6DF065
:103DF000E6520DEC3FF0006E005005E00A0EE56E55
:103E0000B4EC6DF0E652C2B201D0C2829E90E4CF13
:103E100001F0E4CF00F0E4CFD9FFE4CFFBFFE4CF23
:103E2000FAFFE4CFEAFFE4CFE9FFE4CFF4FFE4CF09
:103E3000F3FFE450E4CFE0FFE4CFD8FF1000D9CF88
:103E4000E5FFE1CFD9FF00C0E5FF01C0E5FF02C0FB
:103E5000E5FF020EDBCF00F00050080DF3CF00F0BD
:103E6000016A9A0E0026000E0122050E0026D8B027
:103E7000012A00C0E9FF01C0EAFFEFCF00F0100EF9
:103E8000005CD8B0EFD0FA6AFB6A0034FA36E83446
:103E9000FA36FC0BA40FE56E3E0EFA22000EFB2252
:103EA000E450F96ED2EF1FF0DEEF1FF0EAEF1FF0E3
:103EB000F6EF1FF002EF20F00EEF20F01AEF20F0E7
:103EC00026EF20F072EF1FF07EEF1FF08AEF1FF059
:103ED00096EF1FF0A2EF1FF0AEEF1FF0BAEF1FF04A
:103EE000C6EF1FF0000E026E0C0E016EA80E006EE3
:103EF00002C0F4FF01C0F3FF0050BFD0000E026EFD
:103F00000C0E016EAE0E006E02C0F4FF01C0F3FF96
:103F10000050B3D0000E026E0C0E016EB40E006E97
:103F200002C0F4FF01C0F3FF0050A7D0000E026EE4
:103F30000C0E016EBA0E006E02C0F4FF01C0F3FF5A
:103F400000509BD0000E026E0C0E016EC00E006E73
:103F500002C0F4FF01C0F3FF00508FD0000E026ECC
:103F60000C0E016EC60E006E02C0F4FF01C0F3FF1E
:103F7000005083D0000E026E0C0E016ECC0E006E4F
:103F800002C0F4FF01C0F3FF005077D0000E026EB4
:103F90000C0E016ED20E006E02C0F4FF01C0F3FFE2
:103FA00000506BD0000E026E0C0E016ED80E006E2B
:103FB00002C0F4FF01C0F3FF00505FD0000E026E9C
:103FC0000C0E016EE00E006E02C0F4FF01C0F3FFA4
:103FD000005053D0000E026E0C0E016EE80E006E03
:103FE00002C0F4FF01C0F3FF005047D0000E026E84
:103FF0000C0E016EF00E006E02C0F4FF01C0F3FF64
:1040000000503BD0000E026E0C0E016EF80E006EDA
:1040100002C0F4FF01C0F3FF00502FD0000E026E6B
:104020000D0E016E000E006E02C0F4FF01C0F3FF22
:10403000005023D0000E026E0D0E016E080E006EB1
:1040400002C0F4FF01C0F3FF005017D0000E026E53
:104050000D0E016E100E006E02C0F4FF01C0F3FFE2
:1040600000500BD0000E026E0C0E016E580E006E4A
:1040700002C0F4FF01C0F3FF0050E4CF02F0E4CF30
:1040800001F0E4CF00F0E4CFD9FF1200D9CFE5FF73
:10409000E1CFD9FF00C0E5FF01C0E5FF02C0E5FFA9
:1040A00003C0E5FF04C0E5FF05C0E5FF06C0E5FF6E
:1040B00007C0E5FF08C0E5FF09C0E5FF020EDBCF42
:1040C00000F0030EDBCF01F0040EDBCF02F0090E8F
:1040D000046E830E036E800E056E0550E56E04506F
:1040E000E56E0350E56E0250E56E0150E56E00503E
:1040F000E56EB7EC4EF0006E060EE126020E005C97
:10410000D8A0B2D0000E036E210E026EC60E016E54
:104110000350E56E0250E56E0150E56E09018851CD
:10412000E56E09018751E56E09018651E56E31ECB6
:104130004DF0016EF3CF02F0060EE12601500210A1
:104140002CE10050040A29E109018B51E56E0901B7
:104150008A51E56E09018951E56E7AEC39F0016EFC
:10416000F3CF02F0030EE12609018E51E56E09013D
:104170008D51E56E09018C51E56E7AEC39F0026ED5
:10418000F3CF03F0030EE1260250E56E0150E56E19
:1041900023EC52F0E652E65280D0000E036E210E60
:1041A000026ECE0E016E0350E56E0250E56E0150B8
:1041B000E56E09018851E56E09018751E56E090137
:1041C0008651E56E31EC4DF0016EF3CF02F0060E34
:1041D000E12601500210D8A447D00050030A01E0A4
:1041E00043D009018B51E56E09018A51E56E090141
:1041F0008951E56E7AEC39F0006EF3CF01F0030ED1
:10420000E1260050E56E68EC70F0016EE652026A3D
:1042100001BE02680050E56E26EC71F0036EF3CF2C
:1042200004F0F4CF05F0E652066A000E096E210E86
:10423000086ED40E076E0250E56E0150E56E055013
:10424000E56E0450E56E0350E56E0650E56E0050D5
:10425000E56E0950E56E0850E56E0750E56E86EC98
:1042600067F00A0EE12619D0000E026E210E016ED3
:10427000EC0E006E0250E56E0150E56E0050E56EEA
:1042800009018551E56E09018451E56E09018351EB
:10429000E56EE6EC5FF0060EE126E4CF09F0E4CF30
:1042A00008F0E4CF07F0E4CF06F0E4CF05F0E4CF68
:1042B00004F0E4CF03F0E4CF02F0E4CF01F0E4CF68
:1042C00000F0E4CFD9FF1200D8CFE5FFE0CFE5FF43
:1042D000E56EF3CFE5FFF4CFE5FFE9CFE5FFEACFE9
:1042E000E5FFFACFE5FFFBCFE5FFD9CFE5FFE1CF53
:1042F000D9FF00C0E5FF01C0E5FF02C0E5FF03C034
:10430000E5FF04C0E5FF05C0E5FF06C0E5FF07C007
:10431000E5FF08C0E5FF09C0E5FF0AC0E5FF0BC0E7
:10432000E5FFC4CF00F00050E56EC8EC6CF0006E05
:10433000F3CF01F0F4CF02F0E9CF03F0E6520350DF
:10434000E56E0250E56E0150E56E0050E56E3C0EE4
:10435000E56EA00EE56E000EE56E000EE56E59EC02
:1043600015F0006EF3CF01F0F4CF02F0E9CF03F0C7
:10437000080EE1260350E56E0250E56E0150E56E31
:104380000050E56E3C0EE56E230EE56ED70EE56E31
:104390000A0EE56E59EC15F0046EF3CF05F0F4CF7C
:1043A00006F0E9CF07F0080EE12608015251E56E4C
:1043B00008015151E56E08015051E56E08014F5159
:1043C000E56E3F0EE56E7D0EE56E700EE56EA40E99
:1043D000E56E59EC15F0086EF3CF09F0F4CF0AF052
:1043E000E9CF0BF0080EE1260B50E56E0A50E56EA2
:1043F0000950E56E0850E56E0750E56E0650E56E13
:104400000550E56E0450E56EE9EC18F008014F6FB9
:10441000F3CF50F8F4CF51F8E9CF52F8080EE12667
:1044200008015251E56E08015151E56E08015051E5
:10443000E56E08014F51E56E3F0EE56E000EE56E2C
:10444000000EE56E000EE56E47EC46F0046E080EB9
:10445000E126045009E008014F6B0801506B080188
:10446000516B3F0E0801526F08015251E56E080171
:104470005151E56E08015051E56E08014F51E56E4E
:104480000350E56E0250E56E0150E56E0050E56E9A
:1044900063EC3EF008014B6FF3CF4CF8F4CF4DF8CE
:1044A000E9CF4EF8080EE1269E9CE4CF0BF0E4CF56
:1044B0000AF0E4CF09F0E4CF08F0E4CF07F0E4CF4E
:1044C00006F0E4CF05F0E4CF04F0E4CF03F0E4CF4E
:1044D00002F0E4CF01F0E4CF00F0E4CFD9FFE4CF65
:1044E000FBFFE4CFFAFFE4CFEAFFE4CFE9FFE4CF3C
:1044F000F4FFE4CFF3FFE450E4CFE0FFE4CFD8FFD4
:104500001000D9CFE5FFE1CFD9FF00C0E5FF01C022
:10451000E5FF02C0E5FF03C0E5FF04C0E5FF05C0FD
:10452000E5FF06C0E5FF07C0E5FF08C0E5FF09C0DD
:10453000E5FF0AC0E5FF020EDBCF00F00050E56E9C
:1045400068EC70F0016EE652D88001AED890D8A029
:104550006CD00050E56E68EC70F0016EE652026AB5
:1045600001BE0268021E016CD8B4022A000EE56E7C
:10457000020EE56E0250E56E0150E56EB4EC57F0A8
:10458000016EF3CF02F0040EE1260250E56E0150F9
:10459000E56E000EE56E050EE56E37EC62F0016E1D
:1045A000F3CF02F0040EE1260050E56E68EC70F0E7
:1045B000036EE652046A03BE0468041E036CD8B49A
:1045C000042A000EE56E020EE56E0450E56E0350FF
:1045D000E56E80EC54F0036EF3CF04F0040EE12698
:1045E000000E076E090E066EB60E056E010E096E00
:1045F000690E086E800E0A6E0250E56E0150E56E7F
:104600000450E56E0350E56E0750E56E0650E56E0A
:104610000550E56E0A50E56E0950E56E0850E56EEE
:1046200077EC48F00A0EE12663D00050E56E68ECA6
:1046300070F0016EE652026A01BE0268000EE56E7D
:10464000020EE56E0250E56E0150E56EB4EC57F0D7
:10465000016EF3CF02F0040EE1260250E56E015028
:10466000E56E000EE56E050EE56E37EC62F0016E4C
:10467000F3CF02F0040EE1260050E56E68EC70F016
:10468000006EE652036A00BE0368000EE56E020E7D
:10469000E56E0350E56E0050E56E80EC54F0006E60
:1046A000F3CF03F0040EE126000E066E090E056E30
:1046B000C80E046E010E086E690E076E800E096E3C
:1046C0000250E56E0150E56E0350E56E0050E56E58
:1046D0000650E56E0550E56E0450E56E0950E56E36
:1046E0000850E56E0750E56E77EC48F00A0EE126BB
:1046F000010E016E690E006E800E026E02C0F4FFA4
:1047000001C0F3FF0050E4CF0AF0E4CF09F0E4CF9A
:1047100008F0E4CF07F0E4CF06F0E4CF05F0E4CFF3
:1047200004F0E4CF03F0E4CF02F0E4CF01F0E4CFF3
:1047300000F0E4CFD9FF1200D9CFE5FFE1CFD9FFD8
:1047400000C0E5FF01C0E5FF02C0E5FF03C0E5FFD3
:1047500004C0E5FF05C0E5FF06C0E5FF07C0E5FFB3
:1047600008C0E5FF09C0E5FF0AC0E5FF020EDBCF88
:1047700000F00050E56E1DEC73F0016EE652D8803B
:1047800001AED890D8A06CD00050E56E1DEC73F04F
:10479000016EE652026A01BE0268021E016CD8B4C4
:1047A000022A000EE56E020EE56E0250E56E015023
:1047B000E56EB4EC57F0016EF3CF02F0040EE12683
:1047C0000250E56E0150E56E000EE56E050EE56ED9
:1047D00037EC62F0016EF3CF02F0040EE1260050D8
:1047E000E56E1DEC73F0036EE652046A03BE0468C6
:1047F000041E036CD8B4042A000EE56E020EE56EAA
:104800000450E56E0350E56E80EC54F0036EF3CF78
:1048100004F0040EE126000E076E090E066EB60EB9
:10482000056E010E096E150E086E800E0A6E02509E
:10483000E56E0150E56E0450E56E0350E56E0750DD
:10484000E56E0650E56E0550E56E0A50E56E0950BE
:10485000E56E0850E56E77EC48F00A0EE12663D06D
:104860000050E56E1DEC73F0016EE652026A01BE67
:104870000268000EE56E020EE56E0250E56E015014
:10488000E56EB4EC57F0016EF3CF02F0040EE126B2
:104890000250E56E0150E56E000EE56E050EE56E08
:1048A00037EC62F0016EF3CF02F0040EE126005007
:1048B000E56E1DEC73F0006EE652036A00BE0368FD
:1048C000000EE56E020EE56E0350E56E0050E56EDB
:1048D00080EC54F0006EF3CF03F0040EE126000EDE
:1048E000066E090E056EC80E046E010E086E150EDA
:1048F000076E800E096E0250E56E0150E56E0350A2
:10490000E56E0050E56E0650E56E0550E56E04500C
:10491000E56E0950E56E0850E56E0750E56E77ECE0
:1049200048F00A0EE126010E016E150E006E800E93
:10493000026E02C0F4FF01C0F3FF0050E4CF0AF0A2
:10494000E4CF09F0E4CF08F0E4CF07F0E4CF06F0BD
:10495000E4CF05F0E4CF04F0E4CF03F0E4CF02F0BD
:10496000E4CF01F0E4CF00F0E4CFD9FF1200D9CFBB
:10497000E5FFE1CFD9FF00C0E5FF01C0E5FF02C0C0
:10498000E5FF03C0E5FF04C0E5FF05C0E5FF020E3B
:10499000DBCF00F0030EDBCF01F0040EDBCF02F023
:1049A000090E046E650E036E800E056E0550E56EF1
:1049B0000450E56E0350E56E0250E56E0150E56E61
:1049C0000050E56EB7EC4EF0006E060EE126020ECA
:1049D000005CD8A0BED0000E036E210E026E880EC1
:1049E000016E0350E56E0250E56E0150E56E09015F
:1049F0006A51E56E09016951E56E09016851E56E7C
:104A000031EC4DF0016EF3CF02F0060EE1260150BD
:104A1000021020E1020E016E026A0050030A14E146
:104A200009016D51E56E09016C51E56E09016B518B
:104A3000E56E7AEC39F0036EF3CF04F0030EE12655
:104A40000350016E0450026E0150E56EF9EC6CF0FB
:104A5000E65298D0000E036E210E026E8C0E016E8F
:104A60000350E56E0250E56E0150E56E09016A5192
:104A7000E56E09016951E56E09016851E56E31EC99
:104A80004DF0016EF3CF02F0060EE1260150021048
:104A900025E1FE0E016EFF0E026E0050030A18E1C2
:104AA00009016D51E56E09016C51E56E09016B510B
:104AB000E56E7AEC39F0036EF3CF04F0030EE126D5
:104AC000041E036CD8B4042A0350016E0450026E15
:104AD0000150E56EF9EC6CF0E65254D0000E036E16
:104AE000210E026E900E016E0350E56E0250E56ECF
:104AF0000150E56E09016A51E56E09016951E56EE3
:104B000009016851E56E31EC4DF0016EF3CF02F012
:104B1000060EE126015002101CE10050030A19E1C3
:104B200009016D51E56E09016C51E56E09016B518A
:104B3000E56E7AEC39F0006EF3CF01F0030EE1265A
:104B40000150E56E0050E56E4EEC64F0E652E65220
:104B500019D0000E026E210E016E940E006E0250EE
:104B6000E56E0150E56E0050E56E09016751E56E96
:104B700009016651E56E09016551E56EE6EC5FF0ED
:104B8000060EE126E4CF05F0E4CF04F0E4CF03F015
:104B9000E4CF02F0E4CF01F0E4CF00F0E4CFD9FF9E
:104BA0001200D9CFE5FFE1CFD9FF00C0E5FF01C07A
:104BB000E5FF02C0E5FF03C0E5FF04C0E5FF05C057
:104BC000E5FF020EDBCF00F0030EDBCF01F0040E99
:104BD000DBCF02F0090E046E560E036E800E056EDA
:104BE0000550E56E0450E56E0350E56E0250E56E2B
:104BF0000150E56E0050E56EB7EC4EF0006E060E0B
:104C0000E126020E005CD8A0BDD0000E026E210E7F
:104C1000016E440E006E0250E56E0150E56E0050CC
:104C2000E56E09015B51E56E09015A51E56E090116
:104C30005951E56E31EC4DF0006EF3CF01F0060EE8
:104C4000E1260050011003E100EC44F0B4D0000E66
:104C5000026E210E016E4A0E006E0250E56E01508A
:104C6000E56E0050E56E09015B51E56E09015A5190
:104C7000E56E09015951E56E31EC4DF0006EF3CF50
:104C800001F0060EE1260050011003E126EC45F08C
:104C900092D0000E026E210E016E500E006E025078
:104CA000E56E0150E56E0050E56E09015B51E56E61
:104CB00009015A51E56E09015951E56E31EC4DF08B
:104CC000006EF3CF01F0060EE1260050011003E163
:104CD000B5EC72F070D0000E026E210E016E560E11
:104CE000006E0250E56E0150E56E0050E56E090160
:104CF0005B51E56E09015A51E56E09015951E56EA6
:104D000031EC4DF0006EF3CF01F0060EE1260050BD
:104D1000011003E1B4EC07F04ED0000E026E210E3C
:104D2000016E5E0E006E0250E56E0150E56E0050A1
:104D3000E56E09015B51E56E09015A51E56E090105
:104D40005951E56E31EC4DF0006EF3CF01F0060ED7
:104D5000E126005001102FE109015E51E56E0901C5
:104D60005D51E56E09015C51E56E7AEC39F0006E3B
:104D7000F3CF01F0030EE1260050E56E35EC6CF048
:104D8000E65219D0000E026E210E016E640E006E06
:104D90000250E56E0150E56E0050E56E0901585174
:104DA000E56E09015751E56E09015651E56EE6ECD5
:104DB0005FF0060EE126E4CF05F0E4CF04F0E4CF87
:104DC00003F0E4CF02F0E4CF01F0E4CF00F0E4CF51
:104DD000D9FF1200D9CFE5FFE1CFD9FF00C0E5FF31
:104DE00001C0E5FF02C0E5FF03C0E5FF04C0E5FF29
:104DF00005C0E5FF020EDBCF00F0030EDBCF01F0B4
:104E0000040EDBCF02F0090E046EA10E036E800EBD
:104E1000056E0550E56E0450E56E0350E56E0250D8
:104E2000E56E0150E56E0050E56EB7EC4EF0006E99
:104E3000060EE126020E005CD8A0B9D0000E026E6C
:104E4000220E016E160E006E0250E56E0150E56EE8
:104E50000050E56E0901A651E56E0901A551E56E08
:104E60000901A451E56E31EC4DF0006EF3CF01F075
:104E7000060EE1260050011006E1010EE56EB4ECCD
:104E80006DF0E652ADD0000E026E220E016E1C0EC9
:104E9000006E0250E56E0150E56E0050E56E0901AE
:104EA000A651E56E0901A551E56E0901A451E56E13
:104EB00031EC4DF0006EF3CF01F0060EE12600500C
:104EC000011006E1020EE56EB4EC6DF0E65288D0FA
:104ED000000E026E220E016E220E006E0250E56E72
:104EE0000150E56E0050E56E0901A651E56E09011D
:104EF000A551E56E0901A451E56E31EC4DF0006E4F
:104F0000F3CF01F0060EE1260050011006E1030E7A
:104F1000E56EB4EC6DF0E65263D0000E026E220E28
:104F2000016E280E006E0250E56E0150E56E0050D5
:104F3000E56E0901A651E56E0901A551E56E09016D
:104F4000A451E56E31EC4DF0006EF3CF01F0060E8A
:104F5000E1260050011006E1040EE56EB4EC6DF0A0
:104F6000E6523ED0000E026E220E016E2E0E006E34
:104F70000250E56E0150E56E0050E56E0901A65144
:104F8000E56E0901A551E56E0901A451E56E31EC0C
:104F90004DF0006EF3CF01F0060EE1260050011037
:104FA0001FE1050EE56EB4EC6DF0E65219D0000E6F
:104FB000026E220E016E360E006E0250E56E01503A
:104FC000E56E0050E56E0901A351E56E0901A2519D
:104FD000E56E0901A151E56EE6EC5FF0060EE126F3
:104FE000E4CF05F0E4CF04F0E4CF03F0E4CF02F027
:104FF000E4CF01F0E4CF00F0E4CFD9FF1200D9CF25
:10500000E5FFE1CFD9FF00C0E5FF01C0E5FF02C029
:10501000E5FF03C0E5FF04C0E5FF05C0E5FF06C0EE
:10502000E5FF07C0E5FF020EDBCF00F0030EDBCF8C
:1050300001F0040EDBCF02F0050EDBCF03F0060E0D
:10504000DBCF04F0070EDBCF05F0080EDBCF06F058
:10505000090EDBCF07F000500B011C6F01501D6FD4
:1050600002501E6F03501F6F04500B01206F05503C
:10507000216F0650226F0750236F0B011C510B014B
:105080002203F4CF01F0F3CF00F000500B01266FA4
:105090000150276F0B011C510B012003F4CF01F0CD
:1050A000F3CF00F000500B01246F0150256F0B016E
:1050B0001F510B012003F3CF00F00B0127510026F5
:1050C0000050276F0B011E510B012103F3CF01F09C
:1050D0000150002600500B01276F0B011E510B01E0
:1050E0002003F4CF01F0F3CF00F00B012651026E44
:1050F0002751036E00500226015003220250266FF2
:105100000350276F0B011D510B012103F4CF01F058
:10511000F3CF00F0005002260150032202500B0191
:10512000266F0350276F0B011D510B012203F3CF94
:1051300000F000500B012B6F0B011D510B012003E0
:10514000F4CF01F0F3CF00F000500B01296F0150B4
:105150002A6F0B011C510B012303F3CF00F0005009
:105160000B012F6F0B011C510B012103F4CF01F038
:10517000F3CF00F000500B012D6F01502E6F0B018B
:10518000286B0B012C6B0B0128510B012425006EA1
:105190000B0129510B012521016E0B012A510B0135
:1051A0002621026E0B012B510B012721036E0050AB
:1051B000246F0150256F0250266F0350276F0B019B
:1051C0002C510B012425006E0B012D510B012521C3
:1051D000016E0B012E510B012621026E0B012F5186
:1051E0000B012721036E03C0E9FF02C0F4FF01C0D9
:1051F000F3FF0050E4CF07F0E4CF06F0E4CF05F072
:10520000E4CF04F0E4CF03F0E4CF02F0E4CF01F008
:10521000E4CF00F0E4CFD9FF1200D9CFE5FFE1CF12
:10522000D9FF00C0E5FF01C0E5FF02C0E5FF03C0F4
:10523000E5FF04C0E5FF05C0E5FF06C0E5FF07C0C8
:10524000E5FF08C0E5FF020EDBCF00F0030EDBCF69
:1052500001F0040EDBCF02F0050EDBCF03F0060EEB
:10526000DBCF04F0070EDBCF05F000500110021079
:1052700006E000C0F0F801C0F1F802C0F2F8080141
:10528000F0510801F1110801F21104E1F46AF36A26
:10529000E86AB5D0F0C800F0F1C801F0F2C802F039
:1052A00000C0E9FF01C0F3FF0250B1EC7BF0006EDB
:1052B00000502CE0F0C800F0F1C801F0F2C802F094
:1052C00000C0E9FF01C0F3FF0250B1EC7BF0006EBB
:1052D0000050E56E0550E56E0450E56E0350E56E36
:1052E00003EC64F0006EF3CF01F0F4CF02F0040E93
:1052F000E12600500110021009E00801F02BCAE37A
:105300000801F13F02D00801F22BC4D7F0C800F029
:10531000F1C801F0F2C802F0F0C806F0F1C807F0D9
:10532000F2C808F006C0E9FF07C0F3FF0850B1EC6F
:105330007BF0066E0650D8B449D0F0C806F0F1C82C
:1053400007F0F2C808F006C0E9FF07C0F3FF0850F5
:10535000B1EC7BF0066E0650E56E0550E56E04502C
:10536000E56E0350E56E03EC64F0066EF3CF07F0D4
:10537000F4CF08F0040EE1260650071008101DE0D7
:10538000F0C806F0F1C807F0F2C808F0000EE56EAC
:1053900006C0E9FF07C0F3FF0850ABEC7CF0080142
:1053A000F02B05E30801F13F02D00801F22B02C007
:1053B000F4FF01C0F3FF005022D00801F02BACE352
:1053C0000801F13F02D00801F22BA6D70801F06BCB
:1053D0000801F16B0801F26B00C0E9FF01C0F3FFA7
:1053E0000250B1EC7BF0036E035006E002C0F4FF04
:1053F00001C0F3FF005003D0F46AF36AE86AE4CF17
:1054000008F0E4CF07F0E4CF06F0E4CF05F0E4CFF6
:1054100004F0E4CF03F0E4CF02F0E4CF01F0E4CFF6
:1054200000F0E4CFD9FF1200D9CFE5FFE1CFD9FFDB
:1054300000C0E5FF01C0E5FF02C0E5FF03C0E5FFD6
:10544000020EDBCF00F0EBC801F0ECC802F0015017
:10545000010F0801EB6F000E02200801EC6F0050F5
:10546000C10A22E1809480900C0EE56E9AEC4AF01D
:10547000E652010EE56E9AEC4AF0E652800EE56EB9
:105480009AEC4AF0E652000E036E200E026E360EC3
:10549000016E0350E56E0250E56E0150E56E38EC8A
:1054A00069F0030EE126FF00ABA217D0000E036ED9
:1054B000200E026E480E016E0350E56E0250E56E3E
:1054C0000150E56E04EC68F0030EE1260801ED6B77
:1054D0000801EE6BAB98AB88A0D00801EE5111E04B
:1054E000000E036E200E026E500E016E0350E56E2C
:1054F0000250E56E0150E56E04EC68F0030EE12603
:105500008CD07B0E005C01E388D0200E005C11E2A1
:1055100000500D0A0EE000500A0A0BE00050080A85
:1055200008E000501B0A04E1020E0801EF6F75D07D
:1055300074D00801EF5103E00801EF076ED000506E
:10554000080A1AE10801ED51D8B43FD0EDC801F0C6
:1055500001040801ED6F000E036E200E026E560E60
:10556000016E0350E56E0250E56E0150E56E86EC6B
:1055700067F0030EE12651D04F0E0801ED5D13E3F5
:10558000000E036E200E026E5A0E016E0350E56E81
:105590000250E56E0150E56E04EC68F0030EE12662
:1055A0000801ED6B3AD0EDC801F001280801ED6F5C
:1055B000026A000E01260F0E022201C0E9FF02C09E
:1055C000EAFF00C0EFFF00C0ADFF00500A0A03E091
:1055D00000500D0A22E1020E0801ED5D1AE30801F8
:1055E000ED51006E0006016A00BE0168000E002643
:1055F0000F0E012200C0E9FF01C0EAFF000EEF6EAE
:10560000010E0801EE6F0C0EE56EB4EC6DF0E65283
:1056100004D00801ED6B0801EE6BE4CF03F0E4CF9A
:1056200002F0E4CF01F0E4CF00F0E4CFD9FF1200A4
:10563000D9CFE5FFE1CFD9FF00C0E5FF01C0E5FF0D
:1056400002C0E5FF03C0E5FF04C0E5FF05C0E5FFBC
:105650001BC800F01CC801F01DC802F0230E002674
:10566000000E0122022200C0E9FF01C0F3FF025038
:10567000B1EC7BF0006E005023E01BC800F01CC8AA
:1056800001F01DC802F0240E0026000E01220222A5
:1056900008011E51030DF3CF03F003500026E86A02
:1056A0000122E86A022200C0E9FF01C0F3FF0250B4
:1056B00009EC76F0006EF3CF01F0F4CF02F003D0E6
:1056C000006A016A026A00C003F001C004F002C06F
:1056D00005F000500110021009E003C01BF804C0DF
:1056E0001CF805C01DF808011E6B91D01BC800F006
:1056F0001CC801F01DC802F0140E0026000E012285
:10570000022200C0E9FF01C0F3FF025009EC76F06D
:10571000006EF3CF01F0F4CF02F000500110021040
:10572000D8B475D01BC800F01CC801F01DC802F029
:10573000200E0026000E0122022200C0E9FF01C057
:10574000F3FF025009EC76F0006EF3CF01F0F4CFD6
:1057500002F0005001100210D8B459D01BC800F05C
:105760001CC801F01DC802F0140E0026000E012214
:10577000022200C0E9FF01C0F3FF025009EC76F0FD
:10578000006EF3CF01F0F4CF02F0F2CFE5FFF29E0E
:105790000500AE0EFD6E570EFE6E000EFF6EE4BEEF
:1057A000F28E02C0FBFF01C0FAFF0050F96E006EDE
:1057B00000502DE01BC800F01CC801F01DC802F00D
:1057C000200E0026000E0122022200C0E9FF01C0C7
:1057D000F3FF025009EC76F0006EF3CF01F0F4CF46
:1057E00002F008011E51E56EF2CFE5FFF29E0500C2
:1057F0000C0EFD6E580EFE6E000EFF6EE4BEF28EB5
:1058000002C0FBFF01C0FAFF0050F96EE652BDEC8A
:1058100011F0E4CF05F0E4CF04F0E4CF03F0E4CFDF
:1058200002F0E4CF01F0E4CF00F0E4CFD9FF1200A2
:10583000D9CFE5FFE1CFD9FF00C0E5FF01C0E5FF0B
:1058400002C0E5FF03C0E5FF04C0E5FF05C0E5FFBA
:1058500006C0E5FF07C0E5FF08C0E5FF09C0E5FF9A
:10586000000E026E8A0E016E1A0E006E0250E56E78
:105870000150E56E0050E56E010EE56E15EC5EF030
:10588000040EE126EDEC79F0006E005001E1A5D0A8
:105890005CEC7DF0006E0050D8B49FD00AEC6FF045
:1058A000006EF3CF01F0F4CF02F0E9CF03F0035024
:1058B000E56E0250E56E0150E56E0050E56E410E5A
:1058C000E56E200EE56E000EE56E000EE56E59ECFD
:1058D00015F0006EF3CF01F0F4CF02F0E9CF03F042
:1058E000080EE1260350E56E0250E56E0150E56EAC
:1058F0000050E56EF9EC65F0006E040EE12632EC26
:105900006FF0016EF3CF02F0F4CF03F0E9CF04F0B3
:105910000450E56E0350E56E0250E56E0150E56EF1
:10592000410EE56E200EE56E000EE56E000EE56E92
:1059300059EC15F0016EF3CF02F0F4CF03F0E9CF8C
:1059400004F0080EE1260450E56E0350E56E0250A7
:10595000E56E0150E56EF9EC65F0016E040EE1268E
:10596000026A036A000E066E8A0E056E280E046E29
:105970000A0E086ED00E076E800E096E0250E56E9C
:105980000150E56E0350E56E0050E56E0650E56E81
:105990000550E56E0450E56E0950E56E0850E56E61
:1059A0000750E56E77EC48F00A0EE1260A0E016E0C
:1059B000D00E006E800E026E0250E56E0150E56E54
:1059C0000050E56E030EE56E15EC5EF0040EE12668
:1059D000000EE56E21EC0CF0E652E4CF09F0E4CFC6
:1059E00008F0E4CF07F0E4CF06F0E4CF05F0E4CF11
:1059F00004F0E4CF03F0E4CF02F0E4CF01F0E4CF11
:105A000000F0E4CFD9FF1200D9CFE5FFE1CFD9FFF5
:105A100000C0E5FF01C0E5FF02C0E5FF03C0E5FFF0
:105A200004C0E5FF05C0E5FF06C0E5FF07C0E5FFD0
:105A3000020EDBCF00F00801FC51D8A48FD0080E75
:105A4000005CD8B07FD0FA6AFB6A0034FA36E834DA
:105A5000FA36FC0B640FE56E5A0EFA22000EFB229A
:105A6000E450F96E42EF2DF04EEF2DF05AEF2DF08D
:105A700066EF2DF072EF2DF07EEF2DF08AEF2DF016
:105A800096EF2DF0000E036E6F0E026E0E0E016E7D
:105A900003C0F4FF02C0F3FF01508ED0000E036E6E
:105AA0006F0E026E1A0E016E03C0F4FF02C0F3FF08
:105AB000015082D0000E036E6F0E026E260E016E34
:105AC00003C0F4FF02C0F3FF015076D0000E036E56
:105AD0006F0E026E300E016E03C0F4FF02C0F3FFC2
