:020000040000FA
:1000000018EF7DF0C96E1200D2EF7EF0ACA2FED7E1
:10001000AD6E1200B4EF7CF05BEF7DF0D9CFE5FF61
:10002000E1CFD9FF00C0E5FF01C0E5FF02C0E5FF59
:1000300003C0E5FF04C0E5FF05C0E5FF06C0E5FF1E
:1000400007C0E5FF08C0E5FF09C0E5FF0AC0E5FFFE
:100050000BC0E5FF0CC0E5FF0DC0E5FF0EC0E5FFDE
:100060000FC0E5FF10C0E5FF11C0E5FF12C0E5FFBE
:1000700013C0E5FF14C0E5FF15C0E5FF16C0E5FF9E
:1000800017C0E5FF18C0E5FF19C0E5FF1AC0E5FF7E
:100090001BC0E5FF1CC0E5FF1DC0E5FF1EC0E5FF5E
:1000A000020EDBCF00F0030EDBCF01F0040EDBCF3E
:1000B00002F0050EDBCF03F0060EDBCF04F0070ED7
:1000C000DBCF05F0080EDBCF06F0090EDBCF07F023
:1000D0000A0EDBCF08F0096A0A6A02C00DF00D5063
:1000E000800A0DE102500B01186F0150176F00508C
:1000F000166F0B0E016E160E006E800E026E03C0A0
:10010000E9FF04C0F3FF05504AEC7CF00B6E0B5086
:10011000D8B4CAEF03F00B50250A02E0B1EF03F0A8
:100120000C6A0D6A0E6A0F6A106A0A0E116E126A64
:10013000136A146A200E156E1668176A2B0E186E55
:10014000032A02E3044A052A03C0E9FF04C0F3FFBF
:1001500005504AEC7CF0196E250A13E11950E56E42
:100160000250E56E0150E56E0050E56E96EC4AF0E7
:10017000040EE126094A0A2A032A02E3044A052A50
:10018000BED71950300A06E1300E156E032A02E37D
:10019000044A052A03C0E9FF04C0F3FF05504AECF6
:1001A0007CF02D0A06E1010E146E032A02E3044AD4
:1001B000052A03C0E9FF04C0F3FF05504AEC7CF0B8
:1001C000200A08E1010E176E200E186E032A02E3C2
:1001D000044A052A03C0E9FF04C0F3FF05504AECB6
:1001E0007CF02B0A06E1010E176E032A02E3044A93
:1001F000052A03C0E9FF04C0F3FF05504AEC7CF078
:10020000196E800F4F0F2DE31950800F460F29E212
:1002100003C019F004C01AF005C01BF019C0E9FFB3
:100220001AC0F3FF1B504AEC7CF01C6E800F500F7D
:1002300012E31C50800F460F0EE213500A0DF3CF4D
:100240001DF01D501C26D00E1C24136E192A02E32B
:100250001A4A1B2AE3D719C003F01AC004F01BC0C6
:1002600005F003C0E9FF04C0F3FF05504AEC7CF041
:100270002E0A2EE1032A02E3044A052A166A03C065
:1002800019F004C01AF005C01BF019C0E9FF1AC02C
:10029000F3FF1B504AEC7CF01C6E800F500F12E3F2
:1002A0001C50800F460F0EE216500A0DF3CF1DF0C2
:1002B0001D501C26D00E1C24166E192A02E31A4A61
:1002C0001B2AE3D719C003F01AC004F01BC005F0C5
:1002D00003C0E9FF04C0F3FF05504AEC7CF0196E3F
:1002E0006C0A07E1010E0C6E032A02E3044A052A98
:1002F00009D01950680A06E1010E0E6E032A02E3C6
:10030000044A052A03C0E9FF04C0F3FF05504AEC84
:100310007CF0750A06E1010E106E032A02E3044A1E
:10032000052A03C0E9FF04C0F3FF05504AEC7CF046
:10033000196E730A05E1010E0D6E200E156E3FD089
:100340001950780A03E1100E116E39D01950580A6D
:1003500005E1100E116E010E126E31D01950630AB4
:1003600002E1116A2CD019506F0A03E1080E116ED8
:1003700026D01950660A03E1010E0F6E20D01950E5
:10038000640A1DE01950690A1AE0105005E0FF0EDA
:1003900003260422052213D01950E56E0250E56EA3
:1003A0000150E56E0050E56E96EC4AF0040EE12631
:1003B000094A0A2A032A02E3044A052AA0D60D5054
:1003C00021E00650030F0D6E000E0720196E000E7F
:1003D00008201A6E0DC006F019C007F01AC008F008
:1003E000FD0E0D26FF0E19221A220DC0E9FF19C0BD
:1003F000F3FF1A50BEEC76F00D6EF3CF19F0F4CF88
:100400001AF000D10F500DE0000E1A6E080E196E92
:100410001C0E0D6E040E0626000E0722082216681A
:10042000F1D016680C5023E00650040F0C6E000E3D
:1004300007200F6E000E08201B6E0CC006F00FC0C8
:1004400007F01BC008F0FC0E0C26FF0E0F221B222B
:100450000CC0E9FF0FC0F3FF1B5027EC74F00C6ECB
:10046000F3CF0FF0F4CF1BF0E9CF1CF06AD00E50A1
:1004700032E00650020F0E6E000E07201D6E000EB9
:1004800008201E6E0EC006F01DC007F01EC008F04A
:10049000FE0E0E26FF0E1D221E220EC0E9FF1DC0FD
:1004A000F3FF1E50F8EC79F00E6E0EC00CF0E86A07
:1004B0000EBEFF0E0F6E1B6E1C6E11500A0A03E17A
:1004C0001050D8B43ED00C500E6E0EC00CF00F6A17
:1004D0001B6A1C6A36D00650020F0E6E000E0720F3
:1004E0001D6E000E08201E6E0EC006F01DC007F027
:1004F0001EC008F0FE0E0E26FF0E1D221E220EC08C
:10050000E9FF1DC0F3FF1E50F8EC79F00E6EF3CF3B
:100510001DF00EC00CF01DC00FF0E86A1DBEFF0EEE
:100520001B6E1C6E11500A0A02E110500AE00C50BA
:100530000E6E0F501D6E0EC00CF01DC00FF01B6A2A
:100540001C6A090E196E8E0E0D6E800E1A6E1150F9
:10055000D8B440D0105013E01150E56E090EE56E8E
:100560008E0EE56E1C50E56E1B50E56E0F50E56E6D
:100570000C50E56E7EEC30F0070EE12612D01150E3
:10058000E56E090EE56E8E0EE56E1C50E56E1B5095
:10059000E56E0F50E56E0C50E56E6AEC5AF0070EF2
:1005A000E12617502FE00DC0E9FF19C0F3FF1A50E4
:1005B0004AEC7CF02D0A26E0FF0E0D2619221A22A5
:1005C00018C0E5FF0DC0E9FF19C0F3FF1A5050EC49
:1005D0007DF018D00CC0E5FF0DC0E9FF19C0F3FF96
:1005E0001A5050EC7DF00D50010F0C6E000E1920CA
:1005F0000E6E000E1A20E56A0CC0E9FF0EC0F3FF74
:1006000050EC7DF00DC00CF019C00EF01AC00FF0C8
:1006100013C010F0105010E00CC0E9FF0EC0F3FF43
:100620000F504AEC7CF0176E175006E00C2A02E3DC
:100630000E4A0F2A1006EED710C013F014501EE118
:1006400009C00CF00AC00EF010C00FF00F5010E0FF
:100650001550E56E0250E56E0150E56E0050E56EF6
:1006600096EC4AF0040EE1260C4A0E2A0F06EED74D
:100670000CC009F00EC00AF00FC013F016C00CF049
:100680000DC00DF019C00EF01AC00FF009C010F027
:100690000AC015F00DC0E9FF0EC0F3FF0F504AEC81
:1006A0007CF0166E1650D8B43ED00CC016F0176A07
:1006B000161E171E1650171005E00CC016F00C067B
:1006C000165031E00DC0E9FF0EC0F3FF0F504AECA9
:1006D0007CF0116E125010E01150E56E89EC79F04B
:1006E000166EE652165004E01150166E169A02D09D
:1006F00011C016F016C011F01150E56E0250E56EF3
:100700000150E56E0050E56E96EC4AF0040EE126CD
:100710000D2A02E30E4A0F2A104A152A1350D8B4A4
:10072000B9D71306B7D710C009F015C00AF0145096
:100730002BE010C00CF015C00DF013C00EF00E50E1
:100740001FE0200EE56E0250E56E0150E56E005090
:10075000E56E96EC4AF0040EE1260C4A0D2A0E06D0
:10076000EED70B50E56E0250E56E0150E56E00507D
:10077000E56E96EC4AF0040EE126094A0A2A04D0F6
:100780000CC009F00DC00AF0032A02E3044A052A4E
:100790007FEF00F00AC0F3FF0950E4CF1EF0E4CF72
:1007A0001DF0E4CF1CF0E4CF1BF0E4CF1AF0E4CF4F
:1007B00019F0E4CF18F0E4CF17F0E4CF16F0E4CF4F
:1007C00015F0E4CF14F0E4CF13F0E4CF12F0E4CF4F
:1007D00011F0E4CF10F0E4CF0FF0E4CF0EF0E4CF4F
:1007E0000DF0E4CF0CF0E4CF0BF0E4CF0AF0E4CF4F
:1007F00009F0E4CF08F0E4CF07F0E4CF06F0E4CF4F
:1008000005F0E4CF04F0E4CF03F0E4CF02F0E4CF4E
:1008100001F0E4CF00F0E4CFD9FF12003C4E4F20AE
:10082000464C4F41543E0000D9CFE5FFE1CFD9FF00
:1008300000C0E5FF01C0E5FF02C0E5FF03C0E5FF22
:100840000A019851D8B429D1060E0A01966F0A01FF
:10085000306B0A012F6B010E0A012D6F010E0A0188
:10086000396F060E0A01386F020E0A01366F020E4A
:100870000A01426F010E0A01416F040E0A013F6F27
:10088000030E0A014B6F0C0E0A014A6F080E0A0193
:10089000486F040E0A01546F040E0A01536F100EC4
:1008A0000A01516F0A019751D8B498D0040E0A0179
:1008B0009625006E00500A01966F080E0A015D6FC2
:1008C0000E0E0A015C6F200E0A015A6F0A015B6B63
:1008D000090E0A01666F100E0A01656F200E0A01EB
:1008E000636F010E0A01646F0A0E0A016F6F040E36
:1008F0000A016E6F200E0A016C6F020E0A016D6F05
:100900000B0E0A01786F0C0E0A01776F200E0A0198
:10091000756F030E0A01766F0C0E0A01816F120EBD
:100920000A01806F200E0A017E6F040E0A017F6F9C
:10093000006A016A25EC7EF0026E0250005C24E23F
:100940002A0E0124026E036A0A0E0322070E0226F3
:10095000D8B0032A02C0E9FF03C0EAFF020EEF6E1F
:100960002A0E0124026E036A0A0E0322080E0226D2
:10097000D8B0032A02C0E9FF03C0EAFF020EEF6EFF
:10098000090E0126002AD6D70A019951D8B40CD1F4
:10099000020E0A019625006E00500A01966F060E9F
:1009A0000A018A6F100E0A01896F850E0A018B6F8A
:1009B000850E0A018C6F400E0A01876F070E0A012F
:1009C000936F010E0A01926F850E0A01946F850ED6
:1009D0000A01956F800E0A01906FE6D0050E0A019C
:1009E0005D6F030E0A015C6F200E0A015A6F006AE8
:1009F000016A25EC7EF0026E0250005C24E22A0EB1
:100A00000124026E036A0A0E0322070E0226D8B0E2
:100A1000032A02C0E9FF03C0EAFF020EEF6E2A0EAE
:100A20000124026E036A0A0E0322080E0226D8B0C1
:100A3000032A02C0E9FF03C0EAFF020EEF6E090EAF
:100A40000126002AD6D70A019951D8B4ADD0020E9A
:100A50000A019625006E00500A01966F060E0A01E3
:100A6000666F100E0A01656F850E0A01676F850EAD
:100A70000A01686F400E0A01636F070E0A016F6F6B
:100A8000010E0A016E6F850E0A01706F850E0A0154
:100A9000716F800E0A016C6F87D00A019751D8B42C
:100AA0005CD0050E0A01966F080E0A01306F0E0E1B
:100AB0000A012F6F0A012E6B090E0A01396F100E01
:100AC0000A01386F010E0A01376F0A0E0A01426FE0
:100AD000040E0A01416F020E0A01406F0B0E0A015B
:100AE0004B6F0C0E0A014A6F030E0A01496F0C0E80
:100AF0000A01546F120E0A01536F040E0A01526F5D
:100B0000006A016A25EC7EF0026E0250005CD8B0EB
:100B10004BD02A0E0124026E036A0A0E0322070E2E
:100B20000226D8B0032A02C0E9FF03C0EAFF020E82
:100B3000EF6E2A0E0124026E036A0A0E0322080ECB
:100B40000226D8B0032A02C0E9FF03C0EAFF020E62
:100B5000EF6E090E0126002AD5D7010E0A01966F05
:100B60000A01306B100E0A012F6F0A019B5107E139
:100B7000850E0A01316F850E0A01326F15D00A0108
:100B80009B51010A07E1080E0A01316F080E0A01A4
:100B9000326F0AD00A019B51020A06E1100E0A01C7
:100BA000316F100E0A01326F006A016A25EC7EF087
:100BB000026E0250005C22E22A0E0124026E036AD9
:100BC0000A0E0322020E0226D8B0032A02C0E9FF51
:100BD00003C0EAFF010EEF6E2A0E0124026E036AC3
:100BE0000A0E032202C0E9FF03C0EAFF000EEE6E08
:100BF000000EEF6E090E0126002AD8D7006A016A9E
:100C0000A8EC70F0026E0250005C12E20A0E0124A1
:100C1000026E036A0A0E032202C0E9FF03C0EAFF64
:100C2000000EEE6E000EEF6E012A012A002AE8D7B0
:100C3000D80E0A01006F0A0101690A01026B0A015C
:100C4000036B0A01046B0A01056B0A01066B0A01BA
:100C5000076B140E0A01086F0A01096B0A0E016E78
:100C6000000E006E800E026E9C0EE56E0250E56E68
:100C70000150E56E0050E56E7BEC55F0006E040E01
:100C8000E12600500901CD6F000EE56EC2EC7BF04D
:100C9000E652E4CF03F0E4CF02F0E4CF01F0E4CF7A
:100CA00000F0E4CFD9FF1200D9CFE5FFE1CFD9FFA3
:100CB00000C0E5FF01C0E5FF02C0E5FF03C0E5FF9E
:100CC00004C0E5FF05C0E5FF06C0E5FF07C0E5FF7E
:100CD00008C0E5FF09C0E5FF0AC0E5FF0BC0E5FF5E
:100CE000030EE56EC5EC6DF0006EF3CF01F0E65239
:100CF00000C001F0026A000E056E7D0E046EFA0E51
:100D0000036E010E076E000E066E800E086E025016
:100D1000E56E0150E56E0550E56E0450E56E03503A
:100D2000E56E0850E56E0750E56E0650E56E83EC03
:100D300049F0080EE126010E026E000E016E800ED3
:100D4000036E0350E56E0250E56E0150E56E28EC2F
:100D500067F0030EE126040EE56EC5EC6DF0016E42
:100D6000F3CF02F0E65201C002F0036A000E066EF5
:100D70007E0E056E080E046E010E086E000E076EE4
:100D8000800E096E0350E56E0250E56E0650E56E6A
:100D90000550E56E0450E56E0950E56E0850E56EAD
:100DA0000750E56E83EC49F0080EE126010E036E54
:100DB000000E026E800E046E0450E56E0350E56E68
:100DC0000250E56E28EC67F0030EE1260050E56E58
:100DD000A3EC76F0E6520150E56E79EC7DF0E65238
:100DE000400EE56E26EC53F0E652000EE56E24EC64
:100DF00078F0E652000EE56E24EC78F0E652000E34
:100E0000E56E24EC78F0E652000EE56E24EC78F006
:100E1000E652000EE56E24EC78F0E652000EE56E28
:100E200024EC78F0E6521F0EE56E24EC78F0E652E2
:100E3000000EE56E24EC78F0E652480EE56E26ECE6
:100E400053F0E652000EE56E24EC78F0E652000E08
:100E5000E56E24EC78F0E652000EE56E24EC78F0B6
:100E6000E652000EE56E24EC78F0E6521F0EE56EB9
:100E700024EC78F0E6521F0EE56E24EC78F0E65292
:100E80001F0EE56E24EC78F0E652000EE56E24ECC1
:100E900078F0E652500EE56E26EC53F0E652000E66
:100EA000E56E24EC78F0E652000EE56E24EC78F066
:100EB000E6521F0EE56E24EC78F0E6521F0EE56E4A
:100EC00024EC78F0E6521F0EE56E24EC78F0E65242
:100ED0001F0EE56E24EC78F0E6521F0EE56E24EC52
:100EE00078F0E652000EE56E24EC78F0E652580EEB
:100EF000E56E26EC53F0E6521F0EE56E24EC78F01A
:100F0000E6521F0EE56E24EC78F0E6521F0EE56EF9
:100F100024EC78F0E6521F0EE56E24EC78F0E652F1
:100F20001F0EE56E24EC78F0E6521F0EE56E24EC01
:100F300078F0E6521F0EE56E24EC78F0E652000ED3
:100F4000E56E24EC78F0E652600EE56E26EC53F088
:100F5000E652070EE56E24EC78F0E652080EE56ED8
:100F600024EC78F0E652100EE56E24EC78F0E652B0
:100F7000160EE56E24EC78F0E6520E0EE56E24ECCB
:100F800078F0E6520E0EE56E24EC78F0E652060E8E
:100F9000E56E24EC78F0E652000EE56E24EC78F075
:100FA000E652680EE56E26EC53F0E6521C0EE56E36
:100FB00024EC78F0E652020EE56E24EC78F0E6526E
:100FC000010EE56E24EC78F0E6520D0EE56E24EC91
:100FD00078F0E6520E0EE56E24EC78F0E6520E0E36
:100FE000E56E24EC78F0E6520C0EE56E24EC78F019
:100FF000E652000EE56E24EC78F0E6520C0EE56E3B
:1010000026EC53F0E65232EC1CF0006EF3CF01F008
:10101000F4CF02F0010EE56E010EE56E000EE56EF6
:101020000250E56E0150E56E0050E56EB5EC4CF0F7
:10103000060EE12647EC74F0006EF3CF01F0F4CF1A
:1010400002F065EC74F0036EF3CF04F0F4CF05F01A
:10105000000E086E7E0E076E160E066E010E0A6EEC
:10106000000E096E800E0B6E0250E56E0150E56EAB
:101070000050E56E0550E56E0450E56E0350E56ED8
:101080000850E56E0750E56E0650E56E0B50E56EB4
:101090000A50E56E0950E56E83EC49F00C0EE1262E
:1010A000010E016E000E006E800E026E010EE56EE6
:1010B000000EE56E400EE56E0250E56E0150E56EE5
:1010C0000050E56EB5EC4CF0060EE126010EE56E23
:1010D00038EC7AF0E652E4CF0BF0E4CF0AF0E4CF3C
:1010E00009F0E4CF08F0E4CF07F0E4CF06F0E4CF56
:1010F00005F0E4CF04F0E4CF03F0E4CF02F0E4CF56
:1011000001F0E4CF00F0E4CFD9FF1200D9CFE5FF22
:10111000E1CFD9FFC4C7F3FF0701C351E4CFD9FF23
:1011200012005B494E464F5D3A25730A00005B573B
:1011300041524E494E475D3A25730A005B45525273
:101140004F525D3A25730A005B44454255475D3A6C
:1011500025730A005B524553554C545D3A25730A7A
:1011600000005B53594E5441585D3A2025732025A9
:10117000730A00005B4556454E545D3A2025730ABC
:101180000000426F6F746C6F6164657220726573EA
:10119000657400004F76657272756E0062757379C2
:1011A0000000082008004C696E6520746F6F206C89
:1011B0006F6E6700556E6B6E6F776E20636D643A6D
:1011C0002025730A000020706F7765726564206FB8
:1011D0006E0A000020696E707574206E616D653A4C
:1011E0002025730A000020696E7075742074797070
:1011F000653A2025730A000020696E7075742063BB
:1012000068616E6E656C733A2025730A0000206F6A
:101210007574707574206368616E6E656C733A20C6
:1012200025730A0020766F6C756D653A2025640A77
:10123000000020706F7765726564206F66660A0033
:10124000506172616D65746572733A0A0000202501
:1012500031307320282573293A202564205B2573BB
:101260005D0A0000556E6B6E6F776E207061723A8A
:101270002025730A0000436F6D6D616E64206C69F8
:1012800073743A0A000025313073202D2025730A2B
:1012900000003C6F6E7C6F66663E00006F6E000063
:1012A0006F666600756E6B6E6F776E207061723A56
:1012B0002025730A00006C6F61640000736176651D
:1012C0000000636C6561720064656661756C740032
:1012D0007365747570003C6C6F61647C73617665D6
:1012E0007C636C6561727C64656661756C747C732B
:1012F000657475703E0025730A00696E630064654D
:101300006300736574003C7365747C696E637C6410
:1013100065633E006E65787400007072657600004B
:101320003C7365747C6E6578747C707265763E2063
:101330003C76616C75653E006F666673657400008F
:1013400073686F7700004F66667365742063686129
:101350006E6E656C20256420282573293A2025644B
:101360000A003C73686F777C6F66667365743E2015
:101370003C6368616E6E656C3E203C76616C7565A1
:10138000205B302E3564625D3E000000706F776533
:1013900072006D656E7500006C65667400007269A0
:1013A0006768740073656C65637400003C706F77E8
:1013B00065727C6D656E757C6C6566747C72696740
:1013C00068747C73656C6563743E00004465627587
:1013D000672073657420746F3A2025640A004465A1
:1013E0006275673A2025640A000053686F7720739E
:1013F0007461747573007665720053686F77207638
:10140000657273696F6E20696E666F007265626FD8
:101410006F7400005265626F6F747320746865208A
:10142000707265616D700000706172005061726170
:101430006D657465722066756E6374696F6E730096
:10144000766F6C756D650000566F6C756D65206606
:10145000756E6374696F6E730000696E70757400E9
:10146000496E7075742066756E6374696F6E730073
:101470006368616E6E656C004368616E6E656C20BA
:1014800066756E6374696F6E73007469746C650061
:10149000446973706C6179207469746C6500506F75
:1014A000776572206F6E2F6F666600006D757465CC
:1014B00000004D7574652F756E6D757465007365EC
:1014C0007474696E677300004368616E67652073AA
:1014D000657474696E677300627574746F6E000072
:1014E000456D756C61746520627574746F6E730000
:1014F000646200004368616E6765206465627567B9
:1015000020696E666F0068656C70000044697370D6
:101510006C617920746869732068656C7000200ABA
:10152000282C293B0000D9CFE5FFE1CFD9FF00C02F
:10153000E5FF01C0E5FF02C0E5FF03C0E5FF04C011
:10154000E5FF05C0E5FF06C0E5FF020EDBCF00F0BA
:10155000005002E00701FD6BF2EC77F0016E0150E4
:1015600002E1005027E0800EE56E26EC53F0E652D3
:101570001CEC7EF0016E0150E56E92EC1DF0016EE8
:10158000F3CF02F0F4CF03F0E6520350E56E0250C1
:10159000E56E0150E56ECDEC68F0016E030EE126BC
:1015A0000E0E015C07E2200EE56E24EC78F0E652A8
:1015B000012AF6D744EC79F0016E0150D8B4D3D0AB
:1015C0002DEC79F0016E0B012451011808E1F2ECC9
:1015D00077F0016E015003E10050D8B487D141EC9F
:1015E00077F0016EF90E01260150E56EFDEC78F002
:1015F000E652000E036E1B0E026EDE0E016E0350ED
:10160000E56E0250E56E0150E56ECDEC68F0030E1C
:10161000E1262DEC79F0016E0150D8B450D0A2EC47
:101620007EF074EC6EF0090E026E000E016E800EFC
:10163000036E77EC41F0046EF3CF05F0F4CF06F0C3
:101640000650E56E0550E56E0450E56E0350E56EFC
:101650000250E56E0150E56EA9EC57F0060EE1264A
:1016600041EC77F0016E090E036E000E026E800EE3
:10167000046E0450E56E0350E56E0250E56E66ECB4
:1016800067F0026EF3CF03F0030EE1260250015C17
:10169000026E0250E56EFDEC78F0E652090E026E25
:1016A000000E016E800E036E0350E56E0250E56E73
:1016B0000150E56ECDEC68F0030EE1264FD09AECB8
:1016C0007EF049EC6EF0090E026E000E016E800E87
:1016D000036E98EC38F0046EF3CF05F0F4CF06F00B
:1016E0000650E56E0550E56E0450E56E0350E56E5C
:1016F0000250E56E0150E56EA9EC57F0060EE126AA
:1017000041EC77F0016E090E036E000E026E800E42
:10171000046E0450E56E0350E56E0250E56E66EC13
:1017200067F0026EF3CF03F0030EE1260250015C76
:10173000026E0250E56EFDEC78F0E652090E026E84
:10174000000E016E800E036E0350E56E0250E56ED2
:101750000150E56ECDEC68F0030EE1262DEC79F03A
:101760000B01246FC3D061EC7AF0016E0150D8B444
:10177000BDD04DEC7AF0016E015005E03BEC3EF03F
:10178000016E015008E1F2EC77F0016E015003E1C7
:101790000050D8B4ABD071EC6FF0006EF3CF01F015
:1017A000F4CF02F0E9CF03F041EC77F0046EF90ECC
:1017B00004260450E56EFDEC78F0E652000E066E4D
:1017C0001B0E056EE60E046E0650E56E0550E56EC6
:1017D0000450E56ECDEC68F0030EE1263E0EE56E9A
:1017E000800EE56E000EE56E000EE56E0350E56EB0
:1017F0000250E56E0150E56E0050E56EA8EC45F034
:10180000046E080EE126045006E0000EE56E24EC9E
:1018100078F0E65205D0200EE56E24EC78F0E65222
:101820003F0EE56E000EE56E000EE56E000EE56EF5
:101830000350E56E0250E56E0150E56E0050E56E16
:10184000A8EC45F0046E080EE126045006E0010EF7
:10185000E56E24EC78F0E65205D0200EE56E24EC1F
:1018600078F0E6523F0EE56E400EE56E000EE56E36
:10187000000EE56E0350E56E0250E56E0150E56E18
:101880000050E56EA8EC45F0046E080EE126045009
:1018900006E0020EE56E24EC78F0E65205D0200E4C
:1018A000E56E24EC78F0E6523F0EE56E800EE56EB4
:1018B000000EE56E000EE56E0350E56E0250E56E1B
:1018C0000150E56E0050E56EA8EC45F0006E080E84
:1018D000E126005006E0030EE56E24EC78F0E652B7
:1018E00005D0200EE56E24EC78F0E652E4CF06F049
:1018F000E4CF05F0E4CF04F0E4CF03F0E4CF02F04E
:10190000E4CF01F0E4CF00F0E4CFD9FF1200496E3C
:10191000707574206E616D6573000000000000003A
:1019200000004AFC00CE7900B4B100C4BE000CC077
:1019300000000000000000000000000000000000A7
:101940000000000000000000000000000000000097
:10195000496E707574206F6666736574730000005D
:10196000000000004AFC007EB200A44F00A48600E4
:101970000000000000000000000000000000000067
:101980000000000000000000000000000000000057
:1019900000004368616E6E656C206F6666736574E7
:1019A00073000000000050E100EAB0001849005048
:1019B000C400000000000000000000000000000063
:1019C0000000000000000000000000000000000017
:1019D00000000000496E666F726D6174696F6E0081
:1019E000000000000000000094FD003E96007832E8
:1019F00000000000000000000000000000000000E7
:101A000000000000000000000000000000000000D6
:101A1000000000000000506172616D6574657273B2
:101A20000000000000000000000054FD0020B00095
:101A30003EA70020C70000000000000000000000DA
:101A40000000000000000000000000000000000096
:101A500000000000000000004D61696E204D656EC1
:101A60007500000000000000000000000000000001
:101A70000000000000000000000000050E190050EA
:101A80001900921900D41900161A00000000000075
:101A9000000000000000000000006E6F2069746507
:101AA0006D730000496E3A203C20252D31327320A1
:101AB0003E004F66667365743A202D25642E2564BA
:101AC000644200004F66667365743A202B25642ECD
:101AD000256464420000496E3A203C20252D39736C
:101AE000203E0000206F6E006F6666004E616D65DF
:101AF0003A202573000043683A203C20252D3132DE
:101B000073203E003C20252D313673203E00566167
:101B10006C75653A202564205B25735D0000436881
:101B2000616E6E656C730000496E707574730000B1
:101B30005374616E6462792074696D6500004F6E44
:101B40002074696D650053696C656E742074696DED
:101B5000650055415254207265636569766564007D
:101B60003F005B25642F25645D0025642064617956
:101B7000732025643A25643A2564000025643A25DB
:101B80006400256420627974657300004C6F6164A1
:101B90002073657474696E67730053617665207392
:101BA000657474696E677300436C65617220736558
:101BB0007474696E67730000456E746572204857CF
:101BC0002073657475702E2E000048617264776111
:101BD0007265207365747570000025730000202005
:101BE00020202020000020202000E806E56E630E63
:101BF00014EC0EF0630E59EC0EF0090E6CEC0EF0C6
:101C0000E45011E000D0E56E630E14EC0EF0630EAC
:101C100059EC0EF0090E6CEC0EF000D000D0000074
:101C2000E450E82EF0D71200E806E56E090E46EC07
:101C30000EF0630E6CEC0EF0E4500EE000D0E56E9A
:101C4000090E46EC0EF0630E6CEC0EF000D000D0E6
:101C50000000E450E82EF3D71200E806E56E630EAC
:101C600046EC0EF0630E6CEC0EF0E4500EE000D08B
:101C7000E56E630E46EC0EF0630E6CEC0EF000D0D9
:101C800000D00000E450E82EF3D71200E806E56E1D
:101C9000630E6CEC0EF0E4500BE000D0E56E630ECA
:101CA0006CEC0EF000D000D00000E450E82EF6D727
:101CB0001200E806E56E090E6CEC0EF0E4500BE045
:101CC00000D0E56E090E6CEC0EF000D0E450000080
:101CD00000D0E82EF6D71200E8060000E85007E032
:101CE00000D000D000D000D00000E82EFAD71200BB
:101CF000D9CFE5FFE1CFD9FF00C0E5FF01C0E5FF87
:101D000002C0E5FF03C0E5FF04C0E5FF05C0E5FF35
:101D10000701D1510701D2110701D31101E1AAD165
:101D2000D1C700F0D2C701F0D3C702F0230E0026BE
:101D3000000E0122022200C0E9FF01C0F3FF0250A1
:101D40004AEC7CF0006E005023E0D1C700F0D2C70F
:101D500001F0D3C702F0240E0026000E0122022259
:101D60000701D451030DF3CF03F003500026E86AB6
:101D70000122E86A022200C0E9FF01C0F3FF02501D
:101D8000BEEC76F0006EF3CF01F0F4CF02F003D09A
:101D9000006A016A026A010EE56E26EC53F0E65213
:101DA000005001100210D8B43DD0800EE56E26EC34
:101DB00053F0E652D1C703F0D2C704F0D3C705F001
:101DC0000550E56E0450E56E0350E56ECDEC68F00D
:101DD000030EE126C00EE56E26EC53F0E6523C0EF3
:101DE000E56E24EC78F0E652200EE56E24EC78F0F7
:101DF000E6520250E56E0150E56E0050E56ECDEC06
:101E000068F0030EE12641EC77F0006E000600500A
:101E1000E56EE5EC78F0E6523E0EE56E24EC78F0E7
:101E2000E65228D1D1C700F0D2C701F0D3C702F0E3
:101E3000140E0026000E0122022200C0E9FF01C09C
:101E4000F3FF0250BEEC76F0006EF3CF01F0F4CF5A
:101E500002F0005001100210D8B40CD1D1C700F02C
:101E6000D2C701F0D3C702F0170E0026000E0122E0
:101E7000022200C0E9FF01C0F3FF0250BEEC76F081
:101E8000006EF3CF01F0F4CF02F000500110021009
:101E9000D8B4F0D0D1C700F0D2C701F0D3C702F058
:101EA0001A0E0026000E0122022200C0E9FF01C026
:101EB000F3FF0250BEEC76F0006EF3CF01F0F4CFEA
:101EC00002F0005001100210D8B4D4D0D1C700F0F5
:101ED000D2C701F0D3C702F0140E0026000E012273
:101EE000022200C0E9FF01C0F3FF0250BEEC76F011
:101EF000006EF3CF01F0F4CF02F0F2CFE5FFF29ED7
:101F000005001E0EFD6E1F0EFE6E000EFF6EE4BE7F
:101F1000F28E02C0FBFF01C0FAFF0050F96E006EA6
:101F2000800EE56E26EC53F0E652005026E1D1C754
:101F300000F0D2C701F0D3C702F00250E56E0150A5
:101F4000E56E0050E56ECDEC68F0030EE126C00EA4
:101F5000E56E26EC53F0E652000E026E1A0E016E8C
:101F60009A0E006E0250E56E0150E56E0050E56E6F
:101F7000CDEC68F0030EE1267DD0D1C700F0D2C7CA
:101F800001F0D3C702F0170E0026000E0122022234
:101F900000C0E9FF01C0F3FF0250BEEC76F0006E16
:101FA000F3CF01F0F4CF02F00701D451E56EF2CF88
:101FB000E5FFF29E0500D20EFD6E1F0EFE6E000EB6
:101FC000FF6EE4BEF28E02C0FBFF01C0FAFF0050BC
:101FD000F96E006EF3CF01F0F4CF02F0E65202503A
:101FE000E56E0150E56E0050E56ECDEC68F0030E35
:101FF000E126C00EE56E26EC53F0E652D1C700F0A4
:10200000D2C701F0D3C702F01A0E0026000E01223B
:10201000022200C0E9FF01C0F3FF0250BEEC76F0DF
:10202000006EF3CF01F0F4CF02F00701D451E56E5A
:10203000F2CFE5FFF29E0500540EFD6E200EFE6EFF
:10204000000EFF6EE4BEF28E02C0FBFF01C0FAFF7D
:102050000050F96E006EF3CF01F0F4CF02F0E652BB
:102060000250E56E0150E56E0050E56ECDEC68F073
:10207000030EE126E4CF05F0E4CF04F0E4CF03F053
:10208000E4CF02F0E4CF01F0E4CF00F0E4CFD9FFD9
:102090001200D9CFE5FFE1CFD9FF00C0E5FF01C0B5
:1020A000E5FF02C0E5FF03C0E5FF04C0E5FF05C092
:1020B000E5FF06C0E5FF07C0E5FF08C0E5FF09C072
:1020C000E5FF0AC0E5FF0BC0E5FF0CC0E5FF0DC052
:1020D000E5FF0EC0E5FF0FC0E5FF10C0E5FF020EF3
:1020E000DBCF00F0030EDBCF01F0040EDBCF02F0FC
:1020F000050EDBCF03F0060EDBCF04F0070EDBCFBF
:1021000005F0080EDBCF06F0090EDBCF07F0086AFA
:10211000096A0A6A0B6A00500901D26F0150D36F35
:102120000250D46F0350D56F04500901D66F05508B
:10213000D76F0650D86F0750D96F0901D251D3110C
:10214000D411D51109E1D9C9E9FFD8C9F4FFD7C91C
:10215000F3FF0901D65144D10901D651D711D81145
:10216000D91109E1D5C9E9FFD4C9F4FFD3C9F3FFF7
:102170000901D25135D10901D435D535006E016A36
:102180000136026A036A016A026A036A0901D835E4
:10219000D935026E190F046E000E0320800FF36E06
:1021A0000150800FF35C02E10050045C09E2D5C9E4
:1021B000E9FFD4C9F4FFD3C9F3FF0901D25110D10B
:1021C0000050190F046E000E0120800FF36E0350B3
:1021D000800FF35C02E10250045C09E2D9C9E9FF17
:1021E000D8C9F4FFD7C9F3FF0901D651F9D00901C5
:1021F000D251046ED351056E7F0ED415066E076A58
:10220000068E0901D6510C6ED7510D6E7F0ED81572
:102210000E6E0F6A0E8E0901D551800BE844106EC8
:1022200010500AE0071E061E051E046C05E1052A73
:1022300003E1062AD8B4072A0901D951800BE844E2
:10224000106E10500AE00F1E0E1E0D1E0C6C05E1E4
:102250000D2A03E10E2AD8B40F2A0350800FF36E23
:102260000150800FF35C02E10050025C1BE202505F
:10227000005C106E03500158105032E00BE6E86C21
:10228000D8900FBED8800F320E320D320C32010FB3
:10229000F8E326D0D8900C360D360E360F36010FE7
:1022A000FAE31ED00050025C106E0150035810502B
:1022B00013E00BE6E86CD89007BED88007320632F0
:1022C00005320432010FF8E307D0D8900436053602
:1022D00006360736010FFAE302C000F003C001F032
:1022E0000C5004260D5005220E5006220F500722D6
:1022F000D88007AED89010E3071E061E051E046C9A
:1023000005E1052A03E1062AD8B4072A086A096A02
:102310000A6A800E0B6E0AD00450051006100710D2
:1023200005E1E96AF46AF36AE86A5AD00450065093
:102330000C6E07500D6E0CBE0BD00D5009E1045011
:102340000426053606360736FF0E00260122EED794
:102350000450026E0550036E06500C6E07500D6E51
:1023600010E004A006D0020E0426000E052206226C
:10237000072207340732063205320432004A012AA6
:10238000E7D70250046E0350056E7F0E0C14066EE4
:102390000D50076EE86A013000300F6E0E6A0E3283
:1023A0000C6A0C50081209120E500A120F500B1230
:1023B000045008120550091206500A1207500B1259
:1023C00008500901D26F0950D36F0A50D46F0B50D7
:1023D000D56FD5C9E9FFD4C9F4FFD3C9F3FFD251F2
:1023E000E4CF10F0E4CF0FF0E4CF0EF0E4CF0DF027
:1023F000E4CF0CF0E4CF0BF0E4CF0AF0E4CF09F027
:10240000E4CF08F0E4CF07F0E4CF06F0E4CF05F026
:10241000E4CF04F0E4CF03F0E4CF02F0E4CF01F026
:10242000E4CF00F0E4CFD9FF1200D9CFE5FFE1CF30
:10243000D9FF00C0E5FF01C0E5FF02C0E5FF03C012
:10244000E5FF04C0E5FF05C0E5FF06C0E5FF07C0E6
:10245000E5FF08C0E5FF09C0E5FF2FEC7DF0006E49
:10246000F3CF01F02EEC7EF02EEC7EF0026E0250E7
:102470001DE0000E046E390E036E240E026E090E6E
:10248000066EBF0E056E800E076E0450E56E03509B
:10249000E56E0250E56E0750E56E0650E56E05509C
:1024A000E56E83EC49F0060EE12668D10150800FFD
:1024B000810F02E1410E005C1DE2000E046E390E38
:1024C000036E2C0E026E090E066EBF0E056E800E98
:1024D000076E0450E56E0350E56E0250E56E07503E
:1024E000E56E0650E56E0550E56E83EC49F0060E8C
:1024F000E12644D10150800F810F02E1ED0E005C16
:1025000036E2011C036E001C026E024A032A000E12
:10251000E56E020EE56E0350E56E0250E56E18ECB6
:1025200054F0026EF3CF03F0040EE126000E066EA7
:10253000390E056E340E046E090E086EBF0E076E5E
:10254000800E096E0350E56E0250E56E0650E56E92
:102550000550E56E0450E56E0950E56E0850E56ED5
:102560000750E56E83EC49F0080EE126A0D0D88034
:1025700001AED89036E3011C036E001C026E024AC5
:10258000032A000EE56E020EE56E0350E56E025062
:10259000E56E18EC54F0026EF3CF03F0040EE12662
:1025A000000E066E390E056E3A0E046E090E086EA8
:1025B000BF0E076E800E096E0350E56E0250E56E89
:1025C0000650E56E0550E56E0450E56E0950E56E67
:1025D0000850E56E0750E56E83EC49F0080EE126E1
:1025E00066D00150800F800F02E1140E005C30E3D2
:1025F000000EE56E020EE56E0150E56E0050E56ED0
:1026000018EC54F0026EF3CF03F0040EE126000E36
:10261000066E390E056E400E046E090E086EBF0E72
:10262000076E800E096E0350E56E0250E56E06508F
:10263000E56E0550E56E0450E56E0950E56E0850F4
:10264000E56E0750E56E83EC49F0080EE1262FD0C9
:10265000000EE56E020EE56E0150E56E0050E56E6F
:1026600018EC54F0026EF3CF03F0040EE126000ED6
:10267000066E390E056E460E046E090E086EBF0E0C
:10268000076E800E096E0350E56E0250E56E06502F
:10269000E56E0550E56E0450E56E0950E56E085094
:1026A000E56E0750E56E83EC49F0080EE126000E5A
:1026B000E56E020EE56E0150E56E0050E56ECFEC62
:1026C00056F0006EF3CF01F0040EE1260050011029
:1026D0001DE0090E016EBF0E006E800E026E000E30
:1026E000056E390E046E4C0E036E0550E56E0450F7
:1026F000E56E0350E56E0250E56E0150E56E005048
:10270000E56E05EC55F0060EE1261CD0090E016EB3
:10271000BF0E006E800E026E000E056E390E046E46
:10272000500E036E0550E56E0450E56E0350E56EE5
:102730000250E56E0150E56E0050E56E05EC55F077
:10274000060EE126090E016EBF0E006E800E026EAF
:10275000000E056E390E046E540E036E0550E56EC4
:102760000450E56E0350E56E0250E56E0150E56ED3
:102770000050E56E05EC55F0060EE126090E016EDF
:10278000BF0E006E800E026E02C0F4FF01C0F3FFA8
:102790000050E4CF09F0E4CF08F0E4CF07F0E4CF35
:1027A00006F0E4CF05F0E4CF04F0E4CF03F0E4CF8B
:1027B00002F0E4CF01F0E4CF00F0E4CFD9FF120043
:1027C000D9CFE5FFE1CFD9FF00C0E5FF01C0E5FFAC
:1027D00002C0E5FF03C0E5FF04C0E5FF05C0E5FF5B
:1027E00006C0E5FF07C0E5FF08C0E5FF09C0E5FF3B
:1027F0000AC0E5FF0BC0E5FF0CC0E5FF0DC0E5FF1B
:102800000EC0E5FF0FC0E5FF10C0E5FF11C0E5FFFA
:10281000020EDBCF00F0030EDBCF01F0040EDBCFA6
:1028200002F0AAEC7EF0036E0F0E056E6D0E046EC4
:10283000800E066E0650E56E0550E56E0450E56E9E
:102840000250E56E0150E56E0050E56EBEEC4DF0B5
:10285000006E060EE1260050010A01E06BD003C0B5
:1028600001F0026A000E066E120E056E400E046E36
:102870000250E56E0150E56E0650E56E0550E56EBE
:102880000450E56E2EEC66F0050EE126016A035059
:10289000015CD8B04ED00150E56EC4EC50F0026E31
:1028A000F3CF04F0F4CF05F0E6520150E56EC5EC2D
:1028B0006DF0066EF3CF07F0E6520150E56EB8EC0E
:1028C00051F0086EF3CF09F0F4CF0AF0E652015050
:1028D000E56E3EEC51F00B6EF3CF0CF0F4CF0DF043
:1028E000E652000E106E120E0F6E4E0E0E6E05505A
:1028F000E56E0450E56E0250E56E0750E56E065039
:10290000E56E0A50E56E0950E56E0850E56E0D5013
:10291000E56E0C50E56E0B50E56E1050E56E0F50F5
:10292000E56E0E50E56E2EEC66F00E0EE126012AE5
:10293000AED7EAD00050020A01E07ED0016A026AF6
:102940000350025CD8B0C7D070CF04F071CF05F04F
:1029500072CF06F00250E56E3EEC51F0076EF3CFF9
:1029600008F0F4CF09F0E6520950E56E0850E56E24
:102970000750E56E0650E56E0550E56E0450E56EB5
:102980002EEC4CF0046EF3CF05F0060EE126045059
:102990000510D8A44DD00150E56EC4EC50F0046E83
:1029A000F3CF05F0F4CF06F0E6520150E56EC5EC2A
:1029B0006DF0076EF3CF08F0E6520150E56EB8EC0B
:1029C00051F0096EF3CF0AF0F4CF0BF0E65201504C
:1029D000E56E3EEC51F00C6EF3CF0DF0F4CF0EF03F
:1029E000E652000E116E120E106E4E0E0F6E065055
:1029F000E56E0550E56E0450E56E0850E56E075033
:102A0000E56E0B50E56E0A50E56E0950E56E0E500E
:102A1000E56E0D50E56E0C50E56E1150E56E1050F0
:102A2000E56E0F50E56E2EEC66F00E0EE1266CD0D2
:102A3000022A02C001F084D70050030A01E04BD003
:102A4000016A006A0350005CD8B045D070CF02F034
:102A500071CF04F072CF05F00050E56E3EEC51F0FE
:102A6000066EF3CF07F0F4CF08F0E6520850E56E9B
:102A70000750E56E0650E56E0550E56E0450E56EB4
:102A80000250E56E2EEC4CF0026EF3CF04F0060E11
:102A9000E126025004101BE10F017551E56E0F0194
:102AA0007451E56E0F017351E56E4BEC36F0026E1A
:102AB000F3CF04F0030EE1260450E56E0250E56EFC
:102AC0000150E56EB6EC42F0030EE1261DD0002A5F
:102AD00000C001F0B7D7000E026E120E016E640E38
:102AE000006E0F017251E56E0F017151E56E0F011D
:102AF0007051E56E0250E56E0150E56E0050E56ED6
:102B00002EEC66F0060EE126E4CF11F0E4CF10F0D3
:102B1000E4CF0FF0E4CF0EF0E4CF0DF0E4CF0CF0F3
:102B2000E4CF0BF0E4CF0AF0E4CF09F0E4CF08F0F3
:102B3000E4CF07F0E4CF06F0E4CF05F0E4CF04F0F3
:102B4000E4CF03F0E4CF02F0E4CF01F0E4CF00F0F3
:102B5000E4CFD9FF1200D9CFE5FFE1CFD9FF00C004
:102B6000E5FF01C0E5FF02C0E5FF03C0E5FF04C0CB
:102B7000E5FF05C0E5FF06C0E5FF07C0E5FF08C0AB
:102B8000E5FF09C0E5FF0AC0E5FF0BC0E5FF0CC08B
:102B9000E5FF0EC0E5FF0FC0E5FF020EDBCF00F042
:102BA000030EDBCF01F0040EDBCF02F0050EDBCF0E
:102BB00003F0060EDBCF04F0070EDBCF05F0080EA6
:102BC000DBCF06F0090EDBCF07F000500901DA6F0A
:102BD0000150DB6F0250DC6F0350DD6F04500901C0
:102BE000DE6F0550DF6F0650E06F0750E16F09019F
:102BF000DA51DB11DC11DD1106E00901DE51DF11D4
:102C0000E011E11105E1E96AF46AF36AE86A4CD17E
:102C10000901DD51800BE844006E0901E151800B90
:102C2000E844001A0901DC35DD35016E036A046AE7
:102C3000026A820E0126FF0E0222032204220901EB
:102C4000E035E135036E046A01C007F002C008F008
:102C500007500326085004220350016E0450026EF0
:102C60000901DA51036EDB51046E7F0EDC15056E2F
:102C7000058E0350DA6F0450DB6F0550DC6FDD6B9F
:102C80000901DE51036EDF51046E7F0EE015056E03
:102C9000058E0350DE6F0450DF6F0550E06FE16B6F
:102CA0000901DB51036EDC51046EDD51056E090133
:102CB000DF51076EE051086EE151E56AE56E08509C
:102CC000E56E0750E56EE56A0550E56E0450E56E69
:102CD0000350E56EDFEC28F0036EF3CF04F0F4CF81
:102CE00005F0E9CF06F0080EE1260901DA51076E7A
:102CF0000901DF510B6EE0510C6EE151E56AE56EA2
:102D00000C50E56E0B50E56EE56AE56AE56A075022
:102D1000E56EDFEC28F0F3CF08F0F4CF09F0E9CF4F
:102D20000AF0080EE1260850076E0950086E0A5096
:102D3000096E0A6A0750032608500422095005222A
:102D40000A5006220901DE51076E0901DB510B6EA4
:102D5000DC510C6EDD51E56AE56E0C50E56E0B50F2
:102D6000E56EE56AE56AE56A0750E56EDFEC28F096
:102D7000F3CF08F0F4CF09F0E9CF0AF0080EE1260E
:102D80000850076E0950086E0A50096E0A6A07500B
:102D9000032608500422095005220A500622400E3C
:102DA0000326000E04220522062206AE0ED0400E97
:102DB0000326000E0422052206220450036E05504D
:102DC000046E0650056E066A11D003340434036E97
:102DD000046A04360550E844FE0B04120534063438
:102DE000056E066A0636FF0E01260222059E025077
:102DF000800F7F0F02E1000E015C19E3005006E036
:102E0000076A086A096A800E0A6E04D0076A086AAF
:102E1000096A0A6A098E7F0E0A1207500901DA6FE1
:102E20000850DB6F0950DC6F0A50DD6F35D0D88059
:102E300002AED89006E30901DA6BDB6BDC6BDD6B6D
:102E40002BD0005006E0006A076A086A800E096EFF
:102E500004D0006A076A086A096AE86A0230013029
:102E60000F6E0E6A0E320C6A0C50001207120E50D2
:102E700008120F5009120050031207500412085094
:102E800005120950061203500901DA6F0450DB6F76
:102E90000550DC6F0650DD6FDDC9E9FFDCC9F4FFCA
:102EA000DBC9F3FF0901DA51E4CF0FF0E4CF0EF0F4
:102EB000E4CF0CF0E4CF0BF0E4CF0AF0E4CF09F05C
:102EC000E4CF08F0E4CF07F0E4CF06F0E4CF05F05C
:102ED000E4CF04F0E4CF03F0E4CF02F0E4CF01F05C
:102EE000E4CF00F0E4CFD9FF1200D9CFE5FFE1CF66
:102EF000D9FF00C0E5FF01C0E5FF02C0E5FF03C048
:102F0000E5FF04C0E5FF05C0E5FF06C0E5FF020ED2
:102F1000DBCF11F744EC72F099EC6FF0006EF3CF59
:102F200001F0F4CF02F0E9CF03F08094809A928A06
:102F3000010EE56EF5EC7BF0E65280AA11D0000E92
:102F4000066E6F0E056E460E046E0650E56E055059
:102F5000E56E0450E56E28EC67F0030EE1263AD0EA
:102F600080BA28D03E0EE56E4C0EE56ECC0EE56EB6
:102F7000CD0EE56E0350E56E0250E56E0150E56E34
:102F80000050E56EA8EC45F0006E080EE1260050FA
:102F900011E0000E026E6F0E016E600E006E0250A8
:102FA000E56E0150E56E0050E56E28EC67F0030E0B
:102FB000E12610D0000E026E6F0E016E780E006ECC
:102FC0000250E56E0150E56E0050E56EEAEC66F0E9
:102FD000030EE126929A010EE56EF5EC7BF0E652C7
:102FE00007011151D8A443D0080E07010F6F010E3D
:102FF0000701106F010EE56E0E0EE56E000EE56E18
:1030000045EC61F0030EE126E60EE56E070EE56E77
:10301000000EE56E45EC61F0030EE126E60EE56E6E
:10302000080EE56E000EE56E45EC61F0030EE1263C
:10303000030EE56E100EE56E000EE56E45EC61F0D8
:10304000030EE1263C0EE56E130EE56E000EE56EF6
:1030500045EC61F0030EE126C00EE56E160EE56E3E
:10306000000EE56E45EC61F0030EE126DED00701AF
:103070001151010A01E03CD0010EE56E0E0EE56E25
:10308000000EE56E45EC61F0030EE126FF0EE56EE5
:10309000100EE56E000EE56E45EC61F0030EE126C4
:1030A000000EE56E130EE56E000EE56E45EC61F068
:1030B000030EE126000EE56E160EE56E000EE56EBF
:1030C00045EC61F0030EE126600EE56E000EE56E44
:1030D00060EC6AF0E652E6520A0EE56EF5EC7BF023
:1030E000E652080E07010F6F010E0701106F9DD009
:1030F00007011151020A01E098D0010EE56E0E0E93
:10310000E56E000EE56E45EC61F0030EE126200E43
:10311000E56E0B0EE56E000EE56E45EC61F0030EFC
:10312000E1260D0EE56E0C0EE56E000EE56E45EC2B
:1031300061F0030EE126FF0EE56E100EE56E000E47
:10314000E56E45EC61F0030EE126000EE56E130E10
:10315000E56E000EE56E45EC61F0030EE126000E13
:10316000E56E160EE56E000EE56E45EC61F0030EA1
:10317000E126600EE56E000EE56E60EC6AF0E65248
:10318000E6520A0EE56EF5EC7BF0E652010EE56EB6
:103190000E0EE56E010EE56E45EC61F0030EE126C4
:1031A000200EE56E0B0EE56E010EE56E45EC61F04E
:1031B000030EE1260D0EE56E0C0EE56E010EE56EBA
:1031C00045EC61F0030EE126FF0EE56E100EE56E94
:1031D000010EE56E45EC61F0030EE126000EE56E92
:1031E000130EE56E010EE56E45EC61F0030EE1266F
:1031F000000EE56E160EE56E010EE56E45EC61F013
:10320000030EE126700EE56E010EE56E60EC6AF0CD
:10321000E652E6520A0EE56EF5EC7BF0E652100E31
:1032200007010F6F020E0701106F006A07011051AE
:10323000005C0CE2000EE56E0E0EE56E0050E56ED1
:1032400045EC61F0030EE126002AF0D70A0EE56E88
:10325000F5EC7BF0E652E4CF06F0E4CF05F0E4CFE6
:1032600004F0E4CF03F0E4CF02F0E4CF01F0E4CFC8
:1032700000F0E4CFD9FF1200D9CFE5FFE1CFD9FFAD
:1032800000C0E5FF01C0E5FF02C0E5FF03C0E5FFA8
:1032900004C0E5FF05C0E5FF06C0E5FF07C0E5FF88
:1032A00008C0E5FF09C0E5FF0AC0E5FF0BC0E5FF68
:1032B0000CC0E5FF0DC0E5FF020EDBCF00F0060EEF
:1032C000005CD8B043D1FA6AFB6A0034FA36E834BD
:1032D000FA36FC0BE40FE56E320EFA22000EFB22EA
:1032E000E450F96E7EEF19F0ABEF19F0DAEF19F058
:1032F00017EF1AF054EF1AF081EF1AF0A8EC70F003
:10330000006E016A51EC76F0026E036A000E066EE2
:103310001B0E056E620E046E010E086EE70E076E40
:10332000800E096E0150E56E0050E56E0350E56EAB
:103330000250E56E0650E56E0550E56E0450E56EF0
:103340000950E56E0850E56E0750E56E83EC49F0D4
:103350000A0EE126FBD025EC7EF0006E016A1CEC23
:103360007EF0026E036A024A032A000E066E1B0EEE
:10337000056E620E046E010E086EE70E076E800E7B
:10338000096E0150E56E0050E56E0350E56E025087
:10339000E56E0650E56E0550E56E0450E56E095089
:1033A000E56E0850E56E0750E56E83EC49F00A0EB5
:1033B000E126CCD0E6EC7DF0006E016ADDEC7DF01C
:1033C000026E036AD4EC7DF0046E056ACBEC7DF0EE
:1033D000066E076A000E0A6E1B0E096E6A0E086EF4
:1033E000010E0C6EE70E0B6E800E0D6E0150E56E39
:1033F0000050E56E0350E56E0250E56E0550E56E37
:103400000450E56E0750E56E0650E56E0A50E56E15
:103410000950E56E0850E56E0D50E56E0C50E56EF6
:103420000B50E56E83EC49F00E0EE1268FD0C2EC16
:103430007DF0006E016AB9EC7DF0026E036AB0ECBB
:103440007DF0046E056AA7EC7DF0066E076A000E3B
:103450000A6E1B0E096E6A0E086E010E0C6EE70EE8
:103460000B6E800E0D6E0150E56E0050E56E035040
:10347000E56E0250E56E0550E56E0450E56E0750AE
:10348000E56E0650E56E0A50E56E0950E56E08508F
:10349000E56E0D50E56E0C50E56E0B50E56E83EC5D
:1034A00049F00E0EE12652D0EFEC7DF0006E016A7D
:1034B000F8EC7DF0026E036A000E066E1B0E056EC0
:1034C0007C0E046E010E086EE70E076E800E096E0C
:1034D0000150E56E0050E56E0350E56E0250E56E5A
:1034E0000650E56E0550E56E0450E56E0950E56E38
:1034F0000850E56E0750E56E83EC49F00A0EE126B0
:1035000025D086EC08F0006EF3CF01F0000E046EBB
:103510001B0E036E820E026E010E066EE70E056E26
:10352000800E076E0150E56E0050E56E0450E56EAA
:103530000350E56E0250E56E0750E56E0650E56EED
:103540000550E56E83EC49F0080EE126010E016E90
:10355000E70E006E800E026E02C0F4FF01C0F3FFA2
:103560000050E4CF0DF0E4CF0CF0E4CF0BF0E4CF4B
:103570000AF0E4CF09F0E4CF08F0E4CF07F0E4CF9D
:1035800006F0E4CF05F0E4CF04F0E4CF03F0E4CF9D
:1035900002F0E4CF01F0E4CF00F0E4CFD9FF120055
:1035A000D9CFE5FFE1CFD9FF00C0E5FF01C0E5FFBE
:1035B00002C0E5FF03C0E5FF04C0E5FF05C0E5FF6D
:1035C00006C0E5FF07C0E5FF08C0E5FF09C0E5FF4D
:1035D0000AC0E5FF0BC0E5FF0CC0E5FF0DC0E5FF2D
:1035E0000EC0E5FF0FC0E5FF10C0E5FF000E026E44
:1035F0007E0E016E920E006E0250E56E0150E56E79
:103600000050E56E1DEC6FF0030EE126A4EC73F0A4
:1036100064EC7EF0006E5BEC7EF0016E49EC7EF0B7
:10362000026E83EC74F0036E02C004F0056A066A51
:10363000076AAEEC65F0086EF3CF09F0F4CF0AF03C
:10364000000E0D6E7E0E0C6E9C0E0B6E0F0E0F6E2E
:10365000200E0E6E800E106E0550E56E0450E56E65
:103660000650E56E0150E56E0750E56E0050E56EC0
:103670000A50E56E0950E56E0850E56E0D50E56E96
:103680000C50E56E0B50E56E1050E56E0F50E56E78
:103690000E50E56E83EC49F00F0EE1260F0E016E21
:1036A000200E006E800E046E0450E56E0150E56E33
:1036B0000050E56EEBEC64F0030EE12603C000F071
:1036C000016A03BE0168000E066E7E0E056EB20E24
:1036D000046E0F0E086E200E076E800E096E0150EC
:1036E000E56E0050E56E0650E56E0550E56E04503F
:1036F000E56E0950E56E0850E56E0750E56E83EC07
:1037000049F0080EE1260F0E016E200E006E800EAD
:10371000046E0450E56E0150E56E0050E56EEBEC72
:1037200064F0030EE1260250D8A459D003500C0ACD
:1037300006E1010EE56E1DEC6EF0E65236D0035048
:10374000200A06E1060EE56E1DEC6EF0E6522DD065
:103750000350210A06E1050EE56E1DEC6EF0E652FF
:1037600024D00350250A06E1070EE56E1DEC6EF02D
:10377000E6521BD00350100A0BE1010EE56E08EC77
:1037800069F0E652000EE56ED4EC37F0E6520DD04B
:103790000350110A0AE1FF0EE56E08EC69F0E652EB
:1037A000000EE56ED4EC37F0E65203500D0A17E137
:1037B0002EEC7EF0006E005006E0000EE56EFBEC95
:1037C0007AF0E65205D0010EE56EFBEC7AF0E65297
:1037D00047EC50F0000EE56ED4EC37F0E652060EE2
:1037E000025C1BE30350100A0BE1020EE56E08ECCD
:1037F00069F0E652000EE56ED4EC37F0E6520DD0DB
:103800000350110A0AE1FE0EE56E08EC69F0E6527B
:10381000000EE56ED4EC37F0E652E4CF10F0E4CFC2
:103820000FF0E4CF0EF0E4CF0DF0E4CF0CF0E4CFD6
:103830000BF0E4CF0AF0E4CF09F0E4CF08F0E4CFD6
:1038400007F0E4CF06F0E4CF05F0E4CF04F0E4CFD6
:1038500003F0E4CF02F0E4CF01F0E4CF00F0E4CFD6
:10386000D9FF1200D9CFE5FFE1CFD9FF00C0E5FFB6
:1038700001C0E5FF02C0E5FF000E026E380E016ECA
:10388000A00E006E02C0F4FF01C0F3FF0050E4CFB1
:1038900002F0E4CF01F0E4CF00F0E4CFD9FF120052
:1038A000446A756B6520507265416D706C6966691C
:1038B0006572000076302E39000031362061756760
:1038C00020323031350053746572656F20696E7037
:1038D00075743F00352E3120696E7075743F00009D
:1038E00044414320696E7075743F00005573652034
:1038F0004353333331383F0043533333313820742B
:103900007970653F00003F00796573006E6F0000BD
:103910006E6F726D616C00003178386368003278C8
:103920003863680020204D55544544002D696E666B
:10393000206442002D2532640000202D25316400D2
:10394000252B3264000020252B3164002E35000029
:103950002E30000064420000646163310000646145
:10396000633200006461633300006461633400000B
:10397000646163350000646163360000646163372D
:103980000000646163380000616E616C6F67310034
:10399000616E616C6F673200616E616C6F673300DE
:1039A000616E616C6F673400616E616C6F673500CA
:1039B000616E616C6F673600616E616C6F673700B6
:1039C000616E616C6F673800434420506C617965AB
:1039D000720044564420506C617965720000526553
:1039E000636569766572000054756E657200436F99
:1039F0006D707574657200004C6170746F700000BA
:103A000054656C65766973696F6E00004469676917
:103A100074616C20545600004361626C6500536110
:103A200074656C6C6974650054617065000056695A
:103A300064656F00417578696C6C61727900484407
:103A4000545620506C617965720048445456205297
:103A500065636F726400445652004854504300003E
:103A6000426C752D52617900526173706265727299
:103A7000792050690000656570726F6D202D3E20C1
:103A8000256420627974657300002564206279746E
:103A90006573202D3E20656570726F6D0000506F5C
:103AA000776572757020766F6C756D650000417575
:103AB000746F2D6F66662074696D6500496E66725D
:103AC00061726564206164647265737300004C43C5
:103AD000442064656C6179004C43442077696474C8
:103AE0006800766F6C2D706F776572757000746901
:103AF0006D652D6175746F2D6F66660069722D613D
:103B0000646472006C63642D64656C6179006C633D
:103B1000642D7769647468006D696E002D00313022
:103B200030757300D9CFE5FFE1CFD9FF00C0E5FFC5
:103B300001C0E5FF02C0E5FF020EDBCF00F0005040
:103B4000090DF3CF00F0016A2A0E00260A0E0122A9
:103B5000050E0026D8B0012A00C0E9FF01C0EAFF27
:103B6000EFCF00F0130E005CD8B019D1FA6AFB6AEF
:103B70000034FA36E834FA36FC0B8A0FE56E3B0E59
:103B8000FA22000EFB22E450F96EEBEF1DF0F7EF86
:103B90001DF003EF1EF00FEF1EF01BEF1EF027EFDE
:103BA0001EF033EF1EF03FEF1EF04BEF1EF057EF0D
:103BB0001EF063EF1EF06FEF1EF07BEF1EF087EF3D
:103BC0001EF093EF1EF09FEF1EF0ABEF1EF0B7EF6D
:103BD0001EF0C3EF1EF0000E026E390E016EC80E0D
:103BE000006E02C0F4FF01C0F3FF0050E3D0000EEE
:103BF000026E390E016ED20E006E02C0F4FF01C0DB
:103C0000F3FF0050D7D0000E026E390E016EDE0EAB
:103C1000006E02C0F4FF01C0F3FF0050CBD0000ED5
:103C2000026E390E016EE80E006E02C0F4FF01C094
:103C3000F3FF0050BFD0000E026E390E016EEE0E83
:103C4000006E02C0F4FF01C0F3FF0050B3D0000EBD
:103C5000026E390E016EF80E006E02C0F4FF01C054
:103C6000F3FF0050A7D0000E026E3A0E016E000E58
:103C7000006E02C0F4FF01C0F3FF00509BD0000EA5
:103C8000026E3A0E016E0C0E006E02C0F4FF01C00F
:103C9000F3FF00508FD0000E026E3A0E016E180E28
:103CA000006E02C0F4FF01C0F3FF005083D0000E8D
:103CB000026E3A0E016E1E0E006E02C0F4FF01C0CD
:103CC000F3FF005077D0000E026E3A0E016E280E00
:103CD000006E02C0F4FF01C0F3FF00506BD0000E75
:103CE000026E3A0E016E2E0E006E02C0F4FF01C08D
:103CF000F3FF00505FD0000E026E3A0E016E340EDC
:103D0000006E02C0F4FF01C0F3FF005053D0000E5C
:103D1000026E3A0E016E3E0E006E02C0F4FF01C04C
:103D2000F3FF005047D0000E026E3A0E016E4A0EAD
:103D3000006E02C0F4FF01C0F3FF00503BD0000E44
:103D4000026E3A0E016E560E006E02C0F4FF01C004
:103D5000F3FF00502FD0000E026E3A0E016E5A0E85
:103D6000006E02C0F4FF01C0F3FF005023D0000E2C
:103D7000026E3A0E016E600E006E02C0F4FF01C0CA
:103D8000F3FF005017D0000E026E3A0E016E680E5F
:103D9000006E02C0F4FF01C0F3FF00500BD0000E14
:103DA000026E390E016E060E006E02C0F4FF01C0F5
:103DB000F3FF0050E4CF02F0E4CF01F0E4CF00F0D5
:103DC000E4CFD9FF1200D8CFE5FFE0CFE5FFE56EE5
:103DD000F3CFE5FFF4CFE5FFE9CFE5FFEACFE5FF5D
:103DE000FACFE5FFFBCFE5FFD9CFE5FFE1CFD9FF64
:103DF00000C0E5FF01C0E5FF010EE56EC5EC6DF00A
:103E0000006EF3CF01F0E6520701132B130E0701EA
:103E1000135DD8A048D00701142B0701136B3C0E8B
:103E20000701145D04E30701152B0701146B80A043
:103E30001BD00701252B3C0E0701255D04E307017C
:103E4000262B0701256B3C0E0701265D04E30701C5
:103E5000272B0701266B180E0701275D1FE30701BB
:103E6000282B0701276B1AD00701212B3C0E0701D5
:103E7000215D04E30701222B0701216B3C0E0701A2
:103E8000225D04E30701232B0701226B180E0701B3
:103E9000235D04E30701242B0701236B0F0EE56E5E
:103EA0001DEC6EF0E6523D0EE56ECC0EE56ECC0ECE
:103EB000E56ECD0EE56E07011951E56E070118514B
:103EC000E56E07011751E56E07011651E56EC7EC67
:103ED00046F0016E080EE126015003E007011E2B9B
:103EE00006D007011E6B07011F6B0701206B130E25
:103EF00007011E5D17E307011F2B07011E6B3C0E18
:103F000007011F5D0FE30701202B07011F6B005006
:103F100009E007012051001805E10B0EE56E1DECCC
:103F20006EF0E652D9EC77F0006E005005E0080E16
:103F3000E56E1DEC6EF0E6526FEC75F0006E005011
:103F400005E0010EE56E1DEC6EF0E65252EC75F0E8
:103F5000006E005005E0040EE56E1DEC6EF0E652BA
:103F600035EC75F0006E005005E0050EE56E1DECB9
:103F70006EF0E65218EC75F0006E005005E0060E8B
:103F8000E56E1DEC6EF0E652FBEC74F0006E005036
:103F900005E0070EE56E1DEC6EF0E652A0EC79F040
:103FA000006E005005E0090EE56E1DEC6EF0E65265
:103FB00044EC79F0006E00500AE062EC73F0006EA1
:103FC000005005E00D0EE56E1DEC6EF0E6523BEC88
:103FD0003EF0006E005005E00C0EE56E1DEC6EF03C
:103FE000E652C2B201D0C2829E90E4CF01F0E4CF8B
:103FF00000F0E4CFD9FFE4CFFBFFE4CFFAFFE4CF3A
:10400000EAFFE4CFE9FFE4CFF4FFE4CFF3FFE450AD
:10401000E4CFE0FFE4CFD8FF1000D9CFE5FFE1CF38
:10402000D9FF00C0E5FF01C0E5FF02C0E5FF020EB9
:10403000DBCF00F00050090DF3CF00F0016A2A0E2B
:1040400000260A0E0122060E0026D8B0012A00C062
:10405000E9FF01C0EAFFEFCF00F0100E005CD8B01E
:10406000EFD0FA6AFB6A0034FA36E834FA36FC0B11
:10407000800FE56E400EFA22000EFB22E450F96E2E
:10408000C0EF20F0CCEF20F0D8EF20F0E4EF20F0EC
:10409000F0EF20F0FCEF20F008EF21F014EF21F01A
:1040A00060EF20F06CEF20F078EF20F084EF20F04C
:1040B00090EF20F09CEF20F0A8EF20F0B4EF20F07C
:1040C000000E026E390E016E580E006E02C0F4FF33
:1040D00001C0F3FF0050BFD0000E026E390E016E1A
:1040E0005E0E006E02C0F4FF01C0F3FF0050B3D0BB
:1040F000000E026E390E016E640E006E02C0F4FFF7
:1041000001C0F3FF0050A7D0000E026E390E016E01
:104110006A0E006E02C0F4FF01C0F3FF00509BD096
:10412000000E026E390E016E700E006E02C0F4FFBA
:1041300001C0F3FF00508FD0000E026E390E016EE9
:10414000760E006E02C0F4FF01C0F3FF005083D072
:10415000000E026E390E016E7C0E006E02C0F4FF7E
:1041600001C0F3FF005077D0000E026E390E016ED1
:10417000820E006E02C0F4FF01C0F3FF00506BD04E
:10418000000E026E390E016E880E006E02C0F4FF42
:1041900001C0F3FF00505FD0000E026E390E016EB9
:1041A000900E006E02C0F4FF01C0F3FF005053D028
:1041B000000E026E390E016E980E006E02C0F4FF02
:1041C00001C0F3FF005047D0000E026E390E016EA1
:1041D000A00E006E02C0F4FF01C0F3FF00503BD000
:1041E000000E026E390E016EA80E006E02C0F4FFC2
:1041F00001C0F3FF00502FD0000E026E390E016E89
:10420000B00E006E02C0F4FF01C0F3FF005023D0D7
:10421000000E026E390E016EB80E006E02C0F4FF81
:1042200001C0F3FF005017D0000E026E390E016E70
:10423000C00E006E02C0F4FF01C0F3FF00500BD0AF
:10424000000E026E390E016E060E006E02C0F4FF03
:1042500001C0F3FF0050E4CF02F0E4CF01F0E4CF5F
:1042600000F0E4CFD9FF1200D9CFE5FFE1CFD9FFAD
:1042700000C0E5FF01C0E5FF02C0E5FF03C0E5FFA8
:1042800004C0E5FF05C0E5FF06C0E5FF07C0E5FF88
:1042900008C0E5FF09C0E5FF020EDBCF00F0030E0A
:1042A000DBCF01F0040EDBCF02F0090E046E510EDD
:1042B000036E800E056E0550E56E0450E56E0350EA
:1042C000E56E0250E56E0150E56E0050E56EBEEC05
:1042D0004DF0006E060EE126020E005CD8A0B6D0AE
:1042E000000E036E130E026E380E016E0350E56E63
:1042F0000250E56E0150E56E09015651E56E090167
:104300005551E56E09015451E56E2EEC4CF0016EED
:10431000F3CF02F0060EE126015002102FE100500B
:10432000040A2CE109015951E56E09015851E56E65
:1043300009015751E56E4BEC36F0016EF3CF02F0F8
:10434000030EE12609015C51E56E09015B51E56E42
:1043500009015A51E56E4BEC36F0026EF3CF03F0D3
:10436000030EE126036A0350E56E0250E56E01502C
:10437000E56EC5EC4EF0030EE12681D0000E046E12
:10438000130E036E400E026E0450E56E0350E56E90
:104390000250E56E09015651E56E09015551E56E71
:1043A00009015451E56E2EEC4CF0026EF3CF03F090
:1043B000060EE12602500310D8A448D00050030A8C
:1043C00001E044D009015951E56E09015851E56EEB
:1043D00009015751E56E4BEC36F0006EF3CF02F059
:1043E000030EE1260050016E0150E56E86EC6CF084
:1043F000006EF3CF02F0E6520150E56EB0EC71F0C2
:10440000036EF3CF04F0F4CF05F0E652066A000E17
:10441000096E130E086E460E076E0250E56E0050D0
:10442000E56E0550E56E0450E56E0350E56E0650EE
:10443000E56E0150E56E0950E56E0850E56E0750D7
:10444000E56E2EEC66F00A0EE12619D0000E026E23
:10445000130E016E620E006E0250E56E0150E56EA5
:104460000050E56E09015351E56E09015251E56EA8
:1044700009015151E56EBCEC5DF0060EE126E4CF7A
:1044800009F0E4CF08F0E4CF07F0E4CF06F0E4CF82
:1044900005F0E4CF04F0E4CF03F0E4CF02F0E4CF82
:1044A00001F0E4CF00F0E4CFD9FF1200D8CFE5FF50
:1044B000E0CFE5FFE56EF3CFE5FFF4CFE5FFE9CF11
:1044C000E5FFEACFE5FFFACFE5FFFBCFE5FFD9CF68
:1044D000E5FFE1CFD9FF00C0E5FF01C0E5FF02C065
:1044E000E5FF03C0E5FF04C0E5FF05C0E5FF06C02A
:1044F000E5FF07C0E5FF08C0E5FF09C0E5FF0AC00A
:10450000E5FF0BC0E5FFC4CF00F00050E56EC7EC3F
:104510006BF0006EF3CF01F0F4CF02F0E9CF03F0BF
:10452000E6520350E56E0250E56E0150E56E005014
:10453000E56E3C0EE56EA00EE56E000EE56E000E1B
:10454000E56EABEC15F0006EF3CF01F0F4CF02F0A6
:10455000E9CF03F0080EE1260350E56E0250E56E48
:104560000150E56E0050E56E3C0EE56E230EE56EE3
:10457000D70EE56E0A0EE56EABEC15F0046EF3CFC8
:1045800005F0F4CF06F0E9CF07F0080EE1260701A9
:104590001D51E56E07011C51E56E07011B51E56ECB
:1045A00007011A51E56E3F0EE56E7D0EE56E700E49
:1045B000E56EA40EE56EABEC15F0086EF3CF09F0D6
:1045C000F4CF0AF0E9CF0BF0080EE1260B50E56EB0
:1045D0000A50E56E0950E56E0850E56E0750E56E2D
:1045E0000650E56E0550E56E0450E56E49EC10F09E
:1045F00007011A6FF3CF1BF7F4CF1CF7E9CF1DF7B4
:10460000080EE1263F0EE56E000EE56E000EE56E2B
:10461000000EE56E07011D51E56E07011C51E56EA8
:1046200007011B51E56E07011A51E56EA8EC45F034
:10463000046E080EE126045009E007011A6B070119
:104640001B6B07011C6B3F0E07011D6F07011D51FE
:10465000E56E07011C51E56E07011B51E56E070170
:104660001A51E56E0350E56E0250E56E0150E56E9D
:104670000050E56E91EC3DF00701166FF3CF17F790
:10468000F4CF18F7E9CF19F7080EE1269E9CE4CF86
:104690000BF0E4CF0AF0E4CF09F0E4CF08F0E4CF68
:1046A00007F0E4CF06F0E4CF05F0E4CF04F0E4CF68
:1046B00003F0E4CF02F0E4CF01F0E4CF00F0E4CF68
:1046C000D9FFE4CFFBFFE4CFFAFFE4CFEAFFE4CF6A
:1046D000E9FFE4CFF4FFE4CFF3FFE450E4CFE0FFE1
:1046E000E4CFD8FF1000D9CFE5FFE1CFD9FF00C05C
:1046F000E5FF01C0E5FF02C0E5FF03C0E5FF04C020
:10470000E5FF05C0E5FF020EDBCF00F0030EDBCFB7
:1047100001F0040EDBCF02F0090E046E240E036ECE
:10472000800E056E0550E56E0450E56E0350E56E93
:104730000250E56E0150E56E0050E56EBEEC4DF0A6
:10474000006E060EE126020E005CD8A0BDD0000E61
:10475000026E120E016EB60E006E0250E56E015032
:10476000E56E0050E56E09012951E56E09012851F9
:10477000E56E09012751E56E2EEC4CF0006EF3CF8B
:1047800001F0060EE1260050011003E116EC45F0A1
:10479000B4D0000E026E120E016EBC0E006E0250FE
:1047A000E56E0150E56E0050E56E09012951E56E98
:1047B00009012851E56E09012751E56E2EEC4CF0F8
:1047C000006EF3CF01F0060EE1260050011003E168
:1047D00038EC46F092D0000E026E120E016EC20E40
:1047E000006E0250E56E0150E56E0050E56E090165
:1047F0002951E56E09012851E56E09012751E56E41
:104800002EEC4CF0006EF3CF01F0060EE1260050C6
:10481000011003E11CEC73F070D0000E026E120E5A
:10482000016EC80E006E0250E56E0150E56E00503C
:10483000E56E09012951E56E09012851E56E09016E
:104840002751E56E2EEC4CF0006EF3CF01F0060E12
:10485000E1260050011003E114EC04F04ED0000EEC
:10486000026E120E016ED00E006E0250E56E015007
:10487000E56E0050E56E09012951E56E09012851E8
:10488000E56E09012751E56E2EEC4CF0006EF3CF7A
:1048900001F0060EE126005001102FE109012C5114
:1048A000E56E09012B51E56E09012A51E56E4BECCD
:1048B00036F0006EF3CF01F0030EE1260050E56EF6
:1048C00096EC6BF0E65219D0000E026E120E016EDD
:1048D000D60E006E0250E56E0150E56E0050E56E9A
:1048E00009012651E56E09012551E56E09012451A2
:1048F000E56EBCEC5DF0060EE126E4CF05F0E4CFFA
:1049000004F0E4CF03F0E4CF02F0E4CF01F0E4CF11
:1049100000F0E4CFD9FF1200D9CFE5FFE1CFD9FFF6
:1049200000C0E5FF01C0E5FF02C0E5FF03C0E5FFF1
:1049300004C0E5FF05C0E5FF06C0E5FF07C0E5FFD1
:1049400008C0E5FF09C0E5FF0AC0E5FF020EDBCFA6
:1049500000F00050E56E86EC6CF0016EF3CF02F0D3
:10496000E652D88002AED890D8A06AD00050E56E4A
:1049700086EC6CF0016EF3CF02F0E652021E016C81
:10498000D8B4022A000EE56E020EE56E0250E56E06
:104990000150E56ECFEC56F0016EF3CF02F0040E3D
:1049A000E1260250E56E0150E56E000EE56E050E43
:1049B000E56EA7EC60F0016EF3CF02F0040EE12685
:1049C0000050E56E86EC6CF0036EF3CF04F0E65217
:1049D000041E036CD8B4042A000EE56E020EE56EC8
:1049E0000450E56E0350E56E18EC54F0036EF3CFFF
:1049F00004F0040EE126000E076E1A0E066EB20ECB
:104A0000056E010E096EA80E086E800E0A6E025029
:104A1000E56E0150E56E0450E56E0350E56E0750FB
:104A2000E56E0650E56E0550E56E0A50E56E0950DC
:104A3000E56E0850E56E83EC49F00A0EE12661D080
:104A40000050E56E86EC6CF0016EF3CF02F0E6529A
:104A5000000EE56E020EE56E0250E56E0150E56E49
:104A6000CFEC56F0016EF3CF02F0040EE1260250B7
:104A7000E56E0150E56E000EE56E050EE56EA7ECE5
:104A800060F0016EF3CF02F0040EE1260050E56EF7
:104A900086EC6CF0006EF3CF03F0E652000EE56E8C
:104AA000020EE56E0350E56E0050E56E18EC54F012
:104AB000006EF3CF03F0040EE126000E066E1A0E10
:104AC000056EC40E046E010E086EA80E076E800EF1
:104AD000096E0250E56E0150E56E0350E56E005020
:104AE000E56E0650E56E0550E56E0450E56E095022
:104AF000E56E0850E56E0750E56E83EC49F00A0E4E
:104B0000E126010E016EA80E006E800E026E02C03C
:104B1000F4FF01C0F3FF0050E4CF0AF0E4CF09F046
:104B2000E4CF08F0E4CF07F0E4CF06F0E4CF05F0DF
:104B3000E4CF04F0E4CF03F0E4CF02F0E4CF01F0DF
:104B4000E4CF00F0E4CFD9FF1200D9CFE5FFE1CFE9
:104B5000D9FF00C0E5FF01C0E5FF02C0E5FF03C0CB
:104B6000E5FF04C0E5FF05C0E5FF020EDBCF00F066
:104B7000030EDBCF01F0040EDBCF02F0090E046E52
:104B8000330E036E800E056E0550E56E0450E56E23
:104B90000350E56E0250E56E0150E56E0050E56E83
:104BA000BEEC4DF0006E060EE126020E005CD8A0B1
:104BB000BCD0000E036E120E026EFA0E016E035090
:104BC000E56E0250E56E0150E56E09013851E56E63
:104BD00009013751E56E09013651E56E2EEC4CF0B6
:104BE000016EF3CF02F0060EE126015002101EE125
:104BF000020E016E026A0050030A10E109013B51E6
:104C0000E56E09013A51E56E09013951E56E4BEC4B
:104C100036F0016EF3CF02F0030EE1260150036E71
:104C20000350E56E08EC69F0E65298D0000E056E70
:104C3000120E046EFE0E036E0550E56E0450E56E16
:104C40000350E56E09013851E56E09013751E56EF3
:104C500009013651E56E2EEC4CF0036EF3CF04F0F3
:104C6000060EE1260350041025E1FE0E016EFF0E34
:104C7000026E0050030A16E109013B51E56E09017D
:104C80003A51E56E09013951E56E4BEC36F0036E91
:104C9000F3CF04F0030EE126041C026E031C016E28
:104CA000014A022A0150036E0350E56E08EC69F0D8
:104CB000E65254D0000E056E130E046E020E036E03
:104CC0000550E56E0450E56E0350E56E090138515C
:104CD000E56E09013751E56E09013651E56E2EEC9E
:104CE0004CF0036EF3CF04F0060EE12603500410DF
:104CF0001CE10050030A19E109013B51E56E09016D
:104D00003A51E56E09013951E56E4BEC36F0016E12
:104D1000F3CF02F0030EE1260250E56E0150E56E7E
:104D200031EC6BF0E652E65219D0000E026E130E13
:104D3000016E060E006E0250E56E0150E56E0050E9
:104D4000E56E09013551E56E09013451E56E090141
:104D50003351E56EBCEC5DF0060EE126E4CF05F0C4
:104D6000E4CF04F0E4CF03F0E4CF02F0E4CF01F0AD
:104D7000E4CF00F0E4CFD9FF1200D9CFE5FFE1CFB7
:104D8000D9FF00C0E5FF01C0E5FF02C0E5FF03C099
:104D9000E5FF04C0E5FF05C0E5FF020EDBCF00F034
:104DA000030EDBCF01F0040EDBCF02F0090E046E20
:104DB0006F0E036E800E056E0550E56E0450E56EB5
:104DC0000350E56E0250E56E0150E56E0050E56E51
:104DD000BEEC4DF0006E060EE126020E005CD8A07F
:104DE000B9D0000E026E130E016E8C0E006E0250D2
:104DF000E56E0150E56E0050E56E09017451E56EF7
:104E000009017351E56E09017251E56E2EEC4CF00B
:104E1000006EF3CF01F0060EE1260050011006E10E
:104E2000010EE56E1DEC6EF0E652ADD0000E026E86
:104E3000130E016E920E006E0250E56E0150E56E8B
:104E40000050E56E09017451E56E09017351E56E7C
:104E500009017251E56E2EEC4CF0006EF3CF01F0BB
:104E6000060EE1260050011006E1040EE56E1DEC71
:104E70006EF0E65288D0000E026E130E016E980E90
:104E8000006E0250E56E0150E56E0050E56E0901BE
:104E90007451E56E09017351E56E09017251E56EB9
:104EA0002EEC4CF0006EF3CF01F0060EE126005020
:104EB000011006E1050EE56E1DEC6EF0E65263D0C2
:104EC000000E026E130E016E9E0E006E0250E56E15
:104ED0000150E56E0050E56E09017451E56E09015F
:104EE0007351E56E09017251E56E2EEC4CF0006EC7
:104EF000F3CF01F0060EE1260050011006E1060E88
:104F0000E56E1DEC6EF0E6523ED0000E026E130E02
:104F1000016EA40E006E0250E56E0150E56E005069
:104F2000E56E09017451E56E09017351E56E0901E1
:104F30007251E56E2EEC4CF0006EF3CF01F0060ED0
:104F4000E126005001101FE1070EE56E1DEC6EF02A
:104F5000E65219D0000E026E130E016EAC0E006EFA
:104F60000250E56E0150E56E0050E56E0901715189
:104F7000E56E09017051E56E09016F51E56EBCECFB
:104F80005DF0060EE126E4CF05F0E4CF04F0E4CFB7
:104F900003F0E4CF02F0E4CF01F0E4CF00F0E4CF7F
:104FA000D9FF1200D9CFE5FFE1CFD9FF00C0E5FF5F
:104FB00001C0E5FF02C0E5FF03C0E5FF04C0E5FF57
:104FC00005C0E5FF06C0E5FF07C0E5FF08C0E5FF37
:104FD00009C0E5FF0AC0E5FF020EDBCF00F000507C
:104FE000E56E69EC72F0016EE652D88001AED890A1
:104FF000D8A06CD00050E56E69EC72F0016EE652FC
:10500000026A01BE0268021E016CD8B4022A000EB8
:10501000E56E020EE56E0250E56E0150E56ECFECD6
:1050200056F0016EF3CF02F0040EE1260250E56E59
:105030000150E56E000EE56E050EE56EA7EC60F022
:10504000016EF3CF02F0040EE1260050E56E69EC2C
:1050500072F0036EE652046A03BE0468041E036C19
:10506000D8B4042A000EE56E020EE56E0450E56E1B
:105070000350E56E18EC54F0036EF3CF04F0040E09
:10508000E126000E076E1A0E066EB20E056E010EB8
:10509000096E540E086E800E0A6E0250E56E0150C5
:1050A000E56E0450E56E0350E56E0750E56E065060
:1050B000E56E0550E56E0A50E56E0950E56E085044
:1050C000E56E83EC49F00A0EE12655D00050E56EFE
:1050D00069EC72F0016EE652020EE56E015001BEFF
:1050E000E86CE56EB6EC69F001BEE86C016EE45068
:1050F000E4500150050DF45001BE0508026EF3CFD7
:1051000001F00050E56E69EC72F0006EE652020E9E
:10511000E56E005000BEE86CE56E29EC6AF0036AAB
:1051200000BE031E006E03BE006CE450E450000E8F
:10513000066E1A0E056EC40E046E010E086E540E35
:10514000076E800E096E0250E56E0150E56E035049
:10515000E56E0050E56E0650E56E0550E56E0450B4
:10516000E56E0950E56E0850E56E0750E56E83EC7C
:1051700049F00A0EE126010E016E540E006E800EFB
:10518000026E02C0F4FF01C0F3FF0050E4CF0AF04A
:10519000E4CF09F0E4CF08F0E4CF07F0E4CF06F065
:1051A000E4CF05F0E4CF04F0E4CF03F0E4CF02F065
:1051B000E4CF01F0E4CF00F0E4CFD9FF1200D9CF63
:1051C000E5FFE1CFD9FF00C0E5FF01C0E5FF02C068
:1051D000E5FF03C0E5FF04C0E5FF05C0E5FF06C02D
:1051E000E5FF07C0E5FF020EDBCF00F0030EDBCFCB
:1051F00001F0040EDBCF02F0050EDBCF03F0060E4C
:10520000DBCF04F0070EDBCF05F0080EDBCF06F096
:10521000090EDBCF07F000500901EE6F0150EF6F70
:105220000250F06F0350F16F04500901F26F055006
:10523000F36F0650F46F0750F56F0901EE51090145
:10524000F403F4CF01F0F3CF00F000500901F86F40
:105250000150F96F0901EE510901F203F4CF01F099
:10526000F3CF00F000500901F66F0150F76F09010C
:10527000F1510901F203F3CF00F00901F9510026C1
:105280000050F96F0901F0510901F303F3CF00F069
:105290000901F95100260050F96F0901F051090187
:1052A000F203F4CF01F0F3CF00F00901F85100262A
:1052B000F95101220050F86F0150F96F0901EF51C7
:1052C0000901F303F4CF01F0F3CF00F00901F85125
:1052D0000026F95101220050F86F0150F96F0901C1
:1052E000EF510901F403F3CF00F000500901FD6F05
:1052F0000901EF510901F203F4CF01F0F3CF00F0FF
:1053000000500901FB6F0150FC6F0901EE510901CA
:10531000F503F3CF00F000500B01036F0901EE51CC
:105320000901F303F4CF01F0F3CF00F000500B01BB
:10533000016F0150026F0901FA6B0B01006B09014B
:10534000FA510901F625006E0901FB510901F72107
:10535000016E0901FC510901F821026E0901FD519C
:105360000901F921036E0050F66F0150F76F0250EA
:10537000F86F0350F96F0B0100510901F625006E1B
:105380000B0101510901F721016E0B0102510901C5
:10539000F821026E0B0103510901F921036E03C0CC
:1053A000E9FF02C0F4FF01C0F3FF0050E4CF07F0B3
:1053B000E4CF06F0E4CF05F0E4CF04F0E4CF03F04F
:1053C000E4CF02F0E4CF01F0E4CF00F0E4CFD9FF66
:1053D0001200D9CFE5FFE1CFD9FF00C0E5FF01C042
:1053E000E5FF02C0E5FF03C0E5FF04C0E5FF05C01F
:1053F000E5FF06C0E5FF07C0E5FF08C0E5FF020EB8
:10540000DBCF00F0030EDBCF01F0040EDBCF02F0A8
:10541000050EDBCF03F0060EDBCF04F0070EDBCF6B
:1054200005F000500110021006E000C0C8F701C0EE
:10543000C9F702C0CAF70701C8510701C91107011E
:10544000CA1104E1F46AF36AE86AB5D0C8C700F08B
:10545000C9C701F0CAC702F000C0E9FF01C0F3FFED
:1054600002504AEC7CF0006E00502CE0C8C700F0FF
:10547000C9C701F0CAC702F000C0E9FF01C0F3FFCD
:1054800002504AEC7CF0006E0050E56E0550E56E6F
:105490000450E56E0350E56EDDEC61F0006EF3CF75
:1054A00001F0F4CF02F0040EE126005001100210CA
:1054B00009E00701C82BCAE30701C93F02D0070171
:1054C000CA2BC4D7C8C700F0C9C701F0CAC702F0C9
:1054D000C8C706F0C9C707F0CAC708F006C0E9FF89
:1054E00007C0F3FF08504AEC7CF0066E0650D8B4B3
:1054F00049D0C8C706F0C9C707F0CAC708F006C038
:10550000E9FF07C0F3FF08504AEC7CF0066E065036
:10551000E56E0550E56E0450E56E0350E56EDDEC7A
:1055200061F0066EF3CF07F0F4CF08F0040EE12629
:105530000650071008101DE0C8C706F0C9C707F0DD
:10554000CAC708F0000EE56E06C0E9FF07C0F3FF0A
:10555000085050EC7DF00701C82B05E30701C93F57
:1055600002D00701CA2B02C0F4FF01C0F3FF0050B4
:1055700022D00701C82BACE30701C93F02D00701C5
:10558000CA2BA6D70701C86B0701C96B0701CA6BF5
:1055900000C0E9FF01C0F3FF02504AEC7CF0036E4B
:1055A000035006E002C0F4FF01C0F3FF005003D037
:1055B000F46AF36AE86AE4CF08F0E4CF07F0E4CFD6
:1055C00006F0E4CF05F0E4CF04F0E4CF03F0E4CF3D
:1055D00002F0E4CF01F0E4CF00F0E4CFD9FF1200F5
:1055E000D9CFE5FFE1CFD9FF00C0E5FF01C0E5FF5E
:1055F00002C0E5FF03C0E5FF020EDBCF00F00701AC
:10560000C33F02D00701C42B0050C10A22E180949D
:1056100080900C0EE56E26EC53F0E652010EE56E1E
:1056200026EC53F0E652800EE56E26EC53F0E6527F
:10563000000E036E110E026E820E016E0350E56EB7
:105640000250E56E0150E56ECDEC68F0030EE126E8
:10565000FF00ABA217D0000E036E110E026E940E67
:10566000016E0350E56E0250E56E0150E56EEAEC06
:1056700066F0030EE1260701C56B0701C66BAB9808
:10568000AB889ED00701C65111E0000E036E110ECB
:10569000026E9C0E016E0350E56E0250E56E0150E5
:1056A000E56EEAEC66F0030EE1268AD07B0E005C24
:1056B00001E386D0200E005C11E200500D0A0EE0DE
:1056C00000500A0A0BE00050080A08E000501B0ACC
:1056D00004E1020E0701C76F73D072D00701C751F2
:1056E00003E00701C7076CD00050080A19E1070161
:1056F000C551800F7F0FD8A03ED00701C507000E0F
:10570000036E110E026EA20E016E0350E56E025082
:10571000E56E0150E56E2EEC66F0030EE12650D0EA
:105720000701C551800F590F13E3000E036E110ED0
:10573000026EA60E016E0350E56E0250E56E01503A
:10574000E56EEAEC66F0030EE1260701C56B38D082
:10575000C5C701F00701C52B026A01BE0268B20E7F
:105760000126000E022201C0E9FF02C0EAFF00C0CC
:10577000EFFF00C0ADFF00500A0A22E10701C5514A
:10578000800F7E0F19E30701C505006E016A00BE98
:105790000168B20E0026000E012200C0E9FF01C020
:1057A000EAFF000EEF6E010E0701C66F0E0EE56EEA
:1057B0001DEC6EF0E65204D00701C56B0701C66B05
:1057C000E4CF03F0E4CF02F0E4CF01F0E4CF00F047
:1057D000E4CFD9FF1200D9CFE5FFE1CFD9FF00C058
:1057E000E5FF01C0E5FF02C0E5FF03C0E5FFD1C74B
:1057F00000F0D2C701F0D3C702F0230E0026000E3E
:105800000122022200C0E9FF01C0F3FF02504AEC6E
:105810007CF0006E005023E0D1C700F0D2C701F049
:10582000D3C702F0240E0026000E01220222070137
:10583000D451030DF3CF03F003500026E86A012290
:10584000E86A022200C0E9FF01C0F3FF0250BEEC8B
:1058500076F0006EF3CF01F0F4CF02F003D0006ACF
:10586000016A026A00500110021009E000C0D1F77D
:1058700001C0D2F702C0D3F70701D46B91D0D1C7D2
:1058800000F0D2C701F0D3C702F0140E0026000EBC
:105890000122022200C0E9FF01C0F3FF0250BEEC6A
:1058A00076F0006EF3CF01F0F4CF02F0005001105B
:1058B0000210D8B475D0D1C700F0D2C701F0D3C759
:1058C00002F0200E0026000E0122022200C0E9FF95
:1058D00001C0F3FF0250BEEC76F0006EF3CF01F092
:1058E000F4CF02F0005001100210D8B459D0D1C743
:1058F00000F0D2C701F0D3C702F0140E0026000E4C
:105900000122022200C0E9FF01C0F3FF0250BEECF9
:1059100076F0006EF3CF01F0F4CF02F0F2CFE5FFA6
:10592000F29E0500400EFD6E590EFE6E000EFF6EDB
:10593000E4BEF28E02C0FBFF01C0FAFF0050F96E18
:10594000006E00502DE0D1C700F0D2C701F0D3C7E0
:1059500002F0200E0026000E0122022200C0E9FF04
:1059600001C0F3FF0250BEEC76F0006EF3CF01F001
:10597000F4CF02F00701D451E56EF2CFE5FFF29EBD
:1059800005009E0EFD6E590EFE6E000EFF6EE4BE0B
:10599000F28E02C0FBFF01C0FAFF0050F96EE65222
:1059A00078EC0EF0E4CF03F0E4CF02F0E4CF01F0A6
:1059B000E4CF00F0E4CFD9FF1200D9CFE5FFE1CF6B
:1059C000D9FF00C0E5FF01C0E5FF02C0E5FF03C04D
:1059D000E5FF04C0E5FF05C0E5FF06C0E5FF07C021
:1059E000E5FF08C0E5FF09C0E5FF000E026E7E0E70
:1059F000016EDE0E006E0250E56E0150E56E005045
:105A0000E56E1DEC6FF0030EE1264DEC7AF0006EB2
:105A1000005001E1A8D037EC7EF0006E0050D8B401
:105A2000A2D071EC6FF0006EF3CF01F0F4CF02F072
:105A3000E9CF03F00350E56E0250E56E0150E56ECC
:105A40000050E56E410EE56E200EE56E000EE56E2F
:105A5000000EE56EABEC15F0006EF3CF01F0F4CF65
:105A600002F0E9CF03F0080EE1260350E56E025084
:105A7000E56E0150E56E0050E56EA6EC64F0006E38
:105A8000040EE12699EC6FF0016EF3CF02F0F4CF33
:105A900003F0E9CF04F00450E56E0350E56E0250C8
:105AA000E56E0150E56E410EE56E200EE56E000ECE
:105AB000E56E000EE56EABEC15F0016EF3CF02F073
:105AC000F4CF03F0E9CF04F0080EE1260450E56EB0
:105AD0000350E56E0250E56E0150E56EA6EC64F0F1
